:020000040800F2
:10000000F8220020414C0008910400089D040008DB
:10001000AF040008CB040008DF0400080000000063
:1000200000000000000000000000000011050008B2
:100030001D0500080000000029050008350500081E
:100040005B4C00085B4C00085B4C00085B4C0008F4
:100050005B4C00085B4C0008F50300085B4C000893
:100060005B4C00085B4C00085B4C000897250008BF
:100070005B4C00085B4C00085B4C00085B4C0008C4
:100080005B4C00085B4C00085B4C00085B4C0008B4
:100090005B4C00085B4C00085B4C00085B4C0008A4
:1000A0005B4C00085B4C00085B4C00085B4C000894
:1000B00017040008450400086B0400085B4C0008A6
:1000C0005B4C00085B4C00085B4C00085B4C000874
:1000D0005B4C0008051B0008371B0008691B000863
:1000E0005B4C0008370500085B4C0008DFF810D0B7
:1000F00004F0ECFD04F0B6FD004800476903000879
:10010000F822002010B503F033F84FF4803003F0EC
:100110004FF803F08CF8F74908700846007801287A
:1001200024D1002003F0C9F8002003F0D8F84FF4E0
:10013000806003F0CBF84FF4E0114FF4803003F00F
:100140009FF8012003F0A8F801211D2003F07AF99F
:1001500000BF392003F04FF80028FAD0022003F046
:100160009EF800BF03F0A4F80828FBD110BD10B51D
:100170004FF4803003F01CF803F059F8DD490870A3
:100180000846007801280FD103F086F800BF392017
:1001900003F031F80028FAD0022003F080F800BF05
:1001A00003F086F80828FBD110BD08B54FF6C04013
:1001B000ADF8000010208DF8030003208DF8020038
:1001C0006946CD4802F088FE0120ADF80000042009
:1001D0008DF803006946C94802F07EFE08BD1CB5D3
:1001E0000021084602F08CFF012004F090FB012062
:1001F000009000208DF804000C208DF805000120EF
:100200008DF80600684604F00BFB1CBD10B50120FC
:1002100004F09DFA012003F085F800BF412002F0B0
:10022000EAFF0028FAD04FF4807003F094F8012020
:1002300003F097F804F0D8FB47F6FF7004F0A6FB34
:1002400004F0CAFB0121022004F06AFB04F0C4FBA5
:1002500010BD08B500214FF0006002F057FA4FF4CE
:10026000C06002F01BFA29208DF8000000208DF8F4
:1002700001008DF8020001208DF80300684602F0AD
:1002800012FA06208DF8000000208DF80100684663
:1002900002F009FA08BD704770471FB5012104201C
:1002A00003F0D0F80121080703F0D9F8012108462E
:1002B00003F0C8F80120ADF8040004208DF8070011
:1002C00001A98E4802F008FE0021084602F018FF3E
:1002D0000120029000208DF80C0008208DF80D0000
:1002E00001208DF80E0002A804F09AFA06208DF87D
:1002F000000001208DF801008DF802008DF8030048
:10030000684602F0D0F91FBD10B502F031FF0020A1
:1003100002F04EFF012002F0B0FF00BF212002F0EA
:100320006AFF0028FAD0002002F0C7FF4FF4806077
:1003300002F0CCFF002002F0D2FF4FF4E0110020C9
:1003400002F09EFF012002F0A7FF00BF392002F05B
:1003500052FF0028FAD0022002F0A1FF00BF02F0F5
:10036000A7FF0828FBD110BD012080F3108800BF33
:10037000FFF7CAFF01F0DAFF082004F03FFD044652
:10038000002380225D4901F0FEFA04465C480460C7
:10039000006801F008FB4FF4A06002F07FF97020C4
:1003A00004F02CFD054600F066FA05465548056048
:1003B000006800F02EFE01214FF0C05003F04FF80E
:1003C0000121084603F03EF8FFF7EFFEFFF707FFB5
:1003D000FFF73FFF012004F0C9F9002080F31088E7
:1003E00000BF06E04648006801F0EBFA642001F027
:1003F000FCFFF7E710B5012004F078FA50B10120B6
:1004000004F085FA102359220021184600F06EFFEF
:1004100004F096FB10BD10B54FF0804001F016FFC0
:1004200078B14FF0804001F019FF4FF0804001F0AB
:1004300005FF3448006800F017FD4FF0804001F0E0
:10044000F5FE10BD10B5304801F000FF60B12E4838
:1004500001F004FF2C4801F0F1FE2A48006800F08A
:1004600065FD294801F0E2FE10BD10B5274801F0F6
:10047000EDFE60B1254801F0F1FE244801F0DEFEFA
:100480002048006800F0A4FD204801F0CFFE10BD18
:1004900010B51B48006801F04BFA10BD06E064205F
:1004A00001F0A3FF1648006801F08BFAF7E7144843
:1004B000006801F03DFA07E04FF4FA7001F095FF93
:1004C0000F48006801F07DFAF6E707E04FF47A7014
:1004D00001F08BFF0A48006801F073FAF6E707E0C5
:1004E0004FF4FA6001F081FF0548006801F069FAF5
:1004F000F6E7000008000020000C01400008014061
:10050000040000200000002000040040000800401B
:1005100010B51748006801F00BFA10BD10B514486B
:10052000006801F005FA10BD10B51148006801F02F
:10053000FFF910BD704710B5022004F079FAA8B198
:1005400040F6FF700B4908604FF4003004F0DFF90B
:10055000012004F03EF910B1012004F044F904F048
:100560003BFA022004F0D3F904F036FA10BD000083
:10057000040000200C0C014010B5044694F86500FE
:10058000A0B100220221104600F0A1FF01220221A9
:10059000102000F09CFF02221146202000F097FF5F
:1005A00003220221302000F092FF13E004220221F6
:1005B000002000F08CFF05220221102000F087FFB0
:1005C00002221146202000F082FF03220221302067
:1005D00000F07DFF10BD70B50446142004F00AFC45
:1005E0002060002004E000F1300122681154401C1A
:1005F0001428F8DB062004F0FDFBA060002003E0D7
:100600000021A2681154401C0628F9DB002004F8E0
:10061000640F0C2004F0F2FB054601F039FE05469C
:1006200044F8600C012060700020A070207160719F
:10063000A060E070A4F1640470BD10B5044600F041
:10064000B0FF00F015FE10BD70B50446082004F0A0
:10065000D5FB05466422110701F06EFD05462061B9
:1006600001221146206901F0F2FC0A21206901F003
:10067000FCFC082004F0C2FB05466422FB4901F0A3
:100680005BFD0546606103220121606901F0DFFC2A
:100690003221606901F0E9FC082004F0AFFB054657
:1006A0006422F34901F048FD0546A06102220121C0
:1006B000A06901F0CCFCC821A06901F0D6FC70BD96
:1006C00070B50446102004F099FB05464FF416421D
:1006D000022101F0EBFB0546E061E06901F05FFCFF
:1006E000142004F08BFB0646E16900F0F7FF064694
:1006F000206270BD10B5044601F021FF10BD70B539
:1007000004460C2004F07AFB054600234FF40072E7
:10071000D84901F070F9054660620C2004F06EFBC8
:10072000054600234FF48072D24901F064F9054672
:10073000A0620C2004F062FB054600234FF4004247
:10074000CD4901F058F90546E0620C2004F056FB53
:10075000054600234FF48042C74901F04CF9054695
:1007600020630C2004F04AFB054600234FF400529E
:10077000C14901F040F9054660630C2004F03EFBDE
:10078000054600234FF48052BB4901F034F9054679
:10079000A0630C2004F032FB054600234FF40062F6
:1007A000B54901F028F90546E0630C2004F026FB6A
:1007B000054600234FF48062AF4901F01CF905465D
:1007C00020640C2004F01AFB054600230222AA49EB
:1007D00001F011F9054660640C2004F00FFB05469A
:1007E00000230122A44901F006F90546A0640C206B
:1007F00004F004FB054600234FF480729E4901F08B
:10080000FAF80546E0640C2004F0F8FA05460023E7
:100810000822994901F0EFF8054620650C2004F004
:10082000EDFA054600232022934901F0E4F805463D
:1008300060650C2004F0E2FA0546002310228E4980
:1008400001F0D9F80546A065082004F0D7FA06465D
:1008500000238022874901F096F80646E06570BDC6
:1008600010B504460121084602F0ECFD0121834841
:1008700002F001FC10BD10B504462046FFF7F0FF62
:100880002046FFF73CFF2046FFF734FF2046FFF7E6
:1008900017FF2046FFF7D8FE2046FFF7CEFE204682
:1008A000FFF799FE0A2001F0A0FD2046FFF764FE45
:1008B000102378220021084600F018FD204610BDC4
:1008C00010B5044694F8660002281AD100206C493D
:1008D00008606C480068401C6A4908600846006867
:1008E0000F2803DD0020086084F86600062202213C
:1008F000602000F0ECFD07220221702000F0E7FDEF
:1009000024E094F8660001281AD100205D490860AF
:100910005B480068401C5A490860084600680F2878
:1009200003DD0020086084F86600082202216020B0
:1009300000F0CDFD09220221702000F0C8FD05E085
:100940001023514A0221602000F06CFD10BD70B5EB
:1009500004464E484078616A0978884224D0606A2B
:10096000007808B1012000E0002048494870606A22
:100970000078C8B9606801F0D0FC90B93121606896
:1009800001F08AFC606801F0B5FC0646606801F081
:10099000B9FC3F490D5C102332460021284600F087
:1009A000A5FCE06D01F00DF838488078A16A09785F
:1009B000884224D0A06A007808B1012000E000201D
:1009C00032498870A06A0078C8B9606801F0A5FC57
:1009D00090B93221606801F05FFC606801F08AFC28
:1009E0000646606801F08EFC29490D5C10233246F2
:1009F0000021284600F07AFCE06D00F0E2FF234879
:100A0000C078E16A0978884224D0E06A007808B1A9
:100A1000012000E000201D49C870E06A0078C8B9D4
:100A2000606801F07AFC90B93321606801F034FC11
:100A3000606801F05FFC0646606801F063FC1449E1
:100A40000D5C102332460021284600F04FFCE06D7B
:100A500000F0B7FF0D480079216B0978884239D042
:100A6000206B0078B0B1012015E0000000040040C8
:100A70000008004000080140000C01400002300066
:100A8000A00400209C040020810400208C0400208D
:100A9000004F00080020FE490871206B0078C8B99B
:100AA000606801F03AFC90B93421606801F0F4FB11
:100AB000606801F01FFC0646606801F023FCF54900
:100AC0000D5C102332460021284600F00FFCE06D3B
:100AD00000F077FFEE484079616B0978884224D0B6
:100AE000606B007808B1012000E00020E8494871FF
:100AF000606B0078C8B9606801F00FFC90B93521CF
:100B0000606801F0C9FB606801F0F4FB06466068AC
:100B100001F0F8FBDF490D5C102332460021284626
:100B200000F0E4FBE06D00F04CFFD9488079A16B48
:100B30000978884224D0A06B007808B1012000E039
:100B40000020D3498871A06B0078C8B9606801F0B3
:100B5000E4FB90B93621606801F09EFB606801F00B
:100B6000C9FB0646606801F0CDFBCA490D5C102345
:100B700032460021284600F0B9FBE06D00F021FF6D
:100B8000C348C079E16B0978884224D0E06B0078D3
:100B900008B1012000E00020BD49C871E06B007879
:100BA000C8B9606801F0B9FB90B93721606801F0FD
:100BB00073FB606801F09EFB0646606801F0A2FBD3
:100BC000B4490D5C102332460021284600F08EFB0C
:100BD000E06D00F0F6FEAE48007A216C097888429C
:100BE00024D0206C007808B1012000E00020A84942
:100BF0000872206C0078C8B9606801F08EFB90B96B
:100C00003821606801F048FB606801F073FB06461C
:100C1000606801F077FB9F490D5C1023324600218C
:100C2000284600F063FBE06D00F0CBFE9848407A68
:100C3000616C0978884224D0606C007808B101208A
:100C400000E0002092494872606C0078C8B9606882
:100C500001F063FB90B93921606801F01DFB606809
:100C600001F048FB0646606801F04CFB89490D5CC9
:100C7000102332460021284600F038FBE06D00F0DA
:100C8000A0FE83480078A16C0978884224D0A06C2B
:100C9000007808B1012000E000207D490870A06CB8
:100CA0000078C8B9606801F038FB90B930216068FD
:100CB00001F0F2FA606801F01DFB0646606801F081
:100CC00021FB74490D5C102332460021284600F0B8
:100CD0000DFBE06D00F075FE6D48807AE16C0978DF
:100CE00088421CD0E06C007808B1012000E00020B0
:100CF00067498872E06C007888B9606801F005FB8C
:100D000068B9606801F0FEFA62490D5C1023202288
:100D10000021284600F0EAFA606801F0D7FA5C4842
:100D2000C07A216D0978884216D0206D007808B10C
:100D3000012000E000205649C872206D007858B9A3
:100D400094F86500C0F1010084F865002046FFF7C3
:100D500013FC002084F866004D48007B616D097823
:100D6000884210D0606D007808B1012000E00020BA
:100D700047490873606D007828B9022084F866003E
:100D80002046FFF79DFD4248407BA16D09788842CF
:100D900010D0A06D007808B1012000E000203C498F
:100DA0004873A06D007828B9012084F866002046B9
:100DB000FFF786FD206D007830B3A06D007818B382
:100DC000606D007800B3E06C0078E8B1606A00788C
:100DD000D0B1A06A0078B8B1E06A0078A0B1206B09
:100DE000007888B1606B007870B1A06B007858B162
:100DF000E06B007840B1206C007828B1606C00781E
:100E000010B1A06C007808B90320E06670BD10B581
:100E10000446606A00F005FEA06A00F002FEE06A87
:100E200000F0FFFD206B00F0FCFD606B00F0F9FDB1
:100E3000A06B00F0F6FDE06B00F0F3FD206C00F01D
:100E4000F0FD606C00F0EDFDA06C00F0EAFDE06CE0
:100E500000F0E7FD206D00F0E4FD606D00F0E1FDC5
:100E6000A06D00F0DEFD10BD10B504460A48006814
:100E7000642802DD00200849086007480068401C1B
:100E8000054908602046FFF7C2FF204606E0000043
:100E90008C040020004F000888040020FFF757FD55
:100EA00010BD10B50446606801F02CFA022806DD7A
:100EB00010232D220021182000F018FA05E010233D
:100EC00020220021182000F011FA10BD70B5044650
:100ED00094F8650094F8661000EB8100A168087032
:100EE00094F86600D0B9002507E06068405D3038AE
:100EF000C1B2681CA26811546D1C606801F002FA4E
:100F0000A842F2DA606801F0FDF9451C04E0002116
:100F1000681CA26811546D1C052DF8DBA168206ABD
:100F200000F02BFC206A00F040FC70BD10B50446B8
:100F30002046FFF7CBFF2046FFF7B3FF10BD38B5C3
:100F4000044694F86700292808DD4A4801237F22D7
:100F5000002100906E2000F0EBFA2EE094F867007C
:100F6000272808DD444801237F22002100906E20BD
:100F700000F0DEFA21E094F86700252808DD3F48FC
:100F800001237F22002100906E2000F0D1FA14E0AE
:100F900094F86700232808DD394801237F220021C7
:100FA00000906E2000F0C4FA07E0364801237F224B
:100FB000002100906E2000F0BBFA38BD0021324ABB
:100FC000128802EB421242F3D32180F86710704777
:100FD00010B504462046FFF773FC2046FFF7EEFFEE
:100FE0002046FFF7ACFFE06E401CE066E06EC828CC
:100FF00009DD0020E06600F02DF9642001F0F5F92C
:1010000003F0D2FB04E0E06E022801DA00F014F9EC
:1010100010BD10B504460A2001F0E7F9206901F07F
:10102000FEF8606901F0FBF8A06901F0F8F810BD66
:1010300070B505464FF4803002F0BAF802F0F7F8C8
:101040000446012C0FD102F027F900BF392002F02D
:10105000D2F80028FAD0022002F021F900BF02F0F5
:1010600027F90828FBD170BD0146074A5288C2F310
:10107000071070470C0400201D0400202E040020DF
:101080003F04002050040020A80A002010B5402191
:10109000F94801F0CCFF8021F74801F0C8FF80211A
:1010A000F54801F0C6FF4021F34801F0C2FF10BD32
:1010B00010B54021F04801F0BAFF8021EE4801F060
:1010C000B8FF8021EC4801F0B2FF10BD10B54021FF
:1010D000E94801F0ACFF4021E74801F0AAFF10BD4C
:1010E0002DE9F04105462C464021E34801F0A1FFDF
:1010F000002619E0274607F08007802F04D18021C1
:10110000DD4801F094FF03E08021DB4801F091FF0E
:101110006006040E4021D84801F089FF4021D648DE
:1011200001F087FF701CC6B2082EE3DBBDE8F0813A
:1011300010B50446FFF7AAFF7820FFF7D1FFFFF7AD
:10114000C5FF0020FFF7CCFFFFF7C0FF2046FFF7E9
:10115000C7FFFFF7BBFFFFF7ABFF10BD10B504469D
:10116000FFF794FF7820FFF7BBFFFFF7AFFF4020AA
:10117000FFF7B6FFFFF7AAFF2046FFF7B1FFFFF723
:10118000A5FFFFF795FF10BD70B504460D461DB1D4
:10119000E0B2FFF7E3FF02E0E0B2FFF7C9FF70BD86
:1011A00070B50646002418E004F1B0000021FFF7F6
:1011B000EBFF00210846FFF7E7FF00211020FFF7B3
:1011C000E3FF002505E001213046FFF7DDFF681C45
:1011D000C5B2802DF7DB601CC4B2082CE4DB70BD07
:1011E00006E041F6650100E0491E0029FCD1401EE1
:1011F0000028F6D17047014605E0002001E0421CBE
:10120000D0B27B28FBDB0A00A1F10101F5D17047C8
:1012100070B504460D4605F1B0000021FFF7B4FF9C
:10122000102141EA14100021FFF7AEFF04F00F0077
:101230000021FFF7A9FF70BD10B500218D20FFF739
:10124000A3FF00211420FFF79FFF0021AF20FFF72D
:101250009BFF10BD10B500218D20FFF795FF0021E9
:101260001020FFF791FF0021AE20FFF78DFF10BD8A
:1012700070B5002418E004F1B0000021FFF784FFEE
:1012800000210846FFF780FF00211020FFF77CFFB8
:10129000002505E001210020FFF776FF681CC5B29C
:1012A000802DF7DB601CC4B2082CE4DB70BD70B588
:1012B000002418E004F1B0000021FFF765FF0021D1
:1012C0000846FFF761FF00211020FFF75DFF0025B2
:1012D00005E001210846FFF757FF681CC5B2802DC5
:1012E000F7DB601CC4B2082CE4DB70BD2DE9F047CD
:1012F00007460E469046994600250024A8F1200096
:10130000C5B27F2F02DD0027B01CC6B2B9F1100FA5
:1013100024D131463846FFF77BFF002408E004EB78
:101320000511564A505C0121FFF72EFF601CC4B224
:10133000082CF4DB701CC1B23846FFF769FF0024AB
:1013400009E004EB051108314C4A505C0121FFF71C
:101350001BFF601CC4B2082CF3DB12E03146384698
:10136000FFF756FF00240AE005EB4501444A02EB73
:101370004101085D0121FFF707FF601CC4B2062C84
:10138000F2DBBDE8F08710B50246012000E05043D3
:101390000B00A1F10104E1B2F9D110BD2DE9FF5F0D
:1013A000074691461E460E9D4FF0000A002435E088
:1013B000301B401EC1B20A20FFF7E5FFB9FBF0F079
:1013C0000A21B0FBF1F201FB1208BAF1000F14D1AF
:1013D000701EA04211DDB8F1000F0CD1AB4605EB39
:1013E000DB71491001FB0471C8B22B462022019920
:1013F000FFF77CFF10E04FF0010AAB4605EBDB7115
:10140000491001FB0471C8B208F13001CAB22B4681
:101410000199FFF76BFF00BF601CC4B2B442C7DB89
:10142000BDE8FF9F2DE9F04104460F46154698465A
:1014300000260FE0AA5D434639462046FFF756FFD7
:1014400004F10800C4B2782C02DD0024B81CC7B235
:10145000701CC6B2A85D0028ECD1BDE8F0812DE972
:10146000F04180460E461546002731464046FFF7BC
:10147000CFFE002411E00000000C014037510008AD
:101480000F4F0008904A02EB8511085D0121FFF71C
:101490007BFE781CC7B2601CC4B2102CF2DB701C3F
:1014A000C1B24046FFF7B4FE00240CE06900491CBD
:1014B000854A02EB4111085D0121FFF765FE781CAA
:1014C000C7B2601CC4B2102CF0DBBDE8F0812DE97E
:1014D000F04180460E461546002731464046FFF74C
:1014E00097FE00240AE0794A02EB8511085D01218C
:1014F000FFF74AFE781CC7B2601CC4B2102CF2DBA6
:10150000701CC1B24046FFF783FE00240CE0690066
:10151000491C6E4A02EB4111085D0121FFF734FEC0
:10152000781CC7B2601CC4B2102CF0DBBDE8F0819F
:101530002DE9F05F06460F4690461C46DDF828A0D0
:101540004FF0000BE11704EB5171C910B4EBC1016E
:1015500005D12046E11704EB5171CD1005E020467E
:10156000E11704EB5171C9104D1C3D4615E02946A9
:101570003046FFF74DFEB1460BE059460BF1010B2B
:101580001AF801000121FFF7FFFD09F1010000F049
:10159000FF09C145F1DB681CC5B2A542E7DBBDE828
:1015A000F09F08B50121082001F04CFF40F6CA1059
:1015B000ADF8000010208DF8030003208DF8020024
:1015C0006946434801F088FC40F6CA11404801F0E2
:1015D0002EFD0320ADF8000069463E4801F07CFC7A
:1015E00003213C4801F023FD4FF40040ADF800001A
:1015F0006946394801F070FC4FF40041364801F06B
:1016000016FD4FF47A70FFF7F6FD0021AE20FFF7CC
:10161000BBFD00214020FFF7B7FD0021B020FFF700
:10162000B3FD0021C820FFF7AFFD00218120FFF7A7
:10163000ABFD0021FF20FFF7A7FD0021A120FFF750
:10164000A3FD0021A620FFF79FFD0021A820FFF7A2
:101650009BFD00211F20FFF797FD0021D320FFF7FE
:1016600093FD00210846FFF78FFD0021D520FFF7ED
:101670008BFD0021F020FFF787FD0021D920FFF727
:1016800083FD00212220FFF77FFD0021DA20FFF7F4
:101690007BFD00210220FFF777FD0021DB20FFF713
:1016A00073FD00214920FFF76FFD00218D20FFF71A
:1016B0006BFD00211420FFF767FD0021AF20FFF72D
:1016C00063FDFFF7D5FD08BDA40400202408002019
:1016D000000C0140001001400020014070B504469C
:1016E0000D465F4820606560082003F087FB0646D2
:1016F0000C2100F0B7F80646A0600C2003F07AFB3E
:10170000E0600C2003F076FB2061002003E0002164
:10171000E2681154401C0C28F9DB002003E0002192
:1017200022691154401C0C28F9DBA420E1680870E0
:101730000120E16848708020E1688870204670BD13
:1017400070B5044646482060A06828B1A06800F043
:10175000C1F8054603F04AFBE06803F043FB20694B
:1017600003F040FB204670BD70B504462046FFF7ED
:10177000E7FF054603F03AFB70BD70B50A4600234B
:10178000002104E0555CCC1CC6683555491C06296F
:10179000F8DB002104E0C468645C1C44E3B2491C2B
:1017A0000B29F8DBC168CB7270BD10B504460C2262
:1017B000E168606800F0D0FB10BD2DE9F0410446FF
:1017C0000025002742E0606800F0B4FB0646314681
:1017D000A06800F0A9F8A06800F09BF8A06800F0ED
:1017E00094F8A52832D105F1A500C5B2A06800F093
:1017F00090F8A06800F089F8012823D1002608E0BD
:10180000A06800F082F82844C5B2A06800F081F812
:10181000761C0A2EF4DBA06800F077F8A8420DD100
:10182000002608E0A06800F074F8A06800F06DF8E9
:1018300021698855761C0C2EF4DB0127A06800F086
:1018400068F802E0A06800F068F80025606800F021
:1018500044FB08B1002FB6D03846BDE8F081000047
:10186000305700082DE9F04104460D46012D04DAF9
:10187000002060602046BDE8F08125600C2003F068
:10188000BDFA064600231A46194603F0A7FA064693
:1018900060606068406060688060002715E00C2030
:1018A00003F0ACFA80466068024600214368404677
:1018B00003F094FA80466068C0F80480606840686D
:1018C00061684968496888607F1C681EB842E6DC28
:1018D0002046D0E72DE9F04105466868446807E0F6
:1018E000666824B100BF2746384603F07FFA3446C5
:1018F0006868A042F4D1686820B1686800BF0746F4
:1019000003F074FA2846BDE8F08101464868007883
:101910007047416849684160704741688968416023
:1019200070470146086870474268117070470000B0
:1019300010B50446A07920B1A188206801F079FB98
:1019400003E0A188206801F072FB10BD10B50446C9
:101950002349206888420CD1A088012802D0A088A1
:10196000022806D1A08810220321236800F040FE3F
:1019700005E0A08810220121236800F039FE2046EE
:10198000FFF7D6FF10BD2DE9F04104460F4615467E
:101990001E462760A580A6712046FFF7D7FF204688
:1019A000BDE8F081704710B50446A07920B1A18848
:1019B000206801F03CFB03E0A188206801F039FBBE
:1019C00010BD70B50446A188206801F023FBC0F16A
:1019D0000100C5B2A1882A46206801F02CFB70BD29
:1019E0000014014010B50446208948220221636892
:1019F00000F0FEFD10BD2DE9F04104460F461546EE
:101A00001E460020E07267602581A67201202070CA
:101A10002046FFF7E7FF2046BDE8F0810021416046
:101A2000704770B50446A07A48B12189606801F01A
:101A3000E4FA08B9012000E00020054604E021890D
:101A4000606801F0DAFA05462078A84209D0E07A09
:101A5000401CE072E07A012805DD25700020E0726C
:101A600001E00020E07270BD10B5044694F8480013
:101A700000B910BDB4F85010E06C01F0D8FA00BF06
:101A8000F7E72DE9F0410446251D94F8478095F8C5
:101A90004200404506D12068868926F080062068ED
:101AA000868110E02046FFF7DFFF94F8471005F12C
:101AB0002000475C2068878095F84300401C00F0B8
:101AC0001F0085F84300BDE8F081F0B501460B1D0D
:101AD00093F84000401C00F01F0493F84150086840
:101AE0008088C6B2AC4201D1002206E0012291F802
:101AF0004470081DC65581F844400AB10120F0BD6C
:101B00000020FCE710B540F22551F74802F0D0FD67
:101B100038B140F22551F44802F0F4FDF348FFF7E4
:101B2000D4FF40F22771F04802F0C2FD10B1EF4837
:101B3000FFF7A7FF10BD10B540F22551EC4802F0A9
:101B4000B7FD38B140F22551E94802F0DBFDE94824
:101B5000FFF7BBFF40F22771E54802F0A9FD10B185
:101B6000E448FFF78EFF10BD10B540F22551E24862
:101B700002F09EFD38B140F22551DF4802F0C2FD6F
:101B8000DE48FFF7A2FF40F22771DB4802F090FD2C
:101B900010B1DA48FFF775FF10BD10B540F22551BE
:101BA000D74802F085FD38B140F22551D44802F003
:101BB000A9FDD448FFF789FF40F22771D04802F011
:101BC00077FD10B1CF48FFF75CFF10BD10B540F2B4
:101BD0002551CD4802F06CFD38B140F22551CA487C
:101BE00002F090FDC948FFF770FF40F22771C64828
:101BF00002F05EFD10B1C548FFF743FF10BD0021A4
:101C000080F84810C164A0F850100160002280F8EC
:101C1000452080F8442080F8472080F8462070470F
:101C2000014691F84600401C00F01F0291F8473031
:101C30009A4201D0012070470020FCE7014691F84C
:101C4000462091F847309A4201D001207047002089
:101C5000FCE72DE9F04104460F46261D2046FFF71C
:101C6000DFFF8046B8F1000F0FD096F8425006F122
:101C700020004755681C00F01F0086F84200012232
:101C800040F22771206802F02EFC4046BDE8F0814A
:101C9000014691F8442091F845309A4201D0012044
:101CA00070470020FCE70246111D91F84130C85CE6
:101CB00091F841305B1C03F01F0381F841307047FD
:101CC00010B5044694F8480000B910BDB4F850109F
:101CD000E06C01F0AEF900BFF7E72DE9FF410746E0
:101CE0000C4615461E46684602F0CEFB00950020C5
:101CF000ADF80400ADF80600ADF80800ADF80C0032
:101D0000ADF80A606946204602F055FBBDE8FF8148
:101D100010B504466068006800B910BD61680868C5
:101D2000002102F0D4FB00BFF7E770B50446A568B8
:101D30002046FFF7EDFF062D6BD2DFE805F06A03C2
:101D4000192E4859012144F2010001F07BFB0021CA
:101D5000042001F090F96E4B04220321100200F0E0
:101D600047FC6B4B18220321581500F041FC50E052
:101D70000121684801F073FB0021082001F07BF984
:101D8000634B04220321082000F032FC604B182230
:101D90000321042000F02CFC3BE001215E4801F00F
:101DA0005EFB00215D4801F066F900215B482030B0
:101DB00001F061F95A4B04220321500200F018FC93
:101DC000574B18220321181500F012FC21E00121C5
:101DD000544801F044FB544B04220321500200F00C
:101DE00007FC514B18220321181500F001FC10E0EC
:101DF00001214E4801F033FB4D4B042203211046D4
:101E000000F0F6FB484B18220321981400F0F0FB79
:101E100000BF00BF70BD10B50446A06806282CD2D4
:101E2000DFE800F02B030B131B23304860602E48C3
:101E3000616808602520206020E02E4860602C4802
:101E4000616808602620206018E02C4860602A48FD
:101E5000616808602720206010E02A4860602848F8
:101E6000616808603420206008E0284860602648E7
:101E7000616808603520206000E000BF00BF204698
:101E8000FFF753FF20780022114600F09FFBE26825
:101E900060680C2301682046FFF71FFF616801227C
:101EA000086840F2255102F01EFB10BD70B50446D3
:101EB0000E461546A660E5602046FFF7ACFF2046BB
:101EC00070BD10B504462046FFF722FF0020606079
:101ED000204610BD01468868704710B5044660680A
:101EE000FFF7D6FE10BD000000380140E80A0020D0
:101EF000004400403C0B002000480040900B0020B4
:101F0000004C0040E40B002000500040380C002042
:101F1000000801400100020001000400100014004C
:101F2000000C0140010008000010014001001000F9
:101F30000014014010B504466068FFF7B4FE10BD00
:101F400070B504460D4629466068FFF782FE08B169
:101F5000012070BD0020FCE72DE9F04107460D4649
:101F60001646002407E000BF295D3846FFF7E8FF6A
:101F70000028F9D0641CB442F5DBBDE8F08170B5EF
:101F800005460C4607E000BF21782846FFF7D8FF3A
:101F90000028F9D0641C20780028F4D170BD10B559
:101FA00004466068006800B910BD616808680121D6
:101FB00002F08DFA00BFF7E770B504460D461646ED
:101FC0000120616881F848006068C5646068A0F815
:101FD00050606168B1F850001022CB6C032100F012
:101FE00007FB70BD2DE9F04104460D4616462F460D
:101FF000B04620784246394600F0E8FABDE8F08164
:1020000000B50948FFF7FBFD0848FFF7F8FD084851
:10201000FFF7F5FD0748FFF7F2FD0748FFF7EFFD73
:102020000648FFF7ECFD00BDE80A00203C0B00204D
:10203000900B0020E40B0020380C00208C0C0020BA
:1020400010B504460021606801F094FE10BD2DE932
:10205000F04104460D4616462F46B04620784246CB
:10206000394600F0B3FABDE8F0812DE9FE4305469C
:102070000C464FF0000800260027012C01DABDE8CD
:10208000FE83002C03DD052C01DAE02733E0042C6D
:1020900004DD0A2C02DA40F2C1172CE0092C04DD21
:1020A000322C02DA40F2833725E0312C04DD642C37
:1020B00002DA40F207771EE0632C05DDB4F5FA7F03
:1020C00002DA40F60F6716E0B4F5FA7F06DB40F659
:1020D000B830844202DA41F61F470CE040F6B730D0
:1020E000844206DD41F28830844202DA43F63F073B
:1020F00001E048F69F475D486043791C90FBF1F092
:10210000461EB0B2ADF80400ADF800700020ADF886
:102110000600ADF802008DF808806946686801F095
:10212000CDFA0121686802F0EBF8012211466868D7
:1021300001F03BFE00BFA2E770B504460E4615460F
:1021400066606068B0F1804F06D11C2020600121DC
:10215000084601F084F94AE045496068884206D1A2
:102160001D2020600121022001F079F93FE0414962
:102170006068884206D11E2020600121042001F001
:102180006EF934E03C496068884206D13220206014
:102190000121082001F063F929E03849606888428C
:1021A00006D1362020600121102001F058F91EE0F0
:1021B00033496068884206D1372020600121202001
:1021C00001F04DF913E02F496068884201D12046A3
:1021D00070BD2D496068884201D12046F8E72B493F
:1021E0006068884201D12046F2E72046F0E72946A0
:1021F0002046FFF73AFF002211462046FFF727FF4F
:102200002046FFF71DFF2046E2E710B504462046B2
:10221000FFF716FF606802F0E9FD204610BD10B51B
:1022200004460121606801F0A5FD10BD70B50446AB
:1022300025460121284601F09DFD70BD70B504467C
:1022400025460021284601F095FD70BD70B5044675
:1022500025460121284602F056F870BD70B50446A7
:1022600025460121284602F05FF870BD40190100A3
:102270000004004000080040000C00400010004036
:102280000014004000180040001C004000200040E6
:102290004FF0FF318160704702469068042801D1F9
:1022A000002070479068401C906090681154012095
:1022B000F7E702469068401C00D170479068105CB8
:1022C00008709068401E90600120F6E7014688681B
:1022D000401C00D170478A68501E8860885CF9E70E
:1022E00002469068401C00D170479068105C0870EE
:1022F0000120F9E701468868401C00D170478868D2
:10230000085CFBE701468868704701468868401C06
:1023100001D1012070470020FCE7014688680428AD
:1023200001D1012070470020FCE7000010B56FF0DC
:10233000040000F003FA384800683849B0FBF1F0B7
:10234000374908700846007800EB4001C1EBC01027
:102350004FF6FF7101EAC0003249088010BD014606
:102360002F4A12784A434FF0E0235A6100229A61C3
:102370001A46126942F001021A6100BF4FF0E022D2
:10238000106910F0010F02D010F4803FF6D04FF02A
:10239000E022126922F001024FF0E0231A610022CC
:1023A0009A61704701461F4A12884A434FF0E02362
:1023B0005A6100229A611A46126942F001021A61BA
:1023C00000BF4FF0E022106910F0010F02D010F4AE
:1023D000803FF6D04FF0E022126922F001024FF068
:1023E000E0231A6100229A61704770B504464FF4E9
:1023F0007A70B4FBF0F6B4FBF0F100FB114504E099
:102400004FF47A70FFF7CEFF761E002EF8D115B18B
:102410002846FFF7C7FF70BDC00A002000127A00EF
:10242000A40A0020A60A002000B585B04FF4804021
:1024300000F06FFF0121480201F004F80020009035
:1024400001208DF804008DF805004FF46020029003
:102450000020039001208DF810006946534800F0D9
:10246000B2F9002000F06CFB0523012211464F4811
:1024700000F041FA01214D4800F0DCF901214B4800
:1024800000F0CDF9494800F0ECF900BF474800F0F2
:10249000EDF90028FAD1454800F0F2F900BF4348B1
:1024A00000F0F3F90028FAD10121404800F0F7F9D3
:1024B00005B000BD00B58DB00121084600F0B5FFA4
:1024C0003B4800F081FB39484C300290394803907A
:1024D000002004900A20059000200690802007909C
:1024E000400008908000099020200A9000020B9084
:1024F00000200C9002A92E4800F008FC01220221C5
:102500002B4800F03AFC0B208DF8040002208DF8D7
:1025100005008DF8060001208DF8070001A800F0E5
:10252000C2F80121224800F01CFC0DB000BD10B51E
:10253000214B00220321022000F05AF810BD10B5F3
:10254000FFF7F5FFFFF7B6FFFFF76EFF0121174812
:1025500000F065F90121154800F0A1F910BD10B592
:102560000022002014E0002107E0124B03EB41039E
:1025700033F810301A444B1CD9B20A29F5DB0A2370
:1025800092FBF3F30D4C24F810300022431CD8B218
:102590000128E8DB10BD10B5022000F01BFC20B1C3
:1025A000FFF7DDFF022000F028FC10BD00240140F1
:1025B00008000240E00C002000080140A80A0020AA
:1025C00010B54FF4A06000F069F810BDF8B50646EC
:1025D0000C4615468DF800608DF801408DF80250CC
:1025E00001208DF80300684600F05DF8F8BD00009A
:1025F000F8B505460E4617461C462148844204D1CC
:102600000121042000F01EFF2EE01E48844204D168
:102610000121082000F016FF26E01B48844204D167
:102620000121102000F00EFF1EE01848844204D162
:102630000121202000F006FF16E01548844204D155
:102640000121402000F0FEFE0EE01248844204D139
:102650000121802000F0F6FE06E00F48844203D1FD
:102660000121801500F0EEFEADF800508DF80370EA
:102670008DF802606946204600F02EFCF8BD00008F
:1026800000080140000C014000100140001401400E
:1026900000180140001C0140002001403149014365
:1026A000314A1160704770B5002100230F22C478B1
:1026B0000CB32D4C246804F4E064C4F5E064210AF2
:1026C000C1F10403CA40447804FA03F18478144049
:1026D00021430901254C0678A155047804F01F0513
:1026E0000124AC4005786D114FF0E02606EB85051E
:1026F000C5F8004109E0047804F01F050124AC404E
:102700001B4D0678761145F8264070BD194A0A40DF
:102710000243154B1B1F1A60704739B1124A121D34
:1027200012680243104B1B1D1A6006E00E4A121D70
:10273000126882430C4B1B1D1A607047042808D195
:102740004FF0E021096941F004014FF0E0221161EE
:1027500007E04FF0E021096921F004014FF0E02289
:10276000116170470000FA050CED00E000E400E0A4
:1027700080E100E080FFFF1F10B50446FA48844264
:1027800008D10121401500F077FE0021601500F00E
:1027900073FE17E0F548844208D10121001500F0CE
:1027A0006BFE0021201500F067FE0BE0F04884422C
:1027B00008D10121C80300F05FFE00214FF4004062
:1027C00000F05AFE10BD30B50246002000235068CC
:1027D000E84C20400D790C6844EA05242043506001
:1027E0009068E54C2040D1E902542C434D7944EAED
:1027F000450420439060D06A20F470000C7C641E75
:10280000E4B2234340EA0350D06230BD00210160AE
:10281000017141718160C16001210174704721B172
:10282000826842F00102826003E0826822F00102C5
:102830008260704721B1826842F48072826003E056
:10284000826822F480728260704710B50023CBB298
:102850001AB144681C43446002E044689C434460ED
:1028600010BD816841F00801816070470146002079
:102870008A6812F0080F01D0012000E000207047A4
:10288000816841F0040181607047014600208A6838
:1028900012F0040F01D0012000E00020704721B1A8
:1028A000826842F4A002826003E0826822F4A002FF
:1028B00082607047014600208A6812F4800F01D0C0
:1028C000012000E00020704710B50A4600210023D7
:1028D000416821F46041531E41EA4331416010BD1B
:1028E00021B1426842F40062426003E0426822F48F
:1028F000006242607047F0B504460D46002000219A
:10290000092D11DDE068A5F10A0606EB460707264A
:1029100006FA07F18843A5F10A0606EB460603FA14
:1029200006F10843E0600CE0206905EB4507072647
:1029300006FA07F1884305EB450603FA06F108435A
:102940002061072A0FDA606B561E06EB86071F26EA
:1029500006FA07F18843561E06EB860605FA06F1CD
:102960000843606322E00D2A0FDA206BD61F06EBC6
:1029700086071F2606FA07F18843D61F06EB860650
:1029800005FA06F10843206310E0E06AA2F10D06A3
:1029900006EB86071F2606FA07F18843A2F10D060B
:1029A00006EB860605FA06F10843E062F0BD21B1A8
:1029B000826842F48012826003E0826822F480120E
:1029C000826070470146C86C80B2704766484C30E0
:1029D0000068704721B1426842F48062426003E0BF
:1029E000426822F480624260704721B1426842F43A
:1029F0008052426003E0426822F480524260704795
:102A00000A460021816821F4E0411143816070474A
:102A100021B1826842F40042826003E0826822F4BD
:102A200000428260704721B1826842F402128260E3
:102A300003E0826822F4021282607047014600209F
:102A40008A6812F4001F01D0012000E000207047C6
:102A5000F0B504461546002000220026092911DDA4
:102A6000E068A1F10A0707EB470C072707FA0CF209
:102A70009043A1F10A0707EB470703FA07F2104357
:102A8000E0600CE0206901EB410C072707FA0CF22B
:102A9000904301EB410703FA07F210432061A06B5A
:102AA000C0F30156EF1C06F1010CA7EB0C0707EB76
:102AB000870C1F2707FA0CF29043EF1C06F1010C5C
:102AC000A7EB0C0707EB870701FA07F21043A06397
:102AD000F0BD10B50A4600210023816B21F440119E
:102AE000531E41EA0351816310BD08B500230093D2
:102AF0000090009B0B440093009B1A6008BD08B532
:102B0000024600200090009201F12800009B18442A
:102B100000900098006880B208BD0A460021416814
:102B2000164B194011434160704741628262704701
:102B30000A460021416821F01F011143416070479E
:102B400040B109490831096841F40001064A0832D8
:102B5000116007E004490831096821F40001024AC4
:102B60000832116070470000002401400028014035
:102B7000003C0140FFFEF0FFFDF7F1FFFFFD3FFFCE
:102B80000246002013680B4201D0012000E0002023
:102B90007047CA430260704770B5024600200023A8
:102BA00000240B125568CEB205EA060415681D42D2
:102BB00002D00CB1012000E0002070BD00220A12FA
:102BC000D34303607047000001684FF6FE72114066
:102BD00001600021016041608160C1608C498842D0
:102BE00008D18B490839496841F00F01884A083AF1
:102BF00051608AE086491431884208D184490839F5
:102C0000496841F0F001824A083A51607DE080490C
:102C10002831884208D17E490839496841F47061F9
:102C20007B4A083A516070E079493C31884208D1CA
:102C300077490839496841F47041754A083A51604A
:102C400063E073495031884208D1714908394968B5
:102C500041F470216E4A083A516056E06C49643183
:102C6000884208D16A490839496841F47001684AC4
:102C7000083A516049E066497831884208D1644990
:102C80000839496841F07061614A083A51603CE096
:102C90006049884206D1011F096841F00F01021FF7
:102CA000116032E05B491431884208D15949091F4B
:102CB000096841F0F001574A121F116025E055499B
:102CC0002831884208D15349091F096841F47061CD
:102CD000504A121F116018E04E493C31884208D119
:102CE0004C49091F096841F470414A4A121F11609A
:102CF0000BE048495031884207D14649091F09680D
:102D000041F47021434A121F1160704710B5002230
:102D1000026847F6F0739A430C6A8B6823430C6988
:102D200023434C6923438C692343CC6923434C6A76
:102D300023438C6A23431A430260CB6843600B68C9
:102D400083604B68C36010BD0021016041608160F9
:102D5000C160016141618161C16101624162816261
:102D6000704721B1026842F00102026004E002688B
:102D70004FF6FE731A40026070471AB103680B43A6
:102D8000036002E003688B43036070474160704753
:102D90000146486880B2704701460020002211F0C9
:102DA000805F03D01B4B083B1A6802E0184B083BBE
:102DB0001A680A4201D0012000E00020704710F09C
:102DC000805F03D01349091F086002E010490839E9
:102DD0004860704701460020002211F0805F03D058
:102DE0000C4B083B1A6802E0094B083B1A680A4280
:102DF00001D0012000E00020704710F0805F03D078
:102E00000449091F086002E0014908394860704719
:102E1000080002400804024010B50446CA48844233
:102E200008D10121042000F027FB0021042000F03C
:102E300023FB46E0C548844208D10121082000F068
:102E40001BFB0021082000F017FB3AE0C048844239
:102E500008D10121102000F00FFB0021102000F00C
:102E60000BFB2EE0BB48844208D10121202000F05A
:102E700003FB0021202000F0FFFA22E0B648844244
:102E800008D10121402000F0F7FA0021402000F095
:102E9000F3FA16E0B148844208D10121802000F005
:102EA000EBFA0021802000F0E7FA0AE0AC48844207
:102EB00007D10121801500F0DFFA0021A01500F0F4
:102EC000DBFA10BD10B50121084600F0D5FA00214B
:102ED000012000F0D1FA10BD2DE9F0410246002595
:102EE0000026002000230024002791F803C00CF0E6
:102EF0000F0591F803C01CF0100F03D091F802C029
:102F00004CEA050591F800C0BCF1000F31D01468FF
:102F100000202BE04FF0010C0CFA00F3B1F800C0D8
:102F20000CEA03069E4220D183004FF00F0C0CFAEE
:102F300003F7BC4305FA03FC4CEA040491F803C010
:102F4000BCF1280F06D14FF0010C0CFA00FCC2F8BE
:102F500014C00AE091F803C0BCF1480F05D14FF04E
:102F6000010C0CFA00FCC2F810C0401C0828D1D398
:102F70001460B1F800C0BCF1FF0F34DD54680020CC
:102F80002EE000F1080C4FF0010808FA0CF3B1F83C
:102F900000C00CEA03069E4221D183004FF00F0CC3
:102FA0000CFA03F7BC4305FA03FC4CEA040491F85D
:102FB00003C0BCF1280F05D100F1080C08FA0CF889
:102FC000C2F8148091F803C0BCF1480F07D100F19A
:102FD000080C4FF0010808FA0CF8C2F81080401CE9
:102FE0000828CED35460BDE8F0814FF6FF71018010
:102FF000022181700421C17070470246002093684D
:103000000B4201D0012000E0002070470146886893
:1030100080B2704702460020D3680B4201D00120E5
:1030200000E0002070470146C86880B27047016127
:103030007047416170470AB1016100E0416170472A
:10304000C16070474FF480320A43826181618261BE
:1030500082698269704702460020424B18684FF629
:103060008073184040EA021008433E4B18607047D6
:103070003D49C8617047F0B50A460023002400218D
:10308000002500F00046B6F1004F02D1354EF1693F
:1030900001E0344E7168C0F3034583B200F440167A
:1030A000B6F5401F08D121F070612E4E766826F0EB
:1030B00070662C4F7E6012E000F48016B6F5801F1B
:1030C00006D1032606FA05F4A14341F0706106E03B
:1030D000460D360103FA06F6B14341F0706122B1A4
:1030E000460D360103FA06F6314300F00046B6F10C
:1030F000004F02D11B4EF16101E01A4E7160F0BD2C
:1031000030B500228B071C0F0F2303FA04F2154B76
:1031100008338C1053F824309343124C08348D102C
:1031200044F8253023468C1053F824308C07240FA4
:1031300000FA04F423430B4C08348D1044F8253076
:1031400030BD0A490860704700080140000C01408A
:10315000001001400014014000180140001C014013
:10316000002001400000014000002042DC0020421D
:10317000DD48006840F00100DB490860084640680F
:10318000DA490840D849486008460068D8490840EC
:10319000D54908600846006820F480200860084689
:1031A000406820F4FE0048604FF41F0088607047BC
:1031B000CD49096821F48031CB4A11601146096874
:1031C00021F480211160B0F5803F03D0B0F5802F4D
:1031D0000ED106E0C449096841F48031C24A116049
:1031E00007E0C149096841F4A021BF4A116000E02D
:1031F00000BF00BF704710B5014600220023002029
:103200004A11012A02D1B84C236806E0022A02D1F1
:10321000B54C236A01E0B44C636A01F01F0201243B
:1032200094401C4201D0012000E0002010BD38B5C0
:10323000002000900024002500BF3120FFF7DBFFB5
:1032400005460098401C00900098B0F5A06F01D092
:10325000002DF2D03120FFF7CEFF08B1012400E0AD
:103260000024204638BD014600209F4A106820F007
:10327000F80040EAC100106070479E49086070473E
:1032800002460020984B586820F47C1042EA010363
:103290001843954B58607047964908667047014639
:1032A0000020914A506820F00300084350607047A6
:1032B0008D48406800F00C007047014600208A4AA3
:1032C000506820F0F000084350607047014600202D
:1032D000854A506820F4E06008435060704701461A
:1032E0000020814A506820F4605040EAC1005060DC
:1032F000704729B17C4A527A02437B4B5A7204E0F0
:10330000794A527A8243784B5A7270477A490860F8
:10331000704701460020744A506820F4404008433A
:10332000506070470021754A11706F4A82F8201072
:10333000012802D0042808D103E001216F4A11704E
:1033400004E005216D4A117000E000BF00BF704726
:103350006B49086070476449096A0143624A116217
:103360007047674944390860704730B50021002232
:10337000002400235C4D6D6805F00C0121B1042987
:1033800005D0082923D105E05E4D056022E05D4DA2
:1033900005601FE0544D6D6805F47012524D6D6864
:1033A00005F48034022505EB92421CB9564D554375
:1033B00005600BE04C4D6D6815F4003F03D0524D95
:1033C0005543056002E04F4D5543056002E04D4D09
:1033D000056000BF00BF444D6D6805F0F0010909AC
:1033E0004A4D6B5C0568DD4045603F4D6D6805F4F6
:1033F000E061090A454D6B5C4568DD4085603A4DEA
:103400006D6805F46051C90A404D6B5C4568DD404C
:10341000C560354D6D6805F44041890B3C4D6B5CD2
:10342000C568B5FBF3F5056130BD29B12E4A526977
:1034300002432D4B5A6104E02B4A526982432A4BC6
:103440005A61704729B1284A92690243264B9A6112
:1034500004E0254A92698243234B9A61704729B15F
:10346000214AD2690243204BDA6104E01E4AD26944
:1034700082431D4BDA61704729B11B4AD26802436F
:10348000194BDA6004E0184AD2688243164BDA60BE
:10349000704729B1144A12690243134B1A6104E0C0
:1034A000114A12698243104B1A617047144940391E
:1034B000086070470F49C86470470B49C87170476E
:1034C0000948406A40F080700749486270470146E9
:1034D0000020054A92680A4201D0012000E0002045
:1034E0007047014988727047001002400000FFF8E1
:1034F000FFFFF6FE00004242D80042422010024088
:103500008004424200127A0000093D00AA0A00200D
:10351000BA0A002010B50446FE48844208D10121B1
:10352000C014FFF7A9FF0021E014FFF7A5FFC4E0D6
:10353000B4F1804F08D101210846FFF7AAFF00210E
:103540000120FFF7A6FFB8E0F348844208D101212B
:103550000220FFF79EFF00210220FFF79AFFACE058
:10356000EE48844208D101210420FFF792FF002198
:103570000420FFF78EFFA0E0E948844208D1012132
:103580000820FFF786FF00210820FFF782FF94E064
:10359000E448844208D101211020FFF77AFF00217E
:1035A0001020FFF776FF88E0DF48844208D1012130
:1035B0002020FFF76EFF00212020FFF76AFF7CE04C
:1035C000DA48844208D101214014FFF755FF002159
:1035D0006014FFF751FF70E0D548844209D1012102
:1035E000C804FFF749FF00214FF40020FFF744FF14
:1035F00063E0D048844209D101210805FFF73CFF70
:1036000000214FF48010FFF737FF56E0CA4884428C
:1036100009D101214805FFF72FFF00214FF40010C9
:10362000FFF72AFF49E0C548844208D10121402024
:10363000FFF72FFF00214020FFF72BFF3DE0C048A0
:10364000844208D101218020FFF723FF0021802040
:10365000FFF71FFF31E0BB48844208D101218015EC
:10366000FFF717FF0021A015FFF713FF25E0B6486D
:10367000844209D101210804FFF7FEFE00214FF426
:103680008030FFF7F9FE18E0B048844209D10121EB
:103690004804FFF7F1FE00214FF40030FFF7ECFE85
:1036A0000BE0AB48844208D101218804FFF7E4FE17
:1036B00000214FF48020FFF7DFFE10BD00220288BA
:1036C000944B98420ED0994B98420BD0B0F1804F5A
:1036D00008D0914B984205D0904B984202D0904B25
:1036E000984204D14FF68F731A404B881A438D4B82
:1036F000984207D08C4B984204D04FF6FF431A40B3
:10370000CB881A4302808B8883850B880385814B85
:1037100098420BD0854B984208D08B4B984205D0ED
:103720008A4B984202D08A4B984201D10B7A038689
:1037300001238382704770B5002400220023058C8A
:103740004FF6FE7635400584028C8388048B4FF655
:103750008F752C40B51E2C400D882C43751E2A40B9
:103760000D892A434D882A436A4DA8420BD06F4DDC
:10377000A84208D0744DA84205D0744DA84202D08A
:10378000734DA84213D14FF6F7752A404D892A434D
:103790004FF6FB752A408D882A434FF6FF652B4074
:1037A0004FF6FF552B408D892B43CD892B438380CA
:1037B0000483CD888586028470BD70B50024002204
:1037C0000023058C4FF6EF7635400584028C838804
:1037D000048B48F6FF752C404FF6FF452C400D88B2
:1037E0004FF6FF7606EA05252C434FF6DF752A4093
:1037F0000D8906EA05152A434D8806EA05152A4370
:10380000444DA84202D0494DA8421DD14FF67F75C4
:103810002A404D894FF6FF7606EA05152A434FF6F2
:10382000BF752A408D8806EA05152A434FF6FF35F5
:103830002B404FF2FF752B408D8906EA85052B43FF
:10384000CD8906EA85052B4383800483CD880587CF
:10385000028470BD70B5002400220023058C4FF651
:10386000FF6635400584028C8388848B4FF68F7504
:103870002C404FF6FC752C400D882C434FF6FF551D
:103880002A400D894FF6FF7606EA05252A434D8822
:1038900006EA05252A431F4DA84202D0234DA8421F
:1038A0001DD14FF2FF752A404D894FF6FF7606EA8B
:1038B00005252A434FF6FF352A408D8806EA05255F
:1038C0002A434EF6FF752B404DF6FF752B408D8930
:1038D00006EA05152B43CD8906EA05152B4383809F
:1038E0008483CD888587028470BD70B50022002353
:1038F0000024058C4EF6FF7635400584038C8488C1
:10390000828B48F6FF752A404FF6FF452A400D8806
:1039100020E00000002C01400004004000080040AE
:10392000000C004000100040001400400034014032
:10393000004C01400050014000540140001800407C
:10394000001C0040002000400040014000440140B5
:10395000004801404FF6FF7606EA05252A434DF65A
:10396000FF752B400D8906EA05352B434D8806EA85
:1039700005352B43FA4DA84202D0FA4DA84208D192
:103980004BF6FF752C408D894FF6FF7606EA8515BC
:103990002C4384808283CD88A0F84050038470BD7E
:1039A000828B4FF2FF331A408283828B4FF6FF7374
:1039B00003EA01231A4382837047F0B50C4615468B
:1039C000002200210026078C4EF6FF7C07EA0C0738
:1039D0000784828B018C4FF6FF7707EA043640F6A6
:1039E000FF473A404FF6FF7707EA05273A434FF67D
:1039F000FF7707EA03373A43D94FB8420ED0D94F81
:103A0000B8420BD0B0F1804F08D0D74FB84205D0A4
:103A1000D64FB84202D0D64FB84206D14DF6FF7706
:103A2000394046F48057394305E047F6FF5739409F
:103A300044F48057394382830184F0BD828B4FF672
:103A4000F3731A408283828B0A4382837047F0B5F6
:103A50000C461546002200210026078C4FF6FF6C0D
:103A600007EA0C070784828B018C4FF6FF7707EA81
:103A700004264FF60C773A404FF6FF7707EA031714
:103A80002F433A43B64FB8420ED0B64FB8420BD090
:103A9000B0F1804F08D0B44FB84205D0B34FB84210
:103AA00002D0B34FB84206D14FF6FF57394046F423
:103AB0008077394305E04FF2FF57394044F480776F
:103AC000394382830184F0BD028B4FF2FF331A40E9
:103AD0000283028B4FF6FF7303EA01231A4302832A
:103AE0007047F0B50C461546002200210026078CD1
:103AF0004FF6EF7C07EA0C070784028B018C4FF628
:103B0000FF7707EA041640F6FF473A404FF6FF7783
:103B100007EA03373A434FF6FF7707EA05273A43A8
:103B20008F4FB8420ED08F4FB8420BD0B0F1804FBC
:103B300008D08D4FB84205D08C4FB84202D08C4F80
:103B4000B84206D14FF6DF77394046F010073943C7
:103B500005E04FF65F77394044F0100739430283A0
:103B60000184F0BD028B4FF6F3731A400283028B7F
:103B70000A4302837047F0B50C4615460022002127
:103B8000068C4FF6FE773E400684028B018C4FF682
:103B90000C7632407E1C06EA03162E433243704EEA
:103BA000B0420ED06F4EB0420BD0B0F1804F08D073
:103BB0006D4EB04205D06D4EB04202D06C4EB04258
:103BC00006D14FF6FD76314044F00106314305E061
:103BD0004FF6F576314044F001063143028301840B
:103BE000F0BD70B505460C465D4885420ED05D4877
:103BF00085420BD0B5F1804F08D05B48854205D097
:103C00005A48854202D05A48854200D100E000BFA0
:103C1000208850B92389A28861882846FFF7ABFF26
:103C2000E1882846FFF79EFF25E0208804280AD176
:103C30002389A28861882846FFF753FFE188284638
:103C4000FFF742FF17E0208808280AD12389A288BD
:103C500061882846FFF7FBFEE1882846FFF7EEFE65
:103C600009E02389A28861882846FFF7A6FEE1883B
:103C70002846FFF795FE70BD2DE9F04105460C463C
:103C800000260127608808B9022600E00026A088E7
:103C9000012801D1022700E001272088A0B923894B
:103CA000A28861882846FFF766FFE1882846FFF76B
:103CB00059FF23893A4631462846FFF712FFE1882B
:103CC0002846FFF701FF13E02389A2886188284670
:103CD000FFF707FFE1882846FFF7F6FE23893A46FB
:103CE00031462846FFF747FFE1882846FFF73AFFAD
:103CF000BDE8F0810A884B881A438B881A43CB8829
:103D00001A430B891A434B891A438B891A43A0F82B
:103D1000442070474FF6FF71818000210180C180EF
:103D20004180017270470021018041808180C18003
:103D3000018141818181C1817047002101804180E1
:103D4000012181800021C180018170470021018013
:103D500041808180C1800181418181817047000063
:103D6000002C0140003401400004004000080040E5
:103D7000000C004021B1028842F00102028004E000
:103D800002884FF6FE731A400280704731B1B0F8D6
:103D9000442042F40042A0F8442005E0B0F844205A
:103DA000C2F30E02A0F8442070471AB183890B4376
:103DB000838102E083898B438381704781827047CE
:103DC00041EA0203A0F8483070471AB183890B43D7
:103DD000838102E083898B438381704701894FF699
:103DE000F8721140018170470A46002101894FF69F
:103DF0008F73194011430181704730B504460D4659
:103E000029462046FFF7F0FF208940F00700208177
:103E100030BD2DE9F04104460D4616461F46602D83
:103E200006D13B46012231462046FFF75AFE05E007
:103E30003B46012231462046FFF79DFE294620469B
:103E4000FFF7D2FF208940F007002081BDE8F08114
:103E500030B50C4600210189C9B24FF6FF7505EA5D
:103E60000325154325432943018130BD2DE9F04148
:103E700005460E4617469846002443463A463146C4
:103E80002846FFF7E5FF2C894FF6F870044044F010
:103E900007044FF68F70044044F070042C81BDE895
:103EA000F081F0B504460D4616461F463B463246A5
:103EB00029462046FFF7CCFF208940F4804020812E
:103EC000F0BD0185828270470A46002101884FF6C5
:103ED0008F731940114301807047F0B50C461546A9
:103EE0001E460021002200230189028B038C4FF61D
:103EF000F877394021434FF6FC473A4040F201172A
:103F00003A434FF6DD773B404FF6FF7707EA061757
:103F10002F433B43018102830384F0BD0A46002105
:103F2000018B4FF68F7319401143018370470A4686
:103F30000021018B48F6FF7319404FF6FF7303EA27
:103F400002231943018370470A460021818B4FF6F3
:103F50008F7319401143818370470A460021818B7A
:103F600048F6FF7319404FF6FF7303EA0223194323
:103F70008183704721B1028842F08002028004E010
:103F800002884FF67F731A400280704721B1828801
:103F900042F00402828004E082884FF6FB731A40EC
:103FA0008280704721B1828842F00802828004E05A
:103FB00082884FF6F7731A408280704721B1828859
:103FC00042F00102828004E082884FF6FE731A40BC
:103FD000828070470A460021018B4FF6F773194023
:103FE0001143018370470A460021018B4FF2FF7392
:103FF00019404FF6FF7303EA022319430183704708
:104000000A460021818B4FF6F773194011438183D3
:1040100070470A460021818B4FF2FF7319404FF61B
:10402000FF7303EA02231943818370470A46002184
:10403000018B4FF6FB7319401143018370470A4609
:104040000021018B4FF6FF3319404FF6FF7303EA4F
:1040500002231943018370470A460021818B4FF6E2
:10406000FB7319401143818370470A460021818BFD
:104070004FF6FF3319404FF6FF7303EA022319434B
:10408000818370470A460021018B4FF67F731940E8
:104090001143018370470A460021018BC1F30E01D1
:1040A0004FF6FF7303EA02231943018370470A4660
:1040B0000021818B4FF67F73194011438183704734
:1040C0000A460021818BC1F30E014FF6FF7303EA0C
:1040D00002231943818370470A460021018C4FF661
:1040E000FD7319401143018470470A460021018C79
:1040F0004FF6F77319401143018470470A460021B7
:10410000018C4FF6DF7319404FF6FF7303EA021379
:104110001943018470470A460021018C4FF67F73D2
:1041200019404FF6FF7303EA0213194301847047E5
:104130000A460021018C4FF6FF5319404FF6FF73DA
:1041400003EA02231943018470470A460021018CC7
:104150004FF2FF7319404FF6FF7303EA022319432E
:10416000018470470A460021018C4DF6FF73194007
:104170004FF6FF7303EA023319430184704730B5E9
:10418000002301248C40A3B2048C9C430484048C3F
:1041900002FA01F5ADB22C43048430BD30B50023E2
:1041A00004248C40A3B2048C9C430484048C02FA43
:1041B00001F5ADB22C43048430BD70B50346002038
:1041C00000241846183001258D40ACB21D8CA54343
:1041D0001D8409B1082909D100EB6100056825F0AB
:1041E000700505600568154305600EE00D1FC5F3F9
:1041F0004E052844056825F4E045056005684FF63E
:10420000FF7606EA02263543056070BD21B10288BB
:1042100042F00202028004E002884FF6FD731A4069
:104220000280704721B1028842F00402028004E05B
:1042300002884FF6FB731A400280704721B18288D2
:1042400042F08002828004E082884FF67F731A4039
:104250008280704702884FF6F7731A400280028806
:104260000A430280704782884FF68F731A4082801B
:1042700082880A438280704702894FF6F8731A4099
:10428000028102890A430281704702894FF67F73D7
:104290001A40028102890A43028170478184704773
:1042A0008185704781867047018770478187704795
:1042B000A0F84010704702884FF6FF431A40028072
:1042C00002880A43028070470146888E7047014683
:1042D000088F70470146888F70470146B1F840004B
:1042E00070470146888C70470146088D704702462A
:1042F0000020138A0B4201D0012000E0002070470B
:10430000CA430282704730B50246002000230024D1
:10431000158A05EA0103958905EA010413B10CB178
:10432000012000E0002030BDCA4302827047000037
:1043300010B50446FB48844209D101218803FFF7E8
:104340009BF800214FF48040FFF796F832E0F648E2
:10435000844209D101214804FFF79BF800214FF462
:104360000030FFF796F825E0F048844209D101219A
:104370008804FFF78EF800214FF48020FFF789F8BA
:1043800018E0EB48844209D10121C804FFF781F805
:1043900000214FF40020FFF77CF80BE0E548844251
:1043A00008D101210805FFF774F800214FF48010AF
:1043B000FFF76FF810BD2DE9F04786B005460E46B1
:1043C0000024A24600BFA1460027B08900B100BF6B
:1043D0002F462C8A4CF6FF700440F08804432C8250
:1043E000AC894EF6F3100440B088318908437189D6
:1043F00008430443AC81AC8A4FF6FF400440B089C7
:104400000443AC8201A8FEF7B0FFC648874202D140
:10441000DDF810A001E0DDF80CA0A88910F4004F31
:1044200008D00AEBCA0000EB0A1031684900B0FB63
:10443000F1F807E00AEBCA0000EB0A1031688900C6
:10444000B0FBF1F86420B8FBF0F00401200964210E
:1044500001FB1089A88910F4004F08D0322000EB2E
:10446000C900B0FBF1F000F00700044308E032207F
:1044700000EB09106421B0FBF1F000F00F000443E1
:104480002C8106B0BDE8F0874FF416510160002181
:104490008180C18001810C2141810021818170478F
:1044A00010B502460020108A4FF2FF0318400B8817
:1044B0004C8823438C882343CC88234318431082A1
:1044C00010BD0021018041808180C180704721B1F1
:1044D000828942F40052828104E082894DF6FF73A2
:1044E0001A4082817047F0B503460024002600255B
:1044F0000020A1F510676A3F00D100BF1846C1F344
:10450000421401F01F06012707FA06F5012C01D11C
:104510000C3004E0022C01D1103000E014301AB14C
:1045200007682F43076002E00768AF430760F0BDEC
:104530001AB1838A0B43838202E0838A8B4383828E
:104540007047028A4FF6F0731A400282028A0A43C9
:104550000282704782894FF2FF731A4082818289FA
:104560000A438281704721B1828942F0020282812E
:1045700004E082894FF6FD731A4082817047028AF7
:104580004FF6DF731A400282028A0A4302827047A2
:1045900021B1028A42F48042028204E0028A4BF690
:1045A000FF731A4002827047C1F30802828070478D
:1045B00001468888C0F308007047818941F00101F5
:1045C00081817047028BD2B20283028B42EA0122C0
:1045D00002837047028B02F47F420283028B0A43FC
:1045E0000283704721B1828A42F02002828204E075
:1045F000828A4FF6DF731A408282704721B1828A25
:1046000042F01002828204E0828A4FF6EF731A4071
:104610008282704721B1828A42F00802828204E0DD
:10462000828A4FF6F7731A408282704721B18289DD
:1046300042F40042828103E08289C2F30E02828149
:10464000704721B1828A42F40062828204E0828A49
:104650004FF2FF731A4082827047828A4FF6FB73D3
:104660001A408282828A0A438282704721B1828AFA
:1046700042F00202828204E0828A4FF6FD731A4001
:104680008282704702460020B1F5007F00D100BF52
:1046900013880B4201D0012000E00020704701F494
:1046A0000072B2F5007F00D100BFCA43028070479C
:1046B00070B502460024002300250020A1F51066F5
:1046C0006A3E00D100BFC1F3421501F01F0301266D
:1046D00006FA03F3012D02D19689334006E0022D3C
:1046E00002D1168A334001E0968A33400C1201262B
:1046F00006FA04F41688344013B10CB1012000E02E
:10470000002070BD10B500220023A1F510646A3CA2
:1047100000D100BF0A1201249440A3B2DC430480FC
:1047200010BD000000380140004400400048004037
:10473000004C00400050004010B501210807FEF772
:10474000A8FE00214FF08050FEF7A3FE10BD2949BE
:104750000862704727490861704701460020264AD1
:10476000106820F0E000084310607047234908609B
:10477000704710B5024600201F4B186820F0030058
:10478000104318601E4B1B6843F004031C4C23604D
:10479000012901D130BF00E020BF194B1B6823F075
:1047A0000403174C236010BD1348006840F0040058
:1047B000114908600846006840F00200086010488F
:1047C000006840F004000E49086000BF00BF30BF21
:1047D000704701460020084A52680A4201D0012071
:1047E00000E0002070470449096841EA8001024A5C
:1047F0001160704700000E4200700040A0000E42A1
:1048000010ED00E0002044490860091D0860091D02
:104810000860091D086041483F491431086070472D
:1048200000213D498279002A3AD00A46126803687D
:104830009A430B461A600A1D126803689A430B1DBF
:104840001A60027911440A6803681A430A60324AFE
:104850000832126803689A432F4B08331A601A1DF6
:10486000126803689A432C4B0C331A604279102A61
:104870000ED11A1F126803681A43274B08331A60B7
:104880001A1D126803681A43234B0C331A600DE09B
:104890002149427911440A6803681A430A6005E015
:1048A000027911440A6803689A430A60704700213C
:1048B000016001710C21417100218171704716491D
:1048C000103109680143144A1032116070470146E3
:1048D0000020114A143212680A4201D0012000E07F
:1048E000002070470C4914310860704701460020D1
:1048F0000022094B1B6803EA0102074B14331B68B3
:104900000B4202D00AB1012000E0002070470249AA
:10491000143108607047000000040140FFFF0F00E1
:1049200029B14F4A128802434D4B1A8004E04C4A89
:10493000128882434A4B1A8070474948001D0088FC
:1049400040F010004649091D088070474448001D8A
:1049500000884FF6EF7108404149091D08807047F3
:1049600000213F481C300188001F008841EA0040B8
:10497000704700B50246FFF7E0FF100C38491831C8
:104980000880091D0A80FFF7E1FF00BD00B502465F
:10499000FFF7D3FFC2F30340314908310880091DF6
:1049A0000A80FFF7D3FF00BD00B50246FFF7C5FF41
:1049B000100C2B4920310880091D0A80FFF7C6FF23
:1049C00000BD00202649103109880907080B244939
:1049D000143109880843704700BF2148001D008832
:1049E00010F0200FF9D070471D48001D00884FF6C9
:1049F000F77108401A49091D088000BF1848001DBA
:104A0000008810F0080FF9D0704701460020144AC2
:104A1000121D12880A4201D0012000E000207047D8
:104A20000F49091D098881430D4A121D11807047E5
:104A3000014600200A4A121D12880A40D0B2084AD4
:104A400012880A4202D008B1012000E0002070471D
:104A50000349091D09888143014A121D11807047CD
:104A6000002800400CB50020019000906B480068C1
:104A700040F480306949086000BF6848006800F46D
:104A8000003000900198401C0190009818B90198DE
:104A9000B0F5A06FF1D16148006810F4003F02D07A
:104AA0000120009001E0002000900098012842D1F0
:104AB0005B48006840F010005949086008460068EB
:104AC00020F0030008600846006840F0020008601B
:104AD0005248406851494860084640684860084666
:104AE000406840F4806048600846406820F47C10CC
:104AF00048600846406840F4E8104860084600688E
:104B000040F08070086000BF4448006810F0007FEB
:104B1000FAD04248406820F0030040494860084607
:104B2000406840F00200486000BF3C48406800F028
:104B30000C000828F9D10CBD10B5FFF793FF10BD8C
:104B400010B53648006840F0010034490860084656
:104B50004068344908403149486008460068324995
:104B600008402E4908600846006820F4802008604C
:104B70000846406820F4FE0048604FF41F0088603B
:104B8000FFF7DAFF4FF000602849086010BD10B54C
:104B9000002100200022214B5B6803F00C0121B1B1
:104BA000042906D0082928D107E0214B214C236095
:104BB00027E01F4B1F4C236023E0184B5B6803F476
:104BC0007010164B5B6803F48032022303EB9040B5
:104BD00022B9194B4343174C23600DE00F4B5B6820
:104BE00013F4003F04D0144B4343124C236003E002
:104BF0000F4B43430F4C236003E00D4B0D4C2360E0
:104C000000BF00BF054B5B68C3F303130B4CE15CB3
:104C1000084B1B68CB40074C236010BD00100240BE
:104C2000002002400000FFF8FFFFF6FE08ED00E064
:104C300000127A00C00A002000093D00C40A0020CA
:104C40000648804706480047FEE7FEE7FEE7FEE726
:104C5000FEE7FEE7FEE7FEE7FEE7FEE7414B000862
:104C6000ED00000870B5054C054D03E020682044B8
:104C70008047241DAC42F9D170BD00005857000890
:104C80005C57000800F014B800487047D40A0020B0
:104C90000920704709207047704770470920704706
:104CA000024801464860001D70470000D80A0020F5
:104CB00010B500F020F8016919B10022026188479F
:104CC00001E080688047AFF300800000064C074D8C
:104CD00006E0E06840F0010394E8070098471034CC
:104CE000AC42F6D3FBF706FA3857000858570008CD
:104CF00010B5AFF3008070B5FFF7D2FF046805462A
:104D0000A4B9202000F0C6F8040011D00949002001
:104D10002C60C4E900010849A16020732061606132
:104D20000649A06109B100F00BF8E061204670BDB2
:104D3000AFF3008000000000F14C0008000000000C
:104D400010B5882000F0A6F8002801D000210170DD
:104D500010BD802902D808B1017809B10020704740
:104D6000012100F8081B704718B100F108029142B8
:104D700001D00020704700210170704770B58D1878
:104D800010F8014B14F0030201D110F8012B23118C
:104D900006D110F8013B03E010F8016B01F8016B3C
:104DA000521EF9D1B3B110F8012B04F00C048A1A89
:104DB0000C2C04D0A2EB841203F1020308E010F8DB
:104DC000014BA2EB0422F7E712F8014B01F8014B6B
:104DD0005B1EF9D5A942D3D3002070BD017043609A
:104DE0008260704710B500F001F810BD10B500F0FA
:104DF00029F810BD10B500F001F810BD10B5040081
:104E000007D1012405E0FFF73FFF006800B904481F
:104E10008047204600F03EF80028F4D010BD000086
:104E2000854C000802E008C8121F08C1002AFAD108
:104E300070477047002001E001C1121F002AFBD11A
:104E40007047000010B5002821D0114B001F002230
:104E5000196803E0814203D80A4649680029F9D15C
:104E600052B11368841A9C4204D10068184410603F
:104E7000104602E0506000E0186039B102680B1A79
:104E8000934203D10B681A4402604968416010BD27
:104E9000E00A0020F0B50B30154D20F0070100248A
:104EA000144A0FE003688B420BD38B4205D95E1A7C
:104EB00043184768C3E9006700E04368136002C015
:104EC00004E0021D10680028ECD12046002802D121
:104ED000286808B10020F0BD064A07481060074A5C
:104EE000121A22F00702C0E9002401202860D7E747
:104EF000E40A0020E00A0020FC0C0020F81C00203E
:104F000000081020283038404850586068707800F9
:104F100000000000000000002F0000000007000754
:104F20000000147F147F1400242A7F2A1200626478
:104F300008132300364955225000000503000000E5
:104F4000001C224100000041221C000014083E0801
:104F5000140008083E0808000000A06000000808CF
:104F6000080808000060600000002010080402002B
:104F70003E5149453E0000427F4000004261514998
:104F800046002141454B31001814127F100027457F
:104F9000454539003C4A4949300001710905030083
:104FA000364949493600064949291E00003636006F
:104FB00000000056360000000814224100001414BE
:104FC00014141400004122140800020151090600C3
:104FD000324959513E007C1211127C007F494949E7
:104FE00036003E41414122007F4141221C007F4961
:104FF000494941007F09090901003E4149497A00B8
:105000007F0808087F0000417F4100002040413FA9
:1050100001007F08142241007F40404040007F0291
:105020000C027F007F0408107F003E4141413E009A
:105030007F09090906003E4151215E007F091929B7
:10504000460046494949310001017F0101003F40C6
:1050500040403F001F2040201F003F4038403F009D
:10506000631408146300070870080700615149457C
:105070004300007F41410000552A552A5500004158
:10508000417F000004020102040040404040400013
:105090000001020400002054545478007F48444426
:1050A0003800384444442000384444487F00385491
:1050B00054541800087E0901020018A4A4A47C001E
:1050C0007F080404780000447D4000004080847D17
:1050D00000007F102844000000417F4000007C0455
:1050E000180478007C0804047800384444443800EC
:1050F000FC242424180018242418FC007C08040430
:105100000800485454542000043F444020003C40D0
:1051100040207C001C2040201C003C4030403C00D3
:105120004428102844001CA0A0A07C004464544CD7
:1051300044141414141414000000000000000000B3
:1051400000000000000000000000F8000000000067
:105150000000333000000000100C06100C060000A8
:105160000000000000000040C07840C0784000040B
:105170003F04043F040400007088FC083000000075
:105180001820FF211E0000F008F000E018000000C9
:10519000211C031E211E0000F00888700000001E64
:1051A0002123241927211010160E000000000000F2
:1051B00000000000000000000000E01804020000F1
:1051C0000000071820400000020418E00000000062
:1051D00040201807000000404080F080404000025E
:1051E00002010F01020200000000F00000000001B7
:1051F00001011F010101000000000000000000800B
:10520000B07000000000000000000000000000007E
:105210000101010101010100000000000000000087
:105220003030000000000000000000806018040022
:105230006018060100000000E010080810E00000FF
:105240000F102020100F00001010F80000000000C8
:1052500020203F202000000070080808887000000F
:10526000302824222130000030088888483000008F
:1052700018202020110E000000C02010F8000000AF
:10528000070424243F240000F80888880808000048
:1052900019212020110E0000E0108888180000005D
:1052A0000F112020110E0000380808C8380800002F
:1052B00000003F00000000007088080888700000AF
:1052C0001C222121221C0000E010080810E0000030
:1052D00000312222110F00000000C0C000000000B9
:1052E00000003030000000000000800000000000DE
:1052F00000806000000000000080402010080000D6
:10530000010204081020004040404040404000049A
:10531000040404040404000008102040800000007D
:1053200020100804020100007048080808F000007E
:1053300000003036010000C030C828E810E0000747
:1053400018272423140B000000C038E000000020C0
:105350003C23020227382008F88888887000002043
:105360003F202020110E00C0300808080838000730
:105370001820202010080008F808080810E0002075
:105380003F202020100F0008F88888E8081000202F
:105390003F20202320180008F88888E80810002003
:1053A0003F200003000000C0300808083800000754
:1053B000182020221E020008F808000008F8082023
:1053C0003F210101213F20000808F80808000000E3
:1053D00020203F2020000000000808F8080800C036
:1053E0008080807F00000008F888C028180800200E
:1053F0003F20012638200008F808000000000020A7
:105400003F20202020300008F8F800F8F80800209D
:105410003F003F003F200008F830C00008F8082097
:105420003F200007183F00E01008080810E0000FB8
:1054300010202020100F0008F808080808F00020AD
:105440003F210101010000E01008080810E0000FF2
:1054500018242438504F0008F88888888870002065
:105460003F2000030C302000708808080838000036
:1054700038202121221C00180808F808081800000C
:1054800000203F2000000008F808000008F808008D
:105490001F202020201F000878880000C83808003E
:1054A0000007380E010000F80800F80008F80003B3
:1054B0003C0700073C030008186880806818082033
:1054C000302C03032C30200838C800C838080000EE
:1054D00000203F2000000010080808C838080020FD
:1054E00038262120201800000000FE0202020000E1
:1054F00000007F40404000000C30C0000000000071
:105500000000010638C00000020202FE0000000098
:105510004040407F0000000000040202020400003E
:1055200000000000000000000000000000000080FB
:1055300080808080808080000202040000000000E3
:10554000000000000000000000808080800000005B
:1055500019242222223F2008F80080800000000049
:105560003F112020110E000000008080800000000C
:105570000E112020201100000000808088F800001B
:105580000E112020103F200000808080800000004D
:105590001F222222221300008080F08888881800B1
:1055A00020203F20200000000080808080800000BC
:1055B0006B94949493600008F80080808000002031
:1055C0003F210000203F200080989800000000004C
:1055D00020203F202000000000008098980000005C
:1055E000C08080807F000008F8000080808000205C
:1055F0003F24022D302000000808F80000000000C1
:1056000020203F202000008080808080808000203B
:105610003F20003F20003F808000808080000020ED
:105620003F210000203F200000808080800000009B
:105630001F202020201F008080008080000000802C
:10564000FFA12020110E000000008080808000005B
:105650000E112020A0FF80808080008080800020AC
:10566000203F212000010000008080808080000019
:1056700033242424241900008080E080800000006E
:1056800000001F20200000808000000080800000BB
:105690001F202020103F208080800000808080001C
:1056A000010E300806010080800080008080800F9D
:1056B000300C030C300F00008080008080800000E0
:1056C00020312E0E3120008080800000808080807C
:1056D000818E70180601000080808080808000002C
:1056E00021302C2221300000000000807C020200CA
:1056F000000000003F404000000000FF00000000EC
:10570000000000FF0000000002027C80000000009A
:1057100040403F00000000000601010202040400B6
:105720000000000000000000000000000000000079
:1057300041170008691700085C57000800000020A6
:10574000E80A00007C4D0008285B0008E80A0020F9
:1057500010180000344E0008A9C8FFFFA200014045
:105760000C060AFE0AC600E000F000F8114006FE32
:105770007DBBC7EF0100063BC7BB7DFE0001100DDE
:10578000080CFEFE0C082060FEFE60205C8007789E
:1057900048FE82BABA0301135EA20101027B000136
:1057A0006004FEFF0301C3FFFF0F31BBE004C0C074
:1057B000C0270211FE270137802175910B6004FF7D
:1057C000FF0C01411A000422E1E1E12705370060E6
:1057D000040F1F1801F31F0F0F012E270534842417
:1057E0000F8C4222120C00FC020202FC0000047723
:1057F0002008205844FE400010015112411E411261
:10580000A12A01215F100A24A42E24E4242EA4241A
:1058100047F80AF84A4C48F8484C4AF88F31076272
:1058200000062108911F9118011412594E23C0201F
:10583000A2A320C00A140B00120A07027F02070A63
:10584000124810060B0A0A0A7F040A540BCE900A6B
:105850001F2040404050205F800AFD92032DA3038B
:105860001101F111711491114114C111111420236E
:10587000FE50696E20506F696E7400417070726FD7
:10588000616368200053686F636B00416C61726DE7
:10589000002001552D0D177C0326F02D22FF050A4F
:1058A00014F09C12040122FF0509126411E0100695
:1058B0005F5555557504125FF6011121000C11203A
:1058C0000F094989790909090F201F200800FE02E4
:1058D000424ACA4A030F124202A7040C0D13FF40AA
:1058E000504C4340404F50505C40650313F88801D2
:1058F00022FF050614F88E120801227F2003109F54
:1059000080E246804B0C0914E2A2928A8682808053
:105910001B0308041740807FD7100924A4FEA3228C
:105920000022CCAA0D13990524060601FF00013EB2
:105930001F04FF3103F19E357C539008C3F20840E9
:10594000000F100444827F01808040432C102846C1
:1059500081A010094040484848C8784F06071248BF
:10596000488011440409130312122222528A061F8E
:105970003004106080BA1D77050713C030E01404AE
:1059800043407FE60404127F4241E0013EC03D4DAA
:10599000042C08D030FF30D0121C6704F11F3005F2
:1059A000080402019E00051101020408211C0800E0
:1059B000FE222222FE004D030C041092A29ED60469
:1059C000180880601F0242827F470405122F102CA6
:1059D00043E00C0B1490884C57A42454548C842519
:1059E0000710068042221A07440F13423E27070C75
:1059F0000E1304E4242CB4252624B42C24E4045CE3
:105A000006080A1202011E1212121E41824535407A
:105A1000080B1450445465C6446454444000080ABA
:105A20001082824A562322524E824018044040423D
:105A30007B0C0A1200FC242424E223222080033F52
:105A40001F2042030716405FC0F80C90209848289A
:105A5000090E2848A8183C20050242817F651004E1
:105A600042427E04011040280740504E4848FF7CC7
:105A70000E15F802030C0A133E0202FF12221E004A
:105A80000F46031004100C44012345C606040410FD
:105A900044140CC01C0440201E4505327F2009130D
:105AA000E02AC09D29FF0B10C8087F11402006374F
:105AB00004041464030C04510710E040047380884C
:105AC000400E138840041E7C43033D4203031140F3
:105AD000FC5E080D1212EAAFAAEA0FFA02888C5790
