:020000040800F2
:1000000078160020AD3E0008F7030008F903000849
:10001000030400081704000823040008000000007F
:100020000000000000000000000000002F04000895
:100030003104000800000000330400083504000803
:10004000C73E0008C73E0008C73E0008C73E00087C
:10005000C73E0008C73E000867030008C73E000807
:10006000C73E0008C73E0008C73E00080318000846
:10007000C73E0008C73E0008C73E0008C73E00084C
:10008000C73E0008C73E0008C73E0008C73E00083C
:10009000C73E0008C73E0008C73E0008C73E00082C
:1000A000C73E0008C73E0008C73E0008C73E00081C
:1000B0007D030008AB030008D1030008C73E000819
:1000C000C73E0008C73E0008C73E0008C73E0008FC
:1000D000C73E0008070E0008550E0008A30E0008D2
:1000E000C73E0008C73E0008C73E0008DFF810D032
:1000F00003F022FF03F0ECFE004800470F03000866
:100100007816002010B502F069F94FF4803002F043
:1001100085F902F0C2F9C84908700846007801283C
:1001200024D1002002F0FFF9002002F00EFA4FF473
:10013000806002F001FA4FF4E0114FF4803002F0D9
:10014000D5F9012002F0DEF901211D2002F0B0FAFC
:1001500000BF392002F085F90028FAD0022002F011
:10016000D4F900BF02F0DAF90828FBD110BD10B5B0
:100170004FF4803002F052F902F08FF9AE49087066
:100180000846007801280FD102F0BCF900BF3920E1
:1001900002F067F90028FAD0022002F0B6F900BF99
:1001A00002F0BCF90828FBD110BD08B54FF6C040DD
:1001B000ADF8000010208DF8030003208DF8020038
:1001C00069469E4801F0BEFF0120ADF80000042002
:1001D0008DF8030069469A4801F0B4FF08BD1CB5CC
:1001E0000021084602F0C2F80120009000208DF89E
:1001F000040008208DF8050001208DF806006846EF
:1002000003F0DEFB4FF4003003F051FC4FF40030FC
:10021000009008208DF80500684603F0D1FB1CBD56
:1002200010B5012003F057FC012002F0B1F900BF26
:10023000412002F016F90028FAD04FF4807002F045
:10024000C0F9012002F0C3F903F004FD47F6FF7086
:1002500003F0D2FC03F0F6FC0121022003F096FC2F
:1002600003F0F0FC10BD08B500214FF0006001F074
:1002700083FB4FF4C06001F047FB29208DF800009C
:1002800000208DF801008DF8020001208DF8030098
:10029000684601F03EFB17208DF8000000208DF825
:1002A0000100684601F035FB08BD7047704710B586
:1002B00002F094F8002002F0B1F8012002F013F9E6
:1002C00000BF212002F0CDF80028FAD0002002F073
:1002D0002AF94FF4806002F02FF9002002F035F97E
:1002E0004FF4E011002002F001F9012002F00AF9B8
:1002F00000BF392002F0B5F80028FAD0022002F041
:1003000004F900BF02F00AF90828FBD110BD012052
:1003100080F3108800BFFFF7CAFF4FF4A06001F020
:10032000F3FA01F031F9402003F06EFE044600F0CC
:10033000EAFA044643480460006800F070FB0020BD
:1003400080F3108800BF01214FF0C05002F0BDF9CA
:10035000FFF72BFFFFF743FFFFF785FF012003F0B7
:10036000C9FB00BFFEE710B5012003F08FFB20B1F1
:10037000012003F09CFB03F019FD10BD10B54FF0F8
:10038000804001F0DEF878B14FF0804001F0E1F8F4
:100390004FF0804001F0CDF82A48006800F0D8FA0C
:1003A0004FF0804001F0BDF810BD10B5264801F0B7
:1003B000C8F860B1244801F0CCF8234801F0B9F83E
:1003C0002048006800F082F91F4801F0AAF810BD2B
:1003D00010B51E4801F0B5F860B11C4801F0B9F83D
:1003E0001A4801F0A6F81748006800F0EEFA17481E
:1003F00001F097F810BD704702E0642001F023F986
:10040000FBE71348006800F049FC03E04FF4FA7082
:1004100001F019F9FAE703E04FF47A7001F013F9EB
:10042000FAE703E04FF4FA6001F00DF9FAE77047DC
:10043000704770477047000008000020000C014022
:1004400000080140000000200004004000080040B7
:1004500004000020322181877047002180F8361087
:10046000704710B50446E06900F018FC606A00F0BF
:1004700015FC206A00F012FC10BD10B5044694F87B
:100480003500FE49097888420AD094F83500FB49C6
:1004900008702046FFF7E5FF0020F9490880ECE0EE
:1004A00094F83500012847D194F83600F5490870D2
:1004B00094F83600012806D1E06900F02AFCA06912
:1004C00000F027FC38E094F83600022822D1606959
:1004D00000F01FFC94F83E00401C84F83E0094F8A5
:1004E0003E0028280CDD206A00F0D8FB606A00F08E
:1004F000D5FB2046FFF7B1FF2046FFF7ABFF1BE01F
:10050000206A00F006FC606A00F003FCA06900F0BD
:1005100000FC11E094F8310040B994F8300028B1A3
:10052000E06900F0BBFBA06900F0B8FB206A00F0B6
:10053000B5FB606A00F0B2FB94F835000028AED13C
:10054000608F00284BD1208F6628A8D194F8360000
:10055000CC49087094F83600012806D1E06900F013
:10056000D8FBA06900F0D5FB87E094F8360002289C
:1005700022D1606900F0CDFB94F83E00401C84F865
:100580003E0094F83E0028280CDD206A00F086FB2F
:10059000606A00F083FB2046FFF75FFF2046FFF70D
:1005A00059FF6AE0206A00F0B4FB606A00F0B1FB1A
:1005B000A06900F0AEFB60E094F8310040B994F817
:1005C000300028B1E06900F069FBA06900F066FB2B
:1005D000206A00F063FB606A00F060FB4DE0608F12
:1005E0000A284AD1208F662847D194F83600A549B9
:1005F000087094F83600012806D1E06900F089FB04
:10060000A06900F086FB38E094F83600022822D179
:10061000606900F07EFB94F83E00401C84F83E00C8
:1006200094F83E0028280CDD206A00F037FB606A51
:1006300000F034FB2046FFF710FF2046FFF70AFFCB
:100640001BE0206A00F065FB606A00F062FBA069B5
:1006500000F05FFB11E094F8310040B994F83000ED
:1006600028B1E06900F01AFBA06900F017FB206ACE
:1006700000F014FB606A00F011FB10BDF0B50146FC
:100680004A68D2F810C06046C27802F0030281F8CE
:100690003520C278C2F3810281F83620C278C2F3D5
:1006A000001281F83720057946798779C379047A71
:1006B00064226A4306EB860C02EB4C023A440A873A
:1006C00003EB830204EB42024A87F0BD10B50446F7
:1006D000606800F028FAA0B100206B490880A0688B
:1006E00000F018FF0020684908800320A0872046FA
:1006F000FFF7C4FF2046FFF7C0FE002084F830005B
:1007000030E061480088401C5F4908800846008846
:10071000782805DB00200880E06900F0BFFA1AE0C5
:10072000594800883C280FDB002057490880606A40
:1007300000F0B4FA206A00F0B1FA2046FFF78DFE0F
:100740002046FFF787FE06E04F480088062802DBB8
:10075000002084F83E004C480088142802DD012067
:1007600084F8300010BD002100F13000C17001712B
:1007700041704FF0010141714FF0000181714FF064
:100780000101C1714FF000010181418181818173BB
:1007900000F83019704770B50446082003F034FCA7
:1007A00005466422110700F051FE0546A0600122B3
:1007B0001146A06800F0D5FD6421A06800F0DFFDBF
:1007C000082003F021FC05466422304900F03EFE7B
:1007D0000546E06003220121E06800F0C2FD1E2111
:1007E000E06800F0CCFD082003F00EFC0546642212
:1007F000274900F02BFE05462061022201212069D5
:1008000000F0AFFD6421206900F0B9FD70BD70B546
:100810000446102003F0F8FB05464FF41652012160
:1008200000F090FC05462060142003F0EDFB064626
:10083000216800F009F90646606070BD10B50446F5
:1008400000F0B7FF10BD70B50446082003F0DCFBD4
:100850000546002340220F4900F04BFA054660612F
:10086000082003F0D1FB054600232022094900F0AF
:1008700040FA0546A06108200EE000000C000020B0
:100880000E0000200D0000200A000020000400409F
:10089000000800400008014003F0B6FB05460123B4
:1008A0001A03664900F025FA0546E061082003F0C6
:1008B000ABFB054600230422604900F01AFA054606
:1008C0002062082003F0A0FB0546002302225B49BA
:1008D00000F00FFA05466062082003F095FB05461C
:1008E00001238022554900F004FA0546A06270BD3C
:1008F00010B504460121084601F0DAFE01215048F6
:1009000001F0EFFC10BD10B504462046FFF7F0FFE4
:100910002046FFF798FF2046FFF790FF2046FFF79D
:1009200076FF2046FFF737FF2046FFF71CFFA06A3F
:1009300000F0EFF92046FFF7C9FE052000F083FE26
:100940002046FFF7C3FE606900F0A8F9204610BDFD
:10095000704710B5044694F83600022807D039488D
:10096000408800EB4010C0F3073084F8340094F85E
:10097000340005280BDD012084F83100E06900F027
:10098000C8F9A06900F0C5F90320A0870CE094F82D
:100990003600012808D0002084F83100E06900F01A
:1009A0007DF9A06900F07AF910BD704790F8361013
:1009B000022909D02349098801EB411101EB4101CA
:1009C000C1F3073180F83310704710B50446204654
:1009D000FFF7ECFF2046FFF7E8FF2046FFF7B9FFDF
:1009E000A08F401CA087A08F322816DD0020A08792
:1009F000A06A00F053F9606A00F050F9206A00F034
:100A00004DF9E06900F04AF92046FFF726FD322053
:100A100000F019FE03F08CF800E000BF10BD10B527
:100A200004460A2000F00FFE206800F0EFFBE068AB
:100A300000F070FD206900F06DFD10BD0008014060
:100A4000000230001400002070B504460D465F48D7
:100A500020606560082003F0D7FA06460C2100F0FC
:100A6000B7F80646A0600C2003F0CAFAE0600C203C
:100A700003F0C6FA2061002003E00021E26811546F
:100A8000401C0C28F9DB002003E0002122691154EE
:100A9000401C0C28F9DBA520E16808700120E16802
:100AA00048708020E1688870204670BD70B50446AB
:100AB00046482060A06828B1A06800F0C1F805464B
:100AC00003F09AFAE06803F093FA206903F090FAD1
:100AD000204670BD70B504462046FFF7E7FF054687
:100AE00003F08AFA70BD70B50A460023002104E0C5
:100AF000555CCC1CC6683555491C0629F8DB00211D
:100B000004E0C468645C1C44E3B2491C0B29F8DBB4
:100B1000C168CB7270BD10B504460C22E1686068F4
:100B200000F03FFB10BD2DE9F041044600250027F1
:100B300042E0606800F023FB06463146A06800F002
:100B4000A9F8A06800F09BF8A06800F094F8A42829
:100B500032D105F1A400C5B2A06800F090F8A068F9
:100B600000F089F8012823D1002608E0A06800F0F1
:100B700082F82844C5B2A06800F081F8761C0A2EDD
:100B8000F4DBA06800F077F8A8420DD1002608E059
:100B9000A06800F074F8A06800F06DF8216988552D
:100BA000761C0C2EF4DB0127A06800F068F802E048
:100BB000A06800F068F80025606800F0DAFA08B173
:100BC000002FB6D03846BDE8F0810000144100087F
:100BD0002DE9F04104460D46012D04DA0020606045
:100BE0002046BDE8F08125600C2003F00DFA064692
:100BF00000231A46194603F0F7F90646606060685C
:100C0000406060688060002715E00C2003F0FCF96C
:100C100080466068024600214368404603F0E4F9DC
:100C200080466068C0F80480606840686168496810
:100C3000496888607F1C681EB842E6DC2046D0E721
:100C40002DE9F04105466868446807E0666824B10C
:100C500000BF2746384603F0CFF934466868A04203
:100C6000F4D1686820B1686800BF074603F0C4F992
:100C70002846BDE8F0810146486800787047416821
:100C80004968416070474168896841607047014622
:100C900008687047426811707047000010B504463C
:100CA000A07920B1A188206801F0F9FA03E0A188B9
:100CB000206801F0F2FA10BD10B5044623492068FF
:100CC00088420CD1A088012802D0A088022806D131
:100CD000A08810220321236800F0C0FD05E0A08851
:100CE00010220121236800F0B9FD2046FFF7D6FF4E
:100CF00010BD2DE9F04104460F4615461E462760FB
:100D0000A580A6712046FFF7D7FF2046BDE8F081F9
:100D1000704710B50446A07920B1A188206801F081
:100D2000BCFA03E0A188206801F0B9FA10BD70B5E3
:100D30000446A188206801F0A3FAC0F10100C5B201
:100D4000A1882A46206801F0ACFA70BD0014014069
:100D500010B5044694F8480000B910BDB4F850101E
:100D6000E06C01F09CFA00BFF7E710B5044694F878
:100D7000480000B910BDB4F85010E06C01F08DFAD5
:100D800000BFF7E72DE9F0410446251D94F84780A0
:100D900095F84200404506D12068868926F08006F5
:100DA0002068868110E02046FFF7DFFF94F84710A7
:100DB00005F12000475C2068878095F84300401CBF
:100DC00000F01F0085F84300BDE8F081F0B5014652
:100DD0000B1D93F84000401C00F01F0493F8415095
:100DE00008688088C6B2AC4201D1002206E0012228
:100DF00091F84470081DC65581F844400AB101209D
:100E0000F0BD0020FCE710B540F22551F64802F095
:100E100085FD38B140F22551F34802F0A9FDF348B1
:100E2000FFF7D4FF40F22771EF4802F077FD10B1D1
:100E3000EE48FFF7A7FF40F22661EB4802F06EFD97
:100E400038B140F22661E84802F092FDE748FFF72A
:100E50007FFF10BD10B540F22551E54802F05EFD60
:100E600038B140F22551E24802F082FDE148FFF737
:100E7000ADFF40F22771DE4802F050FD10B1DD48B1
:100E8000FFF780FF40F22661D94802F047FD38B1F4
:100E900040F22661D64802F06BFDD648FFF758FFB6
:100EA00010BD10B540F22551D34802F037FD38B1DE
:100EB00040F22551D04802F05BFDD048FFF786FF95
:100EC00040F22771CC4802F029FD10B1CB48FFF762
:100ED00059FF40F22661C84802F020FD38B140F2C7
:100EE0002661C54802F044FDC448FFF731FF10BD3C
:100EF000002180F84810C164A0F850100160002261
:100F000080F8452080F8442080F8472080F846206B
:100F10007047014691F84600401C00F01F0291F80E
:100F200047309A4201D0012070470020FCE701467B
:100F300091F8462091F847309A4201D0012070473D
:100F40000020FCE72DE9F04104460F46261D20460F
:100F5000FFF7DFFF8046B8F1000F0FD096F8425040
:100F600006F120004755681C00F01F0086F842007B
:100F7000012240F22771206802F0EBFB4046BDE8F9
:100F8000F081014691F8442091F845309A4201D011
:100F9000012070470020FCE70246111D91F8413006
:100FA000C85C91F841305B1C03F01F0381F84130AD
:100FB00070472DE9FF4107460C4615461E46684618
:100FC00002F098FB00950020ADF80400ADF8060093
:100FD000ADF80800ADF80C00ADF80A60694620468F
:100FE00002F01FFBBDE8FF8110B504466068006891
:100FF00000B910BD61680868002102F09EFB00BFC7
:10100000F7E770B50446A5682046FFF7EDFF012D10
:1010100004D0022D1BD0032D50D131E001218803D3
:1010200001F046FB0121042001F042FB00210420D5
:1010300001F057F9724B04220321100200F00EFC5C
:101040006F4B18220321581500F008FC36E00121EF
:10105000480401F03AFB0121042001F029FB0021A2
:10106000082001F03EF9664B04220321082000F01D
:10107000F5FB634B18220321042000F0EFFB1DE079
:101080000121880401F021FB0121082001F010FB5F
:1010900000215C4801F025F900215A48203001F078
:1010A00020F9594B04220321500200F0D7FB564B84
:1010B00018220321181500F0D1FB00BF00BF70BD3E
:1010C00010B50446A068012804D002280AD00328DD
:1010D00018D10FE0454860604348616808602520EA
:1010E000206010E043486060414861680860262045
:1010F000206008E0414860603F4861680860272040
:10110000206000E000BF00BF2046FFF77AFF207894
:101110000022114600F090FBE26860680C23016831
:101120002046FFF746FF61680122086840F225511A
:1011300002F00FFB61680122086840F2266102F0AC
:1011400008FB10BD70B504460E461546A660E56066
:101150002046FFF7B5FF204670BD10B50446204677
:10116000FFF742FF00206060204610BD01468868FE
:10117000704710B504466068FFF703FF10BD10B557
:1011800004466068FFF708FF10BD70B504460D46C1
:1011900029466068FFF7D6FE08B1012070BD002027
:1011A000FCE72DE9F04107460D461646002407E00E
:1011B00000BF295D3846FFF7E8FF0028F9D0641C1E
:1011C000B442F5DBBDE8F08170B505460C4607E09A
:1011D00000BF21782846FFF7D8FF0028F9D0641C0B
:1011E00020780028F4D170BD003801405400002060
:1011F00000440040A800002000480040FC000020FF
:101200000008014010001400000C014010B5044615
:101210006068006800B910BD61680868012102F0CB
:101220008CFA00BFF7E770B504460D46164601205C
:10123000616881F848006068C5646068A0F8506023
:101240006068C06C3649884204D10121042001F055
:101250002FFA3AE06068C06C3249884204D101211B
:10126000082001F025FA30E06068C06C2E49884201
:1012700004D10121102001F01BFA26E06068C06C47
:101280002A49884204D10121202001F011FA1CE0F2
:101290006068C06C2649884204D10121402001F0D9
:1012A00007FA12E06068C06C2249884204D101212B
:1012B000802001F0FDF908E06068C06C1E4988429A
:1012C00003D10121801501F0F3F96168B1F85000F4
:1012D0001022CB6C032100F0C1FA70BD2DE9F04162
:1012E00004460D4616462F46B046207842463946FB
:1012F00000F0A2FABDE8F08100B51048FFF7F8FD54
:101300000F48FFF7F5FD0F48FFF7F2FD0E48FFF716
:10131000EFFD0E48FFF7ECFD0D48FFF7E9FD00BDBE
:1013200000080140000C0140001001400014014081
:1013300000180140001C0140002001405400002022
:10134000A8000020FC00002050010020A401002083
:10135000F801002010B504460021606801F040FE4D
:1013600010BD2DE9F04104460D4616462F46B04605
:1013700020784246394600F05FFABDE8F0812DE959
:10138000FE4305460C464FF0000800260027012CBE
:1013900001DABDE8FE83002C03DD052C01DAE0272D
:1013A00033E0042C04DD0A2C02DA40F2C1172CE0F1
:1013B000092C04DD322C02DA40F2833725E0312C8F
:1013C00004DD642C02DA40F207771EE0632C05DDB1
:1013D000B4F5FA7F02DA40F60F6716E0B4F5FA7F4B
:1013E00006DB40F6B830844202DA41F61F470CE0D3
:1013F00040F6B730844206DD41F28830844202DA9A
:1014000043F63F0701E048F69F4756486043791C82
:1014100090FBF1F0461EB0B2ADF80400ADF80070DC
:101420000020ADF80600ADF802008DF8088069468E
:10143000686801F079FA0121686802F097F80122E2
:101440001146686801F0E7FD00BFA2E770B50446E9
:101450000E46154666606068B0F1804F06D11C20CC
:1014600020600121084601F030F93BE03E49606808
:10147000884206D11D2020600121022001F025F9BB
:1014800030E03A496068884206D11E202060012180
:10149000042001F01AF925E035496068884201D13D
:1014A000204670BD33496068884201D12046F8E784
:1014B00031496068884201D12046F2E72F496068CF
:1014C000884201D12046ECE72D496068884201D16D
:1014D0002046E6E72B496068884201D12046E0E7D4
:1014E0002046DEE729462046FFF749FF0022114645
:1014F0002046FFF736FF2046FFF72CFF2046D0E7B7
:1015000010B504462046FFF725FF606802F074FD21
:10151000204610BD10B504460121606801F060FD51
:1015200010BD70B5044625460121284601F058FD3E
:1015300070BD70B5044625460021284601F050FDD7
:1015400070BD70B5044625460121284602F011F809
:1015500070BD70B5044625460121284602F01AF8F0
:1015600070BD000040190100000400400008004068
:10157000000C004000100040001400400018004023
:10158000001C00400020004010B56FF0040000F087
:101590000BFA384800683849B0FBF1F03749087059
:1015A0000846007800EB4001C1EBC0104FF6FF7118
:1015B00001EAC0003249088010BD01462F4A127866
:1015C0004A434FF0E0235A6100229A611A46126999
:1015D00042F001021A6100BF4FF0E022106910F0E2
:1015E000010F02D010F4803FF6D04FF0E0221269D4
:1015F00022F001024FF0E0231A6100229A61704745
:1016000001461F4A12884A434FF0E0235A610022E4
:101610009A611A46126942F001021A6100BF4FF046
:10162000E022106910F0010F02D010F4803FF6D0D4
:101630004FF0E022126922F001024FF0E0231A611C
:1016400000229A61704770B504464FF47A70B4FB7B
:10165000F0F6B4FBF0F100FB114504E04FF47A70B2
:10166000FFF7CEFF761E002EF8D115B12846FFF702
:10167000C7FF70BD2C00002000127A00100000206F
:101680001200002000B585B04FF4804000F077FFD5
:101690000121480201F00CF80020009001208DF893
:1016A00004008DF805004FF46020029000200390A4
:1016B00002208DF810006946574800F0BAF9002062
:1016C00000F074FB052301220421534800F049FA7D
:1016D000052302220321504800F043FA01214E481D
:1016E00000F0DEF901214C4800F0CFF94A4800F043
:1016F000EEF900BF484800F0EFF90028FAD146485B
:1017000000F0F4F900BF444800F0F5F90028FAD1E0
:101710000121414800F0F9F905B000BD00B58DB0D8
:101720000121084600F0B7FF3C4800F083FB3A482F
:101730004C3002903A480390002004901420059009
:1017400000200690802007904000089080000990BB
:1017500020200A9000020B9000200C9002A92F4834
:1017600000F00AFC012202212C4800F03CFC0B2076
:101770008DF8040002208DF805008DF80600012088
:101780008DF8070001A800F0C4F80121234800F0FB
:101790001EFC0DB000BD10B5224B0022032110200D
:1017A00000F05CF81F4B00220321082000F056F8DF
:1017B00010BD10B5FFF7EFFFFFF7B0FFFFF762FFB7
:1017C0000121154800F061F910BD10B5002200207C
:1017D00014E0002107E0124B03EB810333F81030D3
:1017E0001A444B1CD9B20A29F5DB0A2392FBF3F306
:1017F0000D4C24F810300022431CD8B20228E8DB3C
:1018000010BD10B5022000F01BFC20B1FFF7DDFF7A
:10181000022000F028FC10BD002401400800024016
:101820004C020020000801401400002010B54FF4C5
:10183000A06000F069F810BDF8B506460C461546E4
:101840008DF800608DF801408DF8025001208DF870
:101850000300684600F05DF8F8BD0000F8B50546E5
:101860000E4617461C462148844204D1012104201B
:1018700000F01EFF2EE01E48844204D10121082002
:1018800000F016FF26E01B48844204D101211020FD
:1018900000F00EFF1EE01848844204D101212020F0
:1018A00000F006FF16E01548844204D101214020D3
:1018B00000F0FEFE0EE01248844204D10121802097
:1018C00000F0F6FE06E00F48844203D101218015A6
:1018D00000F0EEFEADF800508DF803708DF8026058
:1018E0006946204600F02EFCF8BD000000080140CB
:1018F000000C01400010014000140140001801409C
:10190000001C01400020014031490143314A11606F
:10191000704770B5002100230F22C4780CB32D4C02
:10192000246804F4E064C4F5E064210AC1F104030E
:10193000CA40447804FA03F1847814402143090131
:10194000254C0678A155047804F01F050124AC400D
:1019500005786D114FF0E02606EB8505C5F80041CE
:1019600009E0047804F01F050124AC401B4D067803
:10197000761145F8264070BD194A0A400243154BBE
:101980001B1F1A60704739B1124A121D12680243B8
:10199000104B1B1D1A6006E00E4A121D126882438E
:1019A0000C4B1B1D1A607047042808D14FF0E02132
:1019B000096941F004014FF0E022116107E04FF0A6
:1019C000E021096921F004014FF0E0221161704724
:1019D0000000FA050CED00E000E400E080E100E02A
:1019E00080FFFF1F10B50446FA48844208D1012148
:1019F000401500F077FE0021601500F073FE17E03F
:101A0000F548844208D10121001500F06BFE002149
:101A1000201500F067FE0BE0F048844208D1012158
:101A2000C80300F05FFE00214FF4004000F05AFEB2
:101A300010BD30B50246002000235068E84C20401D
:101A40000D790C6844EA0524204350609068E54C09
:101A50002040D1E902542C434D7944EA4504204307
:101A60009060D06A20F470000C7C641EE4B22343C2
:101A700040EA0350D06230BD002101600171417124
:101A80008160C16001210174704721B1826842F018
:101A90000102826003E0826822F0010282607047E6
:101AA00021B1826842F48072826003E0826822F48D
:101AB00080728260704710B50023CBB21AB14468BF
:101AC0001C43446002E044689C43446010BD81684C
:101AD00041F0080181607047014600208A6812F0D9
:101AE000080F01D0012000E000207047816841F01C
:101AF000040181607047014600208A6812F0040FDB
:101B000001D0012000E00020704721B1826842F43A
:101B1000A002826003E0826822F4A0028260704723
:101B2000014600208A6812F4800F01D0012000E0F5
:101B30000020704710B50A4600210023416821F4B7
:101B40006041531E41EA4331416010BD21B14268FA
:101B500042F40062426003E0426822F400624260A4
:101B60007047F0B504460D4600200021092D11DD17
:101B7000E068A5F10A0606EB4607072606FA07F114
:101B80008843A5F10A0606EB460603FA06F1084368
:101B9000E0600CE0206905EB4507072606FA07F12F
:101BA000884305EB450603FA06F108432061072A3E
:101BB0000FDA606B561E06EB86071F2606FA07F142
:101BC0008843561E06EB860605FA06F10843606355
:101BD00022E00D2A0FDA206BD61F06EB86071F26A0
:101BE00006FA07F18843D61F06EB860605FA06F1CA
:101BF0000843206310E0E06AA2F10D0606EB8607B9
:101C00001F2606FA07F18843A2F10D0606EB8606A9
:101C100005FA06F10843E062F0BD21B1826842F4A2
:101C20008012826003E0826822F480128260704732
:101C30000146C86C80B2704766484C3000687047F7
:101C400021B1426842F48062426003E0426822F4BB
:101C500080624260704721B1426842F48052426023
:101C600003E0426822F48052426070470A46002135
:101C7000816821F4E04111438160704721B182689D
:101C800042F40042826003E0826822F400428260F3
:101C9000704721B1826842F40212826003E08268D8
:101CA00022F4021282607047014600208A6812F412
:101CB000001F01D0012000E000207047F0B504466D
:101CC0001546002000220026092911DDE068A1F157
:101CD0000A0707EB470C072707FA0CF29043A1F11C
:101CE0000A0707EB470703FA07F21043E0600CE02E
:101CF000206901EB410C072707FA0CF2904301EB36
:101D0000410703FA07F210432061A06BC0F30156AC
:101D1000EF1C06F1010CA7EB0C0707EB870C1F2744
:101D200007FA0CF29043EF1C06F1010CA7EB0C072D
:101D300007EB870701FA07F21043A063F0BD10B567
:101D40000A4600210023816B21F44011531E41EA11
:101D50000351816310BD08B5002300930090009BE0
:101D60000B440093009B1A6008BD08B50246002092
:101D70000090009201F12800009B18440090009808
:101D8000006880B208BD0A4600214168164B194020
:101D90001143416070474162826270470A460021E8
:101DA000416821F01F0111434160704740B109496A
:101DB0000831096841F40001064A0832116007E061
:101DC00004490831096821F40001024A083211600F
:101DD000704700000024014000280140003C014001
:101DE000FFFEF0FFFDF7F1FFFFFD3FFF0246002081
:101DF00013680B4201D0012000E000207047CA4365
:101E00000260704770B502460020002300240B12C8
:101E10005568CEB205EA060415681D4202D00CB121
:101E2000012000E0002070BD00220A12D3430360AD
:101E30007047000001684FF6FE72114001600021FA
:101E4000016041608160C1608C49884208D18B4942
:101E50000839496841F00F01884A083A51608AE020
:101E600086491431884208D184490839496841F0CB
:101E7000F001824A083A51607DE080492831884269
:101E800008D17E490839496841F470617B4A083AB3
:101E9000516070E079493C31884208D1774908396E
:101EA000496841F47041754A083A516063E07349EA
:101EB0005031884208D171490839496841F470218C
:101EC0006E4A083A516056E06C496431884208D144
:101ED0006A490839496841F47001684A083A516012
:101EE00049E066497831884208D16449083949682F
:101EF00041F07061614A083A51603CE060498842B3
:101F000006D1011F096841F00F01021F116032E084
:101F10005B491431884208D15949091F096841F0C9
:101F2000F001574A121F116025E0554928318842B7
:101F300008D15349091F096841F47061504A121FC2
:101F4000116018E04E493C31884208D14C49091FC4
:101F5000096841F470414A4A121F11600BE0484978
:101F60005031884207D14649091F096841F4702160
:101F7000434A121F1160704710B50022026847F6ED
:101F8000F0739A430C6A8B6823430C6923434C69B2
:101F900023438C692343CC6923434C6A23438C6AD3
:101FA00023431A430260CB6843600B6883604B682D
:101FB000C36010BD0021016041608160C1600161AA
:101FC00041618161C161016241628162704721B1F9
:101FD000026842F00102026004E002684FF6FE73FC
:101FE0001A40026070471AB103680B43036002E0B5
:101FF00003688B430360704741607047014648683F
:1020000080B2704701460020002211F0805F03D0AB
:102010001B4B083B1A6802E0184B083B1A680A423F
:1020200001D0012000E00020704710F0805F03D055
:102030001349091F086002E01049083948607047D9
:1020400001460020002211F0805F03D00C4B083BBA
:102050001A6802E0094B083B1A680A4201D00120C5
:1020600000E00020704710F0805F03D00449091F92
:10207000086002E0014908394860704708000240E2
:102080000804024010B50446CA48844208D1012120
:10209000042000F027FB0021042000F023FB46E091
:1020A000C548844208D10121082000F01BFB002113
:1020B000082000F017FB3AE0C048844208D1012113
:1020C000102000F00FFB0021102000F00BFB2EE091
:1020D000BB48844208D10121202000F003FB0021ED
:1020E000202000F0FFFA22E0B648844208D1012106
:1020F000402000F0F7FA0021402000F0F3FA16E04B
:10210000B148844208D10121802000F0EBFA00217F
:10211000802000F0E7FA0AE0AC48844207D10121B0
:10212000801500F0DFFA0021A01500F0DBFA10BDE9
:1021300010B50121084600F0D5FA0021012000F079
:10214000D1FA10BD2DE9F0410246002500260020FD
:1021500000230024002791F803C00CF00F0591F82C
:1021600003C01CF0100F03D091F802C04CEA050523
:1021700091F800C0BCF1000F31D0146800202BE0B2
:102180004FF0010C0CFA00F3B1F800C00CEA0306A2
:102190009E4220D183004FF00F0C0CFA03F7BC4392
:1021A00005FA03FC4CEA040491F803C0BCF1280FC3
:1021B00006D14FF0010C0CFA00FCC2F814C00AE082
:1021C00091F803C0BCF1480F05D14FF0010C0CFA97
:1021D00000FCC2F810C0401C0828D1D31460B1F82C
:1021E00000C0BCF1FF0F34DD546800202EE000F188
:1021F000080C4FF0010808FA0CF3B1F800C00CEA23
:1022000003069E4221D183004FF00F0C0CFA03F716
:10221000BC4305FA03FC4CEA040491F803C0BCF18A
:10222000280F05D100F1080C08FA0CF8C2F8148048
:1022300091F803C0BCF1480F07D100F1080C4FF032
:10224000010808FA0CF8C2F81080401C0828CED308
:102250005460BDE8F0814FF6FF710180022181706A
:102260000421C17070470246002093680B4201D0E0
:10227000012000E0002070470146886880B2704766
:1022800002460020D3680B4201D0012000E000206C
:1022900070470146C86880B270470161704741616C
:1022A00070470AB1016100E041617047C160704749
:1022B0004FF480320A43826181618261826982695E
:1022C000704702460020424B18684FF68073184052
:1022D00040EA021008433E4B186070473D49C86110
:1022E0007047F0B50A46002300240021002500F0C5
:1022F0000046B6F1004F02D1354EF16901E0344E8F
:102300007168C0F3034583B200F44016B6F5401F70
:1023100008D121F070612E4E766826F070662C4F41
:102320007E6012E000F48016B6F5801F06D1032609
:1023300006FA05F4A14341F0706106E0460D36014E
:1023400003FA06F6B14341F0706122B1460D360141
:1023500003FA06F6314300F00046B6F1004F02D111
:102360001B4EF16101E01A4E7160F0BD30B50022E4
:102370008B071C0F0F2303FA04F2154B08338C1044
:1023800053F824309343124C08348D1044F8253010
:1023900023468C1053F824308C07240F00FA04F4E1
:1023A00023430B4C08348D1044F8253030BD0A49C6
:1023B0000860704700080140000C01400010014017
:1023C0000014014000180140001C014000200140A1
:1023D0000000014000002042DC002042DD4800688F
:1023E00040F00100DB49086008464068DA490840CF
:1023F000D849486008460068D8490840D54908606F
:102400000846006820F4802008600846406820F4F0
:10241000FE0048604FF41F0088607047CD4909688E
:1024200021F48031CB4A11601146096821F48021E2
:102430001160B0F5803F03D0B0F5802F0ED106E0DB
:10244000C449096841F48031C24A116007E0C149BA
:10245000096841F4A021BF4A116000E000BF00BF3D
:10246000704710B501460022002300204A11012ABE
:1024700002D1B84C236806E0022A02D1B54C236A87
:1024800001E0B44C636A01F01F02012494401C4235
:1024900001D0012000E0002010BD38B500200090E0
:1024A0000024002500BF3120FFF7DBFF0546009820
:1024B000401C00900098B0F5A06F01D0002DF2D024
:1024C0003120FFF7CEFF08B1012400E000242046B0
:1024D00038BD014600209F4A106820F0F80040EA0D
:1024E000C100106070479E49086070470246002096
:1024F000984B586820F47C1042EA01031843954B2E
:102500005860704796490866704701460020914A16
:10251000506820F003000843506070478D484068C1
:1025200000F00C007047014600208A4A506820F0F5
:10253000F00008435060704701460020854A50680B
:1025400020F4E06008435060704701460020814A53
:10255000506820F4605040EAC1005060704729B1D3
:102560007C4A527A02437B4B5A7204E0794A527A8F
:102570008243784B5A7270477A4908607047014627
:102580000020744A506820F440400843506070476F
:102590000021754A11706F4A82F82010012802D07C
:1025A000042808D103E001216F4A117004E00521DD
:1025B0006D4A117000E000BF00BF70476B490860B2
:1025C00070476449096A0143624A1162704767496A
:1025D00044390860704730B50021002200240023F0
:1025E0005C4D6D6805F00C0121B1042905D0082966
:1025F00023D105E05E4D056022E05D4D05601FE0E2
:10260000544D6D6805F47012524D6D6805F48034B8
:10261000022505EB92421CB9564D554305600BE06F
:102620004C4D6D6815F4003F03D0524D5543056085
:1026300002E04F4D5543056002E04D4D056000BF7F
:1026400000BF444D6D6805F0F00109094A4D6B5C0F
:102650000568DD4045603F4D6D6805F4E061090A9D
:10266000454D6B5C4568DD4085603A4D6D6805F40D
:102670006051C90A404D6B5C4568DD40C560354D11
:102680006D6805F44041890B3C4D6B5CC568B5FB3A
:10269000F3F5056130BD29B12E4A526902432D4B35
:1026A0005A6104E02B4A526982432A4B5A617047AF
:1026B00029B1284A92690243264B9A6104E0254ACF
:1026C00092698243234B9A61704729B1214AD269AA
:1026D0000243204BDA6104E01E4AD26982431D4B5B
:1026E000DA61704729B11B4AD2680243194BDA609C
:1026F00004E0184AD2688243164BDA60704729B169
:10270000144A12690243134B1A6104E0114A126918
:102710008243104B1A617047144940390860704772
:102720000F49C86470470B49C87170470948406A2F
:1027300040F0807007494862704701460020054A12
:1027400092680A4201D0012000E000207047014950
:1027500088727047001002400000FFF8FFFFF6FE8D
:1027600000004242D800424220100240800442420F
:1027700000127A0000093D00180000202800002007
:1027800010B50446FE48844208D10121C014FFF769
:10279000A9FF0021E014FFF7A5FFC4E0B4F1804FCA
:1027A00008D101210846FFF7AAFF00210120FFF709
:1027B000A6FFB8E0F348844208D101210220FFF7C8
:1027C0009EFF00210220FFF79AFFACE0EE48844212
:1027D00008D101210420FFF792FF00210420FFF718
:1027E0008EFFA0E0E948844208D101210820FFF7CC
:1027F00086FF00210820FFF782FF94E0E44884422E
:1028000008D101211020FFF77AFF00211020FFF7E7
:1028100076FF88E0DF48844208D101212020FFF7BD
:102820006EFF00212020FFF76AFF7CE0DA48844237
:1028300008D101214014FFF755FF00216014FFF774
:1028400051FF70E0D548844209D10121C804FFF747
:1028500049FF00214FF40020FFF744FF63E0D04818
:10286000844209D101210805FFF73CFF00214FF404
:102870008010FFF737FF56E0CA48844209D1012192
:102880004805FFF72FFF00214FF40010FFF72AFF44
:1028900049E0C548844208D101214020FFF72FFFBD
:1028A00000214020FFF72BFF3DE0C048844208D1C3
:1028B00001218020FFF723FF00218020FFF71FFF69
:1028C00031E0BB48844208D101218015FFF717FF92
:1028D0000021A015FFF713FF25E0B648844209D177
:1028E00001210804FFF7FEFE00214FF48030FFF7BE
:1028F000F9FE18E0B048844209D101214804FFF7ED
:10290000F1FE00214FF40030FFF7ECFE0BE0AB4886
:10291000844208D101218804FFF7E4FE00214FF42E
:102920008020FFF7DFFE10BD00220288944B984202
:102930000ED0994B98420BD0B0F1804F08D0914BFC
:10294000984205D0904B984202D0904B984204D1C7
:102950004FF68F731A404B881A438D4B984207D01D
:102960008C4B984204D04FF6FF431A40CB881A4351
:1029700002808B8883850B880385814B98420BD01E
:10298000854B984208D08B4B984205D08A4B984291
:1029900002D08A4B984201D10B7A038601238382AD
:1029A000704770B5002400220023058C4FF6FE7698
:1029B00035400584028C8388048B4FF68F752C403C
:1029C000B51E2C400D882C43751E2A400D892A43C4
:1029D0004D882A436A4DA8420BD06F4DA84208D0BB
:1029E000744DA84205D0744DA84202D0734DA84240
:1029F00013D14FF6F7752A404D892A434FF6FB75E0
:102A00002A408D882A434FF6FF652B404FF6FF552D
:102A10002B408D892B43CD892B4383800483CD8824
:102A20008586028470BD70B5002400220023058CC9
:102A30004FF6EF7635400584028C8388048B48F688
:102A4000FF752C404FF6FF452C400D884FF6FF7662
:102A500006EA05252C434FF6DF752A400D8906EA64
:102A600005152A434D8806EA05152A43444DA84218
:102A700002D0494DA8421DD14FF67F752A404D899D
:102A80004FF6FF7606EA05152A434FF6BF752A4032
:102A90008D8806EA05152A434FF6FF352B404FF285
:102AA000FF752B408D8906EA85052B43CD8906EA03
:102AB00085052B4383800483CD880587028470BD00
:102AC00070B5002400220023058C4FF6FF663540C8
:102AD0000584028C8388848B4FF68F752C404FF6CB
:102AE000FC752C400D882C434FF6FF552A400D896C
:102AF0004FF6FF7606EA05252A434D8806EA0525A6
:102B00002A431F4DA84202D0234DA8421DD14FF2A7
:102B1000FF752A404D894FF6FF7606EA05252A43C0
:102B20004FF6FF352A408D8806EA05252A434EF6E2
:102B3000FF752B404DF6FF752B408D8906EA051574
:102B40002B43CD8906EA05152B4383808483CD88EA
:102B50008587028470BD70B5002200230024058C97
:102B60004EF6FF7635400584038C8488828B48F6C8
:102B7000FF752A404FF6FF452A400D8820E00000EF
:102B8000002C01400004004000080040000C004000
:102B9000001000400014004000340140004C01408F
:102BA000005001400054014000180040001C00404B
:102BB0000020004000400140004401400048014026
:102BC0004FF6FF7606EA05252A434DF6FF752B40A2
:102BD0000D8906EA05352B434D8806EA05352B435A
:102BE000FA4DA84202D0FA4DA84208D14BF6FF7523
:102BF0002C408D894FF6FF7606EA85152C4384809C
:102C00008283CD88A0F84050038470BD828B4FF240
:102C1000FF331A408283828B4FF6FF7303EA01234E
:102C20001A4382837047F0B50C46154600220021F6
:102C30000026078C4EF6FF7C07EA0C070784828B80
:102C4000018C4FF6FF7707EA043640F6FF473A401B
:102C50004FF6FF7707EA05273A434FF6FF7707EA73
:102C600003373A43D94FB8420ED0D94FB8420BD0B0
:102C7000B0F1804F08D0D74FB84205D0D64FB842F8
:102C800002D0D64FB84206D14DF6FF77394046F410
:102C90008057394305E047F6FF57394044F48057E1
:102CA000394382830184F0BD828B4FF6F3731A405F
:102CB0008283828B0A4382837047F0B50C461546A7
:102CC000002200210026078C4FF6FF6C07EA0C0754
:102CD0000784828B018C4FF6FF7707EA04264FF6B4
:102CE0000C773A404FF6FF7707EA03172F433A4332
:102CF000B64FB8420ED0B64FB8420BD0B0F1804FAD
:102D000008D0B44FB84205D0B34FB84202D0B34F49
:102D1000B84206D14FF6FF57394046F48077394321
:102D200005E04FF2FF57394044F4807739438283FE
:102D30000184F0BD028B4FF2FF331A400283028BF5
:102D40004FF6FF7303EA01231A4302837047F0B57D
:102D50000C461546002200210026078C4FF6EF7C1A
:102D600007EA0C070784028B018C4FF6FF7707EA0E
:102D7000041640F6FF473A404FF6FF7707EA03375D
:102D80003A434FF6FF7707EA05273A438F4FB84299
:102D90000ED08F4FB8420BD0B0F1804F08D08D4F7E
:102DA000B84205D08C4FB84202D08C4FB84206D101
:102DB0004FF6DF77394046F01007394305E04FF60C
:102DC0005F77394044F01007394302830184F0BD36
:102DD000028B4FF6F3731A400283028B0A4302837D
:102DE0007047F0B50C46154600220021068C4FF6C0
:102DF000FE773E400684028B018C4FF60C76324003
:102E00007E1C06EA03162E433243704EB0420ED0AB
:102E10006F4EB0420BD0B0F1804F08D06D4EB04233
:102E200005D06D4EB04202D06C4EB04206D14FF686
:102E3000FD76314044F00106314305E04FF6F5766A
:102E4000314044F00106314302830184F0BD70B586
:102E500005460C465D4885420ED05D4885420BD044
:102E6000B5F1804F08D05B48854205D05A4885426D
:102E700002D05A48854200D100E000BF208850B9F6
:102E80002389A28861882846FFF7ABFFE18828469E
:102E9000FFF79EFF25E0208804280AD12389A28815
:102EA00061882846FFF753FFE1882846FFF742FF75
:102EB00017E0208808280AD12389A288618828463B
:102EC000FFF7FBFEE1882846FFF7EEFE09E02389C5
:102ED000A28861882846FFF7A6FEE1882846FFF70A
:102EE00095FE70BD2DE9F04105460C4600260127F0
:102EF000608808B9022600E00026A088012801D1D8
:102F0000022700E001272088A0B92389A2886188D0
:102F10002846FFF766FFE1882846FFF759FF238917
:102F20003A4631462846FFF712FFE1882846FFF768
:102F300001FF13E02389A28861882846FFF707FF75
:102F4000E1882846FFF7F6FE23893A4631462846AF
:102F5000FFF747FFE1882846FFF73AFFBDE8F08119
:102F60000A884B881A438B881A43CB881A430B89EB
:102F70001A434B891A438B891A43A0F8442070479F
:102F80004FF6FF71818000210180C1804180017274
:102F900070470021018041808180C1800181418191
:102FA0008181C181704700210180418001218180A0
:102FB0000021C18001817047002101804180818012
:102FC000C18001814181818170470000002C014056
:102FD000003401400004004000080040000C0040A4
:102FE00021B1028842F00102028004E002884FF61B
:102FF000FE731A400280704731B1B0F8442042F4A9
:103000000042A0F8442005E0B0F84420C2F30E02CC
:10301000A0F8442070471AB183890B43838102E0F2
:1030200083898B43838170478182704741EA020321
:10303000A0F8483070471AB183890B43838102E0BE
:1030400083898B438381704701894FF6F872114061
:10305000018170470A46002101894FF68F7319409C
:1030600011430181704730B504460D46294620467C
:10307000FFF7F0FF208940F00700208130BD2DE9E7
:10308000F04104460D4616461F46602D06D13B46CC
:10309000012231462046FFF75AFE05E03B46012259
:1030A00031462046FFF79DFE29462046FFF7D2FF16
:1030B000208940F007002081BDE8F08130B50C4642
:1030C00000210189C9B24FF6FF7505EA03251543B2
:1030D00025432943018130BD2DE9F04105460E46C7
:1030E00017469846002443463A4631462846FFF79D
:1030F000E5FF2C894FF6F870044044F007044FF6C2
:103100008F70044044F070042C81BDE8F081F0B56C
:1031100004460D4616461F463B4632462946204683
:10312000FFF7CCFF208940F480402081F0BD01856D
:10313000828270470A46002101884FF68F7319403A
:10314000114301807047F0B50C4615461E4600211C
:10315000002200230189028B038C4FF6F877394057
:1031600021434FF6FC473A4040F201173A434FF6ED
:10317000DD773B404FF6FF7707EA06172F433B43C7
:10318000018102830384F0BD0A460021018B4FF6C2
:103190008F7319401143018370470A460021018B48
:1031A00048F6FF7319404FF6FF7303EA02231943F1
:1031B000018370470A460021818B4FF68F731940B7
:1031C0001143818370470A460021818B48F6FF73C3
:1031D00019404FF6FF7303EA0223194381837047B6
:1031E00021B1028842F08002028004E002884FF69A
:1031F0007F731A400280704721B1828842F0040236
:10320000828004E082884FF6FB731A408280704708
:1032100021B1828842F00802828004E082884FF661
:10322000F7731A408280704721B1828842F0010210
:10323000828004E082884FF6FE731A4082807047D5
:103240000A460021018B4FF6F773194011430183A1
:1032500070470A460021018B4FF2FF7319404FF669
:10326000FF7303EA02231943018370470A460021D2
:10327000818B4FF6F77319401143818370470A46DB
:103280000021818B4FF2FF7319404FF6FF7303EA61
:1032900002231943818370470A460021018B4FF6B0
:1032A000FB7319401143018370470A460021018BCB
:1032B0004FF6FF3319404FF6FF7303EA0223194319
:1032C000018370470A460021818B4FF6FB7319403A
:1032D0001143818370470A460021818B4FF6FF33EB
:1032E00019404FF6FF7303EA0223194381837047A5
:1032F0000A460021018B4FF67F7319401143018369
:1033000070470A460021018BC1F30E014FF6FF738F
:1033100003EA02231943018370470A460021818B87
:103320004FF67F7319401143818370470A4600218D
:10333000818BC1F30E014FF6FF7303EA0223194399
:10334000818370470A460021018C4FF6FD731940B6
:103350001143018470470A460021018C4FF6F77330
:1033600019401143018470470A460021018C4FF631
:10337000DF7319404FF6FF7303EA02131943018408
:1033800070470A460021018C4FF67F7319404FF6B3
:10339000FF7303EA02131943018470470A460021B0
:1033A000018C4FF6FF5319404FF6FF7303EA0223D7
:1033B0001943018470470A460021018C4FF2FF73C4
:1033C00019404FF6FF7303EA022319430184704743
:1033D0000A460021018C4DF6FF7319404FF6FF732A
:1033E00003EA023319430184704730B500230124F6
:1033F0008C40A3B2048C9C430484048C02FA01F533
:10340000ADB22C43048430BD30B5002304248C407D
:10341000A3B2048C9C430484048C02FA01F5ADB27F
:103420002C43048430BD70B50346002000241846A8
:10343000183001258D40ACB21D8CA5431D8409B107
:10344000082909D100EB6100056825F070050560C9
:103450000568154305600EE00D1FC5F34E052844B1
:10346000056825F4E045056005684FF6FF7606EA35
:1034700002263543056070BD21B1028842F0020288
:10348000028004E002884FF6FD731A400280704704
:1034900021B1028842F00402028004E002884FF663
:1034A000FB731A400280704721B1828842F080028B
:1034B000828004E082884FF67F731A4082807047D2
:1034C00002884FF6F7731A40028002880A4302808E
:1034D000704782884FF68F731A40828082880A4331
:1034E0008280704702894FF6F8731A400281028980
:1034F0000A430281704702894FF67F731A400281A6
:1035000002890A4302817047818470478185704730
:10351000818670470187704781877047A0F8401007
:10352000704702884FF6FF431A40028002880A4320
:10353000028070470146888E70470146088F7047A9
:103540000146888F70470146B1F840007047014638
:10355000888C70470146088D704702460020138A08
:103560000B4201D0012000E000207047CA430282D4
:10357000704730B50246002000230024158A05EA72
:103580000103958905EA010413B10CB1012000E0A3
:10359000002030BDCA4302827047000010B50446C7
:1035A000FB48844209D101218803FFF79BF80021E1
:1035B0004FF48040FFF796F832E0F648844209D194
:1035C00001214804FFF79BF800214FF40030FFF77A
:1035D00096F825E0F048844209D101218804FFF7DC
:1035E0008EF800214FF48020FFF789F818E0EB48AF
:1035F000844209D10121C804FFF781F800214FF46A
:103600000020FFF77CF80BE0E548844208D1012157
:103610000805FFF774F800214FF48010FFF76FF8EA
:1036200010BD2DE9F04786B005460E460024A2469F
:1036300000BFA1460027B08900B100BF2F462C8AE9
:103640004CF6FF700440F08804432C82AC894EF69F
:10365000F3100440B088318908437189084304435A
:10366000AC81AC8A4FF6FF400440B0890443AC8281
:1036700001A8FEF7B0FFC648874202D1DDF810A0CE
:1036800001E0DDF80CA0A88910F4004F08D00AEB87
:10369000CA0000EB0A1031684900B0FBF1F807E0FE
:1036A0000AEBCA0000EB0A1031688900B0FBF1F8A0
:1036B0006420B8FBF0F004012009642101FB1089AB
:1036C000A88910F4004F08D0322000EBC900B0FBED
:1036D000F1F000F00700044308E0322000EB09108D
:1036E0006421B0FBF1F000F00F0004432C8106B020
:1036F000BDE8F0874FF41651016000218180C18040
:1037000001810C21418100218181704710B5024661
:103710000020108A4FF2FF0318400B884C88234387
:103720008C882343CC8823431843108210BD00218A
:10373000018041808180C180704721B1828942F43B
:103740000052828104E082894DF6FF731A40828123
:103750007047F0B503460024002600250020A1F59F
:1037600010676A3F00D100BF1846C1F3421401F050
:103770001F06012707FA06F5012C01D10C3004E0E1
:10378000022C01D1103000E014301AB107682F4329
:10379000076002E00768AF430760F0BD1AB1838A93
:1037A0000B43838202E0838A8B4383827047028AC1
:1037B0004FF6F0731A400282028A0A43028270476F
:1037C00082894FF2FF731A40828182890A43828183
:1037D000704721B1828942F00202828104E082892D
:1037E0004FF6FD731A4082817047028A4FF6DF73ED
:1037F0001A400282028A0A430282704721B1028A79
:1038000042F48042028204E0028A4BF6FF731A40BF
:1038100002827047C1F3080282807047014688889F
:10382000C0F308007047818941F001018181704730
:10383000028BD2B20283028B42EA012202837047DA
:10384000028B02F47F420283028B0A430283704799
:1038500021B1828A42F02002828204E0828A4FF6FD
:10386000DF731A408282704721B1828A42F01002CF
:10387000828204E0828A4FF6EF731A408282704798
:1038800021B1828A42F00802828204E0828A4FF6E5
:10389000F7731A408282704721B1828942F4004254
:1038A000828103E08289C2F30E028281704721B1D6
:1038B000828A42F40062828204E0828A4FF2FF73BD
:1038C0001A4082827047828A4FF6FB731A408282C6
:1038D000828A0A438282704721B1828A42F00202C0
:1038E000828204E0828A4FF6FD731A40828270471A
:1038F00002460020B1F5007F00D100BF13880B42C3
:1039000001D0012000E00020704701F40072B2F500
:10391000007F00D100BFCA430280704770B50246E5
:103920000024002300250020A1F510666A3E00D186
:1039300000BFC1F3421501F01F03012606FA03F38D
:10394000012D02D19689334006E0022D02D1168A5C
:10395000334001E0968A33400C12012606FA04F443
:103960001688344013B10CB1012000E0002070BD76
:1039700010B500220023A1F510646A3C00D100BFFD
:103980000A1201249440A3B2DC43048010BD00005D
:10399000003801400044004000480040004C004016
:1039A00000500040002044490860091D0860091DBE
:1039B0000860091D086041483F491431086070479C
:1039C00000213D498279002A3AD00A4612680368EC
:1039D0009A430B461A600A1D126803689A430B1D2E
:1039E0001A60027911440A6803681A430A60324A6D
:1039F0000832126803689A432F4B08331A601A1D65
:103A0000126803689A432C4B0C331A604279102ACF
:103A10000ED11A1F126803681A43274B08331A6025
:103A20001A1D126803681A43234B0C331A600DE009
:103A30002149427911440A6803681A430A6005E083
:103A4000027911440A6803689A430A6070470021AA
:103A5000016001710C21417100218171704716498B
:103A6000103109680143144A103211607047014651
:103A70000020114A143212680A4201D0012000E0ED
:103A8000002070470C49143108607047014600203F
:103A90000022094B1B6803EA0102074B14331B6821
:103AA0000B4202D00AB1012000E000207047024919
:103AB000143108607047000000040140FFFF0F0050
:103AC00010B501210807FEF71AFE00214FF08050C3
:103AD000FEF715FE10BD29490862704727490861A5
:103AE000704701460020264A106820F0E000084395
:103AF0001060704723490860704710B502460020E7
:103B00001F4B186820F00300104318601E4B1B6801
:103B100043F004031C4C2360012901D130BF00E0B5
:103B200020BF194B1B6823F00403174C236010BD02
:103B30001348006840F00400114908600846006816
:103B400040F0020008601048006840F004000E4990
:103B5000086000BF00BF30BF704701460020084A20
:103B600052680A4201D0012000E000207047044959
:103B7000096841EA8001024A1160704700000E4264
:103B800000700040A0000E4210ED00E029B14F4A45
:103B9000128802434D4B1A8004E04C4A128882433B
:103BA0004A4B1A8070474948001D008840F01000B9
:103BB0004649091D088070474448001D00884FF69B
:103BC000EF7108404149091D0880704700213F48B6
:103BD0001C300188001F008841EA0040704700B592
:103BE0000246FFF7E0FF100C384918310880091D24
:103BF0000A80FFF7E1FF00BD00B50246FFF7D3FFE3
:103C0000C2F30340314908310880091D0A80FFF7DB
:103C1000D3FF00BD00B50246FFF7C5FF100C2B49CE
:103C200020310880091D0A80FFF7C6FF00BD002073
:103C30002649103109880907080B244914310988DD
:103C40000843704700BF2148001D008810F0200F76
:103C5000F9D070471D48001D00884FF6F7710840E5
:103C60001A49091D088000BF1848001D008810F07F
:103C7000080FF9D0704701460020144A121D12881F
:103C80000A4201D0012000E0002070470F49091DC1
:103C9000098881430D4A121D11807047014600209A
:103CA0000A4A121D12880A40D0B2084A12880A42F3
:103CB00002D008B1012000E0002070470349091D2F
:103CC00009888143014A121D118070470028004075
:103CD0000CB50020019000906B48006840F48030E3
:103CE0006949086000BF6848006800F4003000902F
:103CF0000198401C0190009818B90198B0F5A06F88
:103D0000F1D16148006810F4003F02D0012000901A
:103D100001E0002000900098012842D15B48006833
:103D200040F01000594908600846006820F0030080
:103D300008600846006840F0020008605248406889
:103D4000514948600846406848600846406840F469
:103D5000806048600846406820F47C10486008464F
:103D6000406840F4E81048600846006840F0807001
:103D7000086000BF4448006810F0007FFAD0424855
:103D8000406820F00300404948600846406840F021
:103D90000200486000BF3C48406800F00C00082862
:103DA000F9D10CBD10B5FFF793FF10BD10B5364823
:103DB000006840F001003449086008464068344912
:103DC00008403149486008460068324908402E4999
:103DD00008600846006820F48020086008464068B3
:103DE00020F4FE0048604FF41F008860FFF7DAFF00
:103DF0004FF000602849086010BD10B50021002078
:103E00000022214B5B6803F00C0121B1042906D08C
:103E1000082928D107E0214B214C236027E01F4BC4
:103E20001F4C236023E0184B5B6803F47010164BA3
:103E30005B6803F48032022303EB904022B9194BF4
:103E40004343174C23600DE00F4B5B6813F4003FB6
:103E500004D0144B4343124C236003E00F4B434305
:103E60000F4C236003E00D4B0D4C236000BF00BFDF
:103E7000054B5B68C3F303130B4CE15C084B1B68F9
:103E8000CB40074C236010BD0010024000200240D0
:103E90000000FFF8FFFFF6FE08ED00E000127A00D8
:103EA0002C00002000093D0030000020064880471B
:103EB00006480047FEE7FEE7FEE7FEE7FEE7FEE70F
:103EC000FEE7FEE7FEE7FEE7AD3D0008ED00000877
:103ED00070B5054C054D03E0206820448047241D43
:103EE000AC42F9D170BD00003C41000840410008DF
:103EF00000F014B8004870474000002009207047C7
:103F000009207047704770470920704702480146F2
:103F10004860001D704700004400002010B500F00C
:103F200020F8016919B100220261884701E0806828
:103F30008047AFF300800000064C074D06E0E068C4
:103F400040F0010394E8070098471034AC42F6D3E0
:103F5000FCF7D0F81C4100083C41000810B5AFF355
:103F6000008070B5FFF7D2FF04680546A4B9202091
:103F700000F096F8040011D0094900202C60C4E933
:103F800000010849A1602073206160610649A061B9
:103F900009B100F00BF8E061204670BDAFF300807E
:103FA000000000005D3F00080000000010B5882000
:103FB00000F076F8002801D00021017010BD8029A2
:103FC00002D808B1017809B100207047012100F83A
:103FD000081B704718B100F10802914201D000207F
:103FE0007047002101707047017043608260704724
:103FF00010B500F001F810BD10B500F029F810BDA3
:1040000010B500F001F810BD10B5040007D101246F
:1040100005E0FFF76FFF006800B9044880472046BD
:1040200000F03EF80028F4D010BD0000F13E00087A
:1040300002E008C8121F08C1002AFAD17047704771
:10404000002001E001C1121F002AFBD170470000CF
:1040500010B5002821D0114B001F0022196803E081
:10406000814203D80A4649680029F9D152B1136840
:10407000841A9C4204D1006818441060104602E083
:10408000506000E0186039B102680B1A934203D106
:104090000B681A4402604968416010BD4C00002062
:1040A000F0B50B30154D20F007010024144A0FE045
:1040B00003688B420BD38B4205D95E1A43184768BD
:1040C000C3E9006700E04368136002C004E0021D1A
:1040D00010680028ECD12046002802D1286808B1D9
:1040E0000020F0BD064A07481060074A121A22F065
:1040F0000702C0E9002401202860D7E75000002013
:104100004C0000207C0200207812002000000000FB
:1041100000000000AD0A0008D50A00084041000870
:1041200000000020540000003040000894410008C6
:10413000540000202416000040400008BDD1FFFFBD
:10414000000000000000000000000000010000006E
:104150000000000000000000000000000102030455
:1041600001020304060708090204060800A24A0423
:104170000000000000000000010203040607080917
:10418000000000000000000000000000000000002F
:04419000000000002B
:04000005080000ED02
:00000001FF
