:020000040800F2
:1000000010290020794D0008D1030008DD03000805
:10001000EF0300080B0400081F04000800000000A4
:100020000000000000000000000000003304000891
:100030003F040008000000004B04000857040008BB
:10004000934D0008934D0008934D0008934D000810
:10005000934D0008934D000841030008934D00089C
:10006000934D0008934D0008934D0008CF260008DB
:10007000934D0008934D0008934D0008934D0008E0
:10008000934D0008934D0008934D0008934D0008D0
:10009000934D0008934D0008934D0008934D0008C0
:1000A000934D0008934D0008934D0008934D0008B0
:1000B0005703000885030008AB030008934D0008B0
:1000C000934D0008934D0008934D0008934D000890
:1000D000934D00083D1C00086F1C0008A11C00087F
:1000E000934D000859040008934D0008DFF810D024
:1000F00004F088FE04F052FE00480047090300089F
:100100001029002010B503F0CFF84FF4803003F031
:10011000EBF803F028F9DF49087008460078012859
:1001200024D1002003F065F9002003F074F94FF4A6
:10013000806003F067F94FF4E0114FF4803003F072
:100140003BF9012003F044F901211D2003F016FAC8
:1001500000BF392003F0EBF80028FAD0022003F0AA
:100160003AF900BF03F040F90828FBD110BD10B5E3
:100170004FF4803003F0B8F803F0F5F8C549087083
:100180000846007801280FD103F022F900BF39207A
:1001900003F0CDF80028FAD0022003F01CF900BFCC
:1001A00003F022F90828FBD110BD08B54FF6C04076
:1001B000ADF8000010208DF8030003208DF8020038
:1001C0006946B54802F024FF0120ADF80000042084
:1001D0008DF803006946B14802F01AFF08BD1CB54E
:1001E0000021084603F028F8012004F02CFC01202F
:1001F000009000208DF804000C208DF805000120EF
:100200008DF80600684604F0A7FB1CBD10B5012060
:1002100004F039FB012003F021F900BF412003F075
:1002200086F80028FAD04FF4807003F030F90120EE
:1002300003F033F904F074FC47F6FF7004F042FC5D
:1002400004F066FC0121022004F006FC04F060FCCE
:1002500010BD08B500214FF0006002F0F3FA4FF432
:10026000C06002F0B7FA29208DF8000000208DF858
:1002700001008DF8020001208DF80300684602F0AD
:10028000AEFA06208DF8000000208DF801006846C7
:1002900002F0A5FA08BD704770471FB50121042080
:1002A00003F06CF90121080703F075F901210846F4
:1002B00003F064F90120ADF8040004208DF8070074
:1002C00001A9764802F0A4FE0021084602F0B4FF1E
:1002D0000120029000208DF80C0008208DF80D0000
:1002E00001208DF80E0002A804F036FB06208DF8E0
:1002F000000001208DF801008DF802008DF8030048
:10030000684602F06CFA1FBD012080F3108800BF20
:100310004FF4A06002F05EFA02F0A4F8802004F02E
:1003200009FE044600F049FB04465D48046000688D
:1003300000F053FF002080F3108800BF00BFFEE7ED
:1003400010B5012004F06EFB20B1012004F07BFB0E
:1003500004F092FC10BD10B54FF0804002F012F88E
:1003600078B14FF0804002F015F84FF0804002F075
:1003700001F84B48006800F075FE4FF0804001F036
:10038000F1FF10BD10B5474801F0FCFF60B14548D2
:1003900002F000F8434801F0EDFF4148006800F02A
:1003A000D4FE404801F0DEFF10BD10B53E4801F01C
:1003B000E9FF60B13C4801F0EDFF3B4801F0DAFF96
:1003C0003748006800F0E0FE374801F0CBFF10BD71
:1003D00010B53648006801F047FB10BD06E0642008
:1003E00002F09FF83148006801F087FBF7E72F48DB
:1003F000006801F039FB07E04FF4FA7002F091F861
:100400002A48006801F079FBF6E707E04FF47A70BC
:1004100002F087F82548006801F06FFBF6E707E077
:100420004FF4FA6002F07DF82048006801F065FBA7
:10043000F6E710B51D48006801F016FB10BD10B5B9
:100440001A48006801F010FB10BD10B5174800688D
:1004500001F00AFB10BD704710B5022004F084FBC8
:10046000B0B140F6FF700C490C3108604FF4003019
:1004700004F0E9FA012004F048FA10B1012004F078
:100480004EFA04F045FB022004F0DDFA04F040FBD4
:1004900010BD000008000020000C014000080140D1
:1004A000000000200004004000080040040000207C
:1004B00010B58CB00446FEA003C8CDE90A01FEA128
:1004C00003C9CDE90801FEA103C9CDE90601FEA1DA
:1004D00003C9CDE90401FEA103C9CDE90201FEA1D2
:1004E00003C9CDE9000194F87800292805DB0AAAA0
:1004F0000221242001F08EF82CE094F878002828BE
:1005000005DB08AA0221242001F084F822E094F8F7
:100510007800262805DD06AA0221242001F07AF8B9
:1005200018E094F87800252805DD04AA022124208B
:1005300001F070F80EE094F87800242805DD02AA96
:100540000221242001F066F804E06A4602212420FA
:1005500001F060F80CB010BDE149098801EB4111D0
:1005600001EB4101C1F3073180F8781070471FB5E6
:10057000044694F8750030B302E0606801F042FF71
:10058000606801F05EFF0028F7D0042206210020F9
:1005900001F0BDF8052206210C2001F0B8F8022276
:1005A0000621182001F0B3F803220621242001F0CF
:1005B000AEF8CCA30FCB8DE80F006A4604210020D3
:1005C00001F028F822E000220621104601F09FF8F1
:1005D000012206210C2001F09AF80222062118209F
:1005E00001F095F803220621242001F090F8112251
:1005F0000421002001F08BF8122204210C2001F0CC
:1006000086F813220421182001F081F81FBD10B5CF
:1006100004460A220021102001F079F80B22002163
:100620001C2001F074F80C220021282001F06FF842
:100630000D220021342001F06AF80E220021402012
:1006400001F065F80F2200214C2001F060F8102223
:100650000021582001F05BF814220221002001F053
:1006600056F8152202210C2001F051F81322022124
:10067000182001F04CF810BD70B50446142004F0A9
:1006800055FC2060002004E000F130012268115484
:10069000401C1428F8DB062004F048FCA060002071
:1006A00003E00021A2681154401C0628F9DB002059
:1006B00004F8740F0C2004F03DFC054601F084FEA4
:1006C000054644F8700C012060700020A0700120E5
:1006D000E07000206071A071A0602071A4F174042A
:1006E00070BD10B5044601F08DF800F0F1FE10BDAC
:1006F00070B50446082004F01DFC0546642211076D
:1007000001F0B6FD0546206101221146206901F085
:100710003AFD3221206901F044FD082004F00AFC72
:1007200005466422734901F0A3FD0546606103227A
:100730000121606901F027FD5021606901F031FD60
:10074000082004F0F7FB054664226B4901F090FD98
:100750000546A06102220121A06901F014FDC82113
:10076000A06901F01EFD70BD70B50446102004F0B4
:10077000E1FB05464FF41652012101F033FC05461A
:10078000E061E06901F0A7FC142004F0D3FB064609
:10079000E16900F05BFD0646206270BD10B50446BD
:1007A00001F069FF10BD70B504460C2004F0C2FBD7
:1007B000054601230422514901F0B9F9054660625A
:1007C0000C2004F0B7FB054601231A464C4901F002
:1007D000AEF90546A0620C2004F0ACFB05460123EF
:1007E000DA03464901F0A3F90546E0620C2004F063
:1007F000A1FB054601230822414901F098F905466D
:1008000020630C2004F096FB0546012302223C499C
:1008100001F08DF9054660630C2004F08BFB054662
:1008200001230422364901F082F90546A0630C2019
:1008300004F080FB05460123DA02304901F077F924
:100840000546E0630C2004F075FB054601231A03FE
:100850002A4901F06CF9054620640C2004F06AFB7B
:10086000054601239A02264901F061F905466064B4
:100870000C2004F05FFB05460123DA02204901F059
:1008800056F90546A0640C2004F054FB05460123EC
:10089000DA031B4901F04BF90546E0640C2004F033
:1008A00049FB054601231A02144901F040F929E0E9
:1008B00031303025000000002038302500000000D5
:1008C00020363025000000002034302500000000D4
:1008D00020323025000000002020352500000000D7
:1008E000B0100020202020202020202020202020A8
:1008F0002000000000040040000800400008014003
:10090000000C0140054620650C2004F013FB054651
:1009100001231A03FC4901F00AF9054660650C2021
:1009200004F008FB054601239A03F74901F0FFF89C
:100930000546A0650C2004F0FDFA054601235A0384
:10094000F14901F0F4F80546E065082004F0F2FAF8
:10095000064600238022EC4901F0B1F806462066E5
:10096000082004F0E7FA064601234022E64901F098
:10097000A6F806466066082004F0DCFA0646012365
:100980002022E14901F09BF80646E066082004F0C9
:10099000D1FA064601231022DB4901F090F8064601
:1009A000A06670BD10B504460121084602F0E6FDC0
:1009B0000121D64802F0FBFB10BD10B504462046CD
:1009C000FFF7F0FF2046FFF7EEFE606E01F087F8BC
:1009D000E06E01F084F8A06E01F081F8642001F06F
:1009E000A0FD2046FFF7DAFE2046FFF7BDFE2046B9
:1009F000FFF77EFE2046FFF774FE2046FFF73CFE21
:100A0000206E01F031F82046FFF701FE2046FFF787
:100A1000AEFD2046FFF7A0FD2046FFF749FD20462A
:100A200010BD0146486D007830B3C86D007818B32A
:100A3000886D007800B3086D0078E8B1486A0078E6
:100A4000D0B1886A0078B8B1C86A0078A0B1086BE4
:100A5000007888B1486B007870B1886B007858B125
:100A6000C86B007840B1086C007828B1486C0078F9
:100A700010B1886C007808B9012070470020FCE7AD
:100A800010B5044694F8760002280AD108220621FF
:100A90005A2000F03CFE09220621662000F037FEB5
:100AA00013E094F8760001280AD1062211465A2054
:100AB00000F02DFE07220621662000F028FE04E04B
:100AC000934A06215A2000F0A5FD10BD0146914829
:100AD0000078CA6D1278904209D0C86D007808B1CC
:100AE000012000E000208B4A1070012070478948E7
:100AF00040788A6D1278904209D0886D007808B1EC
:100B0000012000E00020834A50700120EEE7814878
:100B100080784A6D1278904209D0486D007808B10B
:100B2000012000E000207B4A90700120DEE70020D9
:100B3000DCE770B504467848007BA16D09788842EF
:100B400011D0A06D007808B1012000E000207249AA
:100B50000873A06D007828B9022084F8760020463A
:100B6000FFF78EFF70BD6C48407BE16D09788842CD
:100B700011D0E06D007808B1012000E00020664946
:100B80004873E06D007828B9012084F8760020468B
:100B9000FFF776FFE6E794F8750000287ED15E48FF
:100BA0004078616A0978884223D0606A007808B189
:100BB000012000E0002058494870606A0078C0B900
:100BC000606801F046FC88B93121606801F000FCE2
:100BD000606801F02BFC0646606801F02FFC4F496D
:100BE0000D5C32460421284600F092FC206E00F095
:100BF00084FF49488078A16A0978884223D0A06A96
:100C0000007808B1012000E0002043498870A06A04
:100C10000078C0B9606801F01CFC88B932216068B6
:100C200001F0D6FB606801F001FC0646606801F047
:100C300005FC3A490D5C32460421284600F068FC68
:100C4000206E00F05AFF3448C078E16A0978884283
:100C500023D0E06A007808B1012000E000202E498E
:100C6000C870E06A0078C0B9606801F0F2FB88B92A
:100C70003321606801F0ACFB606801F0D7FB0646E9
:100C8000606801F0DBFB25490D5C324604212846F3
:100C900000F03EFC206E00F030FF00E031E11E4825
:100CA0000079216B0978884223D0206B007808B145
:100CB000012000E0002018490871206B0078C0B9BD
:100CC000606801F0C6FB88B93421606801F080FBE0
:100CD000606801F0ABFB0646606801F0AFFB0F49AE
:100CE0000D5C32460421284600F012FC206E00F014
:100CF00004FF09484079616B097888422FD0606B06
:100D0000007868B101200CE0000C014000023000C6
:100D10002C08002040080020F01000203850000867
:100D20000020FE494871606B0078C0B9606801F02E
:100D300090FB88B93521606801F04AFB606801F0DA
:100D400075FB0646606801F079FBF5490D5C32469B
:100D50000421284600F0DCFB206E00F0CEFEEF48B8
:100D60008079A16B0978884223D0A06B007808B104
:100D7000012000E00020E9498871A06B0078C0B92B
:100D8000606801F066FB88B93621606801F020FBDD
:100D9000606801F04BFB0646606801F04FFBE049DC
:100DA0000D5C32460421284600F0B2FB206E00F0B4
:100DB000A4FEDA48C079E16B0978884223D0E06B61
:100DC000007808B1012000E00020D449C871E06B30
:100DD0000078C0B9606801F03CFB88B937216068D1
:100DE00001F0F6FA606801F021FB0646606801F048
:100DF00025FBCB490D5C32460421284600F088FBD8
:100E0000206E00F07AFEC548007A216C097888428D
:100E100023D0206C007808B1012000E00020BF49F9
:100E20000872206C0078C0B9606801F012FB88B9C4
:100E30003821606801F0CCFA606801F0F7FA0646E4
:100E4000606801F0FBFAB6490D5C32460421284681
:100E500000F05EFB206E00F050FEB048407A616CFE
:100E60000978884223D0606C007808B1012000E046
:100E70000020AA494872606C0078C0B9606801F02F
:100E8000E8FA88B93921606801F0A2FA606801F0D7
:100E9000CDFA0646606801F0D1FAA1490D5C3246F0
:100EA0000421284600F034FB206E00F026FE9B480B
:100EB0000078A16C0978884223D0A06C007808B132
:100EC000012000E0002095490870A06C0078C0B9AE
:100ED000606801F0BEFA88B93021606801F078FAE4
:100EE000606801F0A3FA0646606801F0A7FA8C4931
:100EF0000D5C32460421284600F00AFB206E00F00B
:100F0000FCFD8648807A216D097888421BD0206DCF
:100F1000007808B1012000E0002080498872206D2F
:100F2000007880B9606801F08CFA60B9606801F0FF
:100F300085FA7B490D5C20220421284600F0E8FA5E
:100F4000606801F05FFA7548C07A616D097888427F
:100F500016D0606D007808B1012000E000206F49D4
:100F6000C872606D007858B994F87500C0F101003E
:100F700084F875002046FFF7FAFA002084F876001E
:100F80006648807BE16C097888420DD0E06C00787F
:100F900008B1012000E0002060498873E06C00780F
:100FA00010B9606E00F060FD606D007830B3E06DE8
:100FB000007818B3A06D007800B3206D0078E8B118
:100FC000606A0078D0B1A06A0078B8B1E06A0078B1
:100FD000A0B1206B007888B1606B007870B1A06B15
:100FE000007858B1E06B007840B1206C007828B1EF
:100FF000606C007810B1A06C007808B90320E0673D
:1010000000BFAFE510B50446606A00F0A6FDA06A17
:1010100000F0A3FDE06A00F0A0FD206B00F09DFD54
:10102000606B00F09AFDA06B00F097FDE06B00F0A4
:1010300094FD206C00F091FD606C00F08EFDA06CC2
:1010400000F08BFD206D00F088FD606D00F085FDE7
:10105000A06D00F082FDE06D00F07FFDE06C00F01F
:101060007CFD10BD10B504462E480068642802DDE2
:1010700000202C4908602B480068002804DD29481E
:101080000068401C274908602046FFF7BBFF204648
:10109000FFF74FFD2046FFF719FD40B12046FFF74F
:1010A000EFFC2046FFF763FA01201E4908601D4847
:1010B0000068142190FBF1F201FB120030B92046C8
:1010C000FFF7AFFC10B900201649086010BD10B53D
:1010D0000446606801F0B2F910BD70B5044694F89A
:1010E0007700000194F8761000EB810094F87510F9
:1010F0000844A1680870002507E06068405D30384A
:10110000C1B2681CA26811546D1C606801F096F9A8
:10111000A842F2DA606801F091F905E0F0100020D1
:101120003850000834080020451C04E00021681CE9
:10113000A26811546D1C052DF8DBA168206A00F02F
:10114000D4F8206A00F0E9F870BD10B504463C48B8
:101150000068002804DD3A480068401C38490860EF
:10116000374800680A2802DD00203549086094F8F5
:10117000760028B10120324908602046FFF7ADFF14
:101180002046FFF7A4FF10BD10B504462D480068A7
:10119000401C2C49086008460068412804DD0020F6
:1011A00084F87600086006E0264800683C2802DDE6
:1011B000022084F876002046FFF762FC2046FFF705
:1011C000CBF92046FFF774F9E06F401CE067E06F51
:1011D000642801DD0020E06710BD10B504460A2038
:1011E00001F09FF9206901F0B6F8606901F0B3F8E9
:1011F000A06901F0B0F810BD704770B505464FF416
:10120000803002F071F802F0AEF80446012C0FD1E4
:1012100002F0DEF800BF392002F089F80028FAD089
:10122000022002F0D8F800BF02F0DEF80828FBD157
:1012300070BD0146044A5288C2F30710704700008F
:10124000380800203C080020B010002070B504468B
:101250000D46634820606560082003F06BFE06467B
:101260000C2100F09BFB0646A0600C2003F05EFE04
:10127000E0600C2003F05AFE2061002003E0002112
:10128000E2681154401C0C28F9DB002003E0002127
:1012900022691154401C0C28F9DBA420E168087075
:1012A0000120E16848708020E1688870204670BDA8
:1012B00070B504464A482060A06828B1A06800F0D4
:1012C000A5FB054603F02EFEE06803F027FE20692B
:1012D00003F024FE204670BD70B504462046FFF79B
:1012E000E7FF054603F01EFE70BD70B50A460023F9
:1012F000002104E0555CCC1CC6683555491C062904
:10130000F8DB002104E0C468645C1C44E3B2491CBF
:101310000B29F8DBC168CB7270BD10B50446FF2104
:10132000606800F0A9FEFF21606800F0A5FE0C22B5
:10133000E168606800F0ACFE10BD2DE9F0410446A4
:101340000025002742E0606800F090FE0646314626
:10135000A06800F085FBA06800F077FBA06800F0B3
:1013600070FBA52832D105F1A500C5B2A06800F038
:101370006CFBA06800F065FB012823D1002608E083
:10138000A06800F05EFB2844C5B2A06800F05DFBD9
:10139000761C0A2EF4DBA06800F053FBA8420DD1A6
:1013A000002608E0A06800F050FBA06800F049FBB0
:1013B00021698855761C0C2EF4DB0127A06800F00B
:1013C00044FB02E0A06800F044FB0025606800F0E8
:1013D00020FE08B1002FB6D03846BDE8F0810000ED
:1013E00068580008014605E0002001E0421CD0B228
:1013F0007B28FBDB0A00A1F10101F5D1704770B534
:1014000004460E4626B10821F84801F0ACFE03E080
:101410000821F64801F0A9FE0821F54801F0A5FED3
:10142000002517E02021F14801F09FFE14F0800F05
:1014300004D08021ED4801F096FE03E08021EB48C6
:1014400001F093FE2021E94801F08DFE6006040EB4
:10145000681CC5B2082DE5DB0821E54801F083FED4
:101460000821E24801F07FFE70BD70B504460D46CC
:1014700005F1B001C8B20021FFF7C1FF102141EA18
:1014800014100021FFF7BBFF04F00F0141F0010031
:101490000021FFF7B4FF70BD10B500218D20FFF7CC
:1014A000AEFF00211420FFF7AAFF0021AF20FFF7B5
:1014B000A6FF10BD10B500218D20FFF7A0FF002171
:1014C0001020FFF79CFF0021AE20FFF798FF10BD12
:1014D00070B5002419E004F1B001C8B20021FFF793
:1014E0008EFF00210846FFF78AFF00211020FFF73A
:1014F00086FF002505E001210020FFF780FF681C22
:10150000C5B2802DF7DB601CC4B2082CE3DB70BDD4
:101510002DE9F04107460E46904600250024A8F12B
:101520002000C5B27F2F02DD0027B01CC6B23146B5
:101530003846FFF79AFF002408E004EB0511AD4A96
:10154000505C0121FFF75BFF601CC4B2082CF4DB88
:10155000701CC1B23846FFF788FF002409E004EB95
:1015600005110831A34A505C0121FFF748FF601CB8
:10157000C4B2082CF3DBBDE8F08110B502460120AF
:1015800000E050430B00A1F10104E1B2F9D110BD1C
:101590002DE9FF5F074691461D460E9E4FF0000A5B
:1015A000002433E0281B401EC1B20A20FFF7E5FFEC
:1015B000B9FBF0F00A21B0FBF1F201FB1208BAF11D
:1015C000000F13D1681EA04210DDB8F1000F0BD13F
:1015D000B34606EBDB71491001FB0471C8B220224F
:1015E0000199FFF795FF0FE04FF0010AB34606EBB4
:1015F000DB71491001FB0471C8B208F13001CAB2B5
:101600000199FFF785FF00BF601CC4B2AC42C9DB83
:10161000BDE8FF9F2DE9F04104460F461546002620
:101620000EE0AA5D39462046FFF772FF04F108007C
:10163000C4B2782C02DD0024B81CC7B2701CC6B23C
:10164000A85D0028EDD1BDE8F0812DE9F04180468C
:101650000E461546002731464046FFF706FF002498
:101660000AE0654A02EB8511085D0121FFF7C7FE1C
:10167000781CC7B2601CC4B2102CF2DB701CC1B263
:101680004046FFF7F2FE00240CE06900491C5A4A6C
:1016900002EB4111085D0121FFF7B1FE781CC7B2D2
:1016A000601CC4B2102CF0DBBDE8F0812DE9F041E4
:1016B00080460E461546002731464046FFF7D5FEC8
:1016C00000240AE04D4A02EB8511085D0121FFF775
:1016D00096FE781CC7B2601CC4B2102CF2DB701CE2
:1016E000C1B24046FFF7C1FE00240CE06900491C6E
:1016F000424A02EB4111085D0121FFF780FE781C90
:10170000C7B2601CC4B2102CF0DBBDE8F0812DE93B
:10171000F04180460E461546002731464046FFF709
:10172000A4FE00240DE0690001EB4101344A02EB04
:10173000C101085D0121FFF762FE781CC7B2601C81
:10174000C4B20C2CEFDB701CC1B24046FFF78DFE1B
:1017500000240EE06900491C01EB4101284A02EB1C
:10176000C101085D0121FFF74AFE781CC7B2601C69
:10177000C4B20C2CEEDBBDE8F0812DE9F05F06462B
:101780000F4690461C46DDF828A04FF0000BE117ED
:1017900004EB5171C910B4EBC10105D12046E1172A
:1017A00004EB5171CD1005E02046E11704EB5171B7
:1017B000C9104D1C3D4615E029463046FFF755FE41
:1017C000B1460BE059460BF1010B1AF8010001215B
:1017D000FFF715FE09F1010000F0FF09C145F1DB3B
:1017E000681CC5B2A542E7DBBDE8F09F00080140D8
:1017F000001401406F5200084C0800200C0A002021
:101800008C0C002008B50121042001F0B7FEB8209F
:10181000ADF8000010208DF8030003208DF80200C1
:1018200069465B4801F0F4FBB821594801F09BFC84
:101830000320ADF800006946564801F0E9FB03219A
:10184000544801F090FC4FF40040ADF800006946A8
:10185000514801F0DDFB4FF400414F4801F083FC9B
:1018600010214B4801F07FFC4FF47A70FFF7BAFD6E
:101870001021474801F079FC4FF47A70FFF7B2FD70
:101880001021434801F06FFC0021FD20FFF7B7FD58
:1018900000211220FFF7B3FD0021AE20FFF7AFFDBE
:1018A0000021D520FFF7ABFD0021A020FFF7A7FD09
:1018B0000021A820FFF7A3FD00213F20FFF79FFD97
:1018C0000021D320FFF79BFD00210846FFF797FD7D
:1018D00000214020FFF793FD0021A120FFF78FFD9D
:1018E0000021C820FFF78BFD0021DA20FFF787FDDC
:1018F00000210220FFF783FD00210846FFF77FFD4E
:101900000021D520FFF77BFD00218020FFF777FD28
:101910000021D920FFF773FD0021F120FFF76FFDB3
:101920000021DA20FFF76BFD00211220FFF767FD91
:1019300000218120FFF763FD0021BF20FFF75FFD3D
:101940000021D920FFF75BFD00212520FFF757FD7F
:101950000021DB20FFF753FD00213420FFF74FFD6E
:101960000021A420FFF74BFD0021A620FFF747FD33
:101970000021AF20FFF743FD0021AF20FFF73FFD1F
:10198000FFF7A6FD00210846FFF76FFD08BD000028
:101990000008014000100140002001402DE9F04105
:1019A00004460D46012D04DA002060602046BDE8A3
:1019B000F08125600C2003F0BDFA064600231A468C
:1019C000194603F0A7FA06466060606840606068E8
:1019D0008060002715E00C2003F0ACFA80466068B8
:1019E000024600214368404603F094FA804660684E
:1019F000C0F8048060684068616849684968886028
:101A00007F1C681EB842E6DC2046D0E72DE9F04195
:101A100005466868446807E0666824B100BF274649
:101A2000384603F07FFA34466868A042F4D168680B
:101A300020B1686800BF074603F074FA2846BDE885
:101A4000F081014648680078704741684968416004
:101A5000704741688968416070470146086870476F
:101A6000426811707047000010B50446A07920B19B
:101A7000A188206801F079FB03E0A188206801F0CB
:101A800072FB10BD10B504462349206888420CD172
:101A9000A088012802D0A088022806D1A0881022A0
:101AA0000321236800F040FE05E0A08810220121F8
:101AB000236800F039FE2046FFF7D6FF10BD2DE960
:101AC000F04104460F4615461E462760A580A671C4
:101AD0002046FFF7D7FF2046BDE8F081704710B5DC
:101AE0000446A07920B1A188206801F03CFB03E006
:101AF000A188206801F039FB10BD70B50446A188AB
:101B0000206801F023FBC0F10100C5B2A1882A467C
:101B1000206801F02CFB70BD0014014010B5044694
:101B2000208928220221636800F0FEFD10BD2DE906
:101B3000F04104460F4615461E460020E0726760DD
:101B40002581A672012020702046FFF7E7FF20467E
:101B5000BDE8F08100214160704770B50446A07A6D
:101B600048B12189606801F0E4FA08B9012000E079
:101B70000020054604E02189606801F0DAFA054694
:101B80002078A84209D0E07A401CE072E07A01286F
:101B900005DD25700020E07201E00020E07270BDDC
:101BA00010B5044694F8480000B910BDB4F85010C0
:101BB000E06C01F0D8FA00BFF7E72DE9F0410446E8
:101BC000251D94F8478095F84200404506D12068CD
:101BD000868926F080062068868110E02046FFF77F
:101BE000DFFF94F8471005F12000475C20688780EC
:101BF00095F84300401C00F01F0085F84300BDE845
:101C0000F081F0B501460B1D93F84000401C00F038
:101C10001F0493F8415008688088C6B2AC4201D1D5
:101C2000002206E0012291F84470081DC65581F893
:101C300044400AB10120F0BD0020FCE710B540F29D
:101C40002551F74802F0D0FD38B140F22551F44853
:101C500002F0F4FDF348FFF7D4FF40F22771F0489B
:101C600002F0C2FD10B1EF48FFF7A7FF10BD10B59D
:101C700040F22551EC4802F0B7FD38B140F2255151
:101C8000E94802F0DBFDE948FFF7BBFF40F22771AE
:101C9000E54802F0A9FD10B1E448FFF78EFF10BD42
:101CA00010B540F22551E24802F09EFD38B140F2F5
:101CB0002551DF4802F0C2FDDE48FFF7A2FF40F2E7
:101CC0002771DB4802F090FD10B1DA48FFF775FF8D
:101CD00010BD10B540F22551D74802F085FD38B14E
:101CE00040F22551D44802F0A9FDD448FFF789FFFE
:101CF00040F22771D04802F077FD10B1CF48FFF7CE
:101D00005CFF10BD10B540F22551CD4802F06CFDCE
:101D100038B140F22551CA4802F090FDC948FFF79A
:101D200070FF40F22771C64802F05EFD10B1C54851
:101D3000FFF743FF10BD002180F84810C164A0F8F0
:101D400050100160002280F8452080F8442080F87F
:101D5000472080F846207047014691F84600401C15
:101D600000F01F0291F847309A4201D001207047DD
:101D70000020FCE7014691F8462091F847309A424E
:101D800001D0012070470020FCE72DE9F041044616
:101D90000F46261D2046FFF7DFFF8046B8F1000FF3
:101DA0000FD096F8425006F120004755681C00F00D
:101DB0001F0086F84200012240F22771206802F0DD
:101DC0002EFC4046BDE8F081014691F8442091F890
:101DD00045309A4201D0012070470020FCE70246BE
:101DE000111D91F84130C85C91F841305B1C03F043
:101DF0001F0381F84130704710B5044694F848003D
:101E000000B910BDB4F85010E06C01F0AEF900BF9D
:101E1000F7E72DE9FF4107460C4615461E46684682
:101E200002F0CEFB00950020ADF80400ADF80600EE
:101E3000ADF80800ADF80C00ADF80A606946204620
:101E400002F055FBBDE8FF8110B5044660680068EC
:101E500000B910BD61680868002102F0D4FB00BF22
:101E6000F7E770B50446A5682046FFF7EDFF062D9D
:101E70006BD2DFE805F06A03192E4859012144F2BC
:101E8000010001F07BFB0021042001F090F96E4B72
:101E900004220321100200F047FC6B4B182203219F
:101EA000581500F041FC50E00121684801F073FB37
:101EB0000021082001F07BF9634B04220321082054
:101EC00000F032FC604B18220321042000F02CFCAF
:101ED0003BE001215E4801F05EFB00215D4801F01E
:101EE00066F900215B48203001F061F95A4B042269
:101EF0000321500200F018FC574B1822032118153B
:101F000000F012FC21E00121544801F044FB544B45
:101F100004220321500200F007FC514B1822032138
:101F2000181500F001FC10E001214E4801F033FBD0
:101F30004D4B04220321104600F0F6FB484B1822BB
:101F40000321981400F0F0FB00BF00BF70BD10B576
:101F50000446A06806282CD2DFE800F02B030B1300
:101F60001B23304860602E4861680860252020608F
:101F700020E02E4860602C486168086026202060C0
:101F800018E02C4860602A486168086027202060BB
:101F900010E02A48606028486168086034202060AA
:101FA00008E02848606026486168086035202060A5
:101FB00000E000BF00BF2046FFF753FF207800225B
:101FC000114600F09FFBE26860680C230168204620
:101FD000FFF71FFF61680122086840F2255102F0F7
:101FE0001EFB10BD70B504460E461546A660E560A2
:101FF0002046FFF7ACFF204670BD10B504462046D2
:10200000FFF722FF00206060204610BD014688686F
:10201000704710B504466068FFF7D6FE10BD00009B
:1020200000380140001100200044004054110020FD
:1020300000480040A8110020004C0040FC11002086
:102040000050004050120020000801400100020032
:102050000100040010001400000C01400100080001
:1020600000100140010010000014014010B50446AA
:102070006068FFF7B4FE10BD70B504460D462946F2
:102080006068FFF782FE08B1012070BD0020FCE708
:102090002DE9F04107460D461646002407E000BF33
:1020A000295D3846FFF7E8FF0028F9D0641CB442E8
:1020B000F5DBBDE8F08170B505460C4607E000BFD2
:1020C00021782846FFF7D8FF0028F9D0641C207833
:1020D0000028F4D170BD10B504466068006800B9EE
:1020E00010BD61680868012102F08DFA00BFF7E7B2
:1020F00070B504460D4616460120616881F8480017
:102100006068C5646068A0F850606168B1F850000C
:102110001022CB6C032100F007FB70BD2DE9F041CC
:1021200004460D4616462F46B046207842463946AC
:1021300000F0E8FABDE8F08100B50948FFF7FBFDC3
:102140000848FFF7F8FD0848FFF7F5FD0748FFF7D7
:10215000F2FD0748FFF7EFFD0648FFF7ECFD00BD75
:102160000011002054110020A8110020FC110020B3
:1021700050120020A412002010B50446002160680F
:1021800001F094FE10BD2DE9F04104460D461646BF
:102190002F46B04620784246394600F0B3FABDE8F3
:1021A000F0812DE9FE4305460C464FF0000800265D
:1021B0000027012C01DABDE8FE83002C03DD052C8D
:1021C00001DAE02733E0042C04DD0A2C02DA40F2C5
:1021D000C1172CE0092C04DD322C02DA40F28337DF
:1021E00025E0312C04DD642C02DA40F207771EE092
:1021F000632C05DDB4F5FA7F02DA40F60F6716E0CE
:10220000B4F5FA7F06DB40F6B830844202DA41F6D4
:102210001F470CE040F6B730844206DD41F28830BB
:10222000844202DA43F63F0701E048F69F475D48E3
:102230006043791C90FBF1F0461EB0B2ADF804008B
:10224000ADF800700020ADF80600ADF802008DF882
:1022500008806946686801F0CDFA0121686802F0DB
:10226000EBF801221146686801F03BFE00BFA2E7CF
:1022700070B504460E46154666606068B0F1804F42
:1022800006D11C2020600121084601F084F94AE0B3
:1022900045496068884206D11D2020600121022046
:1022A00001F079F93FE041496068884206D11E207B
:1022B00020600121042001F06EF934E03C4960689F
:1022C000884206D1322020600121082001F063F904
:1022D00029E038496068884206D136202060012113
:1022E000102001F058F91EE033496068884206D199
:1022F000372020600121202001F04DF913E02F4903
:102300006068884201D1204670BD2D4960688842CE
:1023100001D12046F8E72B496068884201D1204668
:10232000F2E72046F0E729462046FFF73AFF002271
:1023300011462046FFF727FF2046FFF71DFF2046E6
:10234000E2E710B504462046FFF716FF606802F08A
:10235000E9FD204610BD10B504460121606801F07A
:10236000A5FD10BD70B5044625460121284601F0A3
:102370009DFD70BD70B5044625460021284601F03C
:1023800095FD70BD70B5044625460121284602F032
:1023900056F870BD70B5044625460121284602F066
:1023A0005FF870BD401901000004004000080040C3
:1023B000000C0040001000400014004000180040D5
:1023C000001C0040002000404FF0FF31816070474A
:1023D00002469068042801D1002070479068401C94
:1023E0009060906811540120F7E702469068401C05
:1023F00000D170479068105C08709068401E906033
:102400000120F6E701468868401C00D170478A68C1
:10241000501E8860885CF9E702469068401C00D135
:1024200070479068105C08700120F9E701468868E1
:10243000401C00D170478868085CFBE7014688684B
:10244000704701468868401C01D101207047002078
:10245000FCE701468868042801D10120704700206C
:10246000FCE7000010B56FF0040000F003FA3848F4
:1024700000683849B0FBF1F0374908700846007829
:1024800000EB4001C1EBC0104FF6FF7101EAC00044
:102490003249088010BD01462F4A12784A434FF056
:1024A000E0235A6100229A611A46126942F0010241
:1024B0001A6100BF4FF0E022106910F0010F02D046
:1024C00010F4803FF6D04FF0E022126922F00102B2
:1024D0004FF0E0231A6100229A61704701461F4ABB
:1024E00012884A434FF0E0235A6100229A611A464B
:1024F000126942F001021A6100BF4FF0E022106938
:1025000010F0010F02D010F4803FF6D04FF0E0221F
:10251000126922F001024FF0E0231A6100229A6151
:10252000704770B504464FF47A70B4FBF0F6B4FB14
:10253000F0F100FB114504E04FF47A70FFF7CEFF95
:10254000761E002EF8D115B12846FFF7C7FF70BDE3
:10255000C810002000127A00AC100020AE1000203D
:1025600000B585B04FF4804000F06FFF01214802B4
:1025700001F004F80020009001208DF804008DF88F
:1025800005004FF4602002900020039001208DF898
:1025900010006946534800F0B2F9002000F06CFBCF
:1025A0000523012211464F4800F041FA01214D4810
:1025B00000F0DCF901214B4800F0CDF9494800F06A
:1025C000ECF900BF474800F0EDF90028FAD1454882
:1025D00000F0F2F900BF434800F0F3F90028FAD107
:1025E0000121404800F0F7F905B000BD00B58DB0FD
:1025F0000121084600F0B5FF3B4800F081FB394857
:102600004C30029039480390002004900A20059035
:1026100000200690802007904000089080000990DC
:1026200020200A9000020B9000200C9002A92E4856
:1026300000F008FC012202212B4800F03AFC0B209C
:102640008DF8040002208DF805008DF806000120A9
:102650008DF8070001A800F0C2F80121224800F01F
:102660001CFC0DB000BD10B5214B0022032102203F
:1026700000F05AF810BD10B5FFF7F5FFFFF7B6FFF1
:10268000FFF76EFF0121174800F065F90121154899
:1026900000F0A1F910BD10B50022002014E00021C7
:1026A00007E0124B03EB410333F810301A444B1C84
:1026B000D9B20A29F5DB0A2392FBF3F30D4C24F877
:1026C00010300022431CD8B20128E8DB10BD10B541
:1026D000022000F01BFC20B1FFF7DDFF022000F01C
:1026E00028FC10BD0024014008000240F812002020
:1026F00000080140B010002010B54FF4A06000F0B9
:1027000069F810BDF8B506460C4615468DF8006010
:102710008DF801408DF8025001208DF803006846C5
:1027200000F05DF8F8BD0000F8B505460E46174606
:102730001C462148844204D10121042000F01EFFE0
:102740002EE01E48844204D10121082000F016FF2B
:1027500026E01B48844204D10121102000F00EFF26
:102760001EE01848844204D10121202000F006FF19
:1027700016E01548844204D10121402000F0FEFEFD
:102780000EE01248844204D10121802000F0F6FEC0
:1027900006E00F48844203D10121801500F0EEFECF
:1027A000ADF800508DF803708DF802606946204640
:1027B00000F02EFCF8BD000000080140000C0140B4
:1027C000001001400014014000180140001C0140AD
:1027D0000020014031490143314A1160704770B512
:1027E000002100230F22C4780CB32D4C246804F47C
:1027F000E064C4F5E064210AC1F10403CA404478EE
:1028000004FA03F18478144021430901254C067829
:10281000A155047804F01F050124AC4005786D1122
:102820004FF0E02606EB8505C5F8004109E0047885
:1028300004F01F050124AC401B4D0678761145F8C5
:10284000264070BD194A0A400243154B1B1F1A60EF
:10285000704739B1124A121D12680243104B1B1DFA
:102860001A6006E00E4A121D126882430C4B1B1DB3
:102870001A607047042808D14FF0E021096941F03F
:1028800004014FF0E022116107E04FF0E0210969F7
:1028900021F004014FF0E022116170470000FA05B9
:1028A0000CED00E000E400E080E100E080FFFF1FAD
:1028B00010B50446FA48844208D10121401500F0C1
:1028C00077FE0021601500F073FE17E0F5488442A2
:1028D00008D10121001500F06BFE0021201500F049
:1028E00067FE0BE0F048844208D10121C80300F0E4
:1028F0005FFE00214FF4004000F05AFE10BD30B5DD
:102900000246002000235068E84C20400D790C68F6
:1029100044EA0524204350609068E54C2040D1E90A
:1029200002542C434D7944EA450420439060D06A18
:1029300020F470000C7C641EE4B2234340EA035090
:10294000D06230BD00210160017141718160C160C0
:1029500001210174704721B1826842F00102826056
:1029600003E0826822F001028260704721B1826830
:1029700042F48072826003E0826822F48072826096
:10298000704710B50023CBB21AB144681C434460B1
:1029900002E044689C43446010BD816841F0080136
:1029A00081607047014600208A6812F0080F01D04C
:1029B000012000E000207047816841F0040181603F
:1029C0007047014600208A6812F0040F01D00120F0
:1029D00000E00020704721B1826842F4A0028260CA
:1029E00003E0826822F4A002826070470146002062
:1029F0008A6812F4800F01D0012000E000207047A7
:102A000010B50A4600210023416821F46041531E9D
:102A100041EA4331416010BD21B1426842F4006295
:102A2000426003E0426822F4006242607047F0B501
:102A300004460D4600200021092D11DDE068A5F1B6
:102A40000A0606EB4607072606FA07F18843A5F1B2
:102A50000A0606EB460603FA06F10843E0600CE0BE
:102A6000206905EB4507072606FA07F1884305EBC1
:102A7000450603FA06F108432061072A0FDA606B66
:102A8000561E06EB86071F2606FA07F18843561ED8
:102A900006EB860605FA06F10843606322E00D2A7C
:102AA0000FDA206BD61F06EB86071F2606FA07F102
:102AB0008843D61F06EB860605FA06F10843206315
:102AC00010E0E06AA2F10D0606EB86071F2606FA63
:102AD00007F18843A2F10D0606EB860605FA06F11A
:102AE0000843E062F0BD21B1826842F48012826046
:102AF00003E0826822F48012826070470146C86C4D
:102B000080B2704766484C300068704721B1426817
:102B100042F48062426003E0426822F480624260D4
:102B2000704721B1426842F48052426003E042683B
:102B300022F48052426070470A460021816821F4E5
:102B4000E04111438160704721B1826842F4004244
:102B5000826003E0826822F400428260704721B103
:102B6000826842F40212826003E0826822F4021258
:102B700082607047014600208A6812F4001F01D06D
:102B8000012000E000207047F0B504461546002003
:102B900000220026092911DDE068A1F10A0707EBF0
:102BA000470C072707FA0CF29043A1F10A0707EB3D
:102BB000470703FA07F21043E0600CE0206901EBDD
:102BC000410C072707FA0CF2904301EB410703FA87
:102BD00007F210432061A06BC0F30156EF1C06F111
:102BE000010CA7EB0C0707EB870C1F2707FA0CF269
:102BF0009043EF1C06F1010CA7EB0C0707EB8707CE
:102C000001FA07F21043A063F0BD10B50A46002197
:102C10000023816B21F44011531E41EA035181636B
:102C200010BD08B5002300930090009B0B44009357
:102C3000009B1A6008BD08B5024600200090009273
:102C400001F12800009B184400900098006880B2B1
:102C500008BD0A4600214168164B194011434160E6
:102C600070474162826270470A460021416821F044
:102C70001F0111434160704740B10949083109689B
:102C800041F40001064A0832116007E004490831A6
:102C9000096821F40001024A0832116070470000FF
:102CA0000024014000280140003C0140FFFEF0FFED
:102CB000FDF7F1FFFFFD3FFF0246002013680B42C6
:102CC00001D0012000E000207047CA430260704735
:102CD00070B502460020002300240B125568CEB2C6
:102CE00005EA060415681D4202D00CB1012000E07F
:102CF000002070BD00220A12D34303607047000019
:102D000001684FF6FE7211400160002101604160D0
:102D10008160C1608C49884208D18B490839496873
:102D200041F00F01884A083A51608AE0864914311F
:102D3000884208D184490839496841F0F001824A43
:102D4000083A51607DE080492831884208D17E49A7
:102D50000839496841F470617B4A083A516070E073
:102D600079493C31884208D177490839496841F4AA
:102D70007041754A083A516063E0734950318842A6
:102D800008D171490839496841F470216E4A083AFE
:102D9000516056E06C496431884208D16A4908396B
:102DA000496841F47001684A083A516049E066494F
:102DB0007831884208D164490839496841F0706126
:102DC000614A083A51603CE06049884206D1011FDF
:102DD000096841F00F01021F116032E05B491431B4
:102DE000884208D15949091F096841F0F001574A42
:102DF000121F116025E055492831884208D15349F6
:102E0000091F096841F47061504A121F116018E0EF
:102E10004E493C31884208D14C49091F096841F4A8
:102E200070414A4A121F11600BE0484950318842F4
:102E300007D14649091F096841F47021434A121F0E
:102E40001160704710B50022026847F6F0739A438C
:102E50000C6A8B6823430C6923434C6923438C69B8
:102E60002343CC6923434C6A23438C6A23431A438C
:102E70000260CB6843600B6883604B68C36010BD21
:102E80000021016041608160C16001614161816137
:102E9000C161016241628162704721B1026842F002
:102EA0000102026004E002684FF6FE731A400260FD
:102EB00070471AB103680B43036002E003688B4359
:102EC00003607047416070470146486880B27047B0
:102ED00001460020002211F0805F03D01B4B083B0D
:102EE0001A6802E0184B083B1A680A4201D0012018
:102EF00000E00020704710F0805F03D01349091FE5
:102F0000086002E010490839486070470146002017
:102F1000002211F0805F03D00C4B083B1A6802E0DE
:102F2000094B083B1A680A4201D0012000E000204A
:102F3000704710F0805F03D00449091F086002E069
:102F400001490839486070470800024008040240FF
:102F500010B50446CA48844208D10121042000F07B
:102F600027FB0021042000F023FB46E0C5488442F3
:102F700008D10121082000F01BFB0021082000F0EF
:102F800017FB3AE0C048844208D10121102000F02C
:102F90000FFB0021102000F00BFB2EE0BB48844209
:102FA00008D10121202000F003FB0021202000F0A7
:102FB000FFFA22E0B648844208D10121402000F007
:102FC000F7FA0021402000F0F3FA16E0B1488442FD
:102FD00008D10121802000F0EBFA0021802000F0D0
:102FE000E7FA0AE0AC48844207D10121801500F0DD
:102FF000DFFA0021A01500F0DBFA10BD10B50121A9
:10300000084600F0D5FA0021012000F0D1FA10BDE9
:103010002DE9F0410246002500260020002300246F
:10302000002791F803C00CF00F0591F803C01CF0C5
:10303000100F03D091F802C04CEA050591F800C0CA
:10304000BCF1000F31D0146800202BE04FF0010CD0
:103050000CFA00F3B1F800C00CEA03069E4220D13E
:1030600083004FF00F0C0CFA03F7BC4305FA03FC86
:103070004CEA040491F803C0BCF1280F06D14FF0CC
:10308000010C0CFA00FCC2F814C00AE091F803C06D
:10309000BCF1480F05D14FF0010C0CFA00FCC2F84E
:1030A00010C0401C0828D1D31460B1F800C0BCF196
:1030B000FF0F34DD546800202EE000F1080C4FF0C3
:1030C000010808FA0CF3B1F800C00CEA03069E42AE
:1030D00021D183004FF00F0C0CFA03F7BC4305FA23
:1030E00003FC4CEA040491F803C0BCF1280F05D19D
:1030F00000F1080C08FA0CF8C2F8148091F803C02B
:10310000BCF1480F07D100F1080C4FF0010808FA94
:103110000CF8C2F81080401C0828CED35460BDE8DB
:10312000F0814FF6FF710180022181700421C1708E
:1031300070470246002093680B4201D0012000E056
:10314000002070470146886880B270470246002020
:10315000D3680B4201D0012000E0002070470146F7
:10316000C86880B2704701617047416170470AB119
:10317000016100E041617047C16070474FF48032E7
:103180000A43826181618261826982697047024675
:103190000020424B18684FF68073184040EA021036
:1031A00008433E4B186070473D49C8617047F0B511
:1031B0000A46002300240021002500F00046B6F155
:1031C000004F02D1354EF16901E0344E7168C0F311
:1031D000034583B200F44016B6F5401F08D121F034
:1031E00070612E4E766826F070662C4F7E6012E07D
:1031F00000F48016B6F5801F06D1032606FA05F402
:10320000A14341F0706106E0460D360103FA06F66F
:10321000B14341F0706122B1460D360103FA06F662
:10322000314300F00046B6F1004F02D11B4EF16170
:1032300001E01A4E7160F0BD30B500228B071C0F03
:103240000F2303FA04F2154B08338C1053F8243083
:103250009343124C08348D1044F8253023468C10CB
:1032600053F824308C07240F00FA04F423430B4C4A
:1032700008348D1044F8253030BD0A490860704785
:1032800000080140000C0140001001400014014002
:1032900000180140001C01400020014000000140D6
:1032A00000002042DC002042DD48006840F00100C0
:1032B000DB49086008464068DA490840D849486058
:1032C00008460068D8490840D549086008460068A3
:1032D00020F4802008600846406820F4FE00486022
:1032E0004FF41F0088607047CD49096821F4803190
:1032F000CB4A11601146096821F480211160B0F5B4
:10330000803F03D0B0F5802F0ED106E0C449096894
:1033100041F48031C24A116007E0C149096841F4B3
:10332000A021BF4A116000E000BF00BF704710B588
:1033300001460022002300204A11012A02D1B84C84
:10334000236806E0022A02D1B54C236A01E0B44C9E
:10335000636A01F01F02012494401C4201D0012045
:1033600000E0002010BD38B50020009000240025AA
:1033700000BF3120FFF7DBFF05460098401C00909E
:103380000098B0F5A06F01D0002DF2D03120FFF7EA
:10339000CEFF08B1012400E00024204638BD0146DC
:1033A00000209F4A106820F0F80040EAC100106039
:1033B00070479E490860704702460020984B586845
:1033C00020F47C1042EA01031843954B5860704783
:1033D00096490866704701460020914A506820F0DF
:1033E00003000843506070478D48406800F00C00AF
:1033F0007047014600208A4A506820F0F0000843D8
:103400005060704701460020854A506820F4E06013
:1034100008435060704701460020814A506820F4FC
:10342000605040EAC1005060704729B17C4A527A2E
:1034300002437B4B5A7204E0794A527A8243784BBA
:103440005A7270477A490860704701460020744AF2
:10345000506820F440400843506070470021754A8E
:1034600011706F4A82F82010012802D0042808D178
:1034700003E001216F4A117004E005216D4A1170CB
:1034800000E000BF00BF70476B49086070476449A7
:10349000096A0143624A116270476749443908600A
:1034A000704730B500210022002400235C4D6D6878
:1034B00005F00C0121B1042905D0082923D105E02C
:1034C0005E4D056022E05D4D05601FE0544D6D6866
:1034D00005F47012524D6D6805F48034022505EB39
:1034E00092421CB9564D554305600BE04C4D6D683A
:1034F00015F4003F03D0524D5543056002E04F4D97
:103500005543056002E04D4D056000BF00BF444DCE
:103510006D6805F0F00109094A4D6B5C0568DD40F6
:1035200045603F4D6D6805F4E061090A454D6B5CEF
:103530004568DD4085603A4D6D6805F46051C90A03
:10354000404D6B5C4568DD40C560354D6D6805F4E8
:103550004041890B3C4D6B5CC568B5FBF3F50561DB
:1035600030BD29B12E4A526902432D4B5A6104E005
:103570002B4A526982432A4B5A61704729B1284A23
:1035800092690243264B9A6104E0254A926982437C
:10359000234B9A61704729B1214AD2690243204BDB
:1035A000DA6104E01E4AD26982431D4BDA6170473A
:1035B00029B11B4AD2680243194BDA6004E0184A69
:1035C000D2688243164BDA60704729B1144A1269F7
:1035D0000243134B1A6104E0114A12698243104BF3
:1035E0001A61704714494039086070470F49C86430
:1035F00070470B49C87170470948406A40F08070B5
:1036000007494862704701460020054A92680A420D
:1036100001D0012000E00020704701498872704706
:10362000001002400000FFF8FFFFF6FE00004242DB
:10363000D8004242201002408004424200127A0028
:1036400000093D00B2100020C210002010B5044651
:10365000FE48844208D10121C014FFF7A9FF0021D0
:10366000E014FFF7A5FFC4E0B4F1804F08D10121B9
:103670000846FFF7AAFF00210120FFF7A6FFB8E0E8
:10368000F348844208D101210220FFF79EFF002168
:103690000220FFF79AFFACE0EE48844208D10121F6
:1036A0000420FFF792FF00210420FFF78EFFA0E027
:1036B000E948844208D101210820FFF786FF002154
:1036C0000820FFF782FF94E0E448844208D10121FA
:1036D0001020FFF77AFF00211020FFF776FF88E027
:1036E000DF48844208D101212020FFF76EFF00212E
:1036F0002020FFF76AFF7CE0DA48844208D10121EC
:103700004014FFF755FF00216014FFF751FF70E0F0
:10371000D548844209D10121C804FFF749FF00219F
:103720004FF40020FFF744FF63E0D048844209D102
:1037300001210805FFF73CFF00214FF48010FFF73F
:1037400037FF56E0CA48844209D101214805FFF7F6
:103750002FFF00214FF40010FFF72AFF49E0C54872
:10376000844208D101214020FFF72FFF0021402093
:10377000FFF72BFF3DE0C048844208D101218020A3
:10378000FFF723FF00218020FFF71FFF31E0BB4838
:10379000844208D101218015FFF717FF0021A015F1
:1037A000FFF713FF25E0B648844209D10121080440
:1037B000FFF7FEFE00214FF48030FFF7F9FE18E01E
:1037C000B048844209D101214804FFF7F1FE0021ED
:1037D0004FF40030FFF7ECFE0BE0AB48844208D119
:1037E00001218804FFF7E4FE00214FF48020FFF759
:1037F000DFFE10BD00220288944B98420ED0994BF8
:1038000098420BD0B0F1804F08D0914B984205D030
:10381000904B984202D0904B984204D14FF68F7350
:103820001A404B881A438D4B984207D08C4B9842D4
:1038300004D04FF6FF431A40CB881A4302808B888E
:1038400083850B880385814B98420BD0854B98422A
:1038500008D08B4B984205D08A4B984202D08A4BB5
:10386000984201D10B7A038601238382704770B599
:10387000002400220023058C4FF6FE763540058497
:10388000028C8388048B4FF68F752C40B51E2C401C
:103890000D882C43751E2A400D892A434D882A43E2
:1038A0006A4DA8420BD06F4DA84208D0744DA84273
:1038B00005D0744DA84202D0734DA84213D14FF6E3
:1038C000F7752A404D892A434FF6FB752A408D88AB
:1038D0002A434FF6FF652B404FF6FF552B408D894D
:1038E0002B43CD892B4383800483CD888586028436
:1038F00070BD70B5002400220023058C4FF6EF76D2
:1039000035400584028C8388048B48F6FF752C4073
:103910004FF6FF452C400D884FF6FF7606EA052549
:103920002C434FF6DF752A400D8906EA05152A4318
:103930004D8806EA05152A43444DA84202D0494D58
:10394000A8421DD14FF67F752A404D894FF6FF766C
:1039500006EA05152A434FF6BF752A408D8806EA08
:1039600005152A434FF6FF352B404FF2FF752B40CC
:103970008D8906EA85052B43CD8906EA85052B430B
:1039800083800483CD880587028470BD70B50024D0
:1039900000220023058C4FF6FF6635400584028C1B
:1039A0008388848B4FF68F752C404FF6FC752C4026
:1039B0000D882C434FF6FF552A400D894FF6FF76B0
:1039C00006EA05252A434D8806EA05252A431F4DA8
:1039D000A84202D0234DA8421DD14FF2FF752A40C4
:1039E0004D894FF6FF7606EA05252A434FF6FF3547
:1039F0002A408D8806EA05252A434EF6FF752B409E
:103A00004DF6FF752B408D8906EA05152B43CD89B0
:103A100006EA05152B4383808483CD88858702843D
:103A200070BD70B5002200230024058C4EF6FF7691
:103A300035400584038C8488828B48F6FF752A40C4
:103A40004FF6FF452A400D8820E00000002C014081
:103A50000004004000080040000C0040001000403E
:103A60000014004000340140004C0140005001406F
:103A70000054014000180040001C0040002000409D
:103A80000040014000440140004801404FF6FF76ED
:103A900006EA05252A434DF6FF752B400D8906EAF7
:103AA00005352B434D8806EA05352B43FA4DA842D0
:103AB00002D0FA4DA84208D14BF6FF752C408D89F3
:103AC0004FF6FF7606EA85152C4384808283CD88E5
:103AD000A0F84050038470BD828B4FF2FF331A4030
:103AE0008283828B4FF6FF7303EA01231A4382839A
:103AF0007047F0B50C461546002200210026078CC1
:103B00004EF6FF7C07EA0C070784828B018C4FF688
:103B1000FF7707EA043640F6FF473A404FF6FF7753
:103B200007EA05273A434FF6FF7707EA03373A4398
:103B3000D94FB8420ED0D94FB8420BD0B0F1804F18
:103B400008D0D74FB84205D0D64FB84202D0D64F92
:103B5000B84206D14DF6FF77394046F480573943D5
:103B600005E047F6FF57394044F4805739438283D4
:103B70000184F0BD828B4FF6F3731A408283828BEF
:103B80000A4382837047F0B50C4615460022002197
:103B90000026078C4FF6FF6C07EA0C070784828B20
:103BA000018C4FF6FF7707EA04264FF60C773A4070
:103BB0004FF6FF7707EA03172F433A43B64FB84251
:103BC0000ED0B64FB8420BD0B0F1804F08D0B44FF2
:103BD000B84205D0B34FB84202D0B34FB84206D175
:103BE0004FF6FF57394046F48077394305E04FF2EE
:103BF000FF57394044F48077394382830184F0BD14
:103C0000028B4FF2FF331A400283028B4FF6FF7391
:103C100003EA01231A4302837047F0B50C461546A8
:103C2000002200210026078C4FF6EF7C07EA0C07E4
:103C30000784028B018C4FF6FF7707EA041640F6E3
:103C4000FF473A404FF6FF7707EA03373A434FF60C
:103C5000FF7707EA05273A438F4FB8420ED08F4FC0
:103C6000B8420BD0B0F1804F08D08D4FB84205D08C
:103C70008C4FB84202D08C4FB84206D14FF6DF7756
:103C8000394046F01007394305E04FF65F77394079
:103C900044F01007394302830184F0BD028B4FF6D4
:103CA000F3731A400283028B0A4302837047F0B514
:103CB0000C46154600220021068C4FF6FE773E404A
:103CC0000684028B018C4FF60C7632407E1C06EA8D
:103CD00003162E433243704EB0420ED06F4EB042A8
:103CE0000BD0B0F1804F08D06D4EB04205D06D4E74
:103CF000B04202D06C4EB04206D14FF6FD76314054
:103D000044F00106314305E04FF6F576314044F0CA
:103D10000106314302830184F0BD70B505460C46AF
:103D20005D4885420ED05D4885420BD0B5F1804F8D
:103D300008D05B48854205D05A48854202D05A488F
:103D4000854200D100E000BF208850B92389A288B5
:103D500061882846FFF7ABFFE1882846FFF79EFF02
:103D600025E0208804280AD12389A2886188284672
:103D7000FFF753FFE1882846FFF742FF17E020884E
:103D800008280AD12389A28861882846FFF7FBFE0C
:103D9000E1882846FFF7EEFE09E02389A2886188C2
:103DA0002846FFF7A6FEE1882846FFF795FE70BD7E
:103DB0002DE9F04105460C4600260127608808B928
:103DC000022600E00026A088012801D1022700E099
:103DD00001272088A0B92389A28861882846FFF797
:103DE00066FFE1882846FFF759FF23893A463146A6
:103DF0002846FFF712FFE1882846FFF701FF13E08E
:103E00002389A28861882846FFF707FFE1882846B2
:103E1000FFF7F6FE23893A4631462846FFF747FF6B
:103E2000E1882846FFF73AFFBDE8F0810A884B8811
:103E30001A438B881A43CB881A430B891A434B8940
:103E40001A438B891A43A0F8442070474FF6FF713C
:103E5000818000210180C180418001727047002172
:103E6000018041808180C180018141818181C18146
:103E70007047002101804180012181800021C180A3
:103E8000018170470021018041808180C1800181D2
:103E90004181818170470000002C014000340140C5
:103EA0000004004000080040000C004021B10288DE
:103EB00042F00102028004E002884FF6FE731A40CD
:103EC0000280704731B1B0F8442042F40042A0F8BB
:103ED000442005E0B0F84420C2F30E02A0F84420CC
:103EE00070471AB183890B43838102E083898B4336
:103EF000838170478182704741EA0203A0F848300D
:103F000070471AB183890B43838102E083898B4315
:103F10008381704701894FF6F87211400181704723
:103F20000A46002101894FF68F7319401143018120
:103F3000704730B504460D4629462046FFF7F0FF8E
:103F4000208940F00700208130BD2DE9F041044672
:103F50000D4616461F46602D06D13B4601223146CE
:103F60002046FFF75AFE05E03B4601223146204637
:103F7000FFF79DFE29462046FFF7D2FF208940F03B
:103F800007002081BDE8F08130B50C460021018991
:103F9000C9B24FF6FF7505EA0325154325432943AA
:103FA000018130BD2DE9F04105460E461746984681
:103FB000002443463A4631462846FFF7E5FF2C8960
:103FC0004FF6F870044044F007044FF68F70044039
:103FD00044F070042C81BDE8F081F0B504460D4634
:103FE00016461F463B46324629462046FFF7CCFF81
:103FF000208940F480402081F0BD01858282704795
:104000000A46002101884FF68F7319401143018041
:104010007047F0B50C4615461E46002100220023CD
:104020000189028B038C4FF6F877394021434FF614
:10403000FC473A4040F201173A434FF6DD773B40E8
:104040004FF6FF7707EA06172F433B4301810283B0
:104050000384F0BD0A460021018B4FF68F7319408F
:104060001143018370470A460021018B48F6FF7314
:1040700019404FF6FF7303EA022319430183704787
:104080000A460021818B4FF68F73194011438183BB
:1040900070470A460021818B48F6FF7319404FF69E
:1040A000FF7303EA022319438183704721B1028819
:1040B00042F08002028004E002884FF67F731A40CB
:1040C0000280704721B1828842F00402828004E0BD
:1040D00082884FF6FB731A408280704721B1828834
:1040E00042F00802828004E082884FF6F7731A409B
:1040F0008280704721B1828842F00102828004E010
:1041000082884FF6FE731A40828070470A4600216B
:10411000018B4FF6F77319401143018370470A462C
:104120000021018B4FF2FF7319404FF6FF7303EA32
:1041300002231943018370470A460021818B4FF601
:10414000F77319401143818370470A460021818B20
:104150004FF2FF7319404FF6FF7303EA022319432E
:10416000818370470A460021018B4FF6FB7319408B
:104170001143018370470A460021018B4FF6FF333C
:1041800019404FF6FF7303EA022319430183704776
:104190000A460021818B4FF6FB731940114381833E
:1041A00070470A460021818B4FF6FF3319404FF6C6
:1041B000FF7303EA02231943818370470A460021F3
:1041C000018B4FF67F7319401143018370470A46F4
:1041D0000021018BC1F30E014FF6FF7303EA0223A6
:1041E0001943018370470A460021818B4FF67F7384
:1041F00019401143818370470A460021818BC1F326
:104200000E014FF6FF7303EA0223194381837047BF
:104210000A460021018C4FF6FD73194011430184B9
:1042200070470A460021018C4FF6F773194011437D
:10423000018470470A460021018C4FF6DF73194054
:104240004FF6FF7303EA02131943018470470A46CD
:104250000021018C4FF67F7319404FF6FF7303EA7C
:1042600002131943018470470A460021018C4FF65E
:10427000FF5319404FF6FF7303EA022319430184E9
:1042800070470A460021018C4FF2FF7319404FF628
:10429000FF7303EA02231943018470470A46002191
:1042A000018C4DF6FF7319404FF6FF7303EA02339A
:1042B00019430184704730B5002301248C40A3B218
:1042C000048C9C430484048C02FA01F5ADB22C43A7
:1042D000048430BD30B5002304248C40A3B2048C88
:1042E0009C430484048C02FA01F5ADB22C4304848F
:1042F00030BD70B503460020002418461830012553
:104300008D40ACB21D8CA5431D8409B1082909D18B
:1043100000EB6100056825F0700505600568154330
:1043200005600EE00D1FC5F34E052844056825F411
:10433000E045056005684FF6FF7606EA022635433C
:10434000056070BD21B1028842F00202028004E0E3
:1043500002884FF6FD731A400280704721B102882F
:1043600042F00402028004E002884FF6FB731A4018
:104370000280704721B1828842F08002828004E08E
:1043800082884FF67F731A408280704702884FF60A
:10439000F7731A40028002880A43028070478288BD
:1043A0004FF68F731A40828082880A43828070475A
:1043B00002894FF6F8731A40028102890A4302818A
:1043C000704702894FF67F731A40028102890A43BF
:1043D000028170478184704781857047818670476C
:1043E0000187704781877047A0F8401070470288A6
:1043F0004FF6FF431A40028002880A43028070474A
:104400000146888E70470146088F70470146888FA5
:1044100070470146B1F8400070470146888C7047EC
:104420000146088D704702460020138A0B4201D0D6
:10443000012000E000207047CA430282704730B577
:104440000246002000230024158A05EA010395890D
:1044500005EA010413B10CB1012000E0002030BDD9
:10446000CA4302827047000010B50446FB488442EC
:1044700009D101218803FFF79BF800214FF4804008
:10448000FFF796F832E0F648844209D1012148044A
:10449000FFF79BF800214FF40030FFF796F825E076
:1044A000F048844209D101218804FFF78EF80021E9
:1044B0004FF48020FFF789F818E0EB48844209D1D7
:1044C0000121C804FFF781F800214FF40020FFF715
:1044D0007CF80BE0E548844208D101210805FFF78C
:1044E00074F800214FF48010FFF76FF810BD2DE92C
:1044F000F04786B005460E460024A24600BFA146FE
:104500000027B08900B100BF2F462C8A4CF6FF70FF
:104510000440F08804432C82AC894EF6F31004402A
:10452000B08831890843718908430443AC81AC8A5F
:104530004FF6FF400440B0890443AC8201A8FEF767
:10454000B0FFC648874202D1DDF810A001E0DDF8D7
:104550000CA0A88910F4004F08D00AEBCA0000EBA9
:104560000A1031684900B0FBF1F807E00AEBCA0015
:1045700000EB0A1031688900B0FBF1F86420B8FB49
:10458000F0F004012009642101FB1089A88910F4CE
:10459000004F08D0322000EBC900B0FBF1F000F072
:1045A0000700044308E0322000EB09106421B0FB4F
:1045B000F1F000F00F0004432C8106B0BDE8F08755
:1045C0004FF41651016000218180C18001810C21CE
:1045D000418100218181704710B502460020108A78
:1045E0004FF2FF0318400B884C8823438C882343E9
:1045F000CC8823431843108210BD002101804180E4
:104600008180C180704721B1828942F40052828149
:1046100004E082894DF6FF731A4082817047F0B53D
:1046200003460024002600250020A1F510676A3FFC
:1046300000D100BF1846C1F3421401F01F06012744
:1046400007FA06F5012C01D10C3004E0022C01D14F
:10465000103000E014301AB107682F43076002E001
:104660000768AF430760F0BD1AB1838A0B438382AA
:1046700002E0838A8B4383827047028A4FF6F0738D
:104680001A400282028A0A430282704782894FF2EC
:10469000FF731A40828182890A438281704721B167
:1046A000828942F00202828104E082894FF6FD7322
:1046B0001A4082817047028A4FF6DF731A400282E5
:1046C000028A0A430282704721B1028A42F4804280
:1046D000028204E0028A4BF6FF731A40028270479E
:1046E000C1F308028280704701468888C0F3080041
:1046F0007047818941F0010181817047028BD2B2FC
:104700000283028B42EA012202837047028B02F489
:104710007F420283028B0A430283704721B1828A5F
:1047200042F02002828204E0828A4FF6DF731A4050
:104730008282704721B1828A42F01002828204E0B4
:10474000828A4FF6EF731A408282704721B1828AC3
:1047500042F00802828204E0828A4FF6F7731A4020
:104760008282704721B1828942F40042828103E053
:104770008289C2F30E028281704721B1828A42F49B
:104780000062828204E0828A4FF2FF731A408282C2
:104790007047828A4FF6FB731A408282828A0A43EC
:1047A0008282704721B1828A42F00202828204E052
:1047B000828A4FF6FD731A408282704702460020BB
:1047C000B1F5007F00D100BF13880B4201D001205A
:1047D00000E00020704701F40072B2F5007F00D1C4
:1047E00000BFCA430280704770B502460024002310
:1047F00000250020A1F510666A3E00D100BFC1F37C
:10480000421501F01F03012606FA03F3012D02D120
:104810009689334006E0022D02D1168A334001E02A
:10482000968A33400C12012606FA04F416883440A6
:1048300013B10CB1012000E0002070BD10B50022C2
:104840000023A1F510646A3C00D100BF0A120124C4
:104850009440A3B2DC43048010BD00000038014046
:104860000044004000480040004C00400050004020
:1048700010B501210807FEF7A8FE00214FF0805077
:10488000FEF7A3FE10BD2949086270472749086159
:10489000704701460020264A106820F0E0000843D7
:1048A0001060704723490860704710B50246002029
:1048B0001F4B186820F00300104318601E4B1B6844
:1048C00043F004031C4C2360012901D130BF00E0F8
:1048D00020BF194B1B6823F00403174C236010BD45
:1048E0001348006840F00400114908600846006859
:1048F00040F0020008601048006840F004000E49D3
:10490000086000BF00BF30BF704701460020084A62
:1049100052680A4201D0012000E00020704704499B
:10492000096841EA8001024A1160704700000E42A6
:1049300000700040A0000E4210ED00E0002044494D
:104940000860091D0860091D0860091D08604148CC
:104950003F4914310860704700213D498279002A9F
:104960003AD00A46126803689A430B461A600A1D39
:10497000126803689A430B1D1A60027911440A6891
:1049800003681A430A60324A0832126803689A437D
:104990002F4B08331A601A1D126803689A432C4B78
:1049A0000C331A604279102A0ED11A1F126803685C
:1049B0001A43274B08331A601A1D126803681A43FA
:1049C000234B0C331A600DE02149427911440A68E7
:1049D00003681A430A6005E0027911440A68036813
:1049E0009A430A6070470021016001710C214171F6
:1049F0000021817170471649103109680143144A3A
:104A000010321160704701460020114A14321268BA
:104A10000A4201D0012000E0002070470C49143107
:104A200008607047014600200022094B1B6803EA1A
:104A30000102074B14331B680B4202D00AB101205C
:104A400000E0002070470249143108607047000000
:104A500000040140FFFF0F0029B14F4A12880243B2
:104A60004D4B1A8004E04C4A128882434A4B1A800C
:104A700070474948001D008840F010004649091D54
:104A8000088070474448001D00884FF6EF710840C9
:104A90004149091D0880704700213F481C300188AA
:104AA000001F008841EA0040704700B50246FFF74A
:104AB000E0FF100C384918310880091D0A80FFF703
:104AC000E1FF00BD00B50246FFF7D3FFC2F303408C
:104AD000314908310880091D0A80FFF7D3FF00BD66
:104AE00000B50246FFF7C5FF100C2B4920310880A6
:104AF000091D0A80FFF7C6FF00BD002026491031BE
:104B000009880907080B24491431098808437047AC
:104B100000BF2148001D008810F0200FF9D0704719
:104B20001D48001D00884FF6F77108401A49091DFD
:104B3000088000BF1848001D008810F0080FF9D049
:104B4000704701460020144A121D12880A4201D003
:104B5000012000E0002070470F49091D09888143AA
:104B60000D4A121D11807047014600200A4A121D8D
:104B700012880A40D0B2084A12880A4202D008B10C
:104B8000012000E0002070470349091D0988814386
:104B9000014A121D11807047002800400CB500200A
:104BA000019000906B48006840F4803069490860CB
:104BB00000BF6848006800F4003000900198401C75
:104BC0000190009818B90198B0F5A06FF1D1614833
:104BD000006810F4003F02D00120009001E00020A6
:104BE00000900098012842D15B48006840F0100016
:104BF000594908600846006820F00300086008462C
:104C0000006840F00200086052484068514948601E
:104C10000846406848600846406840F48060486044
:104C20000846406820F47C1048600846406840F41C
:104C3000E81048600846006840F08070086000BFD7
:104C40004448006810F0007FFAD04248406820F0E5
:104C50000300404948600846406840F00200486050
:104C600000BF3C48406800F00C000828F9D10CBD9A
:104C700010B5FFF793FF10BD10B53648006840F03F
:104C80000100344908600846406834490840314909
:104C9000486008460068324908402E4908600846C6
:104CA000006820F4802008600846406820F4FE0078
:104CB00048604FF41F008860FFF7DAFF4FF0006094
:104CC0002849086010BD10B5002100200022214BAA
:104CD0005B6803F00C0121B1042906D0082928D112
:104CE00007E0214B214C236027E01F4B1F4C236022
:104CF00023E0184B5B6803F47010164B5B6803F4F9
:104D00008032022303EB904022B9194B4343174CE6
:104D100023600DE00F4B5B6813F4003F04D0144B8D
:104D20004343124C236003E00F4B43430F4C23607B
:104D300003E00D4B0D4C236000BF00BF054B5B68CB
:104D4000C3F303130B4CE15C084B1B68CB40074CCF
:104D5000236010BD00100240002002400000FFF858
:104D6000FFFFF6FE08ED00E000127A00C8100020F8
:104D700000093D00CC100020064880470648004747
:104D8000FEE7FEE7FEE7FEE7FEE7FEE7FEE7FEE7FB
:104D9000FEE7FEE7794C0008ED00000870B5054C11
:104DA000054D03E0206820448047241DAC42F9D122
:104DB00070BD0000905800089458000800F014B826
:104DC00000487047DC100020092070470920704718
:104DD0007047704709207047024801464860001D2F
:104DE00070470000E010002010B500F020F80169C5
:104DF00019B100220261884701E080688047AFF363
:104E000000800000064C074D06E0E06840F001031A
:104E100094E8070098471034AC42F6D3FBF76AF9E0
:104E2000705800089058000810B5AFF3008070B5B6
:104E3000FFF7D2FF04680546A4B9202000F0C6F8A9
:104E4000040011D0094900202C60C4E90001084980
:104E5000A1602073206160610649A06109B100F082
:104E60000BF8E061204670BDAFF300800000000049
:104E7000294E00080000000010B5882000F0A6F8B8
:104E8000002801D00021017010BD802902D808B18E
:104E9000017809B100207047012100F8081B704714
:104EA00018B100F10802914201D0002070470021A2
:104EB0000170704770B58D1810F8014B14F00302A3
:104EC00001D110F8012B231106D110F8013B03E0AA
:104ED00010F8016B01F8016B521EF9D1B3B110F853
:104EE000012B04F00C048A1A0C2C04D0A2EB8412BF
:104EF00003F1020308E010F8014BA2EB0422F7E7EC
:104F000012F8014B01F8014B5B1EF9D5A942D3D32E
:104F1000002070BD017043608260704710B500F0E2
:104F200001F810BD10B500F029F810BD10B500F063
:104F300001F810BD10B5040007D1012405E0FFF70A
:104F40003FFF006800B904488047204600F03EF863
:104F50000028F4D010BD0000BD4D000802E008C8D4
:104F6000121F08C1002AFAD170477047002001E0E3
:104F700001C1121F002AFBD17047000010B50028A4
:104F800021D0114B001F0022196803E0814203D891
:104F90000A4649680029F9D152B11368841A9C4223
:104FA00004D1006818441060104602E0506000E030
:104FB000186039B102680B1A934203D10B681A4486
:104FC00002604968416010BDE8100020F0B50B3068
:104FD000154D20F007010024144A0FE003688B42AE
:104FE0000BD38B4205D95E1A43184768C3E90067A3
:104FF00000E04368136002C004E0021D106800284E
:10500000ECD12046002802D1286808B10020F0BD6C
:10501000064A07481060074A121A22F00702C0E940
:10502000002401202860D7E7EC100020E8100020C1
:105030001413002010230020303840485058606876
:105040007078000000000000000000000000000078
:105050002F000000000700070000147F147F1400D9
:10506000242A7F2A1200626408132300364955223D
:105070005000000503000000001C22410000004118
:10508000221C000014083E08140008083E0808000E
:105090000000A06000000808080808000060600028
:1050A00000002010080402003E5149453E00004225
:1050B0007F4000004261514946002141454B31008B
:1050C0001814127F10002745454539003C4A4949CC
:1050D0003000017109050300364949493600064987
:1050E00049291E0000363600000000563600000038
:1050F0000814224100001414141414000041221456
:105100000800020151090600324959513E007C1243
:1051100011127C007F49494936003E41414122003D
:105120007F4141221C007F49494941007F0909090B
:1051300001003E4149497A007F0808087F0000418C
:105140007F4100002040413F01007F0814224100C0
:105150007F40404040007F020C027F007F04081027
:105160007F003E4141413E007F09090906003E4162
:1051700051215E007F0919294600464949493100FD
:1051800001017F0101003F4040403F001F204020BF
:105190001F003F4038403F006314081463000708B5
:1051A00070080700615149454300007F41410000FC
:1051B000552A552A55000041417F00000402010292
:1051C0000400404040404000000102040000205420
:1051D000545478007F484444380038444444200004
:1051E000384444487F00385454541800087E09015C
:1051F000020018A4A4A47C007F08040478000044E2
:105200007D4000004080847D00007F102844000025
:1052100000417F4000007C04180478007C080404EE
:105220007800384444443800FC242424180018240E
:105230002418FC007C08040408004854545420003E
:10524000043F444020003C4040207C001C20402083
:105250001C003C4030403C004428102844001CA066
:10526000A0A07C004464544C44141414141414007E
:10527000000000000000000000000000000000002E
:105280000000F800000000000000333000000000C3
:10529000100C06100C06000000000000000000408A
:1052A000C07840C0784000043F04043F040400007C
:1052B0007088FC08300000001820FF211E0000F05C
:1052C00008F000E018000000211C031E211E000051
:1052D000F00888700000001E2123241927211010D7
:1052E000160E00000000000000000000000000009A
:1052F0000000E01804020000000007182040000031
:10530000020418E0000000004020180700000040E0
:105310004080F0804040000202010F0102020000C4
:105320000000F0000000000101011F010101000068
:105330000000000000000080B070000000000000CD
:105340000000000000000000010101010101010056
:1053500000000000000000003030000000000000ED
:1053600000000080601804006018060100000000C2
:10537000E010080810E000000F102020100F0000BF
:105380001010F8000000000020203F202000000046
:10539000700808088870000030282422213000009E
:1053A000300888884830000018202020110E0000A6
:1053B00000C02010F8000000070424243F2400004F
:1053C000F80888880808000019212020110E000024
:1053D000E0108888180000000F112020110E000036
:1053E000380808C83808000000003F00000000002E
:1053F00070880808887000001C222121221C0000EF
:10540000E010080810E0000000312222110F000017
:105410000000C0C0000000000000303000000000AC
:10542000000080000000000000806000000000001C
:1054300000804020100800000102040810200040F5
:1054400040404040404000040404040404040000C0
:105450000810204080000000201008040201000015
:105460007048080808F0000000003036010000C055
:1054700030C828E810E0000718272423140B000088
:1054800000C038E0000000203C230202273820083A
:10549000F8888888700000203F202020110E00C06E
:1054A00030080808083800071820202010080008D5
:1054B000F808080810E000203F202020100F000806
:1054C000F88888E8081000203F20202320180008D2
:1054D000F88888E8081000203F200003000000C082
:1054E0003008080838000007182020221E02000893
:1054F000F808000008F808203F210101213F2000A2
:105500000808F8080800000020203F2020000000C4
:10551000000808F8080800C08080807F00000008AC
:10552000F888C028180800203F20012638200008ED
:10553000F8080000000000203F2020202030000854
:10554000F8F800F8F80800203F003F003F2000086E
:10555000F830C00008F808203F200007183F00E09E
:105560001008080810E0000F10202020100F00087D
:10557000F808080808F000203F210101010000E0C0
:105580001008080810E0000F18242438504F0008B5
:10559000F8888888887000203F2000030C302000A5
:1055A000708808080838000038202121221C0018C3
:1055B0000808F8080818000000203F200000000834
:1055C000F808000008F808001F202020201F00080D
:1055D00078880000C83808000007380E010000F87D
:1055E0000800F80008F800033C0700073C03000827
:1055F0001868808068180820302C03032C3020089D
:1056000038C800C83808000000203F200000001003
:10561000080808C838080020382621202018000073
:105620000000FE020202000000007F404040000037
:105630000C30C000000000000000010638C000006F
:10564000020202FE000000004040407F0000000017
:10565000000402020204000000000000000000003C
:10566000000000000000008080808080808080003A
:105670000202040000000000000000000000000022
:10568000008080808000000019242222223F200810
:10569000F8008080000000003F112020110E000063
:1056A00000008080800000000E11202020110000EA
:1056B0000000808088F800000E112020103F20009C
:1056C00000808080800000001F2222222213000020
:1056D0008080F0888888180020203F20200000006B
:1056E00000808080808000006B9494949360000818
:1056F000F8008080800000203F210000203F200033
:10570000809898000000000020203F20200000002A
:105710000000809898000000C08080807F00000812
:10572000F8000080808000203F24022D30200000FF
:105730000808F8000000000020203F202000008022
:1057400080808080808000203F20003F20003F80BC
:1057500080008080800000203F210000203F20004A
:1057600000808080800000001F202020201F0080FB
:105770008000808000000080FFA12020110E00002A
:1057800000008080808000000E112020A0FF80801B
:105790008080008080800020203F212000010000C8
:1057A000008080808080000033242424241900009D
:1057B0008080E0808000000000001F20200000802A
:1057C00080000000808000001F202020103F2080EB
:1057D0008080000080808000010E3008060100807B
:1057E000800080008080800F300C030C300F0000A0
:1057F000808000808080000020312E0E31200080CB
:105800008080000080808080818E701806010000FA
:10581000808080808080000021302C222130000098
:10582000000000807C020200000000003F404000B9
:10583000000000FF00000000000000FF000000006A
:1058400002027C800000000040403F000000000099
:105850000601010202040400000000000000000034
:105860000000000000000000B1120008D91200087A
:105870009458000800000020F0100000B44E00080A
:10588000085E0008F0100020201800006C4F00088F
:10589000A9C8FFFFA20001501003050911FF1189DB
:1058A00005C300E000F000F81600083A4428FF1194
:1058B000AA440001500B8301384482929274018300
:1058C0001120087C44FF017D7D7D04410540047D5D
:1058D00001FF849201026198033B01017E814191A5
:1058E00049F20101011BC230083F3F0303F31311CA
:1058F00001100601F1116181402005816111F1471C
:1059000033414107200401C12120A321C1143119D1
:105910003137040736D33303033F3F426006E0E0EC
:1059200000007FA8127FBF40040618060A10080076
:105930000040407F4040A410041F204001A3201FCE
:10594000143300600E6004300C03460534C21004AA
:105950000707060170090404048444444484078052
:10596000050484C4041501120A71112140073D0782
:1059700007C9200F0000101814121100000F10109A
:10598000100F0F131F1015600D081012120D0000DC
:105990001800000D120A51295130015E0152800198
:1059A000013B4514047F030CA915DE1C0538545433
:1059B000582503080A2004047800003C40407C205D
:1059C00000092CFFAAAAAA280800FF681006264989
:1059D000494932100C0671020408107F00049D0131
:1059E000040D9D0004156343F80801240500F81810
:1059F00060E82404806018235720202923E0102128
:105A0000A310E01449B4313908043C886818630DC8
:105A100015FF037DEA039DFF0371144DFF031D066F
:105A2000043D2E040942E91C0640202020C04A04FF
:105A3000110721EA3E40520452600E81187129512B
:105A4000070D4769031C060C0A0A090C0004156BB4
:105A50002D00042004080F081510050809090E0779
:105A60001D180430050909090F0A512951070DFFB6
:105A700000040D210004182050696E20506F696EDB
:105A80007400417070726F616368200053686F63C7
:105A90006B00416C61726DD6FF20205A03BD230359
:105AA0001EF096052310FF050E13F0BD052E0F19ED
:105AB000062EFF32060A120F5B100840405F555554
:105AC0005575045B5F40C0D97C24060F094989796C
:105AD000E30211201F200800FE02424ACA4A030CBA
