:020000040800F2
:10000000481B00209501000839730008457300085B
:10001000577300087373000887730008000000001E
:100020000000000000000000000000009B730008BA
:10003000A773000800000000B3730008BF73000836
:10004000AF010008AF010008AF010008AF010008D0
:10005000AF010008AF010008AF010008AF010008C0
:10006000AF010008AF010008AF0100082F0600082B
:10007000AF010008AF010008AF010008AF010008A0
:10008000AF010008AF010008AF010008AF01000890
:10009000AF010008AF010008AF010008AF01000880
:1000A000AF010008AF010008AF010008AF01000870
:1000B000BF720008ED72000813730008AF0100085A
:1000C000AF010008AF010008AF010008AF01000850
:1000D000AF010008B72F00080530000853300008B2
:1000E000AF010008AF010008AF01000800F002F8FE
:1000F00000F040F80AA090E8000C82448344AAF182
:100100000107DA4501D100F035F8AFF2090EBAE87F
:100110000F0013F0010F18BFFB1A43F0010318473B
:10012000AC8A0000CC8A0000103A24BF78C878C19D
:10013000FAD8520724BF30C830C144BF04680C60ED
:10014000704700000023002400250026103A28BF35
:1001500078C1FBD8520728BF30C148BF0B60704739
:100160001FB59DE8030007F0CBF907F03BF91FBD71
:1001700010B510BD07F007FA1146FFF7F1FF07F0C1
:100180006BF807F03FFA03B4FFF7F2FF03BC07F088
:1001900077FA00000948804709480047FEE7FEE774
:1001A000FEE7FEE7FEE7FEE7FEE7FEE7FEE7FEE727
:1001B00004480549054A064B70470000B102000893
:1001C000ED00000848030020481B002048150020CF
:1001D000481500200CB50020019000906B48006885
:1001E00040F480306949086000BF6848006800F446
:1001F000003000900198401C0190009818B90198B7
:10020000B0F5A06FF1D16148006810F4003F02D052
:100210000120009001E0002000900098012842D1C8
:100220005B48006840F010005949086008460068C3
:1002300020F0030008600846006840F002000860F3
:10024000524840685149486008464068486008463E
:10025000406840F4806048600846406820F47C10A4
:1002600048600846406840F4E81048600846006866
:1002700040F08070086000BF4448006810F0007FC4
:10028000FAD04248406820F00300404948600846E0
:10029000406840F00200486000BF3C48406800F001
:1002A0000C000828F9D10CBD10B5FFF793FF10BD65
:1002B00010B53648006840F001003449086008462F
:1002C000406834490840314948600846006832496E
:1002D00008402E4908600846006820F48020086025
:1002E0000846406820F4FE0048604FF41F00886014
:1002F000FFF7DAFF4FF000602849086010BD10B525
:10030000002100200022214B5B6803F00C0121B189
:10031000042906D0082928D107E0214B214C23606D
:1003200027E01F4B1F4C236023E0184B5B6803F44E
:100330007010164B5B6803F48032022303EB90408D
:1003400022B9194B4343174C23600DE00F4B5B68F8
:1003500013F4003F04D0144B4343124C236003E0DA
:100360000F4B43430F4C236003E00D4B0D4C2360B8
:1003700000BF00BF054B5B68C3F303130B4CE15C8C
:10038000084B1B68CB40074C236010BD0010024097
:10039000002002400000FFF8FFFFF6FE08ED00E03D
:1003A00000127A000000002000093D000400002037
:1003B000F8B507460C4615461E46ADF800708DF898
:1003C00003508DF802406946304601F011FDF8BD3A
:1003D00010B54FF4A06000F059F910BDF8B506460D
:1003E0000C4615468DF800608DF801408DF80250DE
:1003F00001208DF80300684600F04DF9F8BD0000BB
:1004000030B52C4800684FF47A72B0FBF2F1481E08
:10041000B0F1807F01D3012019E0481E4FF0E022A7
:10042000506150170F22002806DA1301224C00F009
:100430000F052D1F635502E01301204C235400BF0C
:1004400000204FF0E022906107201061002008B1E9
:1004500000BFFEE730BD01B519490098086000BF34
:10046000174800680028FBD108BD1548006820B176
:1004700013480068401E124908607047002105E0DB
:100480000A2100BF0A00A1F10101FBD10200A0F185
:100490000100F5D17047002106E042F6E06100BF9F
:1004A0000A00A1F10101FBD10200A0F10100F4D189
:1004B000704700000000002018ED00E000E400E0BC
:1004C0001400002008B50121084600F0AEFC01210F
:1004D000480200F0B7FC0121042000F0B3FC012029
:1004E000ADF8000000208DF803006946624801F075
:1004F0007FFC08BD00B585B00020009001208DF87C
:1005000004008DF805004FF4602002900020039055
:1005100001208DF810006946584801F0DCFD0120EB
:1005200001F096FF072301220021544801F06BFEE1
:100530000121524801F0FBFD0121504801F002FE6B
:100540004E4801F016FE00BF4C4801F017FE00288F
:10055000FAD14A4801F01CFE00BF484801F01DFED8
:100560000028FAD10121454801F021FE05B000BD67
:1005700000B58BB0424801F0AFFF40484C300090CE
:100580004048019000200290322003900020049007
:100590008020059040000690800007902020089061
:1005A0000002099000200A906946354802F036F8AA
:1005B0000121334802F05DF801220221304802F0A7
:1005C00064F80BB000BD08B50B208DF800000120C9
:1005D0008DF8010000208DF8020001208DF8030045
:1005E000684600F058F808BD10B5FFF76BFFFFF73D
:1005F00081FFFFF7BDFFFFF7E6FF10BD10B501213A
:100600001E4801F0D4FD10BD0021002005E01D4A68
:1006100032F910201144421CD0B23228F7DB3222CA
:1006200091FBF2F212B2184B1A800021704710B5FC
:10063000022002F057F858B1022002F066F80220BA
:1006400002F045F800210D4801F0B1FDFFF7DCFF95
:1006500010BD0D49B1F90000322801DA002009E08F
:1006600040F6D171884202DD40F69F7002E0A0F1B1
:10067000320108B270470000000801400024014028
:1006800008000240500000201800002031490143BA
:10069000314A1160704770B5002100230F22C478E1
:1006A0000CB32D4C246804F4E064C4F5E064210A22
:1006B000C1F10403CA40447804FA03F18478144079
:1006C00021430901254C0678A155047804F01F0543
:1006D0000124AC4005786D114FF0E02606EB85054E
:1006E000C5F8004109E0047804F01F050124AC407E
:1006F0001B4D0678761145F8264070BD194A0A4010
:100700000243154B1B1F1A60704739B1124A121D64
:1007100012680243104B1B1D1A6006E00E4A121DA0
:10072000126882430C4B1B1D1A607047042808D1C5
:100730004FF0E021096941F004014FF0E02211611E
:1007400007E04FF0E021096921F004014FF0E022B9
:10075000116170470000FA050CED00E000E400E0D4
:1007600080E100E080FFFF1F10B50446FB48844293
:1007700009D10121880300F07FFB00214FF4804064
:1007800000F07AFB32E0F648844209D101214804A6
:1007900000F07FFB00214FF4003000F07AFB25E0F1
:1007A000F048844209D10121880400F072FB002145
:1007B0004FF4802000F06DFB18E0EB48844209D133
:1007C0000121C80400F065FB00214FF4002000F077
:1007D00060FB0BE0E548844208D10121080500F0E8
:1007E00058FB00214FF4801000F053FB10BD2DE9A1
:1007F000F04786B005460E460024A24600BFA1463B
:100800000027B08900B100BF2F462C8A4CF6FF703C
:100810000440F08804432C82AC894EF6F310044067
:10082000B08831890843718908430443AC81AC8A9C
:100830004FF6FF400440B0890443AC8201A800F0A9
:1008400094FAC648874202D1DDF810A001E0DDF835
:100850000CA0A88910F4004F08D00AEBCA0000EBE6
:100860000A1031684900B0FBF1F807E00AEBCA0052
:1008700000EB0A1031688900B0FBF1F86420B8FB86
:10088000F0F004012009642101FB1089A88910F40B
:10089000004F08D0322000EBC900B0FBF1F000F0AF
:1008A0000700044308E0322000EB09106421B0FB8C
:1008B000F1F000F00F0004432C8106B0BDE8F08792
:1008C0004FF41651016000218180C18001810C210B
:1008D000418100218181704710B502460020108AB5
:1008E0004FF2FF0318400B884C8823438C88234326
:1008F000CC8823431843108210BD00210180418021
:100900008180C180704721B1828942F40052828186
:1009100004E082894DF6FF731A4082817047F0B57A
:1009200003460024002600250020A1F510676A3F39
:1009300000D100BF1846C1F3421401F01F06012781
:1009400007FA06F5012C01D10C3004E0022C01D18C
:10095000103000E014301AB107682F43076002E03E
:100960000768AF430760F0BD1AB1838A0B438382E7
:1009700002E0838A8B4383827047028A4FF6F073CA
:100980001A400282028A0A430282704782894FF229
:10099000FF731A40828182890A438281704721B1A4
:1009A000828942F00202828104E082894FF6FD735F
:1009B0001A4082817047028A4FF6DF731A40028222
:1009C000028A0A430282704721B1028A42F48042BD
:1009D000028204E0028A4BF6FF731A4002827047DB
:1009E000C1F308028280704701468888C0F308007E
:1009F0007047818941F0010181817047028BD2B239
:100A00000283028B42EA012202837047028B02F4C6
:100A10007F420283028B0A430283704721B1828A9C
:100A200042F02002828204E0828A4FF6DF731A408D
:100A30008282704721B1828A42F01002828204E0F1
:100A4000828A4FF6EF731A408282704721B1828A00
:100A500042F00802828204E0828A4FF6F7731A405D
:100A60008282704721B1828942F40042828103E090
:100A70008289C2F30E028281704721B1828A42F4D8
:100A80000062828204E0828A4FF2FF731A408282FF
:100A90007047828A4FF6FB731A408282828A0A4329
:100AA0008282704721B1828A42F00202828204E08F
:100AB000828A4FF6FD731A408282704702460020F8
:100AC000B1F5007F00D100BF13880B4201D0012097
:100AD00000E00020704701F40072B2F5007F00D101
:100AE00000BFCA430280704770B50246002400234D
:100AF00000250020A1F510666A3E00D100BFC1F3B9
:100B0000421501F01F03012606FA03F3012D02D15D
:100B10009689334006E0022D02D1168A334001E067
:100B2000968A33400C12012606FA04F416883440E3
:100B300013B10CB1012000E0002070BD10B50022FF
:100B40000023A1F510646A3C00D100BF0A12012401
:100B50009440A3B2DC43048010BD00000038014083
:100B60000044004000480040004C0040005000405D
:100B7000DD48006840F00100DB4908600846406835
:100B8000DA490840D849486008460068D849084012
:100B9000D54908600846006820F4802008600846AF
:100BA000406820F4FE0048604FF41F0088607047E2
:100BB000CD49096821F48031CB4A1160114609689A
:100BC00021F480211160B0F5803F03D0B0F5802F73
:100BD0000ED106E0C449096841F48031C24A11606F
:100BE00007E0C149096841F4A021BF4A116000E053
:100BF00000BF00BF704710B501460022002300204F
:100C00004A11012A02D1B84C236806E0022A02D117
:100C1000B54C236A01E0B44C636A01F01F02012461
:100C200094401C4201D0012000E0002010BD38B5E6
:100C3000002000900024002500BF3120FFF7DBFFDB
:100C400005460098401C00900098B0F5A06F01D0B8
:100C5000002DF2D03120FFF7CEFF08B1012400E0D3
:100C60000024204638BD014600209F4A106820F02D
:100C7000F80040EAC100106070479E490860704764
:100C800002460020984B586820F47C1042EA010389
:100C90001843954B5860704796490866704701465F
:100CA0000020914A506820F00300084350607047CC
:100CB0008D48406800F00C007047014600208A4AC9
:100CC000506820F0F0000843506070470146002053
:100CD000854A506820F4E060084350607047014640
:100CE0000020814A506820F4605040EAC100506002
:100CF000704729B17C4A527A02437B4B5A7204E016
:100D0000794A527A8243784B5A7270477A4908601E
:100D1000704701460020744A506820F44040084360
:100D2000506070470021754A11706F4A82F8201098
:100D3000012802D0042808D103E001216F4A117074
:100D400004E005216D4A117000E000BF00BF70474C
:100D50006B49086070476449096A0143624A11623D
:100D60007047674944390860704730B50021002258
:100D7000002400235C4D6D6805F00C0121B10429AD
:100D800005D0082923D105E05E4D056022E05D4DC8
:100D900005601FE0544D6D6805F47012524D6D688A
:100DA00005F48034022505EB92421CB9564D55439B
:100DB00005600BE04C4D6D6815F4003F03D0524DBB
:100DC0005543056002E04F4D5543056002E04D4D2F
:100DD000056000BF00BF444D6D6805F0F0010909D2
:100DE0004A4D6B5C0568DD4045603F4D6D6805F41C
:100DF000E061090A454D6B5C4568DD4085603A4D10
:100E00006D6805F46051C90A404D6B5C4568DD4072
:100E1000C560354D6D6805F44041890B3C4D6B5CF8
:100E2000C568B5FBF3F5056130BD29B12E4A52699D
:100E300002432D4B5A6104E02B4A526982432A4BEC
:100E40005A61704729B1284A92690243264B9A6138
:100E500004E0254A92698243234B9A61704729B185
:100E6000214AD2690243204BDA6104E01E4AD2696A
:100E700082431D4BDA61704729B11B4AD268024395
:100E8000194BDA6004E0184AD2688243164BDA60E4
:100E9000704729B1144A12690243134B1A6104E0E6
:100EA000114A12698243104B1A6170471449403944
:100EB000086070470F49C86470470B49C871704794
:100EC0000948406A40F0807007494862704701460F
:100ED0000020054A92680A4201D0012000E000206B
:100EE0007047014988727047001002400000FFF807
:100EF000FFFFF6FE00004242D800424220100240AE
:100F00008004424200127A0000093D001A000020CD
:100F10002A00002010B50446FE48844208D1012171
:100F2000C014FFF7A9FF0021E014FFF7A5FFC4E0FC
:100F3000B4F1804F08D101210846FFF7AAFF002134
:100F40000120FFF7A6FFB8E0F348844208D1012151
:100F50000220FFF79EFF00210220FFF79AFFACE07E
:100F6000EE48844208D101210420FFF792FF0021BE
:100F70000420FFF78EFFA0E0E948844208D1012158
:100F80000820FFF786FF00210820FFF782FF94E08A
:100F9000E448844208D101211020FFF77AFF0021A4
:100FA0001020FFF776FF88E0DF48844208D1012156
:100FB0002020FFF76EFF00212020FFF76AFF7CE072
:100FC000DA48844208D101214014FFF755FF00217F
:100FD0006014FFF751FF70E0D548844209D1012128
:100FE000C804FFF749FF00214FF40020FFF744FF3A
:100FF00063E0D048844209D101210805FFF73CFF96
:1010000000214FF48010FFF737FF56E0CA488442B2
:1010100009D101214805FFF72FFF00214FF40010EF
:10102000FFF72AFF49E0C548844208D1012140204A
:10103000FFF72FFF00214020FFF72BFF3DE0C048C6
:10104000844208D101218020FFF723FF0021802066
:10105000FFF71FFF31E0BB48844208D10121801512
:10106000FFF717FF0021A015FFF713FF25E0B64893
:10107000844209D101210804FFF7FEFE00214FF44C
:101080008030FFF7F9FE18E0B048844209D1012111
:101090004804FFF7F1FE00214FF40030FFF7ECFEAB
:1010A0000BE0AB48844208D101218804FFF7E4FE3D
:1010B00000214FF48020FFF7DFFE10BD00220288E0
:1010C000944B98420ED0994B98420BD0B0F1804F80
:1010D00008D0914B984205D0904B984202D0904B4B
:1010E000984204D14FF68F731A404B881A438D4BA8
:1010F000984207D08C4B984204D04FF6FF431A40D9
:10110000CB881A4302808B8883850B880385814BAB
:1011100098420BD0854B984208D08B4B984205D013
:101120008A4B984202D08A4B984201D10B7A0386AF
:1011300001238382704770B5002400220023058CB0
:101140004FF6FE7635400584028C8388048B4FF67B
:101150008F752C40B51E2C400D882C43751E2A40DF
:101160000D892A434D882A436A4DA8420BD06F4D02
:10117000A84208D0744DA84205D0744DA84202D0B0
:10118000734DA84213D14FF6F7752A404D892A4373
:101190004FF6FB752A408D882A434FF6FF652B409A
:1011A0004FF6FF552B408D892B43CD892B438380F0
:1011B0000483CD888586028470BD70B5002400222A
:1011C0000023058C4FF6EF7635400584028C83882A
:1011D000048B48F6FF752C404FF6FF452C400D88D8
:1011E0004FF6FF7606EA05252C434FF6DF752A40B9
:1011F0000D8906EA05152A434D8806EA05152A4396
:10120000444DA84202D0494DA8421DD14FF67F75EA
:101210002A404D894FF6FF7606EA05152A434FF618
:10122000BF752A408D8806EA05152A434FF6FF351B
:101230002B404FF2FF752B408D8906EA85052B4325
:10124000CD8906EA85052B4383800483CD880587F5
:10125000028470BD70B5002400220023058C4FF677
:10126000FF6635400584028C8388848B4FF68F752A
:101270002C404FF6FC752C400D882C434FF6FF5543
:101280002A400D894FF6FF7606EA05252A434D8848
:1012900006EA05252A431F4DA84202D0234DA84245
:1012A0001DD14FF2FF752A404D894FF6FF7606EAB1
:1012B00005252A434FF6FF352A408D8806EA052585
:1012C0002A434EF6FF752B404DF6FF752B408D8956
:1012D00006EA05152B43CD8906EA05152B438380C5
:1012E0008483CD888587028470BD70B50022002379
:1012F0000024058C4EF6FF7635400584038C8488E7
:10130000828B48F6FF752A404FF6FF452A400D882C
:1013100020E00000002C01400004004000080040D4
:10132000000C004000100040001400400034014058
:10133000004C0140005001400054014000180040A2
:10134000001C0040002000400040014000440140DB
:10135000004801404FF6FF7606EA05252A434DF680
:10136000FF752B400D8906EA05352B434D8806EAAB
:1013700005352B43FA4DA84202D0FA4DA84208D1B8
:101380004BF6FF752C408D894FF6FF7606EA8515E2
:101390002C4384808283CD88A0F84050038470BDA4
:1013A000828B4FF2FF331A408283828B4FF6FF739A
:1013B00003EA01231A4382837047F0B50C461546B1
:1013C000002200210026078C4EF6FF7C07EA0C075E
:1013D0000784828B018C4FF6FF7707EA043640F6CC
:1013E000FF473A404FF6FF7707EA05273A434FF6A3
:1013F000FF7707EA03373A43D94FB8420ED0D94FA7
:10140000B8420BD0B0F1804F08D0D74FB84205D0CA
:10141000D64FB84202D0D64FB84206D14DF6FF772C
:10142000394046F48057394305E047F6FF573940C5
:1014300044F48057394382830184F0BD828B4FF698
:10144000F3731A408283828B0A4382837047F0B51C
:101450000C461546002200210026078C4FF6FF6C33
:1014600007EA0C070784828B018C4FF6FF7707EAA7
:1014700004264FF60C773A404FF6FF7707EA03173A
:101480002F433A43B64FB8420ED0B64FB8420BD0B6
:10149000B0F1804F08D0B44FB84205D0B34FB84236
:1014A00002D0B34FB84206D14FF6FF57394046F449
:1014B0008077394305E04FF2FF57394044F4807795
:1014C000394382830184F0BD028B4FF2FF331A400F
:1014D0000283028B4FF6FF7303EA01231A43028350
:1014E0007047F0B50C461546002200210026078CF7
:1014F0004FF6EF7C07EA0C070784028B018C4FF64E
:10150000FF7707EA041640F6FF473A404FF6FF77A9
:1015100007EA03373A434FF6FF7707EA05273A43CE
:101520008F4FB8420ED08F4FB8420BD0B0F1804FE2
:1015300008D08D4FB84205D08C4FB84202D08C4FA6
:10154000B84206D14FF6DF77394046F010073943ED
:1015500005E04FF65F77394044F0100739430283C6
:101560000184F0BD028B4FF6F3731A400283028BA5
:101570000A4302837047F0B50C461546002200214D
:10158000068C4FF6FE773E400684028B018C4FF6A8
:101590000C7632407E1C06EA03162E433243704E10
:1015A000B0420ED06F4EB0420BD0B0F1804F08D099
:1015B0006D4EB04205D06D4EB04202D06C4EB0427E
:1015C00006D14FF6FD76314044F00106314305E087
:1015D0004FF6F576314044F0010631430283018431
:1015E000F0BD70B505460C465D4885420ED05D489D
:1015F00085420BD0B5F1804F08D05B48854205D0BD
:101600005A48854202D05A48854200D100E000BFC6
:10161000208850B92389A28861882846FFF7ABFF4C
:10162000E1882846FFF79EFF25E0208804280AD19C
:101630002389A28861882846FFF753FFE18828465E
:10164000FFF742FF17E0208808280AD12389A288E3
:1016500061882846FFF7FBFEE1882846FFF7EEFE8B
:1016600009E02389A28861882846FFF7A6FEE18861
:101670002846FFF795FE70BD2DE9F04105460C4662
:1016800000260127608808B9022600E00026A0880D
:10169000012801D1022700E001272088A0B9238971
:1016A000A28861882846FFF766FFE1882846FFF791
:1016B00059FF23893A4631462846FFF712FFE18851
:1016C0002846FFF701FF13E02389A2886188284696
:1016D000FFF707FFE1882846FFF7F6FE23893A4621
:1016E00031462846FFF747FFE1882846FFF73AFFD3
:1016F000BDE8F0810A884B881A438B881A43CB884F
:101700001A430B891A434B891A438B891A43A0F851
:10171000442070474FF6FF71818000210180C18015
:101720004180017270470021018041808180C18029
:10173000018141818181C181704700210180418007
:10174000012181800021C180018170470021018039
:1017500041808180C1800181418181817047000089
:10176000002C01400034014000040040000800400B
:10177000000C004021B1028842F00102028004E026
:1017800002884FF6FE731A400280704731B1B0F8FC
:10179000442042F40042A0F8442005E0B0F8442080
:1017A000C2F30E02A0F8442070471AB183890B439C
:1017B000838102E083898B438381704781827047F4
:1017C00041EA0203A0F8483070471AB183890B43FD
:1017D000838102E083898B438381704701894FF6BF
:1017E000F8721140018170470A46002101894FF6C5
:1017F0008F73194011430181704730B504460D467F
:1018000029462046FFF7F0FF208940F0070020819D
:1018100030BD2DE9F04104460D4616461F46602DA9
:1018200006D13B46012231462046FFF75AFE05E02D
:101830003B46012231462046FFF79DFE29462046C1
:10184000FFF7D2FF208940F007002081BDE8F0813A
:1018500030B50C4600210189C9B24FF6FF7505EA83
:101860000325154325432943018130BD2DE9F0416E
:1018700005460E4617469846002443463A463146EA
:101880002846FFF7E5FF2C894FF6F870044044F036
:1018900007044FF68F70044044F070042C81BDE8BB
:1018A000F081F0B504460D4616461F463B463246CB
:1018B00029462046FFF7CCFF208940F48040208154
:1018C000F0BD0185828270470A46002101884FF6EB
:1018D0008F731940114301807047F0B50C461546CF
:1018E0001E460021002200230189028B038C4FF643
:1018F000F877394021434FF6FC473A4040F2011750
:101900003A434FF6DD773B404FF6FF7707EA06177D
:101910002F433B43018102830384F0BD0A4600212B
:10192000018B4FF68F7319401143018370470A46AC
:101930000021018B48F6FF7319404FF6FF7303EA4D
:1019400002231943018370470A460021818B4FF619
:101950008F7319401143818370470A460021818BA0
:1019600048F6FF7319404FF6FF7303EA0223194349
:101970008183704721B1028842F08002028004E036
:1019800002884FF67F731A400280704721B1828827
:1019900042F00402828004E082884FF6FB731A4012
:1019A0008280704721B1828842F00802828004E080
:1019B00082884FF6F7731A408280704721B182887F
:1019C00042F00102828004E082884FF6FE731A40E2
:1019D000828070470A460021018B4FF6F773194049
:1019E0001143018370470A460021018B4FF2FF73B8
:1019F00019404FF6FF7303EA02231943018370472E
:101A00000A460021818B4FF6F773194011438183F9
:101A100070470A460021818B4FF2FF7319404FF641
:101A2000FF7303EA02231943818370470A460021AA
:101A3000018B4FF6FB7319401143018370470A462F
:101A40000021018B4FF6FF3319404FF6FF7303EA75
:101A500002231943018370470A460021818B4FF608
:101A6000FB7319401143818370470A460021818B23
:101A70004FF6FF3319404FF6FF7303EA0223194371
:101A8000818370470A460021018B4FF67F7319400E
:101A90001143018370470A460021018BC1F30E01F7
:101AA0004FF6FF7303EA02231943018370470A4686
:101AB0000021818B4FF67F7319401143818370475A
:101AC0000A460021818BC1F30E014FF6FF7303EA32
:101AD00002231943818370470A460021018C4FF687
:101AE000FD7319401143018470470A460021018C9F
:101AF0004FF6F77319401143018470470A460021DD
:101B0000018C4FF6DF7319404FF6FF7303EA02139F
:101B10001943018470470A460021018C4FF67F73F8
:101B200019404FF6FF7303EA02131943018470470B
:101B30000A460021018C4FF6FF5319404FF6FF7300
:101B400003EA02231943018470470A460021018CED
:101B50004FF2FF7319404FF6FF7303EA0223194354
:101B6000018470470A460021018C4DF6FF7319402D
:101B70004FF6FF7303EA023319430184704730B50F
:101B8000002301248C40A3B2048C9C430484048C65
:101B900002FA01F5ADB22C43048430BD30B5002308
:101BA00004248C40A3B2048C9C430484048C02FA69
:101BB00001F5ADB22C43048430BD70B5034600205E
:101BC00000241846183001258D40ACB21D8CA54369
:101BD0001D8409B1082909D100EB6100056825F0D1
:101BE000700505600568154305600EE00D1FC5F31F
:101BF0004E052844056825F4E045056005684FF664
:101C0000FF7606EA02263543056070BD21B10288E1
:101C100042F00202028004E002884FF6FD731A408F
:101C20000280704721B1028842F00402028004E081
:101C300002884FF6FB731A400280704721B18288F8
:101C400042F08002828004E082884FF67F731A405F
:101C50008280704702884FF6F7731A40028002882C
:101C60000A430280704782884FF68F731A40828041
:101C700082880A438280704702894FF6F8731A40BF
:101C8000028102890A430281704702894FF67F73FD
:101C90001A40028102890A43028170478184704799
:101CA00081857047818670470187704781877047BB
:101CB000A0F84010704702884FF6FF431A40028098
:101CC00002880A43028070470146888E70470146A9
:101CD000088F70470146888F70470146B1F8400071
:101CE00070470146888C70470146088D7047024650
:101CF0000020138A0B4201D0012000E00020704731
:101D0000CA430282704730B50246002000230024F7
:101D1000158A05EA0103958905EA010413B10CB19E
:101D2000012000E0002030BDCA430282704700005D
:101D300010B50446CA48844208D101210420FFF7A7
:101D40009BF800210420FFF797F846E0C54884423D
:101D500008D101210820FFF78FF800210820FFF7A4
:101D60008BF83AE0C048844208D101211020FFF7E7
:101D700083F800211020FFF77FF82EE0BB48844253
:101D800008D101212020FFF777F800212020FFF75C
:101D900073F822E0B648844208D101214020FFF7C1
:101DA0006BF800214020FFF767F816E0B148844245
:101DB00008D101218020FFF75FF800218020FFF784
:101DC0005BF80AE0AC48844207D101218015FFF797
:101DD00053F80021A015FFF74FF810BD10B50121F1
:101DE0000846FFF749F800210120FFF745F810BD2C
:101DF0002DE9F041024600250026002000230024A2
:101E0000002791F803C00CF00F0591F803C01CF0F7
:101E1000100F03D091F802C04CEA050591F800C0FC
:101E2000BCF1000F31D0146800202BE04FF0010C02
:101E30000CFA00F3B1F800C00CEA03069E4220D170
:101E400083004FF00F0C0CFA03F7BC4305FA03FCB8
:101E50004CEA040491F803C0BCF1280F06D14FF0FE
:101E6000010C0CFA00FCC2F814C00AE091F803C09F
:101E7000BCF1480F05D14FF0010C0CFA00FCC2F880
:101E800010C0401C0828D1D31460B1F800C0BCF1C8
:101E9000FF0F34DD546800202EE000F1080C4FF0F5
:101EA000010808FA0CF3B1F800C00CEA03069E42E0
:101EB00021D183004FF00F0C0CFA03F7BC4305FA55
:101EC00003FC4CEA040491F803C0BCF1280F05D1CF
:101ED00000F1080C08FA0CF8C2F8148091F803C05D
:101EE000BCF1480F07D100F1080C4FF0010808FAC7
:101EF0000CF8C2F81080401C0828CED35460BDE80E
:101F0000F0814FF6FF710180022181700421C170C0
:101F100070470246002093680B4201D0012000E088
:101F2000002070470146886880B270470246002052
:101F3000D3680B4201D0012000E000207047014629
:101F4000C86880B2704701617047416170470AB14B
:101F5000016100E041617047C16070474FF4803219
:101F60000A438261816182618269826970470246A7
:101F70000020424B18684FF68073184040EA021068
:101F800008433E4B186070473D49C8617047F0B543
:101F90000A46002300240021002500F00046B6F187
:101FA000004F02D1354EF16901E0344E7168C0F343
:101FB000034583B200F44016B6F5401F08D121F066
:101FC00070612E4E766826F070662C4F7E6012E0AF
:101FD00000F48016B6F5801F06D1032606FA05F434
:101FE000A14341F0706106E0460D360103FA06F6A2
:101FF000B14341F0706122B1460D360103FA06F695
:10200000314300F00046B6F1004F02D11B4EF161A2
:1020100001E01A4E7160F0BD30B500228B071C0F35
:102020000F2303FA04F2154B08338C1053F82430B5
:102030009343124C08348D1044F8253023468C10FD
:1020400053F824308C07240F00FA04F423430B4C7C
:1020500008348D1044F8253030BD0A4908607047B7
:1020600000080140000C0140001001400014014034
:1020700000180140001C0140002001400000014008
:1020800000002042DC00204210B50446FA48844299
:1020900008D101214015FEF7EFFE00216015FEF783
:1020A000EBFE17E0F548844208D101210015FEF748
:1020B000E3FE00212015FEF7DFFE0BE0F04884422E
:1020C00008D10121C803FEF7D7FE00214FF40040DC
:1020D000FEF7D2FE10BD30B5024600200023506846
:1020E000E84C20400D790C6844EA052420435060F8
:1020F0009068E54C2040D1E902542C434D7944EAE4
:10210000450420439060D06A20F470000C7C641E6B
:10211000E4B2234340EA0350D06230BD00210160A5
:10212000017141718160C16001210174704721B169
:10213000826842F00102826003E0826822F00102BC
:102140008260704721B1826842F48072826003E04D
:10215000826822F480728260704710B50023CBB28F
:102160001AB144681C43446002E044689C434460E4
:1021700010BD816841F00801816070470146002070
:102180008A6812F0080F01D0012000E0002070479B
:10219000816841F0040181607047014600208A682F
:1021A00012F0040F01D0012000E00020704721B19F
:1021B000826842F4A002826003E0826822F4A002F6
:1021C00082607047014600208A6812F4800F01D0B7
:1021D000012000E00020704710B50A4600210023CE
:1021E000416821F46041531E41EA4331416010BD12
:1021F00021B1426842F40062426003E0426822F486
:10220000006242607047F0B504460D460020002190
:10221000092D11DDE068A5F10A0606EB4607072641
:1022200006FA07F18843A5F10A0606EB460603FA0B
:1022300006F10843E0600CE0206905EB450707263E
:1022400006FA07F1884305EB450603FA06F1084351
:102250002061072A0FDA606B561E06EB86071F26E1
:1022600006FA07F18843561E06EB860605FA06F1C4
:102270000843606322E00D2A0FDA206BD61F06EBBD
:1022800086071F2606FA07F18843D61F06EB860647
:1022900005FA06F10843206310E0E06AA2F10D069A
:1022A00006EB86071F2606FA07F18843A2F10D0602
:1022B00006EB860605FA06F10843E062F0BD21B19F
:1022C000826842F48012826003E0826822F4801205
:1022D000826070470146C86C80B2704766484C30D7
:1022E0000068704721B1426842F48062426003E0B6
:1022F000426822F480624260704721B1426842F431
:102300008052426003E0426822F48052426070478B
:102310000A460021816821F4E04111438160704741
:1023200021B1826842F40042826003E0826822F4B4
:1023300000428260704721B1826842F402128260DA
:1023400003E0826822F40212826070470146002096
:102350008A6812F4001F01D0012000E000207047BD
:10236000F0B504461546002000220026092911DD9B
:10237000E068A1F10A0707EB470C072707FA0CF200
:102380009043A1F10A0707EB470703FA07F210434E
:10239000E0600CE0206901EB410C072707FA0CF222
:1023A000904301EB410703FA07F210432061A06B51
:1023B000C0F30156EF1C06F1010CA7EB0C0707EB6D
:1023C000870C1F2707FA0CF29043EF1C06F1010C53
:1023D000A7EB0C0707EB870701FA07F21043A0638E
:1023E000F0BD10B50A4600210023816B21F4401195
:1023F000531E41EA0351816310BD08B500230093C9
:102400000090009B0B440093009B1A6008BD08B528
:10241000024600200090009201F12800009B184421
:1024200000900098006880B208BD0A46002141680B
:10243000164B1940114341607047416282627047F8
:102440000A460021416821F01F0111434160704795
:1024500040B109490831096841F40001064A0832CF
:10246000116007E004490831096821F40001024ABB
:10247000083211607047000000240140002801402C
:10248000003C0140FFFEF0FFFDF7F1FFFFFD3FFFC5
:102490000246002013680B4201D0012000E000201A
:1024A0007047CA430260704770B50246002000239F
:1024B00000240B125568CEB205EA060415681D42C9
:1024C00002D00CB1012000E0002070BD00220A12F1
:1024D000D34303607047000001684FF6FE7211405D
:1024E00001600021016041608160C1608C498842C7
:1024F00008D18B490839496841F00F01884A083AE8
:1025000051608AE086491431884208D184490839EB
:10251000496841F0F001824A083A51607DE0804903
:102520002831884208D17E490839496841F47061F0
:102530007B4A083A516070E079493C31884208D1C1
:1025400077490839496841F47041754A083A516041
:1025500063E073495031884208D1714908394968AC
:1025600041F470216E4A083A516056E06C4964317A
:10257000884208D16A490839496841F47001684ABB
:10258000083A516049E066497831884208D1644987
:102590000839496841F07061614A083A51603CE08D
:1025A0006049884206D1011F096841F00F01021FEE
:1025B000116032E05B491431884208D15949091F42
:1025C000096841F0F001574A121F116025E0554992
:1025D0002831884208D15349091F096841F47061C4
:1025E000504A121F116018E04E493C31884208D110
:1025F0004C49091F096841F470414A4A121F116091
:102600000BE048495031884207D14649091F096803
:1026100041F47021434A121F1160704710B5002227
:10262000026847F6F0739A430C6A8B6823430C697F
:1026300023434C6923438C692343CC6923434C6A6D
:1026400023438C6A23431A430260CB6843600B68C0
:1026500083604B68C36010BD0021016041608160F0
:10266000C160016141618161C16101624162816258
:10267000704721B1026842F00102026004E0026882
:102680004FF6FE731A40026070471AB103680B439D
:10269000036002E003688B4303607047416070474A
:1026A0000146486880B2704701460020002211F0C0
:1026B000805F03D01B4B083B1A6802E0184B083BB5
:1026C0001A680A4201D0012000E00020704710F093
:1026D000805F03D01349091F086002E010490839E0
:1026E0004860704701460020002211F0805F03D04F
:1026F0000C4B083B1A6802E0094B083B1A680A4277
:1027000001D0012000E00020704710F0805F03D06E
:102710000449091F086002E0014908394860704710
:10272000080002400804024010B50446BE48844236
:1027300008D101218014FEF79FFB0021A014FEF7B1
:102740009BFB16E0B948844208D101210014FEF732
:10275000A0FB00212014FEF79CFB0AE0B448844251
:1027600007D10121C013FEF794FB0021E013FEF70F
:1027700090FB10BD10B50022028802F441520B8874
:102780004C8823438C882343CC8823430C892343E0
:102790004C8923438C892343CC8923431A430280E9
:1027A000838B4FF2FF74234083830B8A038210BD17
:1027B0002DE9F04F85B005460C464FF00009022781
:1027C0004FF000084FF0010B0026B246A88B4FF2E5
:1027D00040010840A88302202884B5F81C90A06816
:1027E000022801D100BF38E0A08810B94FF0010BDA
:1027F00001E04FF0020B8D48854200D100E000BFA0
:102800006846FEF7B2FADDF800A0E088B0F5007F78
:102810000AD14FEA1A2000EB80004000A168B0FB0B
:10282000F1F0401D86B20BE04FEA4B10BAFBF0F01E
:1028300000EB80004000A168B0FBF1F0401D86B2C3
:102840000A20B6FBF0F606F00108A6EB0800C0F37C
:102850004F074FF6FF7000EA0828022F01DBFF2F19
:1028600002DD02274FF00008E08840EA0800384304
:102870002884A088A18908436188084321880843E7
:1028800040F4006040EA0909A5F81C9005B0BDE8D5
:10289000F08F0021018041808180C18001814181D0
:1028A0008181C1810721018270470021018041801F
:1028B0008180C1800221816000218181704721B126
:1028C000028842F04002028004E002884FF6BF73A3
:1028D0001A400280704721B1828B42F48062828369
:1028E00004E0828B4FF6FF331A408283704730B585
:1028F000002400230C110125A540ABB21AB1858834
:102900001D43858002E085889D43858030BD1AB1D6
:1029100083880B43838002E083888B4383807047E6
:1029200081817047014688897047A1F57E42FF3A50
:1029300004D0028842F48072028004E002884FF6DC
:10294000FF631A400280704721B1828842F004027E
:10295000828004E082884FF6FB731A4082807047C1
:1029600002884FF2FF731A40028002880A430280F5
:102970007047018841F480510180704721B102887D
:1029800042F40052028004E002884DF6FF731A40C0
:102990000280704702460020012901D0108B00E020
:1029A000908A70470146088A7047B1F5804F04D17C
:1029B000028842F48042028004E002884BF6FF73F2
:1029C0001A40028070470246002013890B4201D052
:1029D000012000E000207047CA4302817047F0B533
:1029E0000246002000240023002501F00F070126E5
:1029F000BE40B4B20B1101269E40B3B2968806EADF
:102A000003051689264202D00DB1012000E0002006
:102A1000F0BD10B5002201F00F040123A3409AB2CB
:102A2000D343038110BD0000003001400038004056
:102A3000003C00402DE9F04704460D461646012DA6
:102A400004DA002060602046BDE8F08725600C2095
:102A500004F0D0FE074600231A46314604F0BDFEBE
:102A60000746606060684060606880604FF0000802
:102A700016E00C2004F0BEFE814660680246314636
:102A80004368484604F0A9FE81466068C0F8049097
:102A900060684068616849684968886008F10108B1
:102AA000681E4045E5DC2046CEE72DE9F0410546AD
:102AB0006868446807E0666824B100BF2746384666
:102AC00004F08FFE34466868A042F4D1686820B1F3
:102AD000686800BF074604F084FE2846BDE8F08120
:102AE000014648680078704741684968416070470E
:102AF00041688968416070470146086870474268CC
:102B00001170704710B50446A18888B2482202218E
:102B10002368FDF74DFC10BD70B505460C46164602
:102B20002C606E602548844204D101210420FEF708
:102B300089F92EE02248844204D101210820FEF7C1
:102B400081F926E01F48844204D101211020FEF7BC
:102B500079F91EE01C48844204D101212020FEF7AF
:102B600071F916E01948844204D101214020FEF792
:102B700069F90EE01648844204D101218020FEF755
:102B800061F906E01348844203D101218015FEF764
:102B900059F92846FFF7B6FF284670BD00210160AD
:102BA000704710B50446A28891B22068FFF7B1F9CA
:102BB00008B9012010BD0020FCE70000000801401A
:102BC000000C0140001001400014014000180140B9
:102BD000001C01400020014010B50446A18888B2C5
:102BE000102202212368FDF7E3FB10BD70B50546F6
:102BF0000C4616462C606E602E48844204D101219A
:102C00000420FEF71FF92EE02B48844204D1012155
:102C10000820FEF717F926E02848844204D1012154
:102C20001020FEF70FF91EE02548844204D101214F
:102C30002020FEF707F916E02248844204D1012142
:102C40004020FEF7FFF80EE01F48844204D1012126
:102C50008020FEF7F7F806E01C48844203D10121EA
:102C60008015FEF7EFF82846FFF7B6FF284670BD3F
:102C7000704770B50446A28891B22068FFF756F9F4
:102C8000C0F10100C5B2A28891B22A462068FFF7C0
:102C90005EF970BD70B504460D462DB1A28891B2A3
:102CA0002068FFF752F904E0A28891B22068FFF78C
:102CB0004AF970BD00080140000C014000100140BD
:102CC0000014014000180140001C01400020014098
:102CD00010B5044600216068FEF74CFD10BD2DE9DB
:102CE000F04104460D4616462F46B046207842462F
:102CF0003946FDF773FBBDE8F0812DE9FE4305463B
:102D00000C464FF0000800260027012C01DABDE830
:102D1000FE83002C03DD052C01DAE02733E0042CD0
:102D200004DD0A2C02DA40F2C1172CE0092C04DD84
:102D3000322C02DA40F2833725E0312C04DD642C9A
:102D400002DA40F207771EE0632C05DDB4F5FA7F66
:102D500002DA40F60F6716E0B4F5FA7F06DB40F6BC
:102D6000B830844202DA41F61F470CE040F6B73033
:102D7000844206DD41F28830844202DA43F63F079E
:102D800001E048F69F4755486043791C90FBF1F0FD
:102D9000461EB0B2ADF80400ADF800700020ADF8EA
:102DA0000600ADF802008DF8088069466868FEF7F5
:102DB00085F901216868FEF7A3FF012211466868C2
:102DC000FEF7F3FC00BFA2E770B504460D46656050
:102DD0006068B0F1804F06D11C20206001210846B8
:102DE000FEF73DF83BE03E496068884206D11D2071
:102DF000206001210220FEF732F830E03949606896
:102E0000884206D11E20206001210420FEF727F809
:102E100025E035496068884201D1204670BD3349BC
:102E20006068884201D12046F8E7314960688842ED
:102E300001D12046F2E72F496068884201D120463F
:102E4000ECE72D496068884201D12046E6E72B492E
:102E50006068884201D12046E0E72046DEE7642131
:102E60002046FFF74AFF002211462046FFF737FFB2
:102E70002046FFF72DFF2046D0E710B50446204638
:102E8000FFF726FF606804F0ACFC204610BD10B5CB
:102E9000044601216068FEF76DFC10BD70B5044664
:102EA000254601212846FEF765FC70BD70B5044635
:102EB000254600212846FEF75DFC70BD70B504462E
:102EC000254601212846FEF71EFF70BD70B5044659
:102ED000254601212846FEF727FF70BD4019010055
:102EE0000004004000080040000C004000100040BA
:102EF0000014004000180040001C0040002000406A
:102F000010B5044694F8480000B910BDB4F850104C
:102F1000E06CFFF71AF800BFF7E710B5044694F825
:102F2000480000B910BDB4F85010E06CFFF70BF882
:102F300000BFF7E72DE9F0410446251D94F84780CE
:102F400095F84200404506D12068868926F0800623
:102F50002068868110E02046FFF7DFFF94F84710D5
:102F600005F12000475C2068878095F84300401CED
:102F700000F01F0085F84300BDE8F081F0B5014680
:102F80000B1D93F84000401C00F01F0493F84150C3
:102F900008688088C6B2AC4201D1002206E0012256
:102FA00091F84470081DC65581F844400AB10120CB
:102FB000F0BD0020FCE710B540F22551F948FDF7BF
:102FC00093FD38B140F22551F648FDF7B7FDF648BC
:102FD000FFF7D4FF40F22771F248FDF785FD10B1ED
:102FE000F148FFF7A7FF40F22661EE48FDF77CFDB0
:102FF00038B140F22661EB48FDF7A0FDEA48FFF743
:103000007FFF10BD10B540F22551E848FDF76CFD7B
:1030100038B140F22551E548FDF790FDE448FFF74F
:10302000ADFF40F22771E148FDF75EFD10B1E048C9
:10303000FFF780FF40F22661DC48FDF755FD38B10F
:1030400040F22661D948FDF779FDD948FFF758FFCE
:1030500010BD10B540F22551D648FDF745FD38B1F9
:1030600040F22551D348FDF769FDD348FFF786FFAD
:1030700040F22771CF48FDF737FD38B140F2277194
:10308000CC48FDF75BFDCC48FFF754FF40F22661CA
:10309000C848FDF729FD38B140F22661C548FDF763
:1030A0004DFDC548FFF72CFF10BD002180F84810EA
:1030B000C164A0F850100160002280F8452080F81B
:1030C000442080F8472080F846207047014691F858
:1030D0004600401C00F01F0291F847309A4201D090
:1030E000012070470020FCE7014691F8462091F846
:1030F00047309A4201D0012070470020FCE72DE9BB
:10310000F04104460F46261D2046FFF7DFFF8046AC
:10311000B8F1000F0FD096F8425006F12000475545
:10312000681C00F01F0086F84200012240F227715F
:103130002068FDF7F4FB4046BDE8F081014691F8B8
:10314000442091F845309A4201D001207047002078
:10315000FCE70246111D91F84130C85C91F84130FE
:103160005B1C03F01F0381F8413070472DE9FF41DC
:1031700007460C4615461E466846FDF7A1FB00951E
:103180000020ADF80400ADF80600ADF80800ADF879
:103190000C00ADF80A6069462046FDF728FBBDE843
:1031A000FF8110B504466068006800B910BD616811
:1031B00008680021FDF7A7FB00BFF7E770B50446DC
:1031C000A5682046FFF7EDFF012D04D0022D1BD08E
:1031D000032D50D131E001218803FDF733FE012199
:1031E0000420FDF72FFE00210420FEF7D0FE734BD4
:1031F000042203211002FDF7DBF8704B1822032193
:103200005815FDF7D5F836E001214804FDF727FEF3
:1032100001210420FDF716FE00210820FEF7B7FE6D
:10322000664B042203210820FDF7C2F8634B1822E5
:1032300003210420FDF7BCF81DE001218804FDF7FF
:103240000EFE01210820FDF7FDFD00215C48FEF780
:103250009EFE00215A482030FEF799FE594B042269
:1032600003215002FDF7A4F8564B1822032118152C
:10327000FDF79EF800BF00BF70BD10B50446A06802
:10328000012804D002280AD0032818D10FE04648AC
:1032900060604448616808602520206010E0444870
:1032A00060604248616808602620206008E042486B
:1032B00060604048616808602720206000E000BF2F
:1032C00000BF2046FFF77AFF207800221146FDF765
:1032D00085F8E26860680C2301682046FFF746FF26
:1032E00061680122086840F22551FDF718FB61680A
:1032F0000122086840F22661FDF711FB10BD70B590
:1033000004460E461546A660E5602046FFF7B5FF69
:10331000204670BD10B504462046FFF742FF00204E
:103320006060204610BD01468868704710B50446AD
:103330006068FFF703FF10BD10B504466068FFF733
:1033400008FF10BD70B504460D4629466068FFF7BA
:10335000D6FE08B1012070BD0020FCE72DE9F04148
:1033600007460D461646002407E000BF295D384693
:10337000FFF7E8FF0028F9D0641CB442F5DBBDE894
:10338000F08170B505460C4607E000BF217828465D
:10339000FFF7D8FF0028F9D0641C20780028F4D16A
:1033A00070BD000000380140B4000020004400401F
:1033B00008010020004800405C0100200008014096
:1033C00010001400000C014010B50446606800684D
:1033D00000B910BD616808680121FDF794FA00BFCB
:1033E000F7E770B504460D4616460120616881F87E
:1033F00048006068C5646068A0F850606068C06C90
:103400003849884204D101210420FDF71BFD3AE030
:103410006068C06C3449884204D101210820FDF75E
:1034200011FD30E06068C06C3049884204D1012150
:103430001020FDF707FD26E06068C06C2C4988422B
:1034400004D101212020FDF7FDFC1CE06068C06C68
:103450002849884204D101214020FDF7F3FC12E005
:103460006068C06C2449884204D101218020FDF7A6
:10347000E9FC08E06068C06C2049884203D1012162
:103480008015FDF7DFFC6168B1F850001022CB6CAD
:103490000321FCF78DFF6068FFF73FFD70BD2DE94C
:1034A000F04104460D4616462F46B0462078424667
:1034B0003946FCF793FFBDE8F08100B51048FFF7EF
:1034C000F4FD1048FFF7F1FD0F48FFF7EEFD0F4840
:1034D000FFF7EBFD0E48FFF7E8FD0E48FFF7E5FDAF
:1034E00000BD000000080140000C01400010014038
:1034F0000014014000180140001C01400020014060
:10350000B4000020080100205C010020B001002070
:10351000040200205802002010B50446206801284B
:1035200002D0022847D124E001210803FDF78AFCDC
:1035300001210420FDF786FC01211020FDF782FC0B
:103540005D4B102203211046FCF732FF5A4B182224
:1035500003212020FCF72CFF574B0422032140209D
:10356000FCF726FF544B182203218020FCF720FF94
:1035700021E001218803FDF772FC01210820FDF7FD
:1035800061FC4E4B102203211002FCF711FF4B4B44
:10359000182203215814FCF70BFF484B0422032187
:1035A0001003FCF705FF454B182203214FF40040A0
:1035B000FCF7FEFE00BF00BF10BD10B586B004468C
:1035C0002046FFF7A9FF0021A068FFF778F9002047
:1035D000ADF804004FF48270ADF806000020ADF89D
:1035E0000800ADF80A00ADF80C004FF40070ADF81B
:1035F0000E000820ADF810000020ADF812000720E2
:10360000ADF8140001A9A068FFF7B4F80121A06883
:10361000FFF79AF906B010BD70B504460D46256057
:103620002068012804D12648A0602320606006E0BD
:103630002068022803D12348A0602420606020462F
:10364000FFF7BBFF204670BD704770B504460D46BE
:103650002E4600BF0221A068FFF7B5F90028F9D077
:103660003146A068FFF75CF900BF0121A068FFF7B1
:10367000AAF90028F9D0A068FFF754F9064670BDF2
:1036800010B504460121A068FFF719F910BD10B567
:1036900004460021A068FFF712F910BD2DE9F041A2
:1036A00004460D4616462F46B04620794246394616
:1036B000FCF794FEBDE8F08100080140000C0140D9
:1036C000003001400038004070B504460D464FF40C
:1036D0000061F848FEF739FC29462068FFF7B5FF7E
:1036E00070BD70B505460E46002481212846FFF7BF
:1036F000EBFF21462846FFF7E7FF70BD10B50446F3
:10370000AF212046FFF7E0FF10BD70B504460D461F
:103710004FF40061E748FEF716FC29462068FFF7E2
:1037200094FF70BD70B505460C46802C01DD00206D
:1037300070BD102040EA14112846FFF7C5FF04F0C1
:103740000F012846FFF7C0FF0120F1E770B50546DD
:103750000C46082C01DD002070BD04F0070040F08D
:10376000B0012846FFF7B0FF0120F5E72DE9F04151
:1037700006460F46002411E0E1B23046FFF7E6FFAF
:1037800000213046FFF7CEFF002504E039463046E1
:10379000FFF7BBFF6D1C842DF8DB641C082CEBDBF2
:1037A000BDE8F08170B505460C46002C01DB402CCD
:1037B00001DD002070BD04F03F0040F040012846CC
:1037C000FFF782FF0120F5E710B504460121042030
:1037D000FDF738FBB74B102203215001FCF7E8FD41
:1037E000B44B102203211001FCF7E2FDB14B102273
:1037F0000321D001FCF7DCFD4FF48071AD48FEF7EA
:10380000A4FB6420FCF747FE4FF48071A948FEF743
:103810009AFBAE212046FFF757FF00212046FFF715
:1038200053FF10212046FFF74FFF40212046FFF7AE
:103830004BFFA1212046FFF747FFC8212046FFF795
:1038400043FFA6212046FFF73FFFA8212046FFF7B0
:103850003BFF3F212046FFF737FFD3212046FFF7EC
:1038600033FF00212046FFF72FFFD5212046FFF729
:103870002BFF80212046FFF727FFD9212046FFF7A5
:1038800023FFF1212046FFF71FFFDA212046FFF733
:103890001BFF12212046FFF717FFDB212046FFF711
:1038A00013FF40212046FFF70FFF20212046FFF79E
:1038B0000BFF02212046FFF707FF8D212046FFF76F
:1038C00003FF14212046FFF7FFFEA4212046FFF747
:1038D000FBFEA6212046FFF7F7FEAF212046FFF7AB
:1038E000F3FE00212046FFF75DFF00212046FFF791
:1038F0003DFF2046FFF702FFCF212046FFF7F1FEF4
:1039000010BD70B504460D4625602046FFF75CFFEC
:10391000204670BD00210160704710B50446AE21FD
:103920002046FFF7D1FE10BD70B506460D46144681
:10393000082D01DC802C01DD002070BD29463046B9
:10394000FFF704FF21463046FFF7ECFE0120F4E7C5
:103950002DE9F05F82460E4615461F4606EB4600EF
:10396000554901EB400B4FF000081DB96FEA080004
:1039700000F0FF0800240CE01BF804901DB96FEA6A
:10398000090000F0FF0949465046FFF7BEFE601CE3
:10399000C4B2062CF0DB1FB141465046FFF7B5FE1E
:1039A000BDE8F09F2DE9F05F06460F4690461D46A4
:1039B000DDF834A0DDF82890424639463046FFF75E
:1039C000B3FF05EB0A0B002407E01BF80410304698
:1039D000DDE90B23FFF7BCFF641C4C45F5DBBDE8BC
:1039E000F09F2DE9FF4F83B00F469846DDE9119A0D
:1039F000109E08EB4800304901EB400B002002907C
:103A00000190BAF1000F03D0019840F0100001902E
:103A10001EB9F82002901F2001903946059A03989C
:103A2000FFF782FF10B907B0BDE8F08F00240FE068
:103A30001BF80400F02101EA00151EB9E843C5B2E5
:103A400005F0F80529460398FFF75FFE601CC4B235
:103A5000062CEDDBB9F1000F03D0DDE90210FFF712
:103A600054FE781CC1B2059A0398FFF75DFF00B9B8
:103A7000D9E7002412E01BF804000509BAF1000F91
:103A800001D045F010051EB9E843C5B205F01F0589
:103A900029460398FFF739FE601CC4B2062CEADB06
:103AA000B9F1000F03D001990398FFF72EFE00BF74
:103AB000B9E70000000801401C7E00082DE9FF4F17
:103AC00085B00D4616461F46DDE9148BDDF848A08B
:103AD00004970395B14600240FE013988DE801097F
:103AE0000498035D4A4603990598FFF77AFF08F1A9
:103AF0000600484400F0FF09641C5445EDDB09B0A2
:103B0000BDE8F08F2DE9FF4F81B08A469B46DDE985
:103B10000E65002000908046109808B148F04008DB
:103B20003EB90098C043C0B200906FEA080000F0B0
:103B3000FF08ABF12000F84901EB00175146039A4A
:103B40000198FFF7F1FE10B905B0BDE8F08F1DB187
:103B5000DDE90010FFF7D9FD00240CE017F8049010
:103B60001EB96FEA090000F0FF0949460198FFF706
:103B7000CCFD601CC4B2082CF0DB1DB1DDE90010E7
:103B8000FFF7C3FD0AF10100C1B2039A0198FFF7E4
:103B9000CBFE00B9D8E71DB141460198FFF7B5FD4E
:103BA000082410E017F80490109808B149F0400973
:103BB0001EB96FEA090000F0FF0949460198FFF7B6
:103BC000A4FD601CC4B2102CECDB1DB14146019871
:103BD000FFF79BFD00BFB7E72DE9FF5F0F46984653
:103BE0000E9D4FF000094FF0200A3DB96FEA090021
:103BF00000F0FF096FEA0A0000F0FF0AA8F12000B8
:103C0000C54901EB00163946029A0098FFF78CFE71
:103C100008B9BDE8FF9F00240CE016F804B01DB9F8
:103C20006FEA0B0000F0FF0B59460098FFF76DFD9F
:103C3000601CC4B2082CF0DB49460098FFF765FD14
:103C400049460098FFF761FD781CC1B2029A0098BE
:103C5000FFF76AFE00B9DCE708240CE016F804B0B0
:103C60001DB96FEA0B0000F0FF0B59460098FFF7F3
:103C70004CFD601CC4B2102CF0DB51460098FFF7DD
:103C800044FD49460098FFF740FD00BFC1E72DE91C
:103C9000FF4F85B00E4617469846DDE9144BDDF818
:103CA00048A0CDF810800396B946002510E013987F
:103CB0008DE811080498435D4A4603990598FFF77B
:103CC00021FF082000EB4400484400F0FF096D1C70
:103CD0005545ECDB09B0BDE8F08F2DE9FF4F83B00F
:103CE0009946DDE910A6129F002500200290019060
:103CF00000BF17E099F8000005EB850101EBC50155
:103D0000864A12F8111088420BD199F8010005EB90
:103D1000850101EBC50102EB41014978884200D1E0
:103D200002E06D1C502DE5DB00BFBE2D02D107B0B7
:103D3000BDE8F08F05EB850000EBC500774901EB8E
:103D4000400817B1019838430190BAF1000F07D12C
:103D50000298C043C0B202900198C043C0B2019023
:103D600003A807C8FFF7E0FD00B9E0E74FF0000B3C
:103D700005E0DDE90210FFF7C8FC0BF1010BB345CC
:103D8000F7DB022411E018F8040080064FEA106BFC
:103D9000BAF1000F03D16FEA0B0000F0FF0B594698
:103DA0000398FFF7B2FC601CC4B20E2CEBDB4FF0A3
:103DB000000B05E0DDE90210FFF7A7FC0BF1010B9A
:103DC000B345F7DB0498401CC1B2059A0398FFF78E
:103DD000ABFD00B9ABE74FF0000B05E0019903988C
:103DE000FFF793FC0BF1010BB345F7DB0E241AE050
:103DF00018F804008100A4F10C0018F8000041EA52
:103E0000A01000F0FF0B0FB14BEA070BBAF1000F47
:103E100003D16FEA0B0000F0FF0B59460398FFF740
:103E200074FC601CC4B21A2CE2DB4FF0000B05E0FE
:103E300001990398FFF769FC0BF1010BB345F7DB20
:103E400000BF74E72DE9FF4F85B00D4616461F46AB
:103E5000DDF85880149C07EB48090495B2464FF0F2
:103E6000000B14E0139915984B465246CDE9001407
:103E70000290DDE90410FFF730FF09F102090C2080
:103E800000EB4400504400F0FF0A0BF1010B1298C4
:103E90008345E7DB09B0BDE8F08F2DE9F047064622
:103EA0000F4690461D46DDF8209042463946304682
:103EB000FFF73AFD08B9BDE8F087002417E035B1F7
:103EC000B9F1000F03D0164810F804A003E014481D
:103ED0000E3010F804A02DB911480E30005DC0431B
:103EE00000F0FF0A51463046FFF70FFC641C072C18
:103EF000E5DB00BFDFE72DE9F04706460F469046B9
:103F00001D46DDF82090424639463046FFF70CFD4D
:103F100040B9BDE8F08700001C780008B8820008AE
:103F20001C820008002417E035B1B9F1000F03D05E
:103F3000F74810F804A003E0F5480E3010F804A08C
:103F40002DB9F3480E30005DC04300F0FF0A514622
:103F50003046FFF7DAFB641C072CE5DB00BFD8E72F
:103F60002DE9F04106460D4617463A4629463046A9
:103F7000FFF7DAFC08B9BDE8F081002405E0E54868
:103F8000015D3046FFF7C1FB641C102CF7DB681C99
:103F9000C1B23A463046FFF7C7FC00B9EBE7102440
:103FA00005E0DC48015D3046FFF7AFFB641C202CC8
:103FB000F7DB00BFDFE72DE9F04106460D46174667
:103FC0003A4629463046FFF7AFFC08B9BDE8F08114
:103FD000002406E0CF484030015D3046FFF795FBF6
:103FE000641C102CF6DB681CC1B23A463046FFF761
:103FF0009BFC00B9EAE7102406E0C6484030015DAA
:104000003046FFF782FB641C202CF6DB00BFDDE7A7
:104010002DE9F04106460D4617463A4629463046F8
:10402000FFF782FC08B9BDE8F081002406E0B9483A
:104030006030015D3046FFF768FB641C102CF6DB36
:10404000681CC1B23A463046FFF76EFC00B9EAE799
:10405000102406E0AF486030015D3046FFF755FBA5
:10406000641C202CF6DB00BFDDE72DE9F04106469D
:104070000D4617463A4629463046FFF755FC08B923
:10408000BDE8F081002406E0A2482030015D304602
:10409000FFF73BFB641C102CF6DB681CC1B23A46F0
:1040A0003046FFF741FC00B9EAE7102406E09948E2
:1040B0002030015D3046FFF728FB641C202CF6DB26
:1040C00000BFDDE72DE9F04106460F4690461C464D
:1040D000424639463046FFF727FC08B9BDE8F08173
:1040E000FF213046FFF711FBB4B9002504E0812120
:1040F0003046FFF70AFB6D1C2D2DF8DBFF21304603
:10410000FFF703FB002504E081213046FFF7FDFAAD
:104110006D1C2D2DF8DB4CE0002C26DA14F12D0F50
:1041200001DA6FF02C04002504E081213046FFF70E
:10413000ECFA6D1C04F12D00A842F6DC054604E003
:10414000BD213046FFF7E1FA6D1C2D2DF8DBFF2174
:104150003046FFF7DAFA002504E081213046FFF708
:10416000D4FA6D1C2D2DF8DB23E0002C21DD2D2C45
:1041700000DD2D24002504E081213046FFF7C5FA3B
:104180006D1C2D2DF8DBFF213046FFF7BEFA002510
:1041900004E0BD213046FFF7B8FA6D1CA542F8DBFC
:1041A000254604E081213046FFF7AFFA6D1C2D2D26
:1041B000F8DBFF213046FFF7A8FA00BF8EE72DE9B4
:1041C000FF4F83B0824690461F46DDE91146109DA1
:1041D000B946632F02DC17F1630F02DA07B0BDE8BE
:1041E000F08FB9F1000F25D120234246CDE90146D9
:1041F000009550460499FFF785FC08F1080002215C
:1042000001FB0400C2B23023CDE9014600955046BF
:104210000499FFF777FC08F11000042101FB04006A
:10422000C2B23023CDE90146009550460499FFF70C
:1042300069FC6BE0B9F1000F35DA2D234246CDE978
:104240000146009550460499FFF75CFC78420A212C
:1042500090FBF1F0303000F0FF0B08F10800022174
:1042600001FB0400C2B25B46CDE901460095504611
:104270000499FFF747FC78420A2190FBF1F201FB19
:104280001200303000F0FF0B08F11000042101FB98
:104290000400C2B25B46CDE9014600955046049940
:1042A000FFF730FC32E020234246CDE9014600957D
:1042B00050460499FFF726FC0A2097FBF0F03030B7
:1042C00000F0FF0B08F10800022101FB0400C2B25C
:1042D0005B46CDE90146009550460499FFF712FC74
:1042E0000A2097FBF0F100FB1170303000F0FF0B5B
:1042F00008F11000042101FB0400C2B25B46CDE9C5
:104300000146009550460499FFF7FCFB00BF65E7A6
:1043100023820008388200082DE9FF4F81B08346D0
:104320001E4635462027B846B946BA46202000909A
:1043300000245846DDE90212FFF7F6FA3DB93021B4
:104340005846DDE90E23FFF703FB0124D3E0002DDF
:104350006CDA684242F2107190FBF1F03030C7B273
:10436000684290FBF1F201FB12004FF47A7190FB6E
:10437000F1F0303000F0FF08684290FBF1F201FBF1
:104380001200642190FBF1F0303000F0FF09684228
:1043900090FBF1F201FB12000A2190FBF1F03030AA
:1043A00000F0FF0A684290FBF1F201FB120030308E
:1043B000C0B200902D215846DDE90E23FFF7C8FA60
:1043C000641C302F06D039465846DDE90E23FFF72E
:1043D000BFFA641CB8F1300F01D1012C06DD414653
:1043E0005846DDE90E23FFF7B3FA641CB9F1300F2C
:1043F00001D1012C06DD49465846DDE90E23FFF7C1
:10440000A7FA641CBAF1300F01D1012C06DD514628
:104410005846DDE90E23FFF79BFA641C5846DDE998
:104420000E230099FFF794FA641C64E042F21070C6
:1044300095FBF0F03030C7B242F2107095FBF0F10E
:1044400000FB11504FF47A7190FBF1F0303000F026
:10445000FF08084695FBF0F100FB1150642190FB2A
:10446000F1F0303000F0FF09642095FBF0F100FB23
:1044700011500A2190FBF1F0303000F0FF0A0A20C1
:1044800095FBF0F100FB11503030C0B20090302F9E
:1044900006D039465846DDE90E23FFF759FA641C69
:1044A000B8F1300F01D1002C06DD41465846DDE958
:1044B0000E23FFF74DFA641CB9F1300F01D1002C27
:1044C00006DD49465846DDE90E23FFF741FA641C34
:1044D000BAF1300F01D1002C06DD51465846DDE916
:1044E0000E23FFF735FA641C5846DDE90E230099C8
:1044F000FFF72EFA641C204605B0BDE8F08F0000DF
:1045000070B504460D46A34820606560022003F0A4
:1045100071F9064600203080E660A4202072002059
:104520006072A072E1680870E1684870204670BD52
:1045300070B505469748286000240CE0964850F86E
:10454000240038B1944951F82400FEF7AEFA06462B
:1045500003F047F9641C062CF0DBE86803F041F92E
:10456000284670BD70B504462046FFF7E1FF0546BA
:1045700003F037F970BD70B5044600BF217A60685A
:10458000FEF7E0FE0028F9D000BF617A6068FEF710
:10459000D9FE0028F9D000BFA17A6068FEF7D2FEEC
:1045A0000028F9D000BFE26851786068FEF7CAFEC3
:1045B0000028F8D000BFE26811786068FEF7C2FEFC
:1045C0000028F8D000BF00BF0020217A0144C8B203
:1045D000617A0144C8B2A17A0144C8B2E16849785D
:1045E0000144C8B2E16809780144C8B200BF054679
:1045F00029466068FEF7A6FE0028E4D070BD2DE9CC
:10460000F0418046002500274046FEF78CFE401E04
:10461000C4B271E04046FEF78FFE06465E4951F88F
:1046200024003146FEF76BFA5B4951F82400FEF78F
:104630005BFA594951F82400FEF752FAA4285BD1DD
:1046400005F1A400C5B2544951F82400FEF74CFA14
:10465000514951F82400FEF743FA2844C5B24E49A7
:1046600051F82400FEF740FA4B4951F82400FEF7B8
:1046700037FA00F04000402833D100260CE04649CC
:1046800051F82400FEF72CFA2844C5B2424951F8EB
:104690002400FEF729FA761C032EF0DB3E4951F880
:1046A0002400FEF71DFAA84215D1002610E03A4971
:1046B00051F82400FEF718FA374951F82400FEF7A4
:1046C0000FFA04EB4401354A02EB41018855761C90
:1046D000062EECDB0127304951F82400FEF704FADE
:1046E00009E02D4951F82400FEF702FA2A4951F851
:1046F0002400FEF7FDF900254046FEF717FE08B13D
:10470000002F87D03846BDE8F08110B5082003F0AF
:1047100071F8044600220621FEF78CF904461E4873
:104720000460082003F066F8044600220621FEF724
:1047300081F9044618484460082003F05BF80446F9
:1047400000220621FEF776F904461348846008200B
:1047500003F050F8044600220621FEF76BF90446E8
:104760000D48C460082003F045F8044600220621E5
:10477000FEF760F9044608480461082003F03AF89F
:10478000044600220621FEF755F90446024844611A
:1047900010BD0000008B0008D0020020AC020020F9
:1047A00070B504460D4629462046FFF7A9FE04468B
:1047B000ED48206000202083A085E0856083608232
:1047C000A082E082A083E08320846084A084E084CF
:1047D000208560852083A085E0852082204670BDED
:1047E00010B504462046FFF7A3FE0446204610BD40
:1047F00070B504462046FFF7F3FF054602F0F1FFCF
:1048000070BD018B21B9018A491C09B2018202E005
:10481000002141830182B0F9101040F6AC52914260
:1048200004DD4FF4FA71018200214183704770B5B5
:1048300004460D46012D01DB0B2D00DD70BDEEB2EF
:104840000020A072A07A3043A0720C2E2AD2DFE89A
:1048500006F02906070B0F13171B1F23242500BF83
:10486000208BE16808801EE0608BE16808801AE018
:10487000A08BE168088016E0E08BE168088012E018
:10488000208CE16808800EE0608CE16808800AE016
:10489000A08CE168088006E000BF00BF0020E1684E
:1048A000088000E000BF00BF2046FFF764FE00BFA5
:1048B000C4E710B50446B4F91000B0F5FA7F04DA85
:1048C00001212046FFF7B3FF03E003212046FFF755
:1048D000AEFF10BD70B504460D46012D01DB0B2D5A
:1048E00000DD70BDEEB20020A072A07A40F0100092
:1048F000A072A07A3043A0720C2E21D2DFE806F01D
:1049000020060A0B0C0D0E0F1014181CE08CE16829
:10491000088016E000BF00BF00BF00BF00BF00BF9F
:104920000020E16808800CE0208DE168088008E044
:10493000608DE168088004E00020E168088000E004
:1049400000BF00BF2046FFF716FE00BFC9E770B5E5
:1049500004460E46012E01DB092E00DD70BDF5B2C6
:104960000020A072A07A40F02000A072A07A284314
:10497000A072012D03D1608AE16808800EE0062D47
:1049800003D1A08AE168088008E0092D03D1E08AFC
:10499000E168088002E00020E16808802046FFF717
:1049A000EAFD00BFDAE702460846002803DD642876
:1049B00001DA642006E0002804DA10F1640F01DD5A
:1049C0006FF06300108370472DE9F04105460C46F7
:1049D00016461F46002C01DD204600E060420A28F2
:1049E0004CDD002C01DD204600E06042B0F57A7F0E
:1049F0000BDDB5F92C00704390FBF7F00FFA80F84F
:104A000041462846FFF7CFFF3DE0002C01DD204660
:104A100000E06042B0F5C87F0EDDB5F92E0000EB76
:104A200080004000704390FBF7F00FFA80F8414699
:104A30002846FFF7B8FF26E0002C01DD204600E005
:104A4000604296280EDDB5F92E0000EB40004000D4
:104A5000704390FBF7F00FFA80F841462846FFF7C5
:104A6000A2FF10E0B5F92E00704390FBF7F00FFAAB
:104A700080F841462846FFF796FF04E000BF00207B
:104A8000288300BF00BFBDE8F08102460846002829
:104A900003DD642801DA642006E0002804DA10F15E
:104AA000640F01DD6FF0630050834FF4FA731382DB
:104AB00070472DE9F04705460E4614461F46DDF8BF
:104AC0002080002C01DD204600E060420A2844DD01
:104AD000002C01DD204600E06042B0F57A7F09DD60
:104AE000B5F92C00784390FBF8F00FFA80F94846AE
:104AF000B04737E0002C01DD204600E06042B0F511
:104B0000C87F0CDDB5F92E0000EB80004000784333
:104B100090FBF8F00FFA80F94846B04722E0002CED
:104B200001DD204600E0604296280CDDB5F92E003C
:104B300000EB40004000784390FBF8F00FFA80F95A
:104B40004846B0470EE0B5F92E00784390FBF8F0E8
:104B50000FFA80F94846B04704E000BF00202883E0
:104B600000BF00BFBDE8F087108B000807B586B016
:104B7000069890F84C0008B109B000BDF7480078DD
:104B800000287DD10120F5490870069800680021B1
:104B90000590FEF7EBFD0021069880F85D100020DF
:104BA00000900190029006980068EDA312220590F3
:104BB000FFF793F8069890F84D0000EB4000400690
:104BC000000E00210123CDE90131CDE903100620BB
:104BD0000090069800680590E24820220368059836
:104BE000FFF730F9002000900190029006980068CD
:104BF000DDA36A2200210590FFF76FF801200090E5
:104C0000069800684123142202210590FEF7E4FF74
:104C10000020802101220192CDE90221049006208A
:104C2000009006980068D1A31F2202210590FFF78B
:104C300009F90120009006980068422314220421FB
:104C40000590FEF7C9FF0020802101220192CDE9E5
:104C5000022104900620009006980068C7A31F2236
:104C600004210590FFF7EEF80120009006980068F7
:104C70004323142206210590FEF7AEFF002000E03A
:104C80001FE0802101220192CDE90221049006203B
:104C9000009006980068BDA31F2206210590FFF72B
:104CA000D1F80021069880F85110069840680590C8
:104CB00002F090FD0698406800210590FFF7E5FEA0
:104CC0005AE7069890F93400401C07287DD2DFE8A7
:104CD00000F004DFF4F2F1F0EF00089800283ED174
:104CE000009001900290069800689DA31222002176
:104CF0000590FEF7F2FF069890F84D00401C41B277
:104D0000069880F84D10069890F94D00072803DDAD
:104D10000021069880F84D10069890F84D000590F7
:104D2000069840680490059902F052FD069890F8A4
:104D30004D0000EB40004006000E00210123CDE9AC
:104D40000131CDE903100620009006980068059017
:104D50008448202203680598FFF774F897E00898C4
:104D6000012841D10020009001900290069800682F
:104D70007DA36A2200210590FEF7AFFF069890F808
:104D80004D00401E41B2069880F84D10069890F9EB
:104D90004D00002803DA0721069880F84D10069888
:104DA00090F84D000590069840680490059902F02F
:104DB0000FFD069890F84D0000EB40004006000EF5
:104DC00000210123CDE9013100E0C4E0CDE9031069
:104DD000062000900698006805906248202203682B
:104DE0000598FFF72FF852E00898022818D1002004
:104DF000802101220192CDE9022104900620009039
:104E00000698006859A31F2202210590FFF71AF89F
:104E10000121069880F84C1000205049087036E0B7
:104E20000898032818D10020802101220192CDE9A1
:104E30000221049006200090069800684FA31F22CC
:104E400004210590FEF7FEFF0221069880F84C1021
:104E50000020424908701AE00898042817D1002061
:104E6000802101220192CDE90221049006200090C8
:104E70000698006845A31F2206210590FEF7E2FF71
:104E80000321069880F84C1000203449087062E035
:104E9000089860B100200122CDE900200290069818
:104EA00000682FA3122200210590FEF716FF52E0A2
:104EB00050E03DE027E011E0FFE7089801280CD022
:104EC00000200122CDE9002002900698006826A368
:104ED0006A2200210590FEF700FF3CE008980228B6
:104EE00010D0002080210122CDE90102CDE903107C
:104EF00006200090069800681CA31F22022105903E
:104F0000FEF7A0FF27E00898032810D0002080219A
:104F10000122CDE90102CDE9031006200090069898
:104F2000006816A31F2204210590FEF78BFF12E0F4
:104F3000002080210122CDE90102CDE903100620E5
:104F400000900698006811A31F2206210590FEF725
:104F500079FF00E000BF00BF00BF0DE64200002067
:104F6000A1B6000030000020A1B70000BDF8C8EBDA
:104F7000C4A5BBFAC4A3CABD00000000BDF8C8EBBD
:104F8000D0A3C1E3C4A3CABD00000000BDC7B6C81A
:104F9000C7F8BCE4C9E8D6C30000000010B586B06D
:104FA000044600212068FEF7E1FB00200123CDE943
:104FB00001300390049008200090FEA304220021F9
:104FC0002068FEF73FFF00200123CDE90130039068
:104FD00004900B200090FCA3002202212068FEF721
:104FE00031FF002001221123CDE90120009303901D
:104FF000FBA30A2205212068FEF7D4FC06B010BDF1
:105000002DE9FE4F0446082002F0F4FB80464FF4E1
:105010008062F849FDF7EAFD8046E061E0690090B2
:1050200001210098FDF736FE00BF0C2002F0E2FBE4
:1050300081460121FEF7F0FA8146E060E068FEF764
:105040001FFB042002F0D6FB8246E168FEF759FC04
:10505000824620602046FFF7A1FF4FF47A70FBF7ED
:105060001AFAFF2084F834000020E086208741F2FD
:105070008830A4F844000020A4F8460084F84C00CE
:1050800084F84D00A4F84E0084F8500084F85100D4
:1050900084F8520084F85D0084F85C00102002F06F
:1050A000A4FBE063102002F0A0FB206446F6781019
:1050B000E16B088049F28860216C08809620E16BE2
:1050C00048804BF6B010216C488044F25060E16B90
:1050D00088804FF42F70216C888044F25060E16B1F
:1050E000C8804FF49670216CC88046F67810E16B4A
:1050F000088149F28860216C088141F68440E16BA7
:1051000048810020216C48814FF24840E16B888142
:1051100044F25060216C888146F67810E16BC881BA
:1051200049F28860216CC881082002F063FB834645
:1051300028226421FDF77EFC8346A064022002F051
:1051400059FB0646002030806665022002F052FBC3
:10515000064600203080A665FBF746FA082002F0DC
:1051600049FB05468022A449FDF7D6FC054620628E
:10517000082002F03FFB054640229F49FDF7CCFC8A
:1051800005466062082002F035FB054620229A4958
:10519000FDF7C2FC0546A062082002F02BFB054685
:1051A00002229549FDF7B8FC0546E062082002F0AE
:1051B00021FB054601229049FDF7AEFC0546206320
:1051C000102002F017FB4FF4164203210290FEF765
:1051D00096F80290A0604FF400728749A068FEF72D
:1051E00000F9302002F006FB0190A168FFF7D8FA21
:1051F0000190606094F84D10606802F0E9FA0820B0
:1052000002F0F8FA07464FF08041FDF7DDFD074652
:105210002061082002F0EEFA07467849FDF7D4FD38
:1052200007466061082002F0E5FA07467449FDF779
:10523000CBFD0746A06114212069FDF75EFD012228
:1052400011462069FDF74BFD01216069FDF755FD11
:10525000032201216069FDF742FD0A21A069FDF7E3
:105260004CFD02220121A069FDF739FD4FF0FF320C
:1052700051002046FFF77AFC2046BDE8FE8F70B54E
:1052800004462069FDF724FD6069FDF721FDA06952
:10529000FDF71EFDA068FDF784FFE068FEF7F7F953
:1052A000A06828B1A068FEF735F8054602F099FA23
:1052B000E06828B1E068FEF7C7F9054602F091FA08
:1052C000206928B12069FDF7D8FD054602F089FA6A
:1052D000606928B16069FDF7D0FD054602F081FAEA
:1052E000A06928B1A069FDF7C8FD054602F079FA6A
:1052F000E06928B1E069FDF7BBFC054602F071FAF0
:10530000206A28B1206AFDF749FC054602F069FAD7
:10531000606A28B1606AFDF741FC054602F061FA57
:10532000A06A28B1A06AFDF739FC054602F059FAD7
:10533000E06A28B1E06AFDF731FC054602F051FA57
:10534000206B28B1206BFDF729FC054602F049FAD5
:10535000204670BD2DE9F0470446206AFDF721FC88
:105360000546606AFDF71DFC0646A06AFDF719FCBC
:105370000746E06AFDF715FC8046206BFDF711FC3F
:10538000814620480078854204D000201E490880CC
:105390001C4805701D480078864204D000201A4938
:1053A00008801A4806701A480078874235D00020D5
:1053B00015492FE0A1EEA1EEA1EFBBB6D3ADB9E246
:1053C000C1D9A1EF00000000A1EEC5C5B1ACBBFA88
:1053D000C6F7C8CBC4A5BBFACFB5CDB3A1EE0000CC
:1053E000636865636B696E67206D6F746F722E2ED4
:1053F0002E00000000080140000C014000040040A5
:10540000000800403A000020380000203B00002047
:105410003C0000200880FB480770FB48007880456E
:1054200005D00020F9490880F74880F80080F84846
:105430000078814505D00020F4490880F44880F8C0
:105440000090ADB1A6B99FB9B8F1000F10D1B9F174
:10545000000F0DD1ED480088032803DD002084F8FB
:1054600034007EE0E9480088401CE849088078E084
:10547000ADB9A6B19FB9B8F1000F10D1B9F1000FC5
:105480000DD1E2480088032803DD012084F83400B0
:1054900067E0DE480088401CDC49088061E0ADB967
:1054A000A6B99FB1B8F1000F10D1B9F1000F0DD11D
:1054B000D6480088032803DD022084F8340050E039
:1054C000D2480088401CD14908804AE0ADB9A6B94D
:1054D0009FB9B8F1000F10D0B9F1000F0DD1CB4832
:1054E0000088032803DD032084F8340039E0C7482E
:1054F0000088401CC549088033E0ADB9A6B99FB902
:10550000B8F1000F10D1B9F1000F0DD0BF480088DD
:10551000032803DD042084F8340022E0BB4800881F
:10552000401CBA4908801CE0ADB9A6B19FB1B8F1E2
:10553000000F10D1B9F1000F0DD0B44800889628A3
:1055400003DD052084F834000BE0B0480088401CDF
:10555000AE49088005E00020AC490880FF2084F8AF
:105560003400BDE8F08707B588B0002007900898A0
:1055700090F84C00032801D00BB000BDA54800787E
:1055800000287CD10120A3490870089800680021F8
:105590000690FEF7EBF8089890F84D0000EB4000FD
:1055A0004006000E00210123CDE90131CDE90310B1
:1055B000062000900898006806909748102203681B
:1055C0000698FEF73FFC089890F8520068B9002052
:1055D0000122CDE9002002900898006856235E223F
:1055E00000210690FEF78EFA0CE000200122CDE9A2
:1055F000002002900898006855235E220021069042
:10560000FEF780FA002001220623CDE90120009355
:1056100003900898006881A3022203210690FEF7F8
:10562000C1F9089890F8520090B900200121CDE905
:1056300000100898B0F936000690089800680590A8
:1056400026220321069BFEF767FE40B2079011E079
:1056500000200121CDE900100898B0F9380006902B
:1056600008980068059026220321069BFEF754FE49
:1056700040B207900798052824DA079800E0A0E0D8
:1056800000EB4000262101EB4000C0B206900898D4
:10569000006805900321069AFEF746F9002006905F
:1056A0000AE0089800680023012220210590FEF7F7
:1056B0004FF90698401C06900798C0F1050106981E
:1056C0008142EEDC002001220623CDE90120009377
:1056D00003900898006853A3442203210690FEF724
:1056E00061F900200121CDE900100898B0F94E00C1
:1056F000069008980068059068220321069BFEF733
:105700000BFE40B207900798042822DA079800EBB6
:105710004000682101EB4000C0B206900898006884
:1057200005900321069AFEF7FFF8002006900AE094
:10573000089800680023012220210590FEF708F94F
:105740000698401C06900798C0F104010698814213
:10575000EEDC00200123CDE9003002900390089890
:10576000006832A31A2205210690FEF71BF90020DB
:105770000123CDE9003002900390089800682CA323
:105780007D2205210690FEF70DF9089890F950004A
:10579000069008980068059020220521069BFEF7D8
:1057A00091FC002001221223CDE9012000930390F7
:1057B000089800681FA30C2207210690FEF7F2F854
:1057C000DAE6089890F93400401C072864D2DFE834
:1057D00000F0046482A1A2A3A4000A98A0BB002048
:1057E0000123CDE9003002900390089800680FA3D0
:1057F0001A2205210690FEF7D5F80021089880F8B6
:105800005D1049E03C0000203D00002038000020F1
:105810003E000020440000203000002073706565C9
:10582000643A0000616E676C653A00003C0000005D
:105830003E000000412E6D617820422E6D696E2081
:10584000432E6261636B0000FFE70A98012813D1C1
:1058500000200123CDE900300290039008980068F1
:10586000AFF234037D2205210690FEF79BF800215C
:10587000089880F85D100FE00A9802280CD00A986A
:10588000032809D00A98042806D10021089880F836
:105890004C100020F749087040E00A9890B1089831
:1058A00090F8510070B9002001220092CDE901204A
:1058B000039008980068AFF28C031A220521069025
:1058C000FEF770F8089890F8510018B9012108986F
:1058D00080F85D1022E00A98012812D0089890F80C
:1058E000510070B9002001220092CDE901200390FF
:1058F00008980068AFF2C8037D2205210690FEF7E4
:1059000051F8089890F8510018B90221089880F8C9
:105910005D1003E002E001E000E000BF00BF089876
:1059200090F8520090B900200121CDE900100898AC
:10593000B0F93600069008980068059026220321E9
:10594000069BFEF7E9FC40B2079011E00020012120
:10595000CDE900100898B0F9380006900898006862
:10596000059026220321069BFEF7D6FC40B2079045
:105970000798052822DA079800EB4000262101EB62
:105980004000C0B206900898006805900321069A6E
:10599000FDF7CAFF002006900AE00898006800237F
:1059A000012220210590FDF7D3FF0698401C0690A8
:1059B0000798C0F1050106988142EEDC0020012124
:1059C000CDE900100898B0F94E00069008980068DC
:1059D000059068220321069BFEF79EFC40B20790CB
:1059E0000798042822DA079800EB4000682101EBB1
:1059F0004000C0B206900898006805900321069AFE
:105A0000FDF792FF002006900AE008980068002346
:105A1000012220210590FDF79BFF0698401C06906F
:105A20000798C0F1040106988142EEDC089890F9CD
:105A30005000069008980068059020220521069BDA
:105A4000FEF740FB00BF97E52DE9F04186B0044624
:105A500088461646002594F84C00022802D006B06D
:105A6000BDE8F0818448007800287CD1012082497B
:105A7000087000212068FDF779FE94F84D0000EBD6
:105A800040004006000E00210123CDE90131CDE99F
:105A90000310062000907949206810220B6800212D
:105AA000FEF7D0F994F8520058B900200122CDE950
:105AB0000020029056235E2200212068FEF722F883
:105AC0000AE000200122CDE90020029055235E2249
:105AD00000212068FEF716F8002001220623CDE9F8
