:020000040800F2
:10000000F81C0020B15D0008F90300080504000891
:10001000170400083304000847040008000000002B
:100020000000000000000000000000005B04000869
:100030006704000800000000730400087F04000843
:10004000CB5D0008CB5D0008CB5D0008CB5D0008F0
:10005000CB5D0008CB5D000869030008CB5D00089C
:10006000CB5D0008CB5D0008CB5D0008FB330008CA
:10007000CB5D0008CB5D0008CB5D0008CB5D0008C0
:10008000CB5D0008CB5D0008CB5D0008CB5D0008B0
:10009000CB5D0008CB5D0008CB5D0008CB5D0008A0
:1000A000CB5D0008CB5D0008CB5D0008CB5D000890
:1000B0007F030008AD030008D3030008CB5D0008F0
:1000C000CB5D0008CB5D0008CB5D0008CB5D000870
:1000D000CB5D00085527000887270008B9270008CE
:1000E000CB5D000881040008CB5D0008DFF810D06C
:1000F00005F0A4FE05F06EFE004800470903000865
:10010000F81C002010B503F065FF4FF4803003F0B9
:1001100081FF03F0BEFFE949087008460078012816
:1001200024D1002003F0FBFF002004F00AF84FF474
:10013000806003F0FDFF4FF4E0114FF4803003F0D6
:10014000D1FF012003F0DAFF01211D2004F0ACF8FB
:1001500000BF392003F081FF0028FAD0022003F00D
:10016000D0FF00BF03F0D6FF0828FBD110BD10B5AB
:100170004FF4803003F04EFF03F08BFFCF4908703F
:100180000846007801280FD103F0B8FF00BF3920DE
:1001900003F063FF0028FAD0022003F0B2FF00BF93
:1001A00003F0B8FF0828FBD110BD08B54FF6C040DA
:1001B000ADF8000010208DF8030003208DF8020038
:1001C0006946BF4803F0BAFD0120ADF800000420E5
:1001D0008DF803006946BB4803F0B0FD08BD1CB5AF
:1001E0000021084603F0BEFE012005F0C2FA0120FE
:1001F000009000208DF804000C208DF805000120EF
:100200008DF80600684605F03DFA1CBD10B50120CA
:1002100005F0CFF9012003F0B7FF00BF412003F044
:100220001CFF0028FAD04FF4807003F0C6FF0120B5
:1002300003F0C9FF05F00AFB47F6FF7005F0D8FA96
:1002400005F0FCFA0121022005F09CFA05F0F6FA0F
:1002500010BD08B500214FF0006003F089F94FF49C
:10026000C06003F04DF929208DF8000000208DF8C2
:1002700001008DF8020001208DF80300684603F0AC
:1002800044F906208DF8000000208DF80100684632
:1002900003F03BF908BD704770471FB501210420EA
:1002A00004F002F80121080704F00BF801210846C8
:1002B00003F0FAFF0120ADF8040004208DF80700D8
:1002C00001A9804803F03AFD0021084603F04AFEE8
:1002D0000120029000208DF80C0008208DF80D0000
:1002E00001208DF80E0002A805F0CCF906208DF84B
:1002F000000001208DF801008DF802008DF8030048
:10030000684603F002F91FBD012080F3108800BF8A
:100310004FF4A06003F0F4F802F03AFF7C2005F0FF
:1003200023FE044600F06DFB044667480460006845
:1003300001F051F8FFF7E6FE01214FF0C05003F045
:10034000C0FF0121084603F0AFFFFFF72EFFFFF7C4
:1003500046FFFFF77EFF012005F03AF9002080F309
:10036000108800BF00BFFEE710B5012005F0F0F9CE
:1003700020B1012005F0FDF905F09AFC10BD10B583
:100380004FF0804002F08AFD78B14FF0804002F0DB
:100390008DFD4FF0804002F079FD4B48006800F081
:1003A0009AFF4FF0804002F069FD10BD10B547483C
:1003B00002F074FD60B1454802F078FD434802F058
:1003C00065FD4148006800F0E3FF404802F056FD3B
:1003D00010BD10B53E4802F061FD60B13C4802F02E
:1003E00065FD3B4802F052FD3748006800F0DCFF35
:1003F000374802F043FD10BD10B53648006802F0E2
:10040000BFF810BD06E0642002F021FF314800680B
:1004100002F0FFF8F7E72F48006802F0B1F807E0B4
:100420004FF4FA7002F013FF2A48006802F0F1F866
:10043000F6E707E04FF47A7002F009FF25480068FC
:1004400002F0E7F8F6E707E04FF4FA6002F0FFFE8B
:100450002048006802F0DDF8F6E710B51D48006896
:1004600002F08EF810BD10B51A48006802F088F846
:1004700010BD10B51748006802F082F810BD704733
:1004800010B5022005F006FAB0B140F6FF700C4935
:100490000C3108604FF4003005F06BF9012005F0D5
:1004A000CAF810B1012005F0D0F805F0C7F9022014
:1004B00005F05FF905F0C2F910BD0000080000204A
:1004C000000C014000080140000000200004004032
:1004D00000080040040000201FB5044694F8740092
:1004E00029280DDB002001220423CDE901200093FF
:1004F0000390FEA328220221606A01F0A4FB54E0CD
:1005000094F8740028280DDB002001220423CDE993
:10051000012000930390F7A328220221606A01F0D2
:1005200092FB42E094F8740026280DDD00200122A1
:100530000423CDE9012000930390F0A32822022197
:10054000606A01F080FB30E094F8740025280DDD2E
:10055000002001220423CDE9012000930390E9A3A8
:1005600028220221606A01F06EFB1EE094F87400FC
:1005700024280DDD002001220423CDE90120009371
:100580000390E2A328220221606A01F05CFB0CE0E8
:10059000002001220423CDE9012000930390DDA374
:1005A00028220221606A01F04EFB1FBDDB49098849
:1005B00001EB41114900C1F3073180F87410704715
:1005C00010B586B0044694F87100002824D002E0EB
:1005D000606802F0A3FC606802F0BFFC0028F7D05E
:1005E00000200123CDE90130039004900420009005
:1005F000CBA304220621606A01F000FC0020012246
:100600000F23CDE9012000930390C8A304221146D3
:10061000606A01F018FB1BE000200123CDE90130E6
:100620000390049004200090C4A304220621606A71
:1006300001F0E4FB00200123CDE901300390049098
:1006400003200090C0A304221146606A01F0D6FB8B
:1006500006B010BD10B586B0044600200123CDE9D8
:1006600001300390049007200090B9A316220021C6
:10067000606A01F0C3FB00200123CDE90130039043
:10068000049003200090B6A304220221606A01F0C6
:10069000B5FB06B010BD70B50446142005F060FC33
:1006A0002060002004E000F1300122681154401C59
:1006B0001428F8DB062005F053FCA060002003E0BE
:1006C0000021A2681154401C0628F9DB002004F820
:1006D000700F0C2005F048FC054602F001FC0546B1
:1006E00044F86C0C012060700020A0700120E070C4
:1006F00000206071A071A0602071A4F1700470BD31
:10070000704770B50446082005F02EFC05466422AB
:10071000110702F039FB05462061012211462069CC
:1007200002F0BDFA0A21206902F0C7FA082005F09C
:100730001BFC054664228C4902F026FB05466061DD
:1007400003220121606902F0AAFAB421606902F073
:10075000B4FA082005F008FC05466422834902F03B
:1007600013FB0546A06102220121A06902F097FA5D
:10077000C821A06902F0A1FA70BD2DE9F04104463C
:10078000102005F0F1FB05464FF41652022102F04D
:10079000B5F90546E061E06902F029FA142005F098
:1007A000E3FB0646E16900F09FFE064620620C204E
:1007B00005F0DAFB0746012102F087FC0746A0623C
:1007C000A06A02F0BEFC042005F0CEFB8046A16AC0
:1007D00001F073F880466062BDE8F08110B5044610
:1007E00002F0DFFD10BD70B504460C2005F0BCFB27
:1007F000054600234FF400725D4901F024FF0546D1
:10080000E0620C2005F0B0FB054600234FF4807237
:10081000574901F018FF054620630C2005F0A4FBA2
:10082000054600234FF40042524901F00CFF0546F3
:1008300060630C2005F098FB054600234FF48042CE
:100840004C4901F000FF0546A0630C2005F08CFB2D
:10085000054600234FF40052464901F0F4FE0546D8
:10086000E0630C2005F080FB054600234FF4805226
:10087000404901F0E8FE054620640C2005F074FBB9
:10088000054600234FF400623A4901F0DCFE0546BC
:1008900060640C2005F068FB054600234FF480627D
:1008A000344901F0D0FE0546A0640C2005F05CFB45
:1008B0000546002302222F4901F0C5FE0546E064EB
:1008C0000C2005F051FB054600230122294901F0C7
:1008D000BAFE054620650C2005F046FB05460023C0
:1008E0004FF48072234901F0AEFE45E031303025EF
:1008F00000000000203830250000000020363025A0
:100900000000000020343025000000002032302597
:10091000000000002020352500000000AC0400206D
:10092000BDD3BDFCBFD8D6C60000000020202020CB
:10093000202020202020202020202000B6A8B5E361
:10094000BFD8D6C600000000B1E0BAC5A3BA000007
:10095000B5E7D7D3BDC5BFDBBFD8D6C6C6F7000045
:10096000B5E7C1BFA3BA0000000400400008004082
:1009700000080140000C0140054660650C2005F0B0
:10098000F3FA054600230822FE4901F05CFE054605
:10099000A0650C2005F0E8FA054600232022F9495D
:1009A00001F051FE0546E0650C2005F0DDFA054634
:1009B00000231022F34901F046FE05462066082078
:1009C00005F0D2FA064600238022EF4901F003FE2B
:1009D00006466066082005F0C7FA06460123102285
:1009E000E94901F0F8FD0646A06670BD10B5044661
:1009F0000121084603F058FC0121E44803F06DFA98
:100A000010BD10B504462046FFF7F0FF2046FFF763
:100A1000EAFEA06E01F0EFFD642002F018FC204613
:100A2000FFF7DCFE2046FFF7A8FE2046FFF769FE31
:100A30002046FFF765FE2046FFF72DFE606E01F0B1
:100A4000DAFD2046FFF706FE2046FFF7B9FD2046F7
:100A5000FFF7ACFD2046FFF73FFD204610BD0146E5
:100A6000886D007830B3086E007818B3C86D0078D0
:100A700000B3486D0078E8B1C86A0078D0B1086B5F
:100A80000078B8B1486B0078A0B1886B007888B165
:100A9000C86B007870B1086C007858B1486C007869
:100AA00040B1886C007828B1C86C007810B1086D2E
:100AB000007808B9012070470020FCE710B586B027
:100AC000044694F8720002280ED100200123CDE9DB
:100AD00001300390049002200090ADA35A22062119
:100AE000606A01F08BF91FE094F8720001280ED1C2
:100AF00000200123CDE901300390049002200090F2
:100B0000A5A35A220621606A01F078F90CE00020C2
:100B100001210523CDE90031CDE90210A0A35A221D
:100B20000621606A01F08FF806B010BD01469E48AC
:100B300000780A6E1278904209D0086E007808B1E9
:100B4000012000E00020984A10700120704796486C
:100B50004078CA6D1278904209D0C86D007808B10B
:100B6000012000E00020904A50700120EEE78E48FE
:100B700080788A6D1278904209D0886D007808B12B
:100B8000012000E00020884A90700120DEE700206C
:100B9000DCE701B586B0069890F8710000287DD199
:100BA000824841780698C06A0078814238D0069819
:100BB000C06A007808B1012000E000207B4948703D
:100BC0000698C06A007858BB06984068059002F005
:100BD000CCF900BB069840683121059002F084F9F9
:100BE00006984068039002F0ADF9059006984068B9
:100BF000039002F0AFF96E49085C049000200122D6
:100C00000092CDE901200698406A03900421DDE9B5
:100C1000042300F053FF0698406E059001F0F9FCA4
:100C2000624881780698006B007881423BD0069834
:100C3000006B007808B1012000E000205B4988705B
:100C40000698006B007850BB06984068059002F04B
:100C50008CF900BB069840683221059002F044F9F7
:100C600006984068039002F06DF905900698406878
:100C7000039002F06FF94E49085C049000200121B6
:100C80000091CDE901100698406A03900421DDE946
:100C9000042300F013FF0698406E01E01EE202E01C
:100CA000059001F0B6FC4148C1780698406B007889
:100CB000814238D00698406B007808B1012000E0EE
:100CC00000203A49C8700698406B007858BB0698D7
:100CD0004068059002F049F900BB0698406833214E
:100CE000059002F001F906984068039002F02AF995
:100CF000059006984068039002F02CF92C49085C96
:100D00000490002001210091CDE901100698406A6D
:100D100003900421DDE9042300F0D0FE0698406E24
:100D2000059001F076FC214801790698806B0078E7
:100D3000814253D00698806B007808B1012000E012
:100D400000201A4908710698806B007890BB0698BD
:100D50004068059002F009F968BB069840683421A4
:100D6000059002F0C1F806984068039002F0EAF896
:100D7000059006984068039002F0ECF80C49085C76
:100D8000049019E0000C014000080140000230000E
:100D9000B5E7BBF700000000BEAFB1A8000000003F
:100DA00020202020000000008C0400208F04002060
:100DB0006C60000812E00CE0002001210091CDE9F8
:100DC00001100698406A03900421DDE9042300F035
:100DD00075FE0698406E059001F01BFCFE484179B7
:100DE0000698C06B0078814238D00698C06B0078B6
:100DF00008B1012000E00020F74948710698C06B57
:100E0000007858BB06984068059002F0AEF800BB29
:100E1000069840683521059002F066F8069840680B
:100E2000039002F08FF8059006984068039002F056
:100E300091F8EA49085C0490002001210091CDE975
:100E400001100698406A03900421DDE9042300F0B4
:100E500035FE0698406E059001F0DBFBDE48817997
:100E60000698006C0078814238D00698006C0078B3
:100E700008B1012000E00020D74988710698006C75
:100E8000007858BB06984068059002F06EF800BBE9
:100E9000069840683621059002F026F806984068CA
:100EA000039002F04FF8059006984068039002F016
:100EB00051F8CA49085C0490002001210091CDE955
:100EC00001100698406A03900421DDE9042300F034
:100ED000F5FD0698406E059001F09BFBBE48C17978
:100EE0000698406C0078814238D00698406C0078B3
:100EF00008B1012000E00020B749C8710698406C95
:100F0000007858BB06984068059002F02EF800BBA8
:100F1000069840683721059001F0E6FF0698406882
:100F2000039002F00FF8059006984068039002F0D5
:100F300011F8AA49085C0490002001210091CDE934
:100F400001100698406A03900421DDE9042300F0B3
:100F5000B5FD0698406E059001F05BFB9E48017A56
:100F60000698806C0078814238D00698806C0078B2
:100F700008B1012000E00020974908720698806CB3
:100F8000007858BB06984068059001F0EEFF00BB62
:100F9000069840683821059001F0A6FF0698406841
:100FA000039001F0CFFF059006984068039001F090
:100FB000D1FF8A49085C0490002001210091CDE90D
:100FC00001100698406A03900421DDE9042300F033
:100FD00075FD0698406E059001F01BFB7E48417A36
:100FE0000698C06C0078814238D00698C06C0078B2
:100FF00008B1012000E00020774948720698C06CD3
:10100000007858BB06984068059001F0AEFF00BB21
:10101000069840683921059001F066FF06984068FF
:10102000039001F08FFF059006984068039001F04F
:1010300091FF6A49085C0490002001210091CDE9EC
:1010400001100698406A03900421DDE9042300F0B2
:1010500035FD0698406E059001F0DBFA5E48017898
:101060000698006D0078814238D00698006D0078AF
:1010700008B1012000E00020574908700698006D73
:10108000007858BB06984068059001F06EFF00BBE1
:10109000069840683021059001F026FF06984068C8
:1010A000039001F04FFF059006984068039001F00F
:1010B00051FF4A49085C0490002001210091CDE9CC
:1010C00001100698406A03900421DDE9042300F032
:1010D000F5FC0698406E059001F09BFA3E48817A37
:1010E0000698406D007881422CD00698406D0078BB
:1010F00008B1012000E00020374988720698406D51
:101100000078F8B906984068059001F026FFC8B944
:1011100006984068049001F01DFF3049085C059076
:10112000002001210091CDE901100698406A20239A
:1011300004900421059A00F0C1FC069840680590CF
:1011400001F0ECFE2448C17A0698806D0078814257
:101150001CD00698806D007808B1012000E00020C6
:101160001D49C8720698806D007878B9069890F885
:101170007100C0F10100C1B2069880F871100698A4
:10118000FFF71EFA0021069880F872101248017BC2
:101190000698C06D0078814213D00698C06D007823
:1011A00008B1012000E000200B4908730698C06DCB
:1011B000007830B90221069880F872100698FFF77F
:1011C0007DFC0548417B0698006E0078814218D06E
:1011D0000698006E007803E08F0400206C60000821
:1011E00008B1012000E00020AC4948730698006E69
:1011F000007830B90121069880F872100698FFF740
:101200005DFC0698806D007898B30698006E0078B3
:1012100078B30698C06D007858B30698406D007892
:1012200038B30698C06A007818B30698006B007847
:10123000F8B10698406B0078D8B10698806B0078BA
:10124000B8B10698C06B007898B10698006C007829
:1012500078B10698406C007858B10698806C007898
:1012600038B10698C06C007818B10698006D007807
:1012700010B903210698816707B000BD10B5044678
:10128000E06A01F0F6F9206B01F0F3F9606B01F010
:10129000F0F9A06B01F0EDF9E06B01F0EAF9206CD8
:1012A00001F0E7F9606C01F0E4F9A06C01F0E1F9FC
:1012B000E06C01F0DEF9206D01F0DBF9606D01F00A
:1012C000D8F9A06D01F0D5F9E06D01F0D2F9206EEA
:1012D00001F0CFF910BD10B50446714800686428CC
:1012E00002DD00206E4908606D480068401C6C49B2
:1012F00008602046FFF7C2FF2046FFF74AFC204661
:10130000FFF714FC28B12046FFF7D8FB2046FFF773
:1013100057F92046FFF7A3FB10B9002084F87200AC
:1013200010BD10B50446606801F014FE10BD70B524
:10133000044694F87300000194F8721000EB8100E9
:1013400094F871100844A1680870002507E06068EF
:10135000405D3038C1B2681CA26811546D1C6068D1
:1013600001F0F8FDA842F2DA606801F0F3FD451CD7
:1013700004E00021681CA26811546D1C052DF8DBE7
:10138000A168206A00F0FFF8206A00F014F970BD2F
:1013900010B5044694F8720010B12046FFF7C7FF5D
:1013A0002046FFF7BEFF10BD10B504462046FFF7EC
:1013B00085FB2046FFF7FAF82046FFF78DF8A06F6F
:1013C000401CA067A06F642804DD0020A067A06E09
:1013D00001F0D6F810BD10B504460A2001F037FF21
:1013E000206901F044FD606901F041FDA06901F050
:1013F0003EFD10BD10B586B004460021606A00F0C5
:1014000091F900200123CDE90130039004900820D8
:10141000009024A304220021606A00F0EFFC002069
:101420000123CDE90130039004900B20009022A30A
:1014300000220221606A00F0E1FC00200122112359
:10144000CDE901200093039021A30A220521606ABF
:1014500000F084FA06B010BD70B505464FF4803038
:1014600002F0D8FD02F015FE0446012C0FD102F067
:1014700045FE00BF392002F0F0FD0028FAD002201E
:1014800002F03FFE00BF02F045FE0828FBD170BD10
:101490000146144A5288C2F3071070478F04002097
:1014A00088040020A1EEA1EEA1EFBBB6D3ADB9E256
:1014B000C1D9A1EF00000000A1EEC5C5B1ACBBFAD7
:1014C000C6F7C8CBC4A5BBFACFB5CDB3A1EE00001B
:1014D000636865636B696E67206D6F746F722E2E23
:1014E0002E000000AC04002070B504460D46634891
:1014F00020606560082004F037FD06460C2100F0EE
:10150000DAFF0646A0600C2004F02AFDE0600C2003
:1015100004F026FD2061002003E00021E268115460
:10152000401C0C28F9DB002003E000212269115443
:10153000401C0C28F9DBA420E16808700120E16858
:1015400048708020E1688870204670BD70B5044600
:101550004A482060A06828B1A06800F0E4FF054672
:1015600004F0FAFCE06804F0F3FC206904F0F0FCFD
:10157000204670BD70B504462046FFF7E7FF0546DC
:1015800004F0EAFC70BD70B50A460023002104E0B7
:10159000555CCC1CC6683555491C0629F8DB002172
:1015A00004E0C468645C1C44E3B2491C0B29F8DB0A
:1015B000C168CB7270BD10B50446FF21606801F0B0
:1015C000E7FAFF21606801F0E3FA0C22E168606845
:1015D00001F0EAFA10BD2DE9F0410446002500278C
:1015E00042E0606801F0CEFA06463146A06800F09D
:1015F000C4FFA06800F0B6FFA06800F0AFFFA52808
:1016000032D105F1A500C5B2A06800F0ABFFA0681B
:1016100000F0A4FF012823D1002608E0A06800F014
:101620009DFF2844C5B2A06800F09CFF761C0A2EDE
:10163000F4DBA06800F092FFA8420DD1002608E07C
:10164000A06800F08FFFA06800F088FF216988552E
:10165000761C0C2EF4DB0127A06800F083FF02E06B
:10166000A06800F083FF0025606801F05EFA08B111
:10167000002FB6D03846BDE8F08100004073000866
:1016800070B504460D464FF40061F84802F003FCC3
:101690002946206801F03AFD70BD70B505460E463A
:1016A000002481212846FFF7EBFF21462846FFF75B
:1016B000E7FF70BD10B50446AF212046FFF7E0FFFD
:1016C00010BD70B504460D464FF40061E74802F0C6
:1016D000E0FB2946206801F019FD70BD70B5054694
:1016E0000C46802C01DD002070BD102040EA141152
:1016F0002846FFF7C5FF04F00F012846FFF7C0FF9B
:101700000120F1E770B505460C46082C01DD0020EC
:1017100070BD04F0070040F0B0012846FFF7B0FFAD
:101720000120F5E72DE9F04106460F46002411E0BF
:10173000E1B23046FFF7E6FF00213046FFF7CEFF6B
:10174000002504E039463046FFF7BBFF6D1C842DB1
:10175000F8DB641C082CEBDBBDE8F08170B50546B6
:101760000C46002C01DB402C01DD002070BD04F094
:101770003F0040F040012846FFF782FF0120F5E7D7
:1017800010B504460121042002F08EFDB74B102253
:101790000321500101F05EFEB44B10220321100121
:1017A00001F058FEB14B10220321D00101F052FE8E
:1017B0004FF48071AD4802F06EFB642001F047FDEC
:1017C0004FF48071A94802F064FBAE212046FFF778
:1017D00057FF00212046FFF753FF10212046FFF757
:1017E0004FFF40212046FFF74BFFA1212046FFF786
:1017F00047FFC8212046FFF743FFA6212046FFF7F9
:101800003FFFA8212046FFF73BFF3F212046FFF77F
:1018100037FFD3212046FFF733FF00212046FFF793
:101820002FFFD5212046FFF72BFF80212046FFF711
:1018300027FFD9212046FFF723FFF1212046FFF79C
:101840001FFFDA212046FFF71BFF12212046FFF77A
:1018500017FFDB212046FFF713FF40212046FFF74B
:101860000FFF20212046FFF70BFF02212046FFF744
:1018700007FF8D212046FFF703FF14212046FFF7C5
:10188000FFFEA4212046FFF7FBFEA6212046FFF71E
:10189000F7FEAF212046FFF7F3FE00212046FFF7B9
:1018A0005DFF00212046FFF73DFF2046FFF702FFC6
:1018B000CF212046FFF7F1FE10BD70B504460D465E
:1018C00025602046FFF75CFF204670BD00210160C7
:1018D000704710B50446AE212046FFF7D1FE10BD7B
:1018E00070B506460D461446082D01DC802C01DD3E
:1018F000002070BD29463046FFF704FF21463046E0
:10190000FFF7ECFE0120F4E72DE9F05F82460E467A
:1019100015461F4606EB4600554901EB400B4FF0BC
:1019200000081DB96FEA080000F0FF0800240CE071
:101930001BF804901DB96FEA090000F0FF09494641
:101940005046FFF7BEFE601CC4B2062CF0DB1FB190
:1019500041465046FFF7B5FEBDE8F09F2DE9F05F28
:1019600006460F4690461D46DDF834A0DDF8289067
:10197000424639463046FFF7B3FF05EB0A0B002419
:1019800007E01BF804103046DDE90B23FFF7BCFF2E
:10199000641C4C45F5DBBDE8F09F2DE9FF4F83B09B
:1019A0000F469846DDE9119A109E08EB4800304931
:1019B00001EB400B002002900190BAF1000F03D020
:1019C000019840F0100001901EB9F82002901F20ED
:1019D00001903946059A0398FFF782FF10B907B0C6
:1019E000BDE8F08F00240FE01BF80400F02101EAAD
:1019F00000151EB9E843C5B205F0F805294603985D
:101A0000FFF75FFE601CC4B2062CEDDBB9F1000FDE
:101A100003D0DDE90210FFF754FE781CC1B2059A2D
:101A20000398FFF75DFF00B9D9E7002412E01BF827
:101A300004000509BAF1000F01D045F010051EB9E8
:101A4000E843C5B205F01F0529460398FFF739FEA4
:101A5000601CC4B2062CEADBB9F1000F03D0019977
:101A60000398FFF72EFE00BFB9E700000008014011
:101A70007B6600082DE9FF4F85B00D4616461F46D0
:101A8000DDE9148BDDF848A004970395B1460024E6
:101A90000FE013988DE801090498035D4A46039905
:101AA0000598FFF77AFF08F10600484400F0FF09A7
:101AB000641C5445EDDB09B0BDE8F08F2DE9FF4F04
:101AC00081B08A469B46DDE90E6500200090804685
:101AD000109808B148F040083EB90098C043C0B221
:101AE00000906FEA080000F0FF08ABF12000F84911
:101AF00001EB00175146039A0198FFF7F1FE10B968
:101B000005B0BDE8F08F1DB1DDE90010FFF7D9FD8C
:101B100000240CE017F804901EB96FEA090000F0E9
:101B2000FF0949460198FFF7CCFD601CC4B2082CA0
:101B3000F0DB1DB1DDE90010FFF7C3FD0AF1010084
:101B4000C1B2039A0198FFF7CBFE00B9D8E71DB1E7
:101B500041460198FFF7B5FD082410E017F80490FE
:101B6000109808B149F040091EB96FEA090000F069
:101B7000FF0949460198FFF7A4FD601CC4B2102C70
:101B8000ECDB1DB141460198FFF79BFD00BFB7E7B5
:101B90002DE9FF5F0F4698460E9D4FF000094FF06C
:101BA000200A3DB96FEA090000F0FF096FEA0A0058
:101BB00000F0FF0AA8F12000C54901EB00163946E4
:101BC000029A0098FFF78CFE08B9BDE8FF9F002439
:101BD0000CE016F804B01DB96FEA0B0000F0FF0B23
:101BE00059460098FFF76DFD601CC4B2082CF0DB6D
:101BF00049460098FFF765FD49460098FFF761FDEB
:101C0000781CC1B2029A0098FFF76AFE00B9DCE7BF
:101C100008240CE016F804B01DB96FEA0B0000F0C0
:101C2000FF0B59460098FFF74CFD601CC4B2102C06
:101C3000F0DB51460098FFF744FD49460098FFF756
:101C400040FD00BFC1E72DE9FF4F85B00E461746A6
:101C50009846DDE9144BDDF848A0CDF810800396D6
:101C6000B946002510E013988DE811080498435DEB
:101C70004A4603990598FFF721FF082000EB44002E
:101C8000484400F0FF096D1C5545ECDB09B0BDE888
:101C9000F08F2DE9FF4F83B09946DDE910A6129F22
:101CA000002500200290019000BF17E099F8000085
:101CB00005EB850101EBC501864A12F81110884237
:101CC0000BD199F8010005EB850101EBC50102EB91
:101CD00041014978884200D102E06D1C502DE5DBBE
:101CE00000BFBE2D02D107B0BDE8F08F05EB850027
:101CF00000EBC500774901EB400817B10198384364
:101D00000190BAF1000F07D10298C043C0B202900F
:101D10000198C043C0B2019003A807C8FFF7E0FDD7
:101D200000B9E0E74FF0000B05E0DDE90210FFF736
:101D3000C8FC0BF1010BB345F7DB022411E018F8E6
:101D4000040080064FEA106BBAF1000F03D16FEA6E
:101D50000B0000F0FF0B59460398FFF7B2FC601C24
:101D6000C4B20E2CEBDB4FF0000B05E0DDE90210F6
:101D7000FFF7A7FC0BF1010BB345F7DB0498401C00
:101D8000C1B2059A0398FFF7ABFD00B9ABE74FF07E
:101D9000000B05E001990398FFF793FC0BF1010B91
:101DA000B345F7DB0E241AE018F804008100A4F113
:101DB0000C0018F8000041EAA01000F0FF0B0FB172
:101DC0004BEA070BBAF1000F03D16FEA0B0000F0EA
:101DD000FF0B59460398FFF774FC601CC4B21A2C21
:101DE000E2DB4FF0000B05E001990398FFF769FC77
:101DF0000BF1010BB345F7DB00BF74E72DE9FF4F93
:101E000085B00D4616461F46DDF85880149C07EB3A
:101E100048090495B2464FF0000B14E01399159849
:101E20004B465246CDE900140290DDE90410FFF75D
:101E300030FF09F102090C2000EB4400504400F08F
:101E4000FF0A0BF1010B12988345E7DB09B0BDE8EF
:101E5000F08F2DE9F04706460F4690461D46DDF807
:101E60002090424639463046FFF73AFD08B9BDE8B2
:101E7000F087002417E035B1B9F1000F03D0164800
:101E800010F804A003E014480E3010F804A02DB997
:101E900011480E30005DC04300F0FF0A5146304645
:101EA000FFF70FFC641C072CE5DB00BFDFE72DE923
:101EB000F04706460F4690461D46DDF82090424604
:101EC00039463046FFF70CFD40B9BDE8F087000009
:101ED0007B600008176B00087B6A0008002417E08D
:101EE00035B1B9F1000F03D0F74810F804A003E0B2
:101EF000F5480E3010F804A02DB9F3480E30005DFF
:101F0000C04300F0FF0A51463046FFF7DAFB641C7D
:101F1000072CE5DB00BFD8E72DE9F04106460D466A
:101F200017463A4629463046FFF7DAFC08B9BDE8BD
:101F3000F081002405E0E548015D3046FFF7C1FB74
:101F4000641C102CF7DB681CC1B23A463046FFF720
:101F5000C7FC00B9EBE7102405E0DC48015D304622
:101F6000FFF7AFFB641C202CF7DB00BFDFE72DE998
:101F7000F04106460D4617463A4629463046FFF7D9
:101F8000AFFC08B9BDE8F081002406E0CF4840303E
:101F9000015D3046FFF795FB641C102CF6DB681CD6
:101FA000C1B23A463046FFF79BFC00B9EAE710247D
:101FB00006E0C6484030015D3046FFF782FB641CF6
:101FC000202CF6DB00BFDDE72DE9F04106460D468B
:101FD00017463A4629463046FFF782FC08B9BDE865
:101FE000F081002406E0B9486030015D3046FFF71B
:101FF00068FB641C102CF6DB681CC1B23A46304604
:10200000FFF76EFC00B9EAE7102406E0AF48603045
:10201000015D3046FFF755FB641C202CF6DB00BF4A
:10202000DDE72DE9F04106460D4617463A462946BA
:102030003046FFF755FC08B9BDE8F081002406E002
:10204000A2482030015D3046FFF73BFB641C102C9A
:10205000F6DB681CC1B23A463046FFF741FC00B9D6
:10206000EAE7102406E099482030015D3046FFF78A
:1020700028FB641C202CF6DB00BFDDE72DE9F041D6
:1020800006460F4690461C46424639463046FFF704
:1020900027FC08B9BDE8F081FF213046FFF711FBAE
:1020A000B4B9002504E081213046FFF70AFB6D1C1E
:1020B0002D2DF8DBFF213046FFF703FB002504E060
:1020C00081213046FFF7FDFA6D1C2D2DF8DB4CE029
:1020D000002C26DA14F12D0F01DA6FF02C04002504
:1020E00004E081213046FFF7ECFA6D1C04F12D006D
:1020F000A842F6DC054604E0BD213046FFF7E1FAD0
:102100006D1C2D2DF8DBFF213046FFF7DAFA002594
:1021100004E081213046FFF7D4FA6D1C2D2DF8DB49
:1021200023E0002C21DD2D2C00DD2D24002504E0F2
:1021300081213046FFF7C5FA6D1C2D2DF8DBFF21FC
:102140003046FFF7BEFA002504E0BD213046FFF718
:10215000B8FA6D1CA542F8DB254604E08121304623
:10216000FFF7AFFA6D1C2D2DF8DBFF213046FFF78E
:10217000A8FA00BF8EE72DE9FF4F83B08246904654
:102180001F46DDE91146109DB946632F02DC17F1A9
:10219000630F02DA07B0BDE8F08FB9F1000F25D167
:1021A00020234246CDE90146009550460499FFF7A9
:1021B00085FC08F10800022101FB0400C2B23023B3
:1021C000CDE90146009550460499FFF777FC08F1E8
:1021D0001000042101FB0400C2B23023CDE9014606
:1021E000009550460499FFF769FC6BE0B9F1000FC8
:1021F00035DA2D234246CDE9014600955046049933
:10220000FFF75CFC78420A2190FBF1F0303000F0DF
:10221000FF0B08F10800022101FB0400C2B25B467B
:10222000CDE90146009550460499FFF747FC7842F6
:102230000A2190FBF1F201FB1200303000F0FF0B9D
:1022400008F11000042101FB0400C2B25B46CDE995
:102250000146009550460499FFF730FC32E02023F8
:102260004246CDE90146009550460499FFF726FC09
:102270000A2097FBF0F0303000F0FF0B08F1080067
:10228000022101FB0400C2B25B46CDE90146009584
:1022900050460499FFF712FC0A2097FBF0F100FB6F
:1022A0001170303000F0FF0B08F11000042101FB29
:1022B0000400C2B25B46CDE9014600955046049940
:1022C000FFF7FCFB00BF65E7826A0008976A000819
:1022D0002DE9FF4F81B083461E4635462027B8467C
:1022E000B946BA462020009000245846DDE9021283
:1022F000FFF7F6FA3DB930215846DDE90E23FFF726
:1023000003FB0124D3E0002D6CDA684242F2107125
:1023100090FBF1F03030C7B2684290FBF1F201FB64
:1023200012004FF47A7190FBF1F0303000F0FF08AA
:10233000684290FBF1F201FB1200642190FBF1F086
:10234000303000F0FF09684290FBF1F201FB12000F
:102350000A2190FBF1F0303000F0FF0A684290FB58
:10236000F1F201FB12003030C0B200902D2158462E
:10237000DDE90E23FFF7C8FA641C302F06D039467A
:102380005846DDE90E23FFF7BFFA641CB8F1300FA1
:1023900001D1012C06DD41465846DDE90E23FFF749
:1023A000B3FA641CB9F1300F01D1012C06DD4946A6
:1023B0005846DDE90E23FFF7A7FA641CBAF1300F87
:1023C00001D1012C06DD51465846DDE90E23FFF709
:1023D0009BFA641C5846DDE90E230099FFF794FA36
:1023E000641C64E042F2107095FBF0F03030C7B22C
:1023F00042F2107095FBF0F100FB11504FF47A712E
:1024000090FBF1F0303000F0FF08084695FBF0F14A
:1024100000FB1150642190FBF1F0303000F0FF0917
:10242000642095FBF0F100FB11500A2190FBF1F0C4
:10243000303000F0FF0A0A2095FBF0F100FB11504C
:102440003030C0B20090302F06D039465846DDE912
:102450000E23FFF759FA641CB8F1300F01D1002C9C
:1024600006DD41465846DDE90E23FFF74DFA641CB0
:10247000B9F1300F01D1002C06DD49465846DDE99F
:102480000E23FFF741FA641CBAF1300F01D1002C82
:1024900006DD51465846DDE90E23FFF735FA641C88
:1024A0005846DDE90E230099FFF72EFA641C2046FA
:1024B00005B0BDE8F08F2DE9F04104460D46012D31
:1024C00004DA002060602046BDE8F08125600C2021
:1024D00003F04AFD064600231A46194603F034FD70
:1024E000064660606068406060688060002715E0B4
:1024F0000C2003F039FD80466068024600214368E5
:10250000404603F021FD80466068C0F804806068A2
:10251000406861684968496888607F1C681EB842E5
:10252000E6DC2046D0E72DE9F041054668684468BE
:1025300007E0666824B100BF2746384603F00CFD6B
:1025400034466868A042F4D1686820B1686800BF6A
:10255000074603F001FD2846BDE8F08101464868C2
:1025600000787047416849684160704741688968F0
:1025700041607047014608687047426811707047B3
:1025800010B50446A07920B1A188206801F083FC31
:1025900003E0A188206801F07CFC10BD10B5044662
:1025A0002349206888420CD1A088012802D0A08845
:1025B000022806D1A08810220321236800F04AFFD8
:1025C00005E0A08810220121236800F043FF204687
:1025D000FFF7D6FF10BD2DE9F04104460F46154622
:1025E0001E462760A580A6712046FFF7D7FF20462C
:1025F000BDE8F081704710B50446A07920B1A188EC
:10260000206801F046FC03E0A188206801F043FC4B
:1026100010BD70B50446A188206801F02DFCC0F102
:102620000100C5B2A1882A46206801F036FC70BDC1
:102630000014014010B50446208948220221636835
:1026400000F008FF10BD2DE9F04104460F46154685
:102650001E460020E07267602581A672012020706E
:102660002046FFF7E7FF2046BDE8F08100214160EA
:10267000704770B50446A07A48B12189606801F0BE
:10268000EEFB08B9012000E00020054604E02189A6
:10269000606801F0E4FB05462078A84209D0E07AA2
:1026A000401CE072E07A012805DD25700020E07210
:1026B00001E00020E07270BD10B5044694F84800B7
:1026C00000B910BDB4F85010E06C01F0E2FB00BF9F
:1026D000F7E72DE9F0410446251D94F8478095F869
:1026E0004200404506D12068868926F08006206891
:1026F000868110E02046FFF7DFFF94F8471005F1D0
:102700002000475C2068878095F84300401C00F05B
:102710001F0085F84300BDE8F081F0B501460B1DB0
:1027200093F84000401C00F01F0493F841500868E3
:102730008088C6B2AC4201D1002206E0012291F8A5
:102740004470081DC65581F844400AB10120F0BD0F
:102750000020FCE710B540F22551F74802F0DAFE00
:1027600038B140F22551F44802F0FEFEF348FFF77D
:10277000D4FF40F22771F04802F0CCFE10B1EF48D0
:10278000FFF7A7FF10BD10B540F22551EC4802F04D
:10279000C1FE38B140F22551E94802F0E5FEE948B2
:1027A000FFF7BBFF40F22771E54802F0B3FE10B11E
:1027B000E448FFF78EFF10BD10B540F22551E24806
:1027C00002F0A8FE38B140F22551DF4802F0CCFEFD
:1027D000DE48FFF7A2FF40F22771DB4802F09AFEC5
:1027E00010B1DA48FFF775FF10BD10B540F2255162
:1027F000D74802F08FFE38B140F22551D44802F09C
:10280000B3FED448FFF789FF40F22771D04802F0A9
:1028100081FE10B1CF48FFF75CFF10BD10B540F24C
:102820002551CD4802F076FE38B140F22551CA4814
:1028300002F09AFEC948FFF770FF40F22771C648C0
:1028400002F068FE10B1C548FFF743FF10BD00213C
:1028500080F84810C164A0F850100160002280F890
:10286000452080F8442080F8472080F846207047B3
:10287000014691F84600401C00F01F0291F84730D5
:102880009A4201D0012070470020FCE7014691F8F0
:10289000462091F847309A4201D00120704700202D
:1028A000FCE72DE9F04104460F46261D2046FFF7C0
:1028B000DFFF8046B8F1000F0FD096F8425006F1C6
:1028C00020004755681C00F01F0086F842000122D6
:1028D00040F22771206802F038FD4046BDE8F081E3
:1028E000014691F8442091F845309A4201D00120E8
:1028F00070470020FCE70246111D91F84130C85C8A
:1029000091F841305B1C03F01F0381F841307047A0
:1029100010B5044694F8480000B910BDB4F8501042
:10292000E06C01F0B8FA00BFF7E72DE9FF41074678
:102930000C4615461E46684602F0D8FC009500205D
:10294000ADF80400ADF80600ADF80800ADF80C00D5
:10295000ADF80A606946204602F05FFCBDE8FF81E1
:1029600010B504466068006800B910BD6168086869
:10297000002102F0DEFC00BFF7E770B50446A56851
:102980002046FFF7EDFF062D6BD2DFE805F06A0366
:10299000192E4859012144F2010001F085FC002163
:1029A000042001F09AFA6E4B04220321100200F079
:1029B00051FD6B4B18220321581500F04BFD50E0E0
:1029C0000121684801F07DFC0021082001F085FA12
:1029D000634B04220321082000F03CFD604B1822C9
:1029E0000321042000F036FD3BE001215E4801F0A8
:1029F00068FC00215D4801F070FA00215B4820303E
:102A000001F06BFA5A4B04220321500200F022FD20
:102A1000574B18220321181500F01CFD21E001215D
:102A2000544801F04EFC544B04220321500200F0A4
:102A300011FD514B18220321181500F00BFD10E079
:102A400001214E4801F03DFC4D4B0422032110466C
:102A500000F000FD484B18220321981400F0FAFC06
:102A600000BF00BF70BD10B50446A06806282CD278
:102A7000DFE800F02B030B131B23304860602E4867
:102A8000616808602520206020E02E4860602C48A6
:102A9000616808602620206018E02C4860602A48A1
:102AA000616808602720206010E02A48606028489C
:102AB000616808603420206008E02848606026488B
:102AC000616808603520206000E000BF00BF20463C
:102AD000FFF753FF20780022114600F0A9FCE268BE
:102AE00060680C2301682046FFF71FFF6168012220
:102AF000086840F2255102F028FC10BD70B504466C
:102B00000E461546A660E5602046FFF7ACFF20465E
:102B100070BD10B504462046FFF722FF002060601C
:102B2000204610BD01468868704710B504466068AD
:102B3000FFF7D6FE10BD000000380140EC04002075
:102B4000004400404005002000480040940500205B
:102B5000004C0040E8050020005000403C060020EA
:102B600000080140010002000100040010001400F0
:102B7000000C01400100080000100140010010009D
:102B80000014014010B504466068FFF7B4FE10BDA4
:102B900070B504460D4629466068FFF782FE08B10D
:102BA000012070BD0020FCE72DE9F04107460D46ED
:102BB0001646002407E000BF295D3846FFF7E8FF0E
:102BC0000028F9D0641CB442F5DBBDE8F08170B593
:102BD00005460C4607E000BF21782846FFF7D8FFDE
:102BE0000028F9D0641C20780028F4D170BD10B5FD
:102BF00004466068006800B910BD6168086801217A
:102C000002F097FB00BFF7E770B504460D46164685
:102C10000120616881F848006068C5646068A0F8B8
:102C200050606168B1F850001022CB6C032100F0B5
:102C300011FC70BD2DE9F04104460D4616462F46A5
:102C4000B04620784246394600F0F2FBBDE8F081FC
:102C500000B50948FFF7FBFD0848FFF7F8FD0848F5
:102C6000FFF7F5FD0748FFF7F2FD0748FFF7EFFD17
:102C70000648FFF7ECFD00BDEC04002040050020F5
:102C800094050020E80500203C0600209006002066
:102C900010B504460021606801F09EFF10BD2DE9CB
:102CA000F04104460D4616462F46B046207842466F
:102CB000394600F0BDFBBDE8F0812DE9FE43054635
:102CC0000C464FF0000800260027012C01DABDE871
:102CD000FE83002C03DD052C01DAE02733E0042C11
:102CE00004DD0A2C02DA40F2C1172CE0092C04DDC5
:102CF000322C02DA40F2833725E0312C04DD642CDB
:102D000002DA40F207771EE0632C05DDB4F5FA7FA6
:102D100002DA40F60F6716E0B4F5FA7F06DB40F6FC
:102D2000B830844202DA41F61F470CE040F6B73073
:102D3000844206DD41F28830844202DA43F63F07DE
:102D400001E048F69F475D486043791C90FBF1F035
:102D5000461EB0B2ADF80400ADF800700020ADF82A
:102D60000600ADF802008DF808806946686801F039
:102D7000D7FB0121686802F0F5F901221146686865
:102D800001F045FF00BFA2E770B504460E461546A8
:102D900066606068B0F1804F06D11C202060012180
:102DA000084601F08EFA4AE045496068884206D13B
:102DB0001D2020600121022001F083FA3FE04149FB
:102DC0006068884206D11E2020600121042001F0A5
:102DD00078FA34E03C496068884206D132202060AD
:102DE0000121082001F06DFA29E038496068884225
:102DF00006D1362020600121102001F062FA1EE089
:102E000033496068884206D13720206001212020A4
:102E100001F057FA13E02F496068884201D120463B
:102E200070BD2D496068884201D12046F8E72B49E2
:102E30006068884201D12046F2E72046F0E7294643
:102E40002046FFF73AFF002211462046FFF727FFF2
:102E50002046FFF71DFF2046E2E710B50446204656
:102E6000FFF716FF606803F077F8204610BD10B535
:102E700004460121606801F0AFFE10BD70B5044644
:102E800025460121284601F0A7FE70BD70B5044615
:102E900025460021284601F09FFE70BD70B504460E
:102EA00025460121284602F060F970BD70B5044640
:102EB00025460121284602F069F970BD401901003C
:102EC0000004004000080040000C004000100040DA
:102ED0000014004000180040001C0040002000408A
:102EE0004FF0FF318160704702469068042801D19D
:102EF000002070479068401C906090681154012039
:102F0000F7E702469068401C00D170479068105C5B
:102F100008709068401E90600120F6E701468868BE
:102F2000401C00D170478A68501E8860885CF9E7B1
:102F300002469068401C00D170479068105C087091
:102F40000120F9E701468868401C00D17047886875
:102F5000085CFBE701468868704701468868401CAA
:102F600001D1012070470020FCE701468868042851
:102F700001D1012070470020FCE7000010B5044695
:102F80002068012804D0022827D003286CD146E00D
:102F90000121080301F088F90121042001F084F9DE
:102FA0000121102001F080F9744B102203211046FA
:102FB00000F050FA714B18220321202000F04AFA49
:102FC0006E4B04220321402000F044FA6B4B182280
:102FD0000321802000F03EFA46E00121880301F041
:102FE00070F90121082001F05FF9654B10220321DF
:102FF000100200F02FFA624B18220321581400F03F
:1030000029FA5F4B04220321100300F023FA5C4BE2
:10301000182203214FF4004000F01CFA24E00121A3
:10302000C80301F04EF90121042001F03DF901210E
:10303000082001F039F9514B10220321D00200F091
:1030400009FA4F4B18220321082000F003FA4C4BD9
:1030500004220321102000F0FDF9494B182203211E
:10306000202000F0F7F900BF00BF10BD10B586B0FA
:1030700004462046FFF782FF0021A06802F0EFFC23
:103080000020ADF804004FF48270ADF80600002077
:10309000ADF80800ADF80A00ADF80C004FF4007070
:1030A000ADF80E000820ADF810000020ADF81200B9
:1030B0000720ADF8140001A9A06802F02BFC012143
:1030C000A06802F011FD06B010BD70B504460D46B3
:1030D00025602068012804D12A48A0602320606070
:1030E0000EE02068022804D12748A06024206060F8
:1030F00006E02068032803D12448A06033206060E4
:103100002046FFF7B3FF204670BD704770B50446F8
:103110000D462E4600BF0221A06802F024FD0028C3
:10312000F9D03146A06802F0CBFC00BF0121A068B5
:1031300002F019FD0028F9D0A06802F0C3FC064691
:1031400070BD10B504460121A06802F088FC10BDD6
:1031500010B504460021A06802F081FC10BD2DE9E5
:10316000F04104460D4616462F46B04620794246A9
:10317000394600F05DF9BDE8F0810000000801402B
:10318000000C01400030014000380040003C00408D
:1031900010B56FF0040000F003FA384800683849B1
:1031A000B0FBF1F0374908700846007800EB4001A9
:1031B000C1EBC0104FF6FF7101EAC0003249088030
:1031C00010BD01462F4A12784A434FF0E0235A615E
:1031D00000229A611A46126942F001021A6100BF88
:1031E0004FF0E022106910F0010F02D010F4803F80
:1031F000F6D04FF0E022126922F001024FF0E023F6
:103200001A6100229A61704701461F4A12884A4398
:103210004FF0E0235A6100229A611A46126942F087
:1032200001021A6100BF4FF0E022106910F0010F97
:1032300002D010F4803FF6D04FF0E022126922F065
:1032400001024FF0E0231A6100229A61704770B5C5
:1032500004464FF47A70B4FBF0F6B4FBF0F100FBD7
:10326000114504E04FF47A70FFF7CEFF761E002E72
:10327000F8D115B12846FFF7C7FF70BDC404002080
:1032800000127A00A8040020AA04002000B585B02E
:103290004FF4804000F06FFF0121480201F004F874
:1032A0000020009001208DF804008DF805004FF4F7
:1032B000602002900020039001208DF810006946E4
:1032C000534800F0B2F9002000F06CFB0523012206
:1032D00011464F4800F041FA01214D4800F0DCF959
:1032E00001214B4800F0CDF9494800F0ECF900BF4E
:1032F000474800F0EDF90028FAD1454800F0F2F90E
:1033000000BF434800F0F3F90028FAD101214048FA
:1033100000F0F7F905B000BD00B58DB001210846F9
:1033200000F0B5FF3B4800F081FB39484C3002907B
:1033300039480390002004900A2005900020069050
:1033400080200790400008908000099020200A907B
:1033500000020B9000200C9002A92E4800F008FCFF
:10336000012202212B4800F03AFC0B208DF80400CA
:1033700002208DF805008DF8060001208DF8070069
:1033800001A800F0C2F80121224800F01CFC0DB099
:1033900000BD10B5214B00220321022000F05AF895
:1033A00010BD10B5FFF7F5FFFFF7B6FFFFF76EFF93
:1033B0000121174800F065F90121154800F0A1F935
:1033C00010BD10B50022002014E0002107E0124BD0
:1033D00003EB410333F810301A444B1CD9B20A29CD
:1033E000F5DB0A2392FBF3F30D4C24F81030002296
:1033F000431CD8B20128E8DB10BD10B5022000F054
:103400001BFC20B1FFF7DDFF022000F028FC10BDFF
:103410000024014008000240E406002000080140AA
:10342000AC04002010B54FF4A06000F069F810BDA6
:10343000F8B506460C4615468DF800608DF801403B
:103440008DF8025001208DF80300684600F05DF809
:10345000F8BD0000F8B505460E4617461C46214843
:10346000844204D10121042000F01EFF2EE01E48FA
:10347000844204D10121082000F016FF26E01B48F9
:10348000844204D10121102000F00EFF1EE01848F4
:10349000844204D10121202000F006FF16E01548E7
:1034A000844204D10121402000F0FEFE0EE01248CB
:1034B000844204D10121802000F0F6FE06E00F488E
:1034C000844203D10121801500F0EEFEADF80050DA
:1034D0008DF803708DF802606946204600F02EFCDE
:1034E000F8BD000000080140000C01400010014040
:1034F0000014014000180140001C01400020014060
:1035000031490143314A1160704770B500210023F1
:103510000F22C4780CB32D4C246804F4E064C4F585
:10352000E064210AC1F10403CA40447804FA03F1BB
:103530008478144021430901254C0678A15504786C
:1035400004F01F050124AC4005786D114FF0E02612
:1035500006EB8505C5F8004109E0047804F01F0575
:103560000124AC401B4D0678761145F8264070BD0D
:10357000194A0A400243154B1B1F1A60704739B1A4
:10358000124A121D12680243104B1B1D1A6006E0FE
:103590000E4A121D126882430C4B1B1D1A607047A5
:1035A000042808D14FF0E021096941F004014FF0EF
:1035B000E022116107E04FF0E021096921F00401E8
:1035C0004FF0E022116170470000FA050CED00E0B9
:1035D00000E400E080E100E080FFFF1F10B504463A
:1035E000FA48844208D10121401500F077FE0021FD
:1035F000601500F073FE17E0F548844208D1012100
:10360000001500F06BFE0021201500F067FE0BE0B6
:10361000F048844208D10121C80300F05FFE002178
:103620004FF4004000F05AFE10BD30B502460020B5
:1036300000235068E84C20400D790C6844EA0524CA
:10364000204350609068E54C2040D1E902542C435F
:103650004D7944EA450420439060D06A20F470001C
:103660000C7C641EE4B2234340EA0350D06230BDB8
:1036700000210160017141718160C160012101740B
:10368000704721B1826842F00102826003E08268E3
:1036900022F001028260704721B1826842F4807298
:1036A000826003E0826822F480728260704710B505
:1036B0000023CBB21AB144681C43446002E0446862
:1036C0009C43446010BD816841F0080181607047EF
:1036D000014600208A6812F0080F01D0012000E0A6
:1036E00000207047816841F0040181607047014605
:1036F00000208A6812F0040F01D0012000E00020B1
:10370000704721B1826842F4A002826003E08268BF
:1037100022F4A00282607047014600208A6812F4F9
:10372000800F01D0012000E00020704710B50A464C
:1037300000210023416821F46041531E41EA4331D6
:10374000416010BD21B1426842F40062426003E072
:10375000426822F4006242607047F0B504460D46AC
:1037600000200021092D11DDE068A5F10A0606EB15
:103770004607072606FA07F18843A5F10A0606EB75
:10378000460603FA06F10843E0600CE0206905EB09
:103790004507072606FA07F1884305EB450603FAB5
:1037A00006F108432061072A0FDA606B561E06EB0C
:1037B00086071F2606FA07F18843561E06EB860683
:1037C00005FA06F10843606322E00D2A0FDA206B48
:1037D000D61F06EB86071F2606FA07F18843D61F79
:1037E00006EB860605FA06F10843206310E0E06A5E
:1037F000A2F10D0606EB86071F2606FA07F188439D
:10380000A2F10D0606EB860605FA06F10843E06212
:10381000F0BD21B1826842F48012826003E08268C8
:1038200022F48012826070470146C86C80B27047F3
:1038300066484C300068704721B1426842F48062AB
:10384000426003E0426822F480624260704721B126
:10385000426842F48052426003E0426822F480529F
:10386000426070470A460021816821F4E04111431B
:103870008160704721B1826842F40042826003E0B7
:10388000826822F400428260704721B1826842F46B
:103890000212826003E0826822F4021282607047A2
:1038A000014600208A6812F4001F01D0012000E0C8
:1038B00000207047F0B5044615460020002200267F
:1038C000092911DDE068A1F10A0707EB470C07277A
:1038D00007FA0CF29043A1F10A0707EB470703FA36
:1038E00007F21043E0600CE0206901EB410C072770
:1038F00007FA0CF2904301EB410703FA07F2104379
:103900002061A06BC0F30156EF1C06F1010CA7EB80
:103910000C0707EB870C1F2707FA0CF29043EF1CEC
:1039200006F1010CA7EB0C0707EB870701FA07F27A
:103930001043A063F0BD10B50A4600210023816B3F
:1039400021F44011531E41EA0351816310BD08B5B3
:10395000002300930090009B0B440093009B1A608F
:1039600008BD08B5024600200090009201F1280031
:10397000009B184400900098006880B208BD0A4679
:1039800000214168164B1940114341607047416264
:10399000826270470A460021416821F01F011143ED
:1039A0004160704740B109490831096841F400019C
:1039B000064A0832116007E004490831096821F419
:1039C0000001024A083211607047000000240140E3
:1039D00000280140003C0140FFFEF0FFFDF7F1FF31
:1039E000FFFD3FFF0246002013680B4201D001207B
:1039F00000E000207047CA430260704770B502467D
:103A00000020002300240B125568CEB205EA0604FC
:103A100015681D4202D00CB1012000E0002070BDED
:103A200000220A12D34303607047000001684FF67A
:103A3000FE72114001600021016041608160C1603F
:103A40008C49884208D18B490839496841F00F01F7
:103A5000884A083A51608AE086491431884208D180
:103A600084490839496841F0F001824A083A5160B6
:103A70007DE080492831884208D17E49083949686B
:103A800041F470617B4A083A516070E079493C31F9
:103A9000884208D177490839496841F47041754A2C
:103AA000083A516063E073495031884208D1714946
:103AB0000839496841F470216E4A083A516056E06D
:103AC0006C496431884208D16A490839496841F42F
:103AD0007001684A083A516049E066497831884285
:103AE00008D164490839496841F07061614A083A6F
:103AF00051603CE06049884206D1011F096841F0ED
:103B00000F01021F116032E05B491431884208D175
:103B10005949091F096841F0F001574A121F116005
:103B200025E055492831884208D15349091F0968C1
:103B300041F47061504A121F116018E04E493C3147
:103B4000884208D14C49091F096841F470414A4A2A
:103B5000121F11600BE048495031884207D1464995
:103B6000091F096841F47021434A121F1160704710
:103B700010B50022026847F6F0739A430C6A8B680E
:103B800023430C6923434C6923438C692343CC6949
:103B900023434C6A23438C6A23431A430260CB6855
:103BA00043600B6883604B68C36010BD00210160F7
:103BB00041608160C160016141618161C1610162F7
:103BC00041628162704721B1026842F001020260E5
:103BD00004E002684FF6FE731A40026070471AB1A3
:103BE00003680B43036002E003688B430360704784
:103BF000416070470146486880B270470146002026
:103C0000002211F0805F03D01B4B083B1A6802E0D2
:103C1000184B083B1A680A4201D0012000E000203E
:103C2000704710F0805F03D01349091F086002E05D
:103C3000104908394860704701460020002211F001
:103C4000805F03D00C4B083B1A6802E0094B083B2D
:103C50001A680A4201D0012000E00020704710F0ED
:103C6000805F03D00449091F086002E00149083958
:103C700048607047080002400804024010B504463E
:103C8000CA48844208D10121042000F027FB00210A
:103C9000042000F023FB46E0C548844208D10121FE
:103CA000082000F01BFB0021082000F017FB3AE081
:103CB000C048844208D10121102000F00FFB0021F0
:103CC000102000F00BFB2EE0BB48844208D10121FC
:103CD000202000F003FB0021202000F0FFFA22E06A
:103CE000B648844208D10121402000F0F7FA0021B3
:103CF000402000F0F3FA16E0B148844208D10121D7
:103D0000802000F0EBFA0021802000F0E7FA0AE0C2
:103D1000AC48844207D10121801500F0DFFA002170
:103D2000A01500F0DBFA10BD10B50121084600F027
:103D3000D5FA0021012000F0D1FA10BD2DE9F041A3
:103D4000024600250026002000230024002791F8C9
:103D500003C00CF00F0591F803C01CF0100F03D046
:103D600091F802C04CEA050591F800C0BCF1000FC3
:103D700031D0146800202BE04FF0010C0CFA00F356
:103D8000B1F800C00CEA03069E4220D183004FF038
:103D90000F0C0CFA03F7BC4305FA03FC4CEA0404CD
:103DA00091F803C0BCF1280F06D14FF0010C0CFABA
:103DB00000FCC2F814C00AE091F803C0BCF1480F3F
:103DC00005D14FF0010C0CFA00FCC2F810C0401CE9
:103DD0000828D1D31460B1F800C0BCF1FF0F34DD66
:103DE000546800202EE000F1080C4FF0010808FA9A
:103DF0000CF3B1F800C00CEA03069E4221D1830007
:103E00004FF00F0C0CFA03F7BC4305FA03FC4CEA25
:103E1000040491F803C0BCF1280F05D100F1080C8F
:103E200008FA0CF8C2F8148091F803C0BCF1480FEE
:103E300007D100F1080C4FF0010808FA0CF8C2F89D
:103E40001080401C0828CED35460BDE8F0814FF6A6
:103E5000FF710180022181700421C1707047024608
:103E6000002093680B4201D0012000E00020704741
:103E70000146886880B2704702460020D3680B4232
:103E800001D0012000E0002070470146C86880B2E0
:103E9000704701617047416170470AB1016100E0FC
:103EA00041617047C16070474FF480320A438261BC
:103EB0008161826182698269704702460020424BBB
:103EC00018684FF68073184040EA021008433E4BD2
:103ED000186070473D49C8617047F0B50A46002335
:103EE00000240021002500F00046B6F1004F02D169
:103EF000354EF16901E0344E7168C0F3034583B279
:103F000000F44016B6F5401F08D121F070612E4E26
:103F1000766826F070662C4F7E6012E000F4801602
:103F2000B6F5801F06D1032606FA05F4A14341F039
:103F3000706106E0460D360103FA06F6B14341F022
:103F4000706122B1460D360103FA06F6314300F0E6
:103F50000046B6F1004F02D11B4EF16101E01A4E4E
:103F60007160F0BD30B500228B071C0F0F2303FAE0
:103F700004F2154B08338C1053F824309343124C41
:103F800008348D1044F8253023468C1053F8243023
:103F90008C07240F00FA04F423430B4C08348D10D3
:103FA00044F8253030BD0A490860704700080140D8
:103FB000000C0140001001400014014000180140B5
:103FC000001C014000200140000001400000204290
:103FD000DC002042DD48006840F00100DB49086059
:103FE00008464068DA490840D849486008460068F1
:103FF000D8490840D54908600846006820F4802068
:1040000008600846406820F4FE0048604FF41F0036
:1040100088607047CD49096821F48031CB4A11602E
:104020001146096821F480211160B0F5803F03D06A
:10403000B0F5802F0ED106E0C449096841F4803103
:10404000C24A116007E0C149096841F4A021BF4A92
:10405000116000E000BF00BF704710B501460022AC
:10406000002300204A11012A02D1B84C236806E03F
:10407000022A02D1B54C236A01E0B44C636A01F014
:104080001F02012494401C4201D0012000E00020C6
:1040900010BD38B5002000900024002500BF31205D
:1040A000FFF7DBFF05460098401C00900098B0F534
:1040B000A06F01D0002DF2D03120FFF7CEFF08B164
:1040C000012400E00024204638BD014600209F4A1C
:1040D000106820F0F80040EAC100106070479E4967
:1040E0000860704702460020984B586820F47C1006
:1040F00042EA01031843954B586070479649086699
:10410000704701460020914A506820F003000843A0
:10411000506070478D48406800F00C0070470146C1
:1041200000208A4A506820F0F00008435060704731
:1041300001460020854A506820F4E0600843506042
:10414000704701460020814A506820F4605040EAE0
:10415000C1005060704729B17C4A527A02437B4BC0
:104160005A7204E0794A527A8243784B5A72704705
:104170007A490860704701460020744A506820F46C
:1041800040400843506070470021754A11706F4AE3
:1041900082F82010012802D0042808D103E0012170
:1041A0006F4A117004E005216D4A117000E000BFF4
:1041B00000BF70476B49086070476449096A014352
:1041C000624A11627047674944390860704730B5E8
:1041D00000210022002400235C4D6D6805F00C01D5
:1041E00021B1042905D0082923D105E05E4D0560E1
:1041F00022E05D4D05601FE0544D6D6805F47012BE
:10420000524D6D6805F48034022505EB92421CB9CD
:10421000564D554305600BE04C4D6D6815F4003F5D
:1042200003D0524D5543056002E04F4D55430560A4
:1042300002E04D4D056000BF00BF444D6D6805F0C4
:10424000F00109094A4D6B5C0568DD4045603F4D52
:104250006D6805F4E061090A454D6B5C4568DD4019
:1042600085603A4D6D6805F46051C90A404D6B5C3C
:104270004568DD40C560354D6D6805F44041890BEA
:104280003C4D6B5CC568B5FBF3F5056130BD29B1EC
:104290002E4A526902432D4B5A6104E02B4A52695F
:1042A00082432A4B5A61704729B1284A92690243D6
:1042B000264B9A6104E0254A92698243234B9A6116
:1042C000704729B1214AD2690243204BDA6104E0E8
:1042D0001E4AD26982431D4BDA61704729B11B4ADD
:1042E000D2680243194BDA6004E0184AD26882436C
:1042F000164BDA60704729B1144A12690243134B16
:104300001A6104E0114A12698243104B1A61704726
:1043100014494039086070470F49C86470470B4919
:10432000C87170470948406A40F080700749486288
:10433000704701460020054A92680A4201D00120D8
:1043400000E0002070470149887270470010024069
:104350000000FFF8FFFFF6FE00004242D800424294
:10436000201002408004424200127A0000093D0001
:10437000AE040020BE04002010B50446FE4884426E
:1043800008D10121C014FFF7A9FF0021E014FFF7B5
:10439000A5FFC4E0B4F1804F08D101210846FFF722
:1043A000AAFF00210120FFF7A6FFB8E0F3488442EE
:1043B00008D101210220FFF79EFF00210220FFF714
:1043C0009AFFACE0EE48844208D101210420FFF7B7
:1043D00092FF00210420FFF78EFFA0E0E94884420D
:1043E00008D101210820FFF786FF00210820FFF7F0
:1043F00082FF94E0E448844208D101211020FFF7B5
:104400007AFF00211020FFF776FF88E0DF48844222
:1044100008D101212020FFF76EFF00212020FFF7A7
:104420006AFF7CE0DA48844208D101214014FFF79A
:1044300055FF00216014FFF751FF70E0D54884421A
:1044400009D10121C804FFF749FF00214FF40020E2
:10445000FFF744FF63E0D048844209D101210805F9
:10446000FFF73CFF00214FF48010FFF737FF56E0C5
:10447000CA48844209D101214805FFF72FFF0021D6
:104480004FF40010FFF72AFF49E0C548844208D1E5
:1044900001214020FFF72FFF00214020FFF72BFFD5
:1044A0003DE0C048844208D101218020FFF723FF6E
:1044B00000218020FFF71FFF31E0BB48844208D174
:1044C00001218015FFF717FF0021A015FFF713FF4B
:1044D00025E0B648844209D101210804FFF7FEFE19
:1044E00000214FF48030FFF7F9FE18E0B048844215
:1044F00009D101214804FFF7F1FE00214FF40030FB
:10450000FFF7ECFE0BE0AB48844208D101218804A0
:10451000FFF7E4FE00214FF48020FFF7DFFE10BD1F
:1045200000220288944B98420ED0994B98420BD0AF
:10453000B0F1804F08D0914B984205D0904B9842F3
:1045400002D0904B984204D14FF68F731A404B889B
:104550001A438D4B984207D08C4B984204D04FF6AB
:10456000FF431A40CB881A4302808B8883850B88CF
:104570000385814B98420BD0854B984208D08B4BDA
:10458000984205D08A4B984202D08A4B984201D17A
:104590000B7A038601238382704770B500240022C2
:1045A0000023058C4FF6FE7635400584028C838807
:1045B000048B4FF68F752C40B51E2C400D882C4374
:1045C000751E2A400D892A434D882A436A4DA84208
:1045D0000BD06F4DA84208D0744DA84205D0744D41
:1045E000A84202D0734DA84213D14FF6F7752A4066
:1045F0004D892A434FF6FB752A408D882A434FF692
:10460000FF652B404FF6FF552B408D892B43CD89FD
:104610002B4383800483CD888586028470BD70B56A
:10462000002400220023058C4FF6EF7635400584E8
:10463000028C8388048B48F6FF752C404FF6FF45AB
:104640002C400D884FF6FF7606EA05252C434FF6E1
:10465000DF752A400D8906EA05152A434D8806EACA
:1046600005152A43444DA84202D0494DA8421DD108
:104670004FF67F752A404D894FF6FF7606EA0515FD
:104680002A434FF6BF752A408D8806EA05152A434E
:104690004FF6FF352B404FF2FF752B408D8906EA10
:1046A00085052B43CD8906EA85052B43838004834A
:1046B000CD880587028470BD70B5002400220023D8
:1046C000058C4FF6FF6635400584028C8388848B09
:1046D0004FF68F752C404FF6FC752C400D882C43FF
:1046E0004FF6FF552A400D894FF6FF7606EA05255D
:1046F0002A434D8806EA05252A431F4DA84202D0C9
:10470000234DA8421DD14FF2FF752A404D894FF627
:10471000FF7606EA05252A434FF6FF352A408D88A5
:1047200006EA05252A434EF6FF752B404DF6FF7528
:104730002B408D8906EA05152B43CD8906EA051520
:104740002B4383808483CD888587028470BD70B5B8
:10475000002200230024058C4EF6FF7635400584A8
:10476000038C8488828B48F6FF752A404FF6FF45FC
:104770002A400D8820E00000002C01400004004089
:1047800000080040000C00400010004000140040F1
:1047900000340140004C01400050014000540140F1
:1047A00000180040001C0040002000400040014074
:1047B00000440140004801404FF6FF7606EA052517
:1047C0002A434DF6FF752B400D8906EA05352B432C
:1047D0004D8806EA05352B43FA4DA84202D0FA4D22
:1047E000A84208D14BF6FF752C408D894FF6FF7615
:1047F00006EA85152C4384808283CD88A0F840503A
:10480000038470BD828B4FF2FF331A408283828B08
:104810004FF6FF7303EA01231A4382837047F0B512
:104820000C461546002200210026078C4EF6FF7C20
:1048300007EA0C070784828B018C4FF6FF7707EAA3
:10484000043640F6FF473A404FF6FF7707EA052760
:104850003A434FF6FF7707EA03373A43D94FB84256
:104860000ED0D94FB8420BD0B0F1804F08D0D74FFF
:10487000B84205D0D64FB84202D0D64FB84206D182
:104880004DF6FF77394046F48057394305E047F647
:10489000FF57394044F48057394382830184F0BD87
:1048A000828B4FF6F3731A408283828B0A43828392
:1048B0007047F0B50C461546002200210026078CF3
:1048C0004FF6FF6C07EA0C070784828B018C4FF6CA
:1048D000FF7707EA04264FF60C773A404FF6FF774A
:1048E00007EA03172F433A43B64FB8420ED0B64FEC
:1048F000B8420BD0B0F1804F08D0B44FB84205D0C9
:10490000B34FB84202D0B34FB84206D14FF6FF576B
:10491000394046F48077394305E04FF2FF5739407C
:1049200044F48077394382830184F0BD028B4FF2D7
:10493000FF331A400283028B4FF6FF7303EA012311
:104940001A4302837047F0B50C4615460022002139
:104950000026078C4FF6EF7C07EA0C070784028BD2
:10496000018C4FF6FF7707EA041640F6FF473A40FE
:104970004FF6FF7707EA03373A434FF6FF7707EA28
:1049800005273A438F4FB8420ED08F4FB8420BD015
:10499000B0F1804F08D08D4FB84205D08C4FB8424F
:1049A00002D08C4FB84206D14FF6DF77394046F03F
:1049B0001007394305E04FF65F77394044F01007A0
:1049C000394302830184F0BD028B4FF6F3731A4022
:1049D0000283028B0A4302837047F0B50C461546EA
:1049E00000220021068C4FF6FE773E400684028BA3
:1049F000018C4FF60C7632407E1C06EA03162E43DD
:104A00003243704EB0420ED06F4EB0420BD0B0F178
:104A1000804F08D06D4EB04205D06D4EB04202D0EE
:104A20006C4EB04206D14FF6FD76314044F001069F
:104A3000314305E04FF6F576314044F0010631434D
:104A400002830184F0BD70B505460C465D48854281
:104A50000ED05D4885420BD0B5F1804F08D05B4841
:104A6000854205D05A48854202D05A48854200D135
:104A700000E000BF208850B92389A28861882846B9
:104A8000FFF7ABFFE1882846FFF79EFF25E020886F
:104A900004280AD12389A28861882846FFF753FF9A
:104AA000E1882846FFF742FF17E0208808280AD14E
:104AB0002389A28861882846FFF7FBFEE188284603
:104AC000FFF7EEFE09E02389A28861882846FFF7F8
:104AD000A6FEE1882846FFF795FE70BD2DE9F0415E
:104AE00005460C4600260127608808B9022600E02A
:104AF0000026A088012801D1022700E00127208894
:104B0000A0B92389A28861882846FFF766FFE1885B
:104B10002846FFF759FF23893A4631462846FFF7D2
:104B200012FFE1882846FFF701FF13E02389A288DE
:104B300061882846FFF707FFE1882846FFF7F6FE61
:104B400023893A4631462846FFF747FFE188284641
:104B5000FFF73AFFBDE8F0810A884B881A438B883B
:104B60001A43CB881A430B891A434B891A438B8902
:104B70001A43A0F8442070474FF6FF71818000214E
:104B80000180C18041800172704700210180418015
:104B90008180C180018141818181C1817047002173
:104BA00001804180012181800021C1800181704705
:104BB0000021018041808180C1800181418181810A
:104BC00070470000002C0140003401400004004008
:104BD00000080040000C004021B1028842F00102B0
:104BE000028004E002884FF6FE731A40028070478C
:104BF00031B1B0F8442042F40042A0F8442005E06E
:104C0000B0F84420C2F30E02A0F8442070471AB155
:104C100083890B43838102E083898B4383817047BF
:104C20008182704741EA0203A0F8483070471AB108
:104C300083890B43838102E083898B43838170479F
:104C400001894FF6F8721140018170470A46002130
:104C500001894FF68F73194011430181704730B5B8
:104C600004460D4629462046FFF7F0FF208940F014
:104C70000700208130BD2DE9F04104460D4616465F
:104C80001F46602D06D13B46012231462046FFF7E4
:104C90005AFE05E03B46012231462046FFF79DFEC5
:104CA00029462046FFF7D2FF208940F007002081E7
:104CB000BDE8F08130B50C4600210189C9B24FF63C
:104CC000FF7505EA0325154325432943018130BDBE
:104CD0002DE9F04105460E46174698460024434606
:104CE0003A4631462846FFF7E5FF2C894FF6F87023
:104CF000044044F007044FF68F70044044F0700401
:104D00002C81BDE8F081F0B504460D4616461F46DD
:104D10003B46324629462046FFF7CCFF208940F427
:104D200080402081F0BD0185828270470A460021C3
:104D300001884FF68F731940114301807047F0B519
:104D40000C4615461E460021002200230189028BD5
:104D5000038C4FF6F877394021434FF6FC473A4031
:104D600040F201173A434FF6DD773B404FF6FF77AD
:104D700007EA06172F433B43018102830384F0BDFA
:104D80000A460021018B4FF68F73194011430183AE
:104D900070470A460021018B48F6FF7319404FF611
:104DA000FF7303EA02231943018370470A46002177
:104DB000818B4FF68F7319401143818370470A46E8
:104DC0000021818B48F6FF7319404FF6FF7303EA09
:104DD000022319438183704721B1028842F0800287
:104DE000028004E002884FF67F731A400280704709
:104DF00021B1828842F00402828004E082884FF66A
:104E0000FB731A408280704721B1828842F0080209
:104E1000828004E082884FF6F7731A4082807047E0
:104E200021B1828842F00102828004E082884FF63C
:104E3000FE731A40828070470A460021018B4FF6AC
:104E4000F77319401143018370470A460021018B13
:104E50004FF2FF7319404FF6FF7303EA0223194321
:104E6000018370470A460021818B4FF6F773194082
:104E70001143818370470A460021818B4FF2FF73F3
:104E800019404FF6FF7303EA0223194381837047E9
:104E90000A460021018B4FF6FB7319401143018331
:104EA00070470A460021018B4FF6FF3319404FF639
:104EB000FF7303EA02231943018370470A46002166
:104EC000818B4FF6FB7319401143818370470A466B
:104ED0000021818B4FF6FF3319404FF6FF7303EA31
:104EE00002231943818370470A460021018B4FF644
:104EF0007F7319401143018370470A460021018BDB
:104F0000C1F30E014FF6FF7303EA02231943018335
:104F100070470A460021818B4FF67F731940114379
:104F2000818370470A460021818BC1F30E014FF641
:104F3000FF7303EA02231943818370470A46002165
:104F4000018C4FF6FD7319401143018470470A46E6
:104F50000021018C4FF6F77319401143018470470B
:104F60000A460021018C4FF6DF7319404FF6FF739C
:104F700003EA02131943018470470A460021018C99
:104F80004FF67F7319404FF6FF7303EA021319437C
:104F9000018470470A460021018C4FF6FF531940E7
:104FA0004FF6FF7303EA02231943018470470A4650
:104FB0000021018C4FF2FF7319404FF6FF7303EA93
:104FC00002231943018470470A460021018C4DF6E3
:104FD000FF7319404FF6FF7303EA0233194301844C
:104FE000704730B5002301248C40A3B2048C9C434D
:104FF0000484048C02FA01F5ADB22C43048430BD64
:1050000030B5002304248C40A3B2048C9C43048458
:10501000048C02FA01F5ADB22C43048430BD70B5A6
:105020000346002000241846183001258D40ACB2FC
:105030001D8CA5431D8409B1082909D100EB61002D
:10504000056825F0700505600568154305600EE0EC
:105050000D1FC5F34E052844056825F4E04505609D
:1050600005684FF6FF7606EA02263543056070BDF7
:1050700021B1028842F00202028004E002884FF669
:10508000FD731A400280704721B1028842F0040289
:10509000028004E002884FF6FB731A4002807047DA
:1050A00021B1828842F08002828004E082884FF63B
:1050B0007F731A408280704702884FF6F7731A4058
:1050C000028002880A430280704782884FF68F73FD
:1050D0001A40828082880A438280704702894FF694
:1050E000F8731A40028102890A43028170470289DB
:1050F0004FF67F731A40028102890A43028170478A
:105100008184704781857047818670470187704729
:1051100081877047A0F84010704702884FF6FF4320
:105120001A40028002880A43028070470146888E36
:1051300070470146088F70470146888F70470146C7
:10514000B1F8400070470146888C70470146088DD1
:10515000704702460020138A0B4201D0012000E074
:1051600000207047CA430282704730B502460020D3
:1051700000230024158A05EA0103958905EA010444
:1051800013B10CB1012000E0002030BDCA430282FF
:105190007047000010B50446FB48844209D1012144
:1051A0008803FFF79BF800214FF48040FFF796F843
:1051B00032E0F648844209D101214804FFF79BF808
:1051C00000214FF40030FFF796F825E0F0488442C4
:1051D00009D101218804FFF78EF800214FF48020C7
:1051E000FFF789F818E0EB48844209D10121C8048F
:1051F000FFF781F800214FF40020FFF77CF80BE067
:10520000E548844208D101210805FFF774F8002120
:105210004FF48010FFF76FF810BD2DE9F04786B00E
:1052200005460E460024A24600BFA1460027B089CD
:1052300000B100BF2F462C8A4CF6FF700440F08866
:1052400004432C82AC894EF6F3100440B0883189B7
:105250000843718908430443AC81AC8A4FF6FF4090
:105260000440B0890443AC8201A8FEF7B0FFC648F1
:10527000874202D1DDF810A001E0DDF80CA0A8897A
:1052800010F4004F08D00AEBCA0000EB0A10316896
:105290004900B0FBF1F807E00AEBCA0000EB0A1086
:1052A00031688900B0FBF1F86420B8FBF0F004012C
:1052B0002009642101FB1089A88910F4004F08D04F
:1052C000322000EBC900B0FBF1F000F0070004430E
:1052D00008E0322000EB09106421B0FBF1F000F08F
:1052E0000F0004432C8106B0BDE8F0874FF416513F
:1052F000016000218180C18001810C214181002158
:105300008181704710B502460020108A4FF2FF03DA
:1053100018400B884C8823438C882343CC88234334
:105320001843108210BD0021018041808180C1801E
:10533000704721B1828942F40052828104E082895F
:105340004DF6FF731A4082817047F0B50346002482
:10535000002600250020A1F510676A3F00D100BF9C
:105360001846C1F3421401F01F06012707FA06F59B
:10537000012C01D10C3004E0022C01D1103000E0EE
:1053800014301AB107682F43076002E00768AF4383
:105390000760F0BD1AB1838A0B43838202E0838ADF
:1053A0008B4383827047028A4FF6F0731A40028261
:1053B000028A0A430282704782894FF2FF731A40C1
:1053C000828182890A438281704721B1828942F0B9
:1053D0000202828104E082894FF6FD731A408281C5
:1053E0007047028A4FF6DF731A400282028A0A432C
:1053F0000282704721B1028A42F48042028204E0B4
:10540000028A4BF6FF731A4002827047C1F308020A
:105410008280704701468888C0F308007047818900
:1054200041F0010181817047028BD2B20283028B6D
:1054300042EA012202837047028B02F47F42028318
:10544000028B0A430283704721B1828A42F0200214
:10545000828204E0828A4FF6DF731A4082827047AC
:1054600021B1828A42F01002828204E0828A4FF6E1
:10547000EF731A408282704721B1828A42F008029B
:10548000828204E0828A4FF6F7731A408282704764
:1054900021B1828942F40042828103E08289C2F311
:1054A0000E028281704721B1828A42F400628282B8
:1054B00004E0828A4FF2FF731A4082827047828A28
:1054C0004FF6FB731A408282828A0A4382827047B7
:1054D00021B1828A42F00202828204E0828A4FF67F
:1054E000FD731A408282704702460020B1F5007FAA
:1054F00000D100BF13880B4201D0012000E0002042
:10550000704701F40072B2F5007F00D100BFCA43BA
:105510000280704770B50246002400230025002059
:10552000A1F510666A3E00D100BFC1F3421501F03B
:105530001F03012606FA03F3012D02D19689334099
:1055400006E0022D02D1168A334001E0968A3340EC
:105550000C12012606FA04F41688344013B10CB17B
:10556000012000E0002070BD10B500220023A1F54D
:1055700010646A3C00D100BF0A1201249440A3B217
:10558000DC43048010BD00000038014000440040AE
:1055900000480040004C00400050004010B5012180
:1055A0000807FEF7A8FE00214FF08050FEF7A3FE8B
:1055B00010BD2949086270472749086170470146B4
:1055C0000020264A106820F0E00008431060704771
:1055D00023490860704710B5024600201F4B186829
:1055E00020F00300104318601E4B1B6843F00403B7
:1055F0001C4C2360012901D130BF00E020BF194BB2
:105600001B6823F00403174C236010BD1348006887
:1056100040F00400114908600846006840F00200AC
:1056200008601048006840F004000E49086000BFA0
:1056300000BF30BF704701460020084A52680A4246
:1056400001D0012000E0002070470449096841EAC8
:105650008001024A1160704700000E420070004055
:10566000A0000E4210ED00E0002044490860091D32
:105670000860091D0860091D086041483F49143150
:105680000860704700213D498279002A3AD00A46D5
:10569000126803689A430B461A600A1D1268036871
:1056A0009A430B1D1A60027911440A6803681A4371
:1056B0000A60324A0832126803689A432F4B083353
:1056C0001A601A1D126803689A432C4B0C331A6037
:1056D0004279102A0ED11A1F126803681A43274B09
:1056E00008331A601A1D126803681A43234B0C33DF
:1056F0001A600DE02149427911440A6803681A438F
:105700000A6005E0027911440A6803689A430A6056
:1057100070470021016001710C21417100218171EC
:1057200070471649103109680143144A103211605C
:10573000704701460020114A143212680A4201D013
:10574000012000E0002070470C49143108607047C8
:10575000014600200022094B1B6803EA0102074BA7
:1057600014331B680B4202D00AB1012000E0002074
:10577000704702491431086070470000000401407E
:10578000FFFF0F0029B14F4A128802434D4B1A8088
:1057900004E04C4A128882434A4B1A8070474948B9
:1057A000001D008840F010004649091D0880704720
:1057B0004448001D00884FF6EF7108404149091D1B
:1057C0000880704700213F481C300188001F008876
:1057D00041EA0040704700B50246FFF7E0FF100CB9
:1057E000384918310880091D0A80FFF7E1FF00BD24
:1057F00000B50246FFF7D3FFC2F303403149083139
:105800000880091D0A80FFF7D3FF00BD00B50246DE
:10581000FFF7C5FF100C2B4920310880091D0A80B5
:10582000FFF7C6FF00BD002026491031098809078F
:10583000080B2449143109880843704700BF2148E8
:10584000001D008810F0200FF9D070471D48001D82
:1058500000884FF6F77108401A49091D088000BFFB
:105860001848001D008810F0080FF9D07047014655
:105870000020144A121D12880A4201D0012000E0C3
:10588000002070470F49091D098881430D4A121DE8
:1058900011807047014600200A4A121D12880A40F2
:1058A000D0B2084A12880A4202D008B1012000E0B2
:1058B000002070470349091D09888143014A121DD0
:1058C000118070470028004010B50446BE4884424D
:1058D00008D101218014FEF701FD0021A014FEF77C
:1058E000FDFC16E0B948844208D101210014FEF7FE
:1058F00002FD00212014FEF7FEFC0AE0B4488442B9
:1059000007D10121C013FEF7F6FC0021E013FEF7DA
:10591000F2FC10BD10B50022028802F441520B883F
:105920004C8823438C882343CC8823430C8923430E
:105930004C8923438C892343CC8923431A43028017
:10594000838B4FF2FF74234083830B8A038210BD45
:105950002DE9F04F85B005460C464FF000090227AF
:105960004FF000084FF0010B0026B246A88B4FF213
:1059700040010840A88302202884B5F81C90A06844
:10598000022801D100BF38E0A08810B94FF0010B08
:1059900001E04FF0020B8D48854200D100E000BFCE
:1059A0006846FEF714FCDDF800A0E088B0F5007F43
:1059B0000AD14FEA1A2000EB80004000A168B0FB3A
:1059C000F1F0401D86B20BE04FEA4B10BAFBF0F04D
:1059D00000EB80004000A168B0FBF1F0401D86B2F2
:1059E0000A20B6FBF0F606F00108A6EB0800C0F3AB
:1059F0004F074FF6FF7000EA0828022F01DBFF2F48
:105A000002DD02274FF00008E08840EA0800384332
:105A10002884A088A1890843618808432188084315
:105A200040F4006040EA0909A5F81C9005B0BDE803
:105A3000F08F0021018041808180C18001814181FE
:105A40008181C1810721018270470021018041804D
:105A50008180C1800221816000218181704721B154
:105A6000028842F04002028004E002884FF6BF73D1
:105A70001A400280704721B1828B42F48062828397
:105A800004E0828B4FF6FF331A408283704730B5B3
:105A9000002400230C110125A540ABB21AB1858862
:105AA0001D43858002E085889D43858030BD1AB105
:105AB00083880B43838002E083888B438380704715
:105AC00081817047014688897047A1F57E42FF3A7F
:105AD00004D0028842F48072028004E002884FF60B
