:020000040800F2
:1000000000230020D9430008730400087F0400087F
:1000100091040008AD040008C104000800000000BD
:10002000000000000000000000000000D5040008EF
:10003000E104000800000000ED04000815050008B8
:10004000F3430008F3430008F3430008F3430008B8
:10005000F3430008F3430008D7030008F343000804
:10006000F3430008F3430008F34300082F1D000882
:10007000F3430008F3430008F3430008F343000888
:10008000F3430008F3430008F3430008F343000878
:10009000F3430008F3430008F3430008F343000868
:1000A000F3430008F3430008F3430008F343000858
:1000B000F9030008270400084D040008F343000872
:1000C000F3430008F3430008F3430008F343000838
:1000D000F3430008F1120008231300085513000829
:1000E000F343000817050008F3430008DFF810D0B9
:1000F00004F0B8F904F082F90048004769030008E9
:100100000023002010B502F0FFFB4FF4803002F016
:100110001BFC02F058FCF8490870084600780128DA
:1001200024D1002002F095FC002002F0A4FC4FF442
:10013000806002F097FC4FF4E0114FF4803002F041
:100140006BFC012002F074FC01211D2002F046FD31
:1001500000BF392002F01BFC0028FAD0022002F078
:100160006AFC00BF02F070FC0828FBD110BD10B57E
:100170004FF4803002F0E8FB02F025FCDE49087005
:100180000846007801280FD102F052FC00BF392048
:1001900002F0FDFB0028FAD0022002F04CFC00BF68
:1001A00002F052FC0828FBD110BD08B54FF6C04044
:1001B000ADF8000010208DF8030003208DF8020038
:1001C0006946CE4802F054FA0120ADF80000042040
:1001D0008DF803006946CA4802F04AFA08BD1CB50A
:1001E0000021084602F058FB012003F05CFF0120CB
:1001F000009000208DF804000C208DF805000120EF
:100200008DF80600684603F0D7FE1CBD10B501202E
:1002100003F069FE012002F051FC00BF412002F012
:10022000B6FB0028FAD04FF4807002F060FC012089
:1002300002F063FC03F0A4FF47F6FF7003F072FFC7
:1002400003F096FF0121022003F036FF03F090FF38
:1002500010BD08B500214FF0006001F023FE4FF4FF
:10026000C06001F0E7FD29208DF8000000208DF826
:1002700001008DF8020001208DF80300684601F0AE
:10028000DEFD06208DF8000000208DF80100684694
:1002900001F0D5FD08BD704770471FB5012104204E
:1002A00002F09CFC0121080702F0A5FC0121084690
:1002B00002F094FC0120ADF8040004208DF8070042
:1002C00001A98F4802F0D4F90021084602F0E4FAAF
:1002D0000120029000208DF80C0008208DF80D0000
:1002E00001208DF80E0002A803F066FE06208DF8AE
:1002F000000001208DF801008DF802008DF8030048
:10030000684601F09CFD1FBD10B502F0FDFA00200B
:1003100002F01AFB012002F07CFB00BF212002F05A
:1003200036FB0028FAD0002002F093FB4FF48060E7
:1003300002F098FB002002F09EFB4FF4E011002039
:1003400002F06AFB012002F073FB00BF392002F0CB
:100350001EFB0028FAD0022002F06DFB00BF02F065
:1003600073FB0828FBD110BD012080F3108800BF6B
:10037000FFF7CAFF01F082FB4FF4A06001F05AFDC5
:10038000402004F007F9044600F0BDF904465D483A
:100390000460006800F060FA01214FF0C05002F0E4
:1003A0002AFC0121084602F019FCFFF7FEFEFFF7C8
:1003B00016FFFFF74EFF012003F0A4FD002080F39D
:1003C000108800BF06E05048006800F032FF64204B
:1003D00001F0B3FBF7E710B5012003F053FE50B175
:1003E000012003F060FE102359220021184600F07E
:1003F000ADFB03F071FF10BD10B54FF0804001F070
:100400001BFB78B14FF0804001F01EFB4FF08040A5
:1004100001F00AFB3B48006800F0EDF94FF0804026
:1004200001F0FAFA10BD10B5384801F005FB60B1D3
:10043000364801F009FB354801F0F6FA314800680A
:1004400000F0E2F9314801F0E7FA10BD10B530488C
:1004500001F0F2FA60B12E4801F0F6FA2C4801F0F2
:10046000E3FA2848006800F0D8F9294801F0D4FAE6
:1004700010BD10B52448006800F092FE10BD06E0E3
:10048000642001F05AFB2048006800F0D2FEF7E734
:100490001D48006800F084FE07E04FF4FA7001F098
:1004A0004CFB1948006800F0C4FEF6E707E04FF483
:1004B0007A7001F042FB1448006800F0BAFEF6E7DB
:1004C00007E04FF4FA6001F038FB0F48006800F0D5
:1004D000B0FEF6E710B50C48006800F061FE10BDF4
:1004E00010B50948006800F05BFE10BD10B5064865
:1004F000006800F055FE10BD08000020000C01400F
:10050000000801400000002004000020000400401A
:1005100000080040704710B5022003F055FEA8B156
:1005200040F6FF700A4908604FF4003003F0BBFD4D
:10053000012003F01AFD10B1012003F020FD03F0AB
:1005400017FE022003F0AFFD03F012FE10BD000005
:100550000C0C014010B5044694F83200000194F8E8
:10056000311000EB810094F83010084421680870C5
:100570002168A06900F031FDA06900F046FD10BDC2
:100580007047704710B50446062003F0FFFF206057
:10059000002003E0002122681154401C0628F9DBEA
:1005A000012004F8300F002060700120A0700020AE
:1005B000E0712072E060E07020716071A071A4F1C0
:1005C000300410BD70B50446082003F0E3FF054673
:1005D0006422110701F0A6F90546A0600122114628
:1005E000A06801F02AF90A21A06801F034F9082076
:1005F00003F0D0FF05466422B44901F093F90546A3
:10060000E06003220121E06801F017F95021E06861
:1006100001F021F9082003F0BDFF05466422AC4932
:1006200001F080F90546206102220121206901F0D4
:1006300004F9C821206901F00EF970BD70B50446B7
:10064000102003F0A7FF05464FF41652012101F0D8
:1006500023F805466061606901F097F8142003F003
:1006600099FF0646616900F069FC0646A06170BD0D
:1006700010B5044601F02FFB10BD70B504460820EC
:1006800003F088FF054600234FF48072914900F083
:10069000B2FD0546E061082003F07CFF054600231B
:1006A00008228C4900F0A7FD05466062082003F08F
:1006B00071FF054600231022864900F09CFD054687
:1006C0002062082003F066FF05460123DA02814913
:1006D00000F091FD0546A062082003F05BFF05468F
:1006E000012302227B4900F086FD0546E06270BDD1
:1006F00010B504460121084602F070FA012176483F
:1007000002F085F810BD10B504462046FFF7F0FF53
:100710002046FFF7B2FF2046FFF7AAFF2046FFF76B
:100720008DFF2046FFF74EFF2046FFF72BFFE069C5
:1007300000F071FDE06A00F06EFDA06A00F06BFD54
:100740002046FFF71EFF2046FFF71AFF2046FFF75F
:1007500001FF322001F0F1F9204610BD10B504462A
:1007600094F834005D49097888420DD094F834003B
:100770005A49087094F83400052805DD94F83200D1
:10078000C0F1010084F8320094F83500052806DD38
:10079000012084F83100606A00F03DFD10E094F81B
:1007A0003600052806DD022084F83100606A00F07A
:1007B00032FD05E0002084F83100606A00F0F0FCB2
:1007C00010BD0021464A528802EB4212C2F30732A2
:1007D00000F8342F424A928802EB4212C2F30732E9
:1007E00042703F4AD28802EB4212C2F30732827053
:1007F000A0F13400704710B504462046FFF7E1FF32
:100800002046FFF7ABFF10BD10B5044694F8310049
:1008100010B12046FFF79EFE10BD10B5044694F8B7
:100820003200A8B1206A00F0BBFC2E480068401CD2
:100830002C49086008460068642805DD002008602F
:10084000A06A00F0ADFC06E0A06A00F0E4FC02E063
:10085000206A00F0E0FC10BD10B504460A2001F04B
:100860006CF9A06801F0D1F8E06801F0CEF82069D9
:1008700001F0CBF810BD0021194A128802EB421298
:1008800042F3D32180F83310704710B50446164860
:100890000078401C1449087008460078642801DD7F
:1008A00000200870FF21606900F040FFFF216069AF
:1008B00000F03CFF0C490978606900F037FF10BD7B
:1008C0000146074A5288C2F30710704700040040EF
:1008D00000080040000801400002300068040020C9
:1008E0006E0A0020640400206904002010B5402135
:1008F000F94801F068FF8021F74801F064FF80218A
:10090000F54801F062FF4021F34801F05EFF10BDA1
:1009100010B54021F04801F056FF8021EE4801F06B
:1009200054FF8021EC4801F04EFF10BD10B540216E
:10093000E94801F048FF4021E74801F046FF10BDBB
:100940002DE9F04105462C464021E34801F03DFFEA
:10095000002619E0274607F08007802F04D1802168
:10096000DD4801F030FF03E08021DB4801F02DFF7E
:100970006006040E4021D84801F025FF4021D648EA
:1009800001F023FF701CC6B2082EE3DBBDE8F08146
:1009900010B50446FFF7AAFF7820FFF7D1FFFFF755
:1009A000C5FF0020FFF7CCFFFFF7C0FF2046FFF791
:1009B000C7FFFFF7BBFFFFF7ABFF10BD10B5044645
:1009C000FFF794FF7820FFF7BBFFFFF7AFFF402052
:1009D000FFF7B6FFFFF7AAFF2046FFF7B1FFFFF7CB
:1009E000A5FFFFF795FF10BD70B504460D461DB17C
:1009F000E0B2FFF7E3FF02E0E0B2FFF7C9FF70BD2E
:100A000070B50646002418E004F1B0000021FFF79D
:100A1000EBFF00210846FFF7E7FF00211020FFF75A
:100A2000E3FF002505E001213046FFF7DDFF681CEC
:100A3000C5B2802DF7DB601CC4B2082CE4DB70BDAE
:100A400006E041F6650100E0491E0029FCD1401E88
:100A50000028F6D17047014605E0002001E0421C65
:100A6000D0B27B28FBDB0A00A1F10101F5D1704770
:100A700070B504460D4605F1B0000021FFF7B4FF44
:100A8000102141EA14100021FFF7AEFF04F00F001F
:100A90000021FFF7A9FF70BD10B500218D20FFF7E1
:100AA000A3FF00211420FFF79FFF0021AF20FFF7D5
:100AB0009BFF10BD10B500218D20FFF795FF002191
:100AC0001020FFF791FF0021AE20FFF78DFF10BD32
:100AD00070B5002418E004F1B0000021FFF784FF96
:100AE00000210846FFF780FF00211020FFF77CFF60
:100AF000002505E001210020FFF776FF681CC5B244
:100B0000802DF7DB601CC4B2082CE4DB70BD70B52F
:100B1000002418E004F1B0000021FFF765FF002178
:100B20000846FFF761FF00211020FFF75DFF002559
:100B300005E001210846FFF757FF681CC5B2802D6C
:100B4000F7DB601CC4B2082CE4DB70BD2DE9F04774
:100B500007460E469046994600250024A8F120003D
:100B6000C5B27F2F02DD0027B01CC6B2B9F1100F4D
:100B700024D131463846FFF77BFF002408E004EB20
:100B80000511564A505C0121FFF72EFF601CC4B2CC
:100B9000082CF4DB701CC1B23846FFF769FF002453
:100BA00009E004EB051108314C4A505C0121FFF7C4
:100BB0001BFF601CC4B2082CF3DB12E03146384640
:100BC000FFF756FF00240AE005EB4501444A02EB1B
:100BD0004101085D0121FFF707FF601CC4B2062C2C
:100BE000F2DBBDE8F08710B50246012000E050437B
:100BF0000B00A1F10104E1B2F9D110BD2DE9FF5FB5
:100C0000074691461E460E9D4FF0000A002435E02F
:100C1000301B401EC1B20A20FFF7E5FFB9FBF0F020
:100C20000A21B0FBF1F201FB1208BAF1000F14D156
:100C3000701EA04211DDB8F1000F0CD1AB4605EBE0
:100C4000DB71491001FB0471C8B22B4620220199C7
:100C5000FFF77CFF10E04FF0010AAB4605EBDB71BC
:100C6000491001FB0471C8B208F13001CAB22B4629
:100C70000199FFF76BFF00BF601CC4B2B442C7DB31
:100C8000BDE8FF9F2DE9F04104460F461546984602
:100C900000260FE0AA5D434639462046FFF756FF7F
:100CA00004F10800C4B2782C02DD0024B81CC7B2DD
:100CB000701CC6B2A85D0028ECD1BDE8F0812DE91A
:100CC000F04180460E461546002731464046FFF764
:100CD000CFFE002411E00000000C0140C0480008D5
:100CE00098460008904A02EB8511085D0121FFF744
:100CF0007BFE781CC7B2601CC4B2102CF2DB701CE7
:100D0000C1B24046FFF7B4FE00240CE06900491C64
:100D1000854A02EB4111085D0121FFF765FE781C51
:100D2000C7B2601CC4B2102CF0DBBDE8F0812DE925
:100D3000F04180460E461546002731464046FFF7F3
:100D400097FE00240AE0794A02EB8511085D012133
:100D5000FFF74AFE781CC7B2601CC4B2102CF2DB4D
:100D6000701CC1B24046FFF783FE00240CE069000E
:100D7000491C6E4A02EB4111085D0121FFF734FE68
:100D8000781CC7B2601CC4B2102CF0DBBDE8F08147
:100D90002DE9F05F06460F4690461C46DDF828A078
:100DA0004FF0000BE11704EB5171C910B4EBC10116
:100DB00005D12046E11704EB5171CD1005E0204626
:100DC000E11704EB5171C9104D1C3D4615E0294651
:100DD0003046FFF74DFEB1460BE059460BF1010BD3
:100DE0001AF801000121FFF7FFFD09F1010000F0F1
:100DF000FF09C145F1DB681CC5B2A542E7DBBDE8D0
:100E0000F09F08B50121082001F0E8FE40F6CA1065
:100E1000ADF8000010208DF8030003208DF80200CB
:100E20006946434801F024FC40F6CA11404801F0ED
:100E3000CAFC0320ADF8000069463E4801F018FCEA
:100E400003213C4801F0BFFC4FF40040ADF8000026
:100E50006946394801F00CFC4FF40041364801F076
:100E6000B2FC4FF47A70FFF7F6FD0021AE20FFF7D9
:100E7000BBFD00214020FFF7B7FD0021B020FFF7A8
:100E8000B3FD0021C820FFF7AFFD00218120FFF74F
:100E9000ABFD0021FF20FFF7A7FD0021A120FFF7F8
:100EA000A3FD0021A620FFF79FFD0021A820FFF74A
:100EB0009BFD00211F20FFF797FD0021D320FFF7A6
:100EC00093FD00210846FFF78FFD0021D520FFF795
:100ED0008BFD0021F020FFF787FD0021D920FFF7CF
:100EE00083FD00212220FFF77FFD0021DA20FFF79C
:100EF0007BFD00210220FFF777FD0021DB20FFF7BB
:100F000073FD00214920FFF76FFD00218D20FFF7C1
:100F10006BFD00211420FFF767FD0021AF20FFF7D4
:100F200063FDFFF7D5FD08BD6A040020EA07002035
:100F3000000C0140001001400020014070B5044643
:100F40000D46634820606560082003F023FB0646D9
:100F50000C2100F0BFF80646A0600C2003F016FB41
:100F6000E0600C2003F012FB2061002003E0002170
:100F7000E2681154401C0C28F9DB002003E000213A
:100F800022691154401C0C28F9DBA420E168087088
:100F90000120E16848708020E1688870204670BDBB
:100FA00070B504464A482060A06828B1A06800F0E7
:100FB000C9F8054603F0E6FAE06803F0DFFA2069B5
:100FC00003F0DCFA204670BD70B504462046FFF7FA
:100FD000E7FF054603F0D6FA70BD70B50A46002358
:100FE000002104E0555CCC1CC6683555491C062917
:100FF000F8DB002104E0C468645C1C44E3B2491CD3
:101000000B29F8DBC168CB7270BD10B50446FF2117
:10101000606800F08BFBFF21606800F087FB0C220A
:10102000E168606800F08EFB10BD2DE9F0410446D8
:101030000025002742E0606800F072FB064631465A
:10104000A06800F0A9F8A06800F09BF8A06800F084
:1010500094F8A52832D105F1A500C5B2A06800F02A
:1010600090F8A06800F089F8012823D1002608E054
:10107000A06800F082F82844C5B2A06800F081F8AA
:10108000761C0A2EF4DBA06800F077F8A8420DD198
:10109000002608E0A06800F074F8A06800F06DF881
:1010A00021698855761C0C2EF4DB0127A06800F01E
:1010B00068F802E0A06800F068F80025606800F0B9
:1010C00002FB08B1002FB6D03846BDE8F081000021
:1010D000B84E00082DE9F04104460D46012D04DA12
:1010E000002060602046BDE8F08125600C2003F000
:1010F00051FA064600231A46194603F03BFA064603
:1011000060606068406060688060002715E00C20C7
:1011100003F040FA8046606802460021436840467A
:1011200003F028FA80466068C0F804806068406870
:1011300061684968496888607F1C681EB842E6DCBF
:101140002046D0E72DE9F04105466868446807E08D
:10115000666824B100BF2746384603F013FA3446C8
:101160006868A042F4D1686820B1686800BF07468B
:1011700003F008FA2846BDE8F08101464868007887
:1011800070474168496841607047416889684160BB
:101190007047014608687047426811707047000048
:1011A00010B50446A07920B1A188206801F00DFB9C
:1011B00003E0A188206801F006FB10BD10B50446CD
:1011C0002349206888420CD1A088012802D0A08839
:1011D000022806D1A08810220321236800F0D4FD44
:1011E00005E0A08810220121236800F0CDFD2046F3
:1011F000FFF7D6FF10BD2DE9F04104460F46154616
:101200001E462760A580A6712046FFF7D7FF20461F
:10121000BDE8F081704710B50446A07920B1A188DF
:10122000206801F0D0FA03E0A188206801F0CDFA2F
:1012300010BD70B50446A188206801F0B7FAC0F16E
:101240000100C5B2A1882A46206801F0C0FA70BD2D
:101250000014014010B5044694F8480000B910BDD0
:10126000B4F85010E06C01F0AEFA00BFF7E72DE9DA
:10127000F0410446251D94F8478095F8420040450A
:1012800006D12068868926F080062068868110E0D5
:101290002046FFF7DFFF94F8471005F12000475C78
:1012A0002068878095F84300401C00F01F0085F8F7
:1012B0004300BDE8F081F0B501460B1D93F84000F6
:1012C000401C00F01F0493F8415008688088C6B2A3
:1012D000AC4201D1002206E0012291F84470081DC1
:1012E000C65581F844400AB10120F0BD0020FCE75A
:1012F00010B540F22551F74802F0A6FD38B140F292
:101300002551F44802F0CAFDF348FFF7D4FF40F23C
:101310002771F04802F098FD10B1EF48FFF7A7FFE2
:1013200010BD10B540F22551EC4802F08DFD38B1EA
:1013300040F22551E94802F0B1FDE948FFF7BBFF53
:1013400040F22771E54802F07FFD10B1E448FFF755
:101350008EFF10BD10B540F22551E24802F074FD39
:1013600038B140F22551DF4802F098FDDE48FFF722
:10137000A2FF40F22771DB4802F066FD10B1DA48A7
:10138000FFF775FF10BD10B540F22551D74802F0A8
:101390005BFD38B140F22551D44802F07FFDD448BE
:1013A000FFF789FF40F22771D04802F04DFD10B1E0
:1013B000CF48FFF75CFF10BD10B540F22551CD4876
:1013C00002F042FD38B140F22551CA4802F066FDF4
:1013D000C948FFF770FF40F22771C64802F034FD9C
:1013E00010B1C548FFF743FF10BD002180F8481039
:1013F000C164A0F850100160002280F8452080F8F8
:10140000442080F8472080F846207047014691F834
:101410004600401C00F01F0291F847309A4201D06C
:10142000012070470020FCE7014691F8462091F822
:1014300047309A4201D0012070470020FCE72DE997
:10144000F04104460F46261D2046FFF7DFFF804689
:10145000B8F1000F0FD096F8425006F12000475522
:10146000681C00F01F0086F84200012240F227713C
:10147000206802F004FC4046BDE8F081014691F886
:10148000442091F845309A4201D001207047002055
:10149000FCE70246111D91F84130C85C91F84130DB
:1014A0005B1C03F01F0381F84130704710B5044600
:1014B00094F8480000B910BDB4F85010E06C01F089
:1014C00084F900BFF7E72DE9FF4107460C461546B2
:1014D0001E46684602F0A4FB00950020ADF804000B
:1014E000ADF80600ADF80800ADF80C00ADF80A60E4
:1014F0006946204602F02BFBBDE8FF8110B504468B
:101500006068006800B910BD61680868002102F0D9
:10151000AAFB00BFF7E770B50446A5682046FFF7B1
:10152000EDFF062D6BD2DFE805F06A03192E48594E
:10153000012144F2010001F051FB0021042001F0DF
:1015400066F96E4B04220321100200F01DFC6B4B68
:1015500018220321581500F017FC50E001216848BB
:1015600001F049FB0021082001F051F9634B0422EE
:101570000321082000F008FC604B182203210420FE
:1015800000F002FC3BE001215E4801F034FB002149
:101590005D4801F03CF900215B48203001F037F94B
:1015A0005A4B04220321500200F0EEFB574B182245
:1015B0000321181500F0E8FB21E00121544801F057
:1015C0001AFB544B04220321500200F0DDFB514B67
:1015D00018220321181500F0D7FB10E001214E4816
:1015E00001F009FB4D4B04220321104600F0CCFB17
:1015F000484B18220321981400F0C6FB00BF00BF1F
:1016000070BD10B50446A06806282CD2DFE800F0B3
:101610002B030B131B23304860602E486168086061
:101620002520206020E02E4860602C48616808601A
:101630002620206018E02C4860602A486168086015
:101640002720206010E02A48606028486168086010
:101650003420206008E028486060264861680860FF
:101660003520206000E000BF00BF2046FFF753FF99
:1016700020780022114600F075FBE26860680C23B8
:1016800001682046FFF71FFF61680122086840F2E9
:10169000255102F0F4FA10BD70B504460E46154609
:1016A000A660E5602046FFF7ACFF204670BD10B590
:1016B00004462046FFF722FF00206060204610BD50
:1016C00001468868704710B504466068FFF7D6FE8B
:1016D00010BD000000380140B40A00200044004062
:1016E000080B0020004800405C0B0020004C00402C
:1016F000B00B002000500040040C00200008014006
:10170000010002000100040010001400000C014060
:101710000100080000100140010010000014014009
:1017200010B504466068FFF7B4FE10BD70B50446FE
:101730000D4629466068FFF782FE08B1012070BDA2
:101740000020FCE72DE9F04107460D46164600242F
:1017500007E000BF295D3846FFF7E8FF0028F9D011
:10176000641CB442F5DBBDE8F08170B505460C465B
:1017700007E000BF21782846FFF7D8FF0028F9D0FE
:10178000641C20780028F4D170BD10B50446606850
:10179000006800B910BD61680868012102F063FAB1
:1017A00000BFF7E770B504460D4616460120616894
:1017B00081F848006068C5646068A0F8506061689E
:1017C000B1F850001022CB6C032100F0DDFA70BD9F
:1017D0002DE9F04104460D4616462F46B0462078C6
:1017E0004246394600F0BEFABDE8F08100B509482E
:1017F000FFF7FBFD0848FFF7F8FD0848FFF7F5FD88
:101800000748FFF7F2FD0748FFF7EFFD0648FFF72F
:10181000ECFD00BDB40A0020080B00205C0B00208A
:10182000B00B0020040C0020580C002010B504461A
:101830000021606801F06AFE10BD2DE9F041044608
:101840000D4616462F46B04620784246394600F0EF
:1018500089FABDE8F0812DE9FE4305460C464FF0BC
:10186000000800260027012C01DABDE8FE83002CC9
:1018700003DD052C01DAE02733E0042C04DD0A2C1B
:1018800002DA40F2C1172CE0092C04DD322C02DA16
:1018900040F2833725E0312C04DD642C02DA40F27B
:1018A00007771EE0632C05DDB4F5FA7F02DA40F617
:1018B0000F6716E0B4F5FA7F06DB40F6B8308442D5
:1018C00002DA41F61F470CE040F6B730844206DDED
:1018D00041F28830844202DA43F63F0701E048F6DD
:1018E0009F475D486043791C90FBF1F0461EB0B203
:1018F000ADF80400ADF800700020ADF80600ADF8BA
:1019000002008DF808806946686801F0A3FA012199
:10191000686802F0C1F801221146686801F011FE02
:1019200000BFA2E770B504460E46154666606068C3
:10193000B0F1804F06D11C2020600121084601F043
:101940005AF94AE045496068884206D11D20206066
:101950000121022001F04FF93FE0414960688842CF
:1019600006D11E2020600121042001F044F934E05A
:101970003C496068884206D132202060012108205D
:1019800001F039F929E038496068884206D13620EB
:1019900020600121102001F02EF91EE0334960681B
:1019A000884206D1372020600121202001F023F950
:1019B00013E02F496068884201D1204670BD2D494F
:1019C0006068884201D12046F8E72B496068884268
:1019D00001D12046F2E72046F0E729462046FFF7EE
:1019E0003AFF002211462046FFF727FF2046FFF767
:1019F0001DFF2046E2E710B504462046FFF716FF1C
:101A0000606802F0BFFD204610BD10B504460121FC
:101A1000606801F07BFD10BD70B5044625460121CC
:101A2000284601F073FD70BD70B5044625460021BF
:101A3000284601F06BFD70BD70B5044625460121B6
:101A4000284602F02CF870BD70B5044625460121E9
:101A5000284602F035F870BD40190100000400402E
:101A600000080040000C004000100040001400403E
:101A700000180040001C00400020004010B56FF02E
:101A8000040000F027FA384800683849B0FBF1F04C
:101A9000374908700846007800EB4001C1EBC010E0
:101AA0004FF6FF7101EAC0003249088010BD0146BF
:101AB0002F4A12784A434FF0E0235A6100229A617C
:101AC0001A46126942F001021A6100BF4FF0E0228B
:101AD000106910F0010F02D010F4803FF6D04FF0E3
:101AE000E022126922F001024FF0E0231A61002285
:101AF0009A61704701461F4A12884A434FF0E0231B
:101B00005A6100229A611A46126942F001021A6172
:101B100000BF4FF0E022106910F0010F02D010F466
:101B2000803FF6D04FF0E022126922F001024FF020
:101B3000E0231A6100229A61704770B504464FF4A1
:101B40007A70B4FBF0F6B4FBF0F100FB114504E051
:101B50004FF47A70FFF7CEFF761E002EF8D115B144
:101B60002846FFF7C7FF70BD8C0A002000127A00DC
:101B70006A0A00206C0A002000B585B04FF480404E
:101B800000F093FF0121480201F028F800200090A6
:101B900001208DF804008DF805004FF460200290BC
:101BA0000020039004208DF810006946654800F07D
:101BB000D6F9002000F090FB0523012202216148A4
:101BC00000F065FA0523022219465E4800F05FFA2C
:101BD0000523032206215B4800F059FA052304225D
:101BE0000721584800F053FA0121564800F0EEF959
:101BF0000121544800F0DFF9524800F0FEF900BF1F
:101C0000504800F0FFF90028FAD14E4800F004FADD
:101C100000BF4C4800F005FA0028FAD101214948DC
:101C200000F009FA05B000BD00B58DB001210846ED
:101C300000F0C7FF444800F093FB42484C3002904C
:101C40004248039000200490282005900020069030
:101C500080200790400008908000099020200A9082
:101C600000020B9000200C9002A9374800F01AFCEB
:101C700001220221344800F04CFC0B208DF80400B6
:101C800002208DF805008DF8060001208DF8070070
:101C900001A800F0D4F801212B4800F02EFC0DB073
:101CA00000BD10B52A4B00220321042000F06CF87F
:101CB000274B00220321202000F066F8244B00224D
:101CC0000321402000F060F8214B002203218020F6
:101CD00000F05AF810BD10B5FFF7E3FFFFF7A4FFBF
:101CE000FFF74AFF0121174800F065F90121154867
:101CF00000F0A1F910BD10B50022002014E0002171
:101D000007E0124B03EBC10333F810301A444B1CAD
:101D1000D9B20A29F5DB0A2392FBF3F30D4C24F820
:101D200010300022431CD8B20428E8DB10BD10B5E7
:101D3000022000F01BFC20B1FFF7DDFF022000F0C5
:101D400028FC10BD0024014008000240AC0C00201B
:101D5000000801406E0A002010B54FF4A06000F0AA
:101D600069F810BDF8B506460C4615468DF80060BA
:101D70008DF801408DF8025001208DF8030068466F
:101D800000F05DF8F8BD0000F8B505460E461746B0
:101D90001C462148844204D10121042000F01EFF8A
:101DA0002EE01E48844204D10121082000F016FFD5
:101DB00026E01B48844204D10121102000F00EFFD0
:101DC0001EE01848844204D10121202000F006FFC3
:101DD00016E01548844204D10121402000F0FEFEA7
:101DE0000EE01248844204D10121802000F0F6FE6A
:101DF00006E00F48844203D10121801500F0EEFE79
:101E0000ADF800508DF803708DF8026069462046E9
:101E100000F02EFCF8BD000000080140000C01405D
:101E2000001001400014014000180140001C014056
:101E30000020014031490143314A1160704770B5BB
:101E4000002100230F22C4780CB32D4C246804F425
:101E5000E064C4F5E064210AC1F10403CA40447897
:101E600004FA03F18478144021430901254C0678D3
:101E7000A155047804F01F050124AC4005786D11CC
:101E80004FF0E02606EB8505C5F8004109E004782F
:101E900004F01F050124AC401B4D0678761145F86F
:101EA000264070BD194A0A400243154B1B1F1A6099
:101EB000704739B1124A121D12680243104B1B1DA4
:101EC0001A6006E00E4A121D126882430C4B1B1D5D
:101ED0001A607047042808D14FF0E021096941F0E9
:101EE00004014FF0E022116107E04FF0E0210969A1
:101EF00021F004014FF0E022116170470000FA0563
:101F00000CED00E000E400E080E100E080FFFF1F56
:101F100010B50446FA48844208D10121401500F06A
:101F200077FE0021601500F073FE17E0F54884424B
:101F300008D10121001500F06BFE0021201500F0F2
:101F400067FE0BE0F048844208D10121C80300F08D
:101F50005FFE00214FF4004000F05AFE10BD30B586
:101F60000246002000235068E84C20400D790C68A0
:101F700044EA0524204350609068E54C2040D1E9B4
:101F800002542C434D7944EA450420439060D06AC2
:101F900020F470000C7C641EE4B2234340EA03503A
:101FA000D06230BD00210160017141718160C1606A
:101FB00001210174704721B1826842F00102826000
:101FC00003E0826822F001028260704721B18268DA
:101FD00042F48072826003E0826822F48072826040
:101FE000704710B50023CBB21AB144681C4344605B
:101FF00002E044689C43446010BD816841F00801E0
:1020000081607047014600208A6812F0080F01D0F5
:10201000012000E000207047816841F004018160E8
:102020007047014600208A6812F0040F01D0012099
:1020300000E00020704721B1826842F4A002826073
:1020400003E0826822F4A00282607047014600200B
:102050008A6812F4800F01D0012000E00020704750
:1020600010B50A4600210023416821F46041531E47
:1020700041EA4331416010BD21B1426842F400623F
:10208000426003E0426822F4006242607047F0B5AB
:1020900004460D4600200021092D11DDE068A5F160
:1020A0000A0606EB4607072606FA07F18843A5F15C
:1020B0000A0606EB460603FA06F10843E0600CE068
:1020C000206905EB4507072606FA07F1884305EB6B
:1020D000450603FA06F108432061072A0FDA606B10
:1020E000561E06EB86071F2606FA07F18843561E82
:1020F00006EB860605FA06F10843606322E00D2A26
:102100000FDA206BD61F06EB86071F2606FA07F1AB
:102110008843D61F06EB860605FA06F108432063BE
:1021200010E0E06AA2F10D0606EB86071F2606FA0C
:1021300007F18843A2F10D0606EB860605FA06F1C3
:102140000843E062F0BD21B1826842F480128260EF
:1021500003E0826822F48012826070470146C86CF6
:1021600080B2704766484C300068704721B14268C1
:1021700042F48062426003E0426822F4806242607E
:10218000704721B1426842F48052426003E04268E5
:1021900022F48052426070470A460021816821F48F
:1021A000E04111438160704721B1826842F40042EE
:1021B000826003E0826822F400428260704721B1AD
:1021C000826842F40212826003E0826822F4021202
:1021D00082607047014600208A6812F4001F01D017
:1021E000012000E000207047F0B5044615460020AD
:1021F00000220026092911DDE068A1F10A0707EB9A
:10220000470C072707FA0CF29043A1F10A0707EBE6
:10221000470703FA07F21043E0600CE0206901EB86
:10222000410C072707FA0CF2904301EB410703FA30
:1022300007F210432061A06BC0F30156EF1C06F1BA
:10224000010CA7EB0C0707EB870C1F2707FA0CF212
:102250009043EF1C06F1010CA7EB0C0707EB870777
:1022600001FA07F21043A063F0BD10B50A46002141
:102270000023816B21F44011531E41EA0351816315
:1022800010BD08B5002300930090009B0B44009301
:10229000009B1A6008BD08B502460020009000921D
:1022A00001F12800009B184400900098006880B25B
:1022B00008BD0A4600214168164B19401143416090
:1022C00070474162826270470A460021416821F0EE
:1022D0001F0111434160704740B109490831096845
:1022E00041F40001064A0832116007E00449083150
:1022F000096821F40001024A0832116070470000A9
:102300000024014000280140003C0140FFFEF0FF96
:10231000FDF7F1FFFFFD3FFF0246002013680B426F
:1023200001D0012000E000207047CA4302607047DE
:1023300070B502460020002300240B125568CEB26F
:1023400005EA060415681D4202D00CB1012000E028
:10235000002070BD00220A12D343036070470000C2
:1023600001684FF6FE72114001600021016041607A
:102370008160C1608C49884208D18B49083949681D
:1023800041F00F01884A083A51608AE086491431C9
:10239000884208D184490839496841F0F001824AED
:1023A000083A51607DE080492831884208D17E4951
:1023B0000839496841F470617B4A083A516070E01D
:1023C00079493C31884208D177490839496841F454
:1023D0007041754A083A516063E073495031884250
:1023E00008D171490839496841F470216E4A083AA8
:1023F000516056E06C496431884208D16A49083915
:10240000496841F47001684A083A516049E06649F8
:102410007831884208D164490839496841F07061CF
:10242000614A083A51603CE06049884206D1011F88
:10243000096841F00F01021F116032E05B4914315D
:10244000884208D15949091F096841F0F001574AEB
:10245000121F116025E055492831884208D153499F
:10246000091F096841F47061504A121F116018E099
:102470004E493C31884208D14C49091F096841F452
:1024800070414A4A121F11600BE04849503188429E
:1024900007D14649091F096841F47021434A121FB8
:1024A0001160704710B50022026847F6F0739A4336
:1024B0000C6A8B6823430C6923434C6923438C6962
:1024C0002343CC6923434C6A23438C6A23431A4336
:1024D0000260CB6843600B6883604B68C36010BDCB
:1024E0000021016041608160C160016141618161E1
:1024F000C161016241628162704721B1026842F0AC
:102500000102026004E002684FF6FE731A400260A6
:1025100070471AB103680B43036002E003688B4302
:1025200003607047416070470146486880B2704759
:1025300001460020002211F0805F03D01B4B083BB6
:102540001A6802E0184B083B1A680A4201D00120C1
:1025500000E00020704710F0805F03D01349091F8E
:10256000086002E0104908394860704701460020C1
:10257000002211F0805F03D00C4B083B1A6802E088
:10258000094B083B1A680A4201D0012000E00020F4
:10259000704710F0805F03D00449091F086002E013
:1025A00001490839486070470800024008040240A9
:1025B00010B50446CA48844208D10121042000F025
:1025C00027FB0021042000F023FB46E0C54884429D
:1025D00008D10121082000F01BFB0021082000F099
:1025E00017FB3AE0C048844208D10121102000F0D6
:1025F0000FFB0021102000F00BFB2EE0BB488442B3
:1026000008D10121202000F003FB0021202000F050
:10261000FFFA22E0B648844208D10121402000F0B0
:10262000F7FA0021402000F0F3FA16E0B1488442A6
:1026300008D10121802000F0EBFA0021802000F079
:10264000E7FA0AE0AC48844207D10121801500F086
:10265000DFFA0021A01500F0DBFA10BD10B5012152
:10266000084600F0D5FA0021012000F0D1FA10BD93
:102670002DE9F04102460025002600200023002419
:10268000002791F803C00CF00F0591F803C01CF06F
:10269000100F03D091F802C04CEA050591F800C074
:1026A000BCF1000F31D0146800202BE04FF0010C7A
:1026B0000CFA00F3B1F800C00CEA03069E4220D1E8
:1026C00083004FF00F0C0CFA03F7BC4305FA03FC30
:1026D0004CEA040491F803C0BCF1280F06D14FF076
:1026E000010C0CFA00FCC2F814C00AE091F803C017
:1026F000BCF1480F05D14FF0010C0CFA00FCC2F8F8
:1027000010C0401C0828D1D31460B1F800C0BCF13F
:10271000FF0F34DD546800202EE000F1080C4FF06C
:10272000010808FA0CF3B1F800C00CEA03069E4257
:1027300021D183004FF00F0C0CFA03F7BC4305FACC
:1027400003FC4CEA040491F803C0BCF1280F05D146
:1027500000F1080C08FA0CF8C2F8148091F803C0D4
:10276000BCF1480F07D100F1080C4FF0010808FA3E
:102770000CF8C2F81080401C0828CED35460BDE885
:10278000F0814FF6FF710180022181700421C17038
:1027900070470246002093680B4201D0012000E000
:1027A000002070470146886880B2704702460020CA
:1027B000D3680B4201D0012000E0002070470146A1
:1027C000C86880B2704701617047416170470AB1C3
:1027D000016100E041617047C16070474FF4803291
:1027E0000A4382618161826182698269704702461F
:1027F0000020424B18684FF68073184040EA0210E0
:1028000008433E4B186070473D49C8617047F0B5BA
:102810000A46002300240021002500F00046B6F1FE
:10282000004F02D1354EF16901E0344E7168C0F3BA
:10283000034583B200F44016B6F5401F08D121F0DD
:1028400070612E4E766826F070662C4F7E6012E026
:1028500000F48016B6F5801F06D1032606FA05F4AB
:10286000A14341F0706106E0460D360103FA06F619
:10287000B14341F0706122B1460D360103FA06F60C
:10288000314300F00046B6F1004F02D11B4EF1611A
:1028900001E01A4E7160F0BD30B500228B071C0FAD
:1028A0000F2303FA04F2154B08338C1053F824302D
:1028B0009343124C08348D1044F8253023468C1075
:1028C00053F824308C07240F00FA04F423430B4CF4
:1028D00008348D1044F8253030BD0A49086070472F
:1028E00000080140000C01400010014000140140AC
:1028F00000180140001C0140002001400000014080
:1029000000002042DC002042DD48006840F0010069
:10291000DB49086008464068DA490840D849486001
:1029200008460068D8490840D5490860084600684C
:1029300020F4802008600846406820F4FE004860CB
:102940004FF41F0088607047CD49096821F4803139
:10295000CB4A11601146096821F480211160B0F55D
:10296000803F03D0B0F5802F0ED106E0C44909683E
:1029700041F48031C24A116007E0C149096841F45D
:10298000A021BF4A116000E000BF00BF704710B532
:1029900001460022002300204A11012A02D1B84C2E
:1029A000236806E0022A02D1B54C236A01E0B44C48
:1029B000636A01F01F02012494401C4201D00120EF
:1029C00000E0002010BD38B5002000900024002554
:1029D00000BF3120FFF7DBFF05460098401C009048
:1029E0000098B0F5A06F01D0002DF2D03120FFF794
:1029F000CEFF08B1012400E00024204638BD014686
:102A000000209F4A106820F0F80040EAC1001060E2
:102A100070479E490860704702460020984B5868EE
:102A200020F47C1042EA01031843954B586070472C
:102A300096490866704701460020914A506820F088
:102A400003000843506070478D48406800F00C0058
:102A50007047014600208A4A506820F0F000084381
:102A60005060704701460020854A506820F4E060BD
:102A700008435060704701460020814A506820F4A6
:102A8000605040EAC1005060704729B17C4A527AD8
:102A900002437B4B5A7204E0794A527A8243784B64
:102AA0005A7270477A490860704701460020744A9C
:102AB000506820F440400843506070470021754A38
:102AC00011706F4A82F82010012802D0042808D122
:102AD00003E001216F4A117004E005216D4A117075
:102AE00000E000BF00BF70476B4908607047644951
:102AF000096A0143624A11627047674944390860B4
:102B0000704730B500210022002400235C4D6D6821
:102B100005F00C0121B1042905D0082923D105E0D5
:102B20005E4D056022E05D4D05601FE0544D6D680F
:102B300005F47012524D6D6805F48034022505EBE2
:102B400092421CB9564D554305600BE04C4D6D68E3
:102B500015F4003F03D0524D5543056002E04F4D40
:102B60005543056002E04D4D056000BF00BF444D78
:102B70006D6805F0F00109094A4D6B5C0568DD40A0
:102B800045603F4D6D6805F4E061090A454D6B5C99
:102B90004568DD4085603A4D6D6805F46051C90AAD
:102BA000404D6B5C4568DD40C560354D6D6805F492
:102BB0004041890B3C4D6B5CC568B5FBF3F5056185
:102BC00030BD29B12E4A526902432D4B5A6104E0AF
:102BD0002B4A526982432A4B5A61704729B1284ACD
:102BE00092690243264B9A6104E0254A9269824326
:102BF000234B9A61704729B1214AD2690243204B85
:102C0000DA6104E01E4AD26982431D4BDA617047E3
:102C100029B11B4AD2680243194BDA6004E0184A12
:102C2000D2688243164BDA60704729B1144A1269A0
:102C30000243134B1A6104E0114A12698243104B9C
:102C40001A61704714494039086070470F49C864D9
:102C500070470B49C87170470948406A40F080705E
:102C600007494862704701460020054A92680A42B7
:102C700001D0012000E000207047014988727047B0
:102C8000001002400000FFF8FFFFF6FE0000424285
:102C9000D8004242201002408004424200127A00D2
:102CA00000093D00760A0020860A002010B504467F
:102CB000FE48844208D10121C014FFF7A9FF00217A
:102CC000E014FFF7A5FFC4E0B4F1804F08D1012163
:102CD0000846FFF7AAFF00210120FFF7A6FFB8E092
:102CE000F348844208D101210220FFF79EFF002112
:102CF0000220FFF79AFFACE0EE48844208D10121A0
:102D00000420FFF792FF00210420FFF78EFFA0E0D0
:102D1000E948844208D101210820FFF786FF0021FD
:102D20000820FFF782FF94E0E448844208D10121A3
:102D30001020FFF77AFF00211020FFF776FF88E0D0
:102D4000DF48844208D101212020FFF76EFF0021D7
:102D50002020FFF76AFF7CE0DA48844208D1012195
:102D60004014FFF755FF00216014FFF751FF70E09A
:102D7000D548844209D10121C804FFF749FF002149
:102D80004FF40020FFF744FF63E0D048844209D1AC
:102D900001210805FFF73CFF00214FF48010FFF7E9
:102DA00037FF56E0CA48844209D101214805FFF7A0
:102DB0002FFF00214FF40010FFF72AFF49E0C5481C
:102DC000844208D101214020FFF72FFF002140203D
:102DD000FFF72BFF3DE0C048844208D1012180204D
:102DE000FFF723FF00218020FFF71FFF31E0BB48E2
:102DF000844208D101218015FFF717FF0021A0159B
:102E0000FFF713FF25E0B648844209D101210804E9
:102E1000FFF7FEFE00214FF48030FFF7F9FE18E0C7
:102E2000B048844209D101214804FFF7F1FE002196
:102E30004FF40030FFF7ECFE0BE0AB48844208D1C2
:102E400001218804FFF7E4FE00214FF48020FFF702
:102E5000DFFE10BD00220288944B98420ED0994BA1
:102E600098420BD0B0F1804F08D0914B984205D0DA
:102E7000904B984202D0904B984204D14FF68F73FA
:102E80001A404B881A438D4B984207D08C4B98427E
:102E900004D04FF6FF431A40CB881A4302808B8838
:102EA00083850B880385814B98420BD0854B9842D4
:102EB00008D08B4B984205D08A4B984202D08A4B5F
:102EC000984201D10B7A038601238382704770B543
:102ED000002400220023058C4FF6FE763540058441
:102EE000028C8388048B4FF68F752C40B51E2C40C6
:102EF0000D882C43751E2A400D892A434D882A438C
:102F00006A4DA8420BD06F4DA84208D0744DA8421C
:102F100005D0744DA84202D0734DA84213D14FF68C
:102F2000F7752A404D892A434FF6FB752A408D8854
:102F30002A434FF6FF652B404FF6FF552B408D89F6
:102F40002B43CD892B4383800483CD8885860284DF
:102F500070BD70B5002400220023058C4FF6EF767B
:102F600035400584028C8388048B48F6FF752C401D
:102F70004FF6FF452C400D884FF6FF7606EA0525F3
:102F80002C434FF6DF752A400D8906EA05152A43C2
:102F90004D8806EA05152A43444DA84202D0494D02
:102FA000A8421DD14FF67F752A404D894FF6FF7616
:102FB00006EA05152A434FF6BF752A408D8806EAB2
:102FC00005152A434FF6FF352B404FF2FF752B4076
:102FD0008D8906EA85052B43CD8906EA85052B43B5
:102FE00083800483CD880587028470BD70B500247A
:102FF00000220023058C4FF6FF6635400584028CC5
:103000008388848B4FF68F752C404FF6FC752C40CF
:103010000D882C434FF6FF552A400D894FF6FF7659
:1030200006EA05252A434D8806EA05252A431F4D51
:10303000A84202D0234DA8421DD14FF2FF752A406D
:103040004D894FF6FF7606EA05252A434FF6FF35F0
:103050002A408D8806EA05252A434EF6FF752B4047
:103060004DF6FF752B408D8906EA05152B43CD895A
:1030700006EA05152B4383808483CD8885870284E7
:1030800070BD70B5002200230024058C4EF6FF763B
:1030900035400584038C8488828B48F6FF752A406E
:1030A0004FF6FF452A400D8820E00000002C01402B
:1030B0000004004000080040000C004000100040E8
:1030C0000014004000340140004C01400050014019
:1030D0000054014000180040001C00400020004047
:1030E0000040014000440140004801404FF6FF7697
:1030F00006EA05252A434DF6FF752B400D8906EAA1
:1031000005352B434D8806EA05352B43FA4DA84279
:1031100002D0FA4DA84208D14BF6FF752C408D899C
:103120004FF6FF7606EA85152C4384808283CD888E
:10313000A0F84050038470BD828B4FF2FF331A40D9
:103140008283828B4FF6FF7303EA01231A43828343
:103150007047F0B50C461546002200210026078C6A
:103160004EF6FF7C07EA0C070784828B018C4FF632
:10317000FF7707EA043640F6FF473A404FF6FF77FD
:1031800007EA05273A434FF6FF7707EA03373A4342
:10319000D94FB8420ED0D94FB8420BD0B0F1804FC2
:1031A00008D0D74FB84205D0D64FB84202D0D64F3C
:1031B000B84206D14DF6FF77394046F4805739437F
:1031C00005E047F6FF57394044F48057394382837E
:1031D0000184F0BD828B4FF6F3731A408283828B99
:1031E0000A4382837047F0B50C4615460022002141
:1031F0000026078C4FF6FF6C07EA0C070784828BCA
:10320000018C4FF6FF7707EA04264FF60C773A4019
:103210004FF6FF7707EA03172F433A43B64FB842FA
:103220000ED0B64FB8420BD0B0F1804F08D0B44F9B
:10323000B84205D0B34FB84202D0B34FB84206D11E
:103240004FF6FF57394046F48077394305E04FF297
:10325000FF57394044F48077394382830184F0BDBD
:10326000028B4FF2FF331A400283028B4FF6FF733B
:1032700003EA01231A4302837047F0B50C46154652
:10328000002200210026078C4FF6EF7C07EA0C078E
:103290000784028B018C4FF6FF7707EA041640F68D
:1032A000FF473A404FF6FF7707EA03373A434FF6B6
:1032B000FF7707EA05273A438F4FB8420ED08F4F6A
:1032C000B8420BD0B0F1804F08D08D4FB84205D036
:1032D0008C4FB84202D08C4FB84206D14FF6DF7700
:1032E000394046F01007394305E04FF65F77394023
:1032F00044F01007394302830184F0BD028B4FF67E
:10330000F3731A400283028B0A4302837047F0B5BD
:103310000C46154600220021068C4FF6FE773E40F3
:103320000684028B018C4FF60C7632407E1C06EA36
:1033300003162E433243704EB0420ED06F4EB04251
:103340000BD0B0F1804F08D06D4EB04205D06D4E1D
:10335000B04202D06C4EB04206D14FF6FD763140FD
:1033600044F00106314305E04FF6F576314044F074
:103370000106314302830184F0BD70B505460C4659
:103380005D4885420ED05D4885420BD0B5F1804F37
:1033900008D05B48854205D05A48854202D05A4839
:1033A000854200D100E000BF208850B92389A2885F
:1033B00061882846FFF7ABFFE1882846FFF79EFFAC
:1033C00025E0208804280AD12389A288618828461C
:1033D000FFF753FFE1882846FFF742FF17E02088F8
:1033E00008280AD12389A28861882846FFF7FBFEB6
:1033F000E1882846FFF7EEFE09E02389A28861886C
:103400002846FFF7A6FEE1882846FFF795FE70BD27
:103410002DE9F04105460C4600260127608808B9D1
:10342000022600E00026A088012801D1022700E042
:1034300001272088A0B92389A28861882846FFF740
:1034400066FFE1882846FFF759FF23893A4631464F
:103450002846FFF712FFE1882846FFF701FF13E037
:103460002389A28861882846FFF707FFE18828465C
:10347000FFF7F6FE23893A4631462846FFF747FF15
:10348000E1882846FFF73AFFBDE8F0810A884B88BB
:103490001A438B881A43CB881A430B891A434B89EA
:1034A0001A438B891A43A0F8442070474FF6FF71E6
:1034B000818000210180C18041800172704700211C
:1034C000018041808180C180018141818181C181F0
:1034D0007047002101804180012181800021C1804D
:1034E000018170470021018041808180C18001817C
:1034F0004181818170470000002C0140003401406F
:103500000004004000080040000C004021B1028887
:1035100042F00102028004E002884FF6FE731A4076
:103520000280704731B1B0F8442042F40042A0F864
:10353000442005E0B0F84420C2F30E02A0F8442075
:1035400070471AB183890B43838102E083898B43DF
:10355000838170478182704741EA0203A0F84830B6
:1035600070471AB183890B43838102E083898B43BF
:103570008381704701894FF6F872114001817047CD
:103580000A46002101894FF68F73194011430181CA
:10359000704730B504460D4629462046FFF7F0FF38
:1035A000208940F00700208130BD2DE9F04104461C
:1035B0000D4616461F46602D06D13B460122314678
:1035C0002046FFF75AFE05E03B46012231462046E1
:1035D000FFF79DFE29462046FFF7D2FF208940F0E5
:1035E00007002081BDE8F08130B50C46002101893B
:1035F000C9B24FF6FF7505EA032515432543294354
:10360000018130BD2DE9F04105460E46174698462A
:10361000002443463A4631462846FFF7E5FF2C8909
:103620004FF6F870044044F007044FF68F700440E2
:1036300044F070042C81BDE8F081F0B504460D46DD
:1036400016461F463B46324629462046FFF7CCFF2A
:10365000208940F480402081F0BD0185828270473E
:103660000A46002101884FF68F73194011430180EB
:103670007047F0B50C4615461E4600210022002377
:103680000189028B038C4FF6F877394021434FF6BE
:10369000FC473A4040F201173A434FF6DD773B4092
:1036A0004FF6FF7707EA06172F433B43018102835A
:1036B0000384F0BD0A460021018B4FF68F73194039
:1036C0001143018370470A460021018B48F6FF73BE
:1036D00019404FF6FF7303EA022319430183704731
:1036E0000A460021818B4FF68F7319401143818365
:1036F00070470A460021818B48F6FF7319404FF648
:10370000FF7303EA022319438183704721B10288C2
:1037100042F08002028004E002884FF67F731A4074
:103720000280704721B1828842F00402828004E066
:1037300082884FF6FB731A408280704721B18288DD
:1037400042F00802828004E082884FF6F7731A4044
:103750008280704721B1828842F00102828004E0B9
:1037600082884FF6FE731A40828070470A46002115
:10377000018B4FF6F77319401143018370470A46D6
:103780000021018B4FF2FF7319404FF6FF7303EADC
:1037900002231943018370470A460021818B4FF6AB
:1037A000F77319401143818370470A460021818BCA
:1037B0004FF2FF7319404FF6FF7303EA02231943D8
:1037C000818370470A460021018B4FF6FB73194035
:1037D0001143018370470A460021018B4FF6FF33E6
:1037E00019404FF6FF7303EA022319430183704720
:1037F0000A460021818B4FF6FB73194011438183E8
:1038000070470A460021818B4FF6FF3319404FF66F
:10381000FF7303EA02231943818370470A4600219C
:10382000018B4FF67F7319401143018370470A469D
:103830000021018BC1F30E014FF6FF7303EA02234F
:103840001943018370470A460021818B4FF67F732D
:1038500019401143818370470A460021818BC1F3CF
:103860000E014FF6FF7303EA022319438183704769
:103870000A460021018C4FF6FD7319401143018463
:1038800070470A460021018C4FF6F7731940114327
:10389000018470470A460021018C4FF6DF731940FE
:1038A0004FF6FF7303EA02131943018470470A4677
:1038B0000021018C4FF67F7319404FF6FF7303EA26
:1038C00002131943018470470A460021018C4FF608
:1038D000FF5319404FF6FF7303EA02231943018493
:1038E00070470A460021018C4FF2FF7319404FF6D2
:1038F000FF7303EA02231943018470470A4600213B
:10390000018C4DF6FF7319404FF6FF7303EA023343
:1039100019430184704730B5002301248C40A3B2C1
:10392000048C9C430484048C02FA01F5ADB22C4350
:10393000048430BD30B5002304248C40A3B2048C31
:103940009C430484048C02FA01F5ADB22C43048438
:1039500030BD70B5034600200024184618300125FC
:103960008D40ACB21D8CA5431D8409B1082909D135
:1039700000EB6100056825F07005056005681543DA
:1039800005600EE00D1FC5F34E052844056825F4BB
:10399000E045056005684FF6FF7606EA02263543E6
:1039A000056070BD21B1028842F00202028004E08D
:1039B00002884FF6FD731A400280704721B10288D9
:1039C00042F00402028004E002884FF6FB731A40C2
:1039D0000280704721B1828842F08002828004E038
:1039E00082884FF67F731A408280704702884FF6B4
:1039F000F7731A40028002880A4302807047828867
:103A00004FF68F731A40828082880A438280704703
:103A100002894FF6F8731A40028102890A43028133
:103A2000704702894FF67F731A40028102890A4368
:103A30000281704781847047818570478186704715
:103A40000187704781877047A0F84010704702884F
:103A50004FF6FF431A40028002880A4302807047F3
:103A60000146888E70470146088F70470146888F4F
:103A700070470146B1F8400070470146888C704796
:103A80000146088D704702460020138A0B4201D080
:103A9000012000E000207047CA430282704730B521
:103AA0000246002000230024158A05EA01039589B7
:103AB00005EA010413B10CB1012000E0002030BD83
:103AC000CA4302827047000010B50446FB48844296
:103AD00009D101218803FFF79BF800214FF48040B2
:103AE000FFF796F832E0F648844209D101214804F4
:103AF000FFF79BF800214FF40030FFF796F825E020
:103B0000F048844209D101218804FFF78EF8002192
:103B10004FF48020FFF789F818E0EB48844209D180
:103B20000121C804FFF781F800214FF40020FFF7BE
:103B30007CF80BE0E548844208D101210805FFF735
:103B400074F800214FF48010FFF76FF810BD2DE9D5
:103B5000F04786B005460E460024A24600BFA146A7
:103B60000027B08900B100BF2F462C8A4CF6FF70A9
:103B70000440F08804432C82AC894EF6F3100440D4
:103B8000B08831890843718908430443AC81AC8A09
:103B90004FF6FF400440B0890443AC8201A8FEF711
:103BA000B0FFC648874202D1DDF810A001E0DDF881
:103BB0000CA0A88910F4004F08D00AEBCA0000EB53
:103BC0000A1031684900B0FBF1F807E00AEBCA00BF
:103BD00000EB0A1031688900B0FBF1F86420B8FBF3
:103BE000F0F004012009642101FB1089A88910F478
:103BF000004F08D0322000EBC900B0FBF1F000F01C
:103C00000700044308E0322000EB09106421B0FBF8
:103C1000F1F000F00F0004432C8106B0BDE8F087FE
:103C20004FF41651016000218180C18001810C2177
:103C3000418100218181704710B502460020108A21
:103C40004FF2FF0318400B884C8823438C88234392
:103C5000CC8823431843108210BD0021018041808D
:103C60008180C180704721B1828942F400528281F3
:103C700004E082894DF6FF731A4082817047F0B5E7
:103C800003460024002600250020A1F510676A3FA6
:103C900000D100BF1846C1F3421401F01F060127EE
:103CA00007FA06F5012C01D10C3004E0022C01D1F9
:103CB000103000E014301AB107682F43076002E0AB
:103CC0000768AF430760F0BD1AB1838A0B43838254
:103CD00002E0838A8B4383827047028A4FF6F07337
:103CE0001A400282028A0A430282704782894FF296
:103CF000FF731A40828182890A438281704721B111
:103D0000828942F00202828104E082894FF6FD73CB
:103D10001A4082817047028A4FF6DF731A4002828E
:103D2000028A0A430282704721B1028A42F4804229
:103D3000028204E0028A4BF6FF731A400282704747
:103D4000C1F308028280704701468888C0F30800EA
:103D50007047818941F0010181817047028BD2B2A5
:103D60000283028B42EA012202837047028B02F433
:103D70007F420283028B0A430283704721B1828A09
:103D800042F02002828204E0828A4FF6DF731A40FA
:103D90008282704721B1828A42F01002828204E05E
:103DA000828A4FF6EF731A408282704721B1828A6D
:103DB00042F00802828204E0828A4FF6F7731A40CA
:103DC0008282704721B1828942F40042828103E0FD
:103DD0008289C2F30E028281704721B1828A42F445
:103DE0000062828204E0828A4FF2FF731A4082826C
:103DF0007047828A4FF6FB731A408282828A0A4396
:103E00008282704721B1828A42F00202828204E0FB
:103E1000828A4FF6FD731A40828270470246002064
:103E2000B1F5007F00D100BF13880B4201D0012003
:103E300000E00020704701F40072B2F5007F00D16D
:103E400000BFCA430280704770B5024600240023B9
:103E500000250020A1F510666A3E00D100BFC1F325
:103E6000421501F01F03012606FA03F3012D02D1CA
:103E70009689334006E0022D02D1168A334001E0D4
:103E8000968A33400C12012606FA04F41688344050
:103E900013B10CB1012000E0002070BD10B500226C
:103EA0000023A1F510646A3C00D100BF0A1201246E
:103EB0009440A3B2DC43048010BD000000380140F0
:103EC0000044004000480040004C004000500040CA
:103ED00010B501210807FEF7A8FE00214FF0805021
:103EE000FEF7A3FE10BD2949086270472749086103
:103EF000704701460020264A106820F0E000084381
:103F00001060704723490860704710B502460020D2
:103F10001F4B186820F00300104318601E4B1B68ED
:103F200043F004031C4C2360012901D130BF00E0A1
:103F300020BF194B1B6823F00403174C236010BDEE
:103F40001348006840F00400114908600846006802
:103F500040F0020008601048006840F004000E497C
:103F6000086000BF00BF30BF704701460020084A0C
:103F700052680A4201D0012000E000207047044945
:103F8000096841EA8001024A1160704700000E4250
:103F900000700040A0000E4210ED00E000204449F7
:103FA0000860091D0860091D0860091D0860414876
:103FB0003F4914310860704700213D498279002A49
:103FC0003AD00A46126803689A430B461A600A1DE3
:103FD000126803689A430B1D1A60027911440A683B
:103FE00003681A430A60324A0832126803689A4327
:103FF0002F4B08331A601A1D126803689A432C4B22
:104000000C331A604279102A0ED11A1F1268036805
:104010001A43274B08331A601A1D126803681A43A3
:10402000234B0C331A600DE02149427911440A6890
:1040300003681A430A6005E0027911440A680368BC
:104040009A430A6070470021016001710C2141719F
:104050000021817170471649103109680143144AE3
:1040600010321160704701460020114A1432126864
:104070000A4201D0012000E0002070470C491431B1
:1040800008607047014600200022094B1B6803EAC4
:104090000102074B14331B680B4202D00AB1012006
:1040A00000E00020704702491431086070470000AA
:1040B00000040140FFFF0F0029B14F4A128802435C
:1040C0004D4B1A8004E04C4A128882434A4B1A80B6
:1040D00070474948001D008840F010004649091DFE
:1040E000088070474448001D00884FF6EF71084073
:1040F0004149091D0880704700213F481C30018854
:10410000001F008841EA0040704700B50246FFF7F3
:10411000E0FF100C384918310880091D0A80FFF7AC
:10412000E1FF00BD00B50246FFF7D3FFC2F3034035
:10413000314908310880091D0A80FFF7D3FF00BD0F
:1041400000B50246FFF7C5FF100C2B49203108804F
:10415000091D0A80FFF7C6FF00BD00202649103167
:1041600009880907080B2449143109880843704756
:1041700000BF2148001D008810F0200FF9D07047C3
:104180001D48001D00884FF6F77108401A49091DA7
:10419000088000BF1848001D008810F0080FF9D0F3
:1041A000704701460020144A121D12880A4201D0AD
:1041B000012000E0002070470F49091D0988814354
:1041C0000D4A121D11807047014600200A4A121D37
:1041D00012880A40D0B2084A12880A4202D008B1B6
:1041E000012000E0002070470349091D0988814330
:1041F000014A121D11807047002800400CB50020B4
:10420000019000906B48006840F480306949086074
:1042100000BF6848006800F4003000900198401C1E
:104220000190009818B90198B0F5A06FF1D16148DC
:10423000006810F4003F02D00120009001E000204F
:1042400000900098012842D15B48006840F01000BF
:10425000594908600846006820F0030008600846D5
:10426000006840F0020008605248406851494860C8
:104270000846406848600846406840F480604860EE
:104280000846406820F47C1048600846406840F4C6
:10429000E81048600846006840F08070086000BF81
:1042A0004448006810F0007FFAD04248406820F08F
:1042B0000300404948600846406840F002004860FA
:1042C00000BF3C48406800F00C000828F9D10CBD44
:1042D00010B5FFF793FF10BD10B53648006840F0E9
:1042E00001003449086008464068344908403149B3
:1042F000486008460068324908402E490860084670
:10430000006820F4802008600846406820F4FE0021
:1043100048604FF41F008860FFF7DAFF4FF000603D
:104320002849086010BD10B5002100200022214B53
:104330005B6803F00C0121B1042906D0082928D1BB
:1043400007E0214B214C236027E01F4B1F4C2360CB
:1043500023E0184B5B6803F47010164B5B6803F4A2
:104360008032022303EB904022B9194B4343174C90
:1043700023600DE00F4B5B6813F4003F04D0144B37
:104380004343124C236003E00F4B43430F4C236025
:1043900003E00D4B0D4C236000BF00BF054B5B6875
:1043A000C3F303130B4CE15C084B1B68CB40074C79
:1043B000236010BD00100240002002400000FFF802
:1043C000FFFFF6FE08ED00E000127A008C0A0020E4
:1043D00000093D00900A0020064880470648004733
:1043E000FEE7FEE7FEE7FEE7FEE7FEE7FEE7FEE7A5
:1043F000FEE7FEE7D9420008ED00000870B5054C65
:10440000054D03E0206820448047241DAC42F9D1CB
:1044100070BD0000E04E0008E44E000800F014B843
:1044200000487047A00A0020092070470920704703
:104430007047704709207047024801464860001DD8
:1044400070470000A40A002010B500F020F80169B0
:1044500019B100220261884701E080688047AFF30C
:1044600000800000064C074D06E0E06840F00103C4
:1044700094E8070098471034AC42F6D3FBF73AFEB5
:10448000C04E0008E04E000810B5AFF3008070B5D4
:10449000FFF7D2FF04680546A4B9202000F0C6F853
:1044A000040011D0094900202C60C4E9000108492A
:1044B000A1602073206160610649A06109B100F02C
:1044C0000BF8E061204670BDAFF3008000000000F3
:1044D000894400080000000010B5882000F0A6F80C
:1044E000002801D00021017010BD802902D808B138
:1044F000017809B100207047012100F8081B7047BE
:1045000018B100F10802914201D00020704700214B
:104510000170704770B58D1810F8014B14F003024C
:1045200001D110F8012B231106D110F8013B03E053
:1045300010F8016B01F8016B521EF9D1B3B110F8FC
:10454000012B04F00C048A1A0C2C04D0A2EB841268
:1045500003F1020308E010F8014BA2EB0422F7E795
:1045600012F8014B01F8014B5B1EF9D5A942D3D3D8
:10457000002070BD017043608260704710B500F08C
:1045800001F810BD10B500F029F810BD10B500F00D
:1045900001F810BD10B5040007D1012405E0FFF7B4
:1045A0003FFF006800B904488047204600F03EF80D
:1045B0000028F4D010BD00001D44000802E008C827
:1045C000121F08C1002AFAD170477047002001E08D
:1045D00001C1121F002AFBD17047000010B500284E
:1045E00021D0114B001F0022196803E0814203D83B
:1045F0000A4649680029F9D152B11368841A9C42CD
:1046000004D1006818441060104602E0506000E0D9
:10461000186039B102680B1A934203D10B681A442F
:1046200002604968416010BDAC0A0020F0B50B3053
:10463000154D20F007010024144A0FE003688B4257
:104640000BD38B4205D95E1A43184768C3E900674C
:1046500000E04368136002C004E0021D10680028F7
:10466000ECD12046002802D1286808B10020F0BD16
:10467000064A07481060074A121A22F00702C0E9EA
:10468000002401202860D7E7B00A0020AC0A0020EF
:10469000040D0020001D00200000000000000000AC
:1046A000002F000000000700070000147F147F1493
:1046B00000242A7F2A120062640813230036495519
:1046C000225000000503000000001C2241000000F1
:1046D00041221C000014083E08140008083E080887
:1046E000000000A0600000080808080800006060E2
:1046F0000000002010080402003E5149453E000021
:10470000427F4000004261514946002141454B3102
:10471000001814127F10002745454539003C4A49CE
:104720004930000171090503003649494936000640
:104730004949291E000036360000000056360000A8
:104740000008142241000014141414140000412223
:10475000140800020151090600324959513E007CFB
:104760001211127C007F49494936003E41414122E5
:10477000007F4141221C007F49494941007F0909CE
:104780000901003E4149497A007F0808087F00007E
:10479000417F4100002040413F01007F0814224139
:1047A000007F40404040007F020C027F007F0408F1
:1047B000107F003E4141413E007F09090906003E4D
:1047C0004151215E007F0919294600464949493176
:1047D0000001017F0101003F4040403F001F204099
:1047E000201F003F4038403F006314081463000757
:1047F0000870080700615149454300007F414100AE
:1048000000552A552A55000041417F00000402014D
:10481000020400404040404000000102040000202B
:1048200054545478007F4844443800384444442069
:1048300000384444487F00385454541800087E0916
:1048400001020018A4A4A47C007F080404780000DE
:10485000447D4000004080847D00007F102844009B
:104860000000417F4000007C04180478007C0804AC
:10487000047800384444443800FC242424180018E8
:10488000242418FC007C08040408004854545420D4
:1048900000043F444020003C4040207C001C20405D
:1048A000201C003C4030403C004428102844001CA0
:1048B000A0A0A07C004464544C4414141414141498
:1048C00000000000000000000000000000000000E8
:1048D000000000F80000000000000033300000007D
:1048E00000100C06100C0600000000000000000084
:1048F00040C07840C0784000043F04043F040400F6
:10490000007088FC08300000001820FF211E000005
:10491000F008F000E018000000211C031E211E001A
:1049200000F00888700000001E21232419272110A0
:1049300010160E0000000000000000000000000043
:10494000000000E0180402000000000718204000EA
:1049500000020418E00000000040201807000000DA
:10496000404080F0804040000202010F010202003E
:10497000000000F0000000000101011F0101010022
:10498000000000000000000080B070000000000087
:104990000000000000000000000101010101010110
:1049A00000000000000000000030300000000000A7
:1049B000000000008060180400601806010000007C
:1049C00000E010080810E000000F102020100F0079
:1049D000001010F8000000000020203F2020000000
:1049E0000070080808887000003028242221300058
:1049F00000300888884830000018202020110E0060
:104A00000000C02010F8000000070424243F240008
:104A100000F80888880808000019212020110E00DD
:104A200000E0108888180000000F112020110E00EF
:104A300000380808C83808000000003F00000000E7
:104A40000070880808887000001C222121221C00A8
:104A500000E010080810E0000000312222110F00D1
:104A6000000000C0C0000000000000303000000066
:104A700000000080000000000000806000000000D6
:104A800000008040201008000001020408102000EF
:104A9000404040404040400004040404040404003A
:104AA00000081020408000000020100804020100CF
:104AB000007048080808F0000000003036010000CF
:104AC000C030C828E810E0000718272423140B0082
:104AD0000000C038E0000000203C230202273820FC
:104AE00008F8888888700000203F202020110E00E0
:104AF000C0300808080838000718202020100800D7
:104B000008F808080810E000203F202020100F00BF
:104B100008F88888E8081000203F2020232018008B
:104B200008F88888E8081000203F200003000000F3
:104B3000C03008080838000007182020221E020094
:104B400008F808000008F808203F210101213F2053
:104B5000000808F8080800000020203F202000007E
:104B600000000808F8080800C08080807F0000006E
:104B700008F888C028180800203F200126382000A7
:104B800008F8080000000000203F2020202030000E
:104B900008F8F800F8F80800203F003F003F200028
:104BA00008F830C00008F808203F200007183F0030
:104BB000E01008080810E0000F10202020100F005F
:104BC00008F808080808F000203F21010101000052
:104BD000E01008080810E0000F18242438504F0097
:104BE00008F8888888887000203F2000030C302057
:104BF00000708808080838000038202121221C0095
:104C0000180808F8080818000000203F20000000DD
:104C100008F808000008F808001F202020201F00C6
:104C20000878880000C83808000007380E01000026
:104C3000F80800F80008F800033C0700073C0300F0
:104C4000081868808068180820302C03032C302056
:104C50000838C800C83808000000203F20000000C5
:104C600010080808C838080020382621202018001D
:104C7000000000FE020202000000007F40404000F1
:104C8000000C30C000000000000000010638C00029
:104C900000020202FE000000004040407F000000D1
:104CA00000000402020204000000000000000000F6
:104CB00000000000000000008080808080808080F4
:104CC00000020204000000000000000000000000DC
:104CD00000008080808000000019242222223F20D2
:104CE00008F8008080000000003F112020110E0015
:104CF0000000008080800000000E112020201100A4
:104D0000000000808088F800000E112020103F2055
:104D10000000808080800000001F222222221300D9
:104D2000008080F0888888180020203F2020000024
:104D30000000808080808000006B949494936000D9
:104D400008F8008080800000203F210000203F20E4
:104D500000809898000000000020203F20200000E4
:104D6000000000809898000000C08080807F0000D4
:104D700008F8000080808000203F24022D302000B1
:104D8000000808F8000000000020203F202000005C
:104D90008080808080808000203F20003F20003F76
:104DA0008080008080800000203F210000203F2084
:104DB0000000808080800000001F202020201F0035
:104DC000808000808000000080FFA12020110E0064
:104DD0000000008080808000000E112020A0FF8055
:104DE000808080008080800020203F212000010002
:104DF0000000808080808000003324242424190057
:104E0000008080E0808000000000001F2020000063
:104E10008080000000808000001F202020103F20A4
:104E2000808080000080808000010E300806010034
:104E300080800080008080800F300C030C300F00D9
:104E400000808000808080000020312E0E31200004
:104E5000808080000080808080818E701806010034
:104E600000808080808080000021302C2221300052
:104E700000000000807C020200000000003F404073
:104E800000000000FF00000000000000FF00000024
:104E90000002027C800000000040403F0000000053
:104EA00000060101020204040000000000000000EE
:104EB0000000000000000000A10F0008C90F00085A
:104EC000E44E000800000020B40A00001445000869
:104ED00084520008B40A00204C180000CC45000899
:104EE0000DC9FFFFA20001400C060AFE0AC600E041
:104EF00000F000F8114006FE7DBBC7EF0100063B45
:104F0000C7BB7DFE0001100D080CFEFE0C082060E2
:104F1000FEFE60205C80077848FE82BABA03011367
:104F20005EA20101027B00016004FEFF0301C3FFDA
:104F3000FF0F31BBE004C0C0C0270211FE270137BC
:104F4000802175910B6004FFFF0C01411A000422BF
:104F5000E1E1E12705370060040F1F1801F31F0F7F
:104F60000F012E27053484240F8C4222120C00FCE2
:104F7000020202FC000004772008205844FE400092
:104F800010015112411E4112A12A01215F100A2471
:104F9000A42E24E4242EA42447F80AF84A4C48F806
:104FA000484C4AF88F31076200062108911F91187A
:104FB000011412594E23C020A2A320C00A140B00D2
:104FC000120A07027F02070A124810060B0A0A0A91
:104FD0007F040A540BCE900A1F2040404050205FAF
:104FE000800AFD92032DA3031101F1117114911197
:104FF0004114C1111114ADD60322F0F322FF050AAA
:1050000014F06212040122FF0509122A11A61006EB
:105010005F5555557504125FBC011121000C11201C
:105020000F094989790909090F201F200800FE028C
:10503000424ACA4A030F1242026D040C0D13FF408C
:10504000504C4340404F50505C402B0313F88801B4
:1050500022FF050614F854120801227F2003109F36
:1050600080E2468011080914E2A2928A868280803A
:10507000E108041740807F9D100924A4FEA32200AC
:1050800022CCAA0D135F0524060601FF00013E1B7A
:1050900004FFF7F19E357C539008C3F20840000FDF
:1050A000100444827F01808040432C10284681A058
:1050B00010094040484848C8784F060712484880C1
:1050C00011440409130312122222528A061F3004CB
:1050D000106080BA1D3D050713C030E01404434042
:1050E0007FE60404127F4241E0013EC03D13042CE0
:1050F00008D030FF30D0121C2D04F11F30050804F9
:1051000002019E00051101020408211C0800FE2274
:105110002222FE0013030C041092A29E9C04180885
:1051200080601F0242827F470405122F102C43E04B
:105130000C0B1490884C57A42454548C84EB061008
:10514000068042221A07440F13423EED060C0E134E
:1051500004E4242CB4252624B42C24E404220608D8
:105160000A1202011E1212121E4182453540080B1E
:105170001450445465C6446454444000080A1082E4
:10518000824A562322524E824018044040427B0CF1
:105190000A1200FC242424E223222080033F1F2043
:1051A00042030716405FC0F80C9020984828090E6B
:1051B0002848A8183C20050242817F65100442421D
:1051C0007E04011040280740504E4848FF7C0E15D1
:1051D000F802030C0A133E0202FF12221E000F46C1
:1051E000031004100C44012345C6060404104414A3
:1051F0000CC01C0440201E0B05327F200913E02A3E
:10520000C09D29FF0B10C8087F11402006370404F9
:105210001464030C04510710E04004738088400EAE
:10522000138840041E7C43033D4203031140FC5E8F
:10523000080D1212EAAFAAEA0FFA02888C572483EB
:1052400010070202EAAAAAAB0211010E17EA4004F3
:1052500029FF0D1400033D80031D80081E804104BA
:105260000D140003D9F02004020304042C080607DF
:1052700008090204069104A004A24A041E211A0D82
:0452800012F409001B
:04000005080000ED02
:00000001FF
