:020000040800F2
:10000000D01C0020BD4D000839040008450400083C
:10001000570400087304000887040008000000006B
:100020000000000000000000000000009B04000829
:10003000A704000800000000B3040008BF04000883
:10004000D74D0008D74D0008D74D0008D74D000800
:10005000D74D0008D74D0008A9030008D74D000868
:10006000D74D0008D74D0008D74D000813270008CA
:10007000D74D0008D74D0008D74D0008D74D0008D0
:10008000D74D0008D74D0008D74D0008D74D0008C0
:10009000D74D0008D74D0008D74D0008D74D0008B0
:1000A000D74D0008D74D0008D74D0008D74D0008A0
:1000B000BF030008ED03000813040008D74D000833
:1000C000D74D0008D74D0008D74D0008D74D000880
:1000D000D74D0008791C0008AB1C0008DD1C000887
:1000E000D74D0008C1040008D74D0008DFF810D034
:1000F00004F0BCFE04F086FE0048004769030008D7
:10010000D01C002010B503F0F1F84FF4803003F05C
:100110000DF903F04AF9F9490870084600780128FA
:1001200024D1002003F087F9002003F096F94FF462
:10013000806003F089F94FF4E0114FF4803003F050
:100140005DF9012003F066F901211D2003F038FA62
:1001500000BF392003F00DF90028FAD0022003F087
:100160005CF900BF03F062F90828FBD110BD10B59F
:100170004FF4803003F0DAF803F017F9DF49087024
:100180000846007801280FD103F044F900BF392058
:1001900003F0EFF80028FAD0022003F03EF900BF88
:1001A00003F044F90828FBD110BD08B54FF6C04054
:1001B000ADF8000010208DF8030003208DF8020038
:1001C0006946CF4802F046FF0120ADF80000042048
:1001D0008DF803006946CB4802F03CFF08BD1CB512
:1001E0000021084603F04AF8012004F04EFC0120EB
:1001F000009000208DF804000C208DF805000120EF
:100200008DF80600684604F0C9FB1CBD10B501203E
:1002100004F05BFB012003F043F900BF412003F031
:10022000A8F80028FAD04FF4807003F052F90120AA
:1002300003F055F904F096FC47F6FF7004F064FCF7
:1002400004F088FC0121022004F028FC04F082FC68
:1002500010BD08B500214FF0006002F015FB4FF40F
:10026000C06002F0D9FA29208DF8000000208DF836
:1002700001008DF8020001208DF80300684602F0AD
:10028000D0FA06208DF8000000208DF801006846A5
:1002900002F0C7FA08BD704770471FB5012104205E
:1002A00003F08EF90121080703F097F901210846B0
:1002B00003F086F90120ADF8040004208DF8070052
:1002C00001A9904802F0C6FE0021084602F0D6FFC0
:1002D0000120029000208DF80C0008208DF80D0000
:1002E00001208DF80E0002A804F058FB06208DF8BE
:1002F000000001208DF801008DF802008DF8030048
:10030000684602F08EFA1FBD10B502F0EFFF002024
:1003100003F00CF8012003F06EF800BF212003F079
:1003200028F80028FAD0002003F085F84FF4806008
:1003300003F08AF8002003F090F84FF4E011002059
:1003400003F05CF8012003F065F800BF392003F0EA
:1003500010F80028FAD0022003F05FF800BF03F085
:1003600065F80828FBD110BD012080F3108800BF7C
:100370004FF4A06002F050FA02F096F840F2DC5020
:1003800002F0F1F87C2004F007FE044600F019FAB0
:1003900004465D480460006800F052FE002080F3CF
:1003A000108800BF00BFFEE710B5012004F05CFB21
:1003B00020B1012004F069FB04F080FC10BD10B5F1
:1003C0004FF0804001F0FCFF78B14FF0804001F029
:1003D000FFFF4FF0804001F0EBFF4B48006800F05A
:1003E000ABFD4FF0804001F0DBFF10BD10B547487A
:1003F00001F0E6FF60B1454801F0EAFF434801F033
:10040000D7FF4148006800F0E7FD404801F0C8FF11
:1004100010BD10B53E4801F0D3FF60B13C4801F07B
:10042000D7FF3B4801F0C4FF3748006800F0DDFD0E
:10043000374801F0B5FF10BD10B53648006801F02F
:1004400031FB10BD06E0642002F08DF831480068F1
:1004500001F071FBF7E72F48006801F023FB07E08C
:100460004FF4FA7002F07FF82A48006801F063FB4D
:10047000F6E707E04FF47A7002F075F82548006857
:1004800001F059FBF6E707E04FF4FA6002F06BF871
:100490002048006801F04FFBF6E710B51D480068E2
:1004A00001F000FB10BD10B51A48006801F0FAFA1F
:1004B00010BD10B51748006801F0F4FA10BD704780
:1004C00010B5022004F072FBB0B140F6FF700C4989
:1004D0000C3108604FF4003004F0D7FA012004F02A
:1004E00036FA10B1012004F03CFA04F033FB02208C
:1004F00004F0CBFA04F02EFB10BD00000800002031
:10050000000C0140000801400000002000040040F1
:10051000000800400400002070B50446062004F0E6
:1005200037FDA060002003E00021A2681154401CA8
:100530000628F9DB002004F8700F0C2004F02CFDD5
:10054000054601F05FFF054644F86C0C0120607021
:100550000020A0700120E07000206071A071A060F8
:100560002071A4F1700470BD70B50446082004F039
:1005700013FD05466422110701F098FE054620612F
:1005800001221146206901F01CFE1421206901F0AE
:1005900026FE082004F000FD05466422FD4901F016
:1005A00085FE0546606103220121606901F009FEB4
:1005B0005021606901F013FE082004F0EDFC0546AF
:1005C0006422F54901F072FE0546A0610222012174
:1005D000A06901F0F6FDC821A06901F000FE70BD20
:1005E0002DE9F0410446102004F0D6FC05464FF4F6
:1005F0001652032101F014FD0546E061E06901F0A7
:1006000088FD142004F0C8FC0646E16900F09EFD58
:1006100006466062102004F0BFFC05464FF4164207
:10062000012101F0FDFC05462062206A01F071FD08
:10063000082004F0B1FC0746216A00F053FE07468B
:10064000A062BDE8F08110B5044602F036F810BD96
:1006500070B504460C2004F09FFC054600230222DE
:10066000CE4901F082FA0546E0620C2004F094FCC9
:10067000054600230422C94901F077FA05462063A4
:100680000C2004F089FC054600234FF48052C34936
:1006900001F06BFA054660630C2004F07DFC054612
:1006A00000234FF40052BD4901F05FFA0546A063F4
:1006B0000C2004F071FC054600234FF40062B84999
:1006C00001F053FA0546E0630C2004F065FC054692
:1006D00000232022B24901F048FA054620640C208C
:1006E00004F05AFC054600234022AD4901F03DFAD2
:1006F000054660640C2004F04FFC05460023802270
:10070000A74901F032FA0546A0640C2004F044FC2D
:10071000054600230122A14901F027FA0546E064BD
:100720000C2004F039FC054600234FF480529C490C
:1007300001F01BFA054620650C2004F02DFC05464F
:1007400000231022964901F010FA054660650C203E
:1007500004F022FC054600234FF480728F4901F01B
:1007600004FA0546A0650C2004F016FC054600239B
:1007700040228A4901F0F9F90546E0650C2004F0B1
:100780000BFC054600238022844901F0EEF9054662
:100790002066082004F000FC064600234FF4804247
:1007A0007E4901F0AAF90646606670BD10B50446A0
:1007B0000121084602F004FF01217A4802F019FDE8
:1007C00010BD10B504462046FFF7F0FF2046FFF7A6
:1007D0003FFF2046FFF737FF2046FFF701FF204687
:1007E000FFF7C2FE2046FFF797FE606E01F095F915
:1007F000204610BD1FB5044694F8720002280ED1A1
:10080000CB20FB211E222823CDE90032CDE90210A6
:10081000CB2389220221A06A00F08AFE21E094F80D
:10082000720001280ED1CB20FB211E222823CDE906
:100830000032CDE90210CB23D1220221A06A00F0C0
:1008400077FE0EE0CB20FB211E222823CDE90032CB
:10085000CDE90210CB234FF482720221A06A00F08E
:1008600067FE1FBD7FB504460D4675B18D20422140
:100870003722BC23CDE90032CDE90210772378225C
:100880000221A06A00F054FE0DE08D2042213722A3
:10089000BC23CDE90032CDE90210032378220221E6
:1008A000A06A00F045FE7FBD1FB5044694F87100B4
:1008B0003D490978884232D094F871003A4908706D
:1008C00094F87100012812D13B20F0211E223C2314
:1008D000CDE90032CDE902103D23DB220221A06ADE
:1008E00000F026FE00212046FFF7BCFF14E094F83C
:1008F000710088B93B20F0211E223C23CDE9003253
:10090000CDE902103D2377220221A06A00F010FEFB
:1009100001212046FFF7A6FF606801F0B0FD1FBD72
:100920007FB504460D461646092E10DD8D211F4861
:10093000405D18220E23CDE90032CDE902011C49A9
:100940008A7A5F230321A06A00F0F2FD0FE08D2177
:100950001648405D18220E23CDE90032CDE9020190
:1009600013498A5D5F230321A06A00F0E1FD7FBD8A
:1009700070B5044694F8710000287DD10D48407888
:10098000E16A0978884232D0E06A0078A0B101209B
:1009900013E000000004004000080040000C01408B
:1009A00000080140000230007D040020A75000082C
:1009B0009C500008680400200020FE494870E06A4E
:1009C0000078A0B9606801F066FD80B90121606817
:1009D00001F01CFD606801F047FD0546606801F00C
:1009E0004BFD06462A4631462046FFF799FFF1485F
:1009F0008078216B097888421FD0206B007808B17D
:100A0000012000E00020EB498870206B0078A0B93D
:100A1000606801F040FD80B90221606801F0F6FCD9
:100A2000606801F021FD0546606801F025FD06467D
:100A30002A4631462046FFF773FFDE48C078616BD7
:100A40000978884221D0606B007808B1012000E06D
:100A50000020D849C870606B0078B0B9606801F0B8
:100A60001AFD90B90321606801F0D0FC606801F0C4
:100A7000FBFC0546606800E011E101F0FDFC064664
:100A80002A4631462046FFF74BFFCA480079A16B42
:100A9000097888421FD0A06B007808B1012000E0DF
:100AA0000020C4490871A06B0078A0B9606801F00B
:100AB000F2FC80B90421606801F0A8FC606801F0D4
:100AC000D3FC0546606801F0D7FC06462A4631464D
:100AD0002046FFF725FFB7484079E16B0978884247
:100AE0001FD0E06B007808B1012000E00020B14980
:100AF0004871E06B0078A0B9606801F0CCFC80B967
:100B00000521606801F082FC606801F0ADFC0546DB
:100B1000606801F0B1FC06462A4631462046FFF7E0
:100B2000FFFEA4488079216C097888421FD0206C90
:100B3000007808B1012000E000209E498871206CF7
:100B40000078A0B9606801F0A6FC80B90621606851
:100B500001F05CFC606801F087FC0546606801F00C
:100B60008BFC06462A4631462046FFF7D9FE9148BF
:100B7000C079616C097888421FD0606C007808B138
:100B8000012000E000208B49C871606C0078A0B99A
:100B9000606801F080FC80B90721606801F036FCD4
:100BA000606801F061FC0546606801F065FC06467E
:100BB0002A4631462046FFF7B3FE7E48007AA16CF4
:100BC000097888421FD0A06C007808B1012000E0AD
:100BD000002078490872A06C0078A0B9606801F024
:100BE0005AFC80B90821606801F010FC606801F0CF
:100BF0003BFC0546606801F03FFC06462A4631464C
:100C00002046FFF78DFE6B48407AE16C09788842F8
:100C10001FD0E06C007808B1012000E00020654999
:100C20004872E06C0078A0B9606801F034FC80B9CB
:100C30000921606801F0EAFB606801F015FC0546D7
:100C4000606801F019FC06462A4631462046FFF747
:100C500067FE58480078216D097888421FD0206DC2
:100C6000007808B1012000E0002052490870206D92
:100C70000078A0B9606801F00EFC80B900216068BE
:100C800001F0C4FB606801F0EFFB0546606801F00D
:100C9000F3FB06462A4631462046FFF741FE45480B
:100CA000807A616D097888421AD0606D007808B149
:100CB000012000E000203F498872606D007878B91B
:100CC000606801F0E0FB58B9606801F0D5FB0546AB
:100CD0000A2229462046FFF723FE606801F0B0FB98
:100CE0003448C07AA16D0978884216D0A06D00788A
:100CF00008B1012000E000202E49C872A06D0078E4
:100D000058B994F87100C0F1010084F871002046D0
:100D1000FFF7CAFD002084F872002648007BE16DD1
:100D20000978884215D0E06D007808B1012000E014
:100D3000002020490873E06D007818B9022084F87B
:100D4000720002E0002084F872002046FFF752FD96
:100D50001AE01848407B216E0978884214D0206E32
:100D6000007808B1012000E0002012494873206E8D
:100D7000007818B9012084F8720002E0002084F89D
:100D800072002046FFF736FDA06D007848B3206E54
:100D9000007830B3E06D007818B3606D007800B370
:100DA000E06A0078E8B1206B0078D0B1606B007821
:100DB000B8B101E068040020A06B007888B1E06B56
:100DC000007870B1206C007858B1606C007840B148
:100DD000A06C007828B1E06C007810B1206D00782C
:100DE00010B90320A06702E00020D349086070BD5D
:100DF00010B50446E06A00F0CEFE206B00F0CBFE9A
:100E0000606B00F0C8FEA06B00F0C5FEE06B00F068
:100E1000C2FE206C00F0BFFE606C00F0BCFEA06C57
:100E200000F0B9FEE06C00F0B6FE206D00F0B3FEFD
:100E3000606D00F0B0FEA06D00F0ADFEE06D00F062
:100E4000AAFE206E00F0A7FE10BDBC49098801EB88
:100E5000411101EB410202EBC101C1F3073180F8FE
:100E6000741070471FB504462046FFF7EEFF94F854
:100E70007400B349097888425DD094F87400B04991
:100E8000087094F8740078280EDD6620F0211E2288
:100E90003C23CDE90032CDE902100F230A220221C2
:100EA000A06A00F045FB46E094F8740073280EDD5C
:100EB0006620F0211E223C23CDE90032CDE902104C
:100EC00039230A220221A06A00F032FB33E094F8B1
:100ED000740071280EDD6620F0211E223C23CDE92E
:100EE0000032CDE9021066230A220221A06A00F036
:100EF0001FFB20E094F874006F280EDD6620F021BF
:100F00001E223C23CDE90032CDE9021093230A22B0
:100F10000221A06A00F00CFB0DE06620F0211E22E9
:100F20003C23CDE90032CDE90210BF230A22022181
:100F3000A06A00F0FDFA1FBD10B5044681480068A4
:100F4000642808DD2046FFF78DFF606E00F0F3FD9A
:100F500000207C4908602046FFF7A6FC2046FFF7EA
:100F600081FF78480068401C764908602046FFF7FA
:100F70003FFF2046FFF7FCFC10BD70B5044694F817
:100F80007300000194F8721000EB810094F8711066
:100F90000844A1680870002505E06068415D681C90
:100FA000A26811546D1C606801F066FAA842F4DA78
:100FB000606801F061FA451C04E00021681CA26829
:100FC00011546D1C052DF8DBA168606A00F00DF965
:100FD000606A00F022F970BD10B5044694F8720002
:100FE00010B12046FFF7C9FF10BD704710B5044689
:100FF0000A2001F0B8FA206901F0CBF9606901F02C
:10100000C8F9A06901F0C5F910BD10B5044650201B
:1010100001F0A9FA0121A06A00F0BFF9502001F007
:10102000A2FA10BD10B50446502001F09CFA002130
:10103000A06A00F0B2F94FF47A7001F094FA10BD92
:1010400010B504462046FFF7EDFF2046FFF7DDFF11
:101050002046FFF7CBFF0A2001F085FA10BD0146BC
:10106000886D007830B3086E007818B3C86D0078CA
:1010700000B3486D0078E8B1C86A0078D0B1086B59
:101080000078B8B1486B0078A0B1886B007888B15F
:10109000C86B007870B1086C007858B1486C007863
:1010A00040B1886C007828B1C86C007810B1086D28
:1010B000007808B9012070470020FCE710B504460D
:1010C00021480078401C20490870084600786428B0
:1010D00001DD00200870FF21E06900F0EBFFFF2137
:1010E000E06900F0E7FF18490978E06900F0E2FFE5
:1010F00010BD70B505464FF4803002F017F902F0CC
:1011000054F90446012C0FD102F084F900BF3920B4
:1011100002F02FF90028FAD0022002F07EF900BF79
:1011200002F084F90828FBD170BD0146034A5288B9
:10113000C2F30710704700007804002084040020E8
:101140007C040020640400207E04002070B5044666
:101150000D46634820606560082003F01DFF0646C9
:101160000C2100F039FC0646A0600C2003F010FFB3
:10117000E0600C2003F00CFF2061002003E0002160
:10118000E2681154401C0C28F9DB002003E0002128
:1011900022691154401C0C28F9DBA420E168087076
:1011A0000120E16848708020E1688870204670BDA9
:1011B00070B504464A482060A06828B1A06800F0D5
:1011C00043FC054603F0E0FEE06803F0D9FE206929
:1011D00003F0D6FE204670BD70B504462046FFF7EA
:1011E000E7FF054603F0D0FE70BD70B50A46002348
:1011F000002104E0555CCC1CC6683555491C062905
:10120000F8DB002104E0C468645C1C44E3B2491CC0
:101210000B29F8DBC168CB7270BD10B50446FF2105
:10122000606800F047FFFF21606800F043FF0C2278
:10123000E168606800F04AFF10BD2DE9F041044606
:101240000025002742E0606800F02EFF0646314688
:10125000A06800F023FCA06800F015FCA06800F076
:101260000EFCA52832D105F1A500C5B2A06800F09A
:101270000AFCA06800F003FC012823D1002608E046
:10128000A06800F0FCFB2844C5B2A06800F0FBFB9E
:10129000761C0A2EF4DBA06800F0F1FBA8420DD109
:1012A000002608E0A06800F0EEFBA06800F0E7FB75
:1012B00021698855761C0C2EF4DB0127A06800F00C
:1012C000E2FB02E0A06800F0E2FB0025606800F0AD
:1012D000BEFE08B1002FB6D03846BDE8F081000050
:1012E000C450000870B504460D466560472003F001
:1012F00053FE0646472103F07AFD2660AA202168A6
:101300000870002021684870CC20216881F84200D4
:101310003321206880F84310C321206880F84410EE
:101320003C21206880F845100020216881F84600A3
:1013300000BF04E000222168891C0A54401C402898
:10134000F8DB204670BD10B50446002060602068C0
:1013500003F01AFE204610BD10B5044600BF2268F7
:101360001178606800F0A6FE0028F8D000BF22685F
:101370005178606800F09EFE0028F8D0236893F84A
:101380004620991C606800F0A1FE226802F142012B
:101390000422606800F09AFE10BD70B504460D4648
:1013A000702021684870206885700120216881F8CC
:1013B00046002046FFF7D0FF70BD70B504460D46CD
:1013C00016464020216848702812216888702068DD
:1013D000C5703112206801712068467104202168AF
:1013E00081F846002046FFF7B7FF70BD2DE9F047B2
:1013F0000446894615461E46DDE90878206880F8CF
:1014000001902812216888702068C5703112206808
:101410000171206846713912206881712068C77196
:101420004FEA282120680172206880F8098008208E
:10143000216881F846002046FFF78EFFBDE8F0875F
:101440002DE9FC4107460C4615461E4605F10D00E8
:1014500080B2611C314489B2CDE90010681C83B2AE
:10146000601C82B25B213846FFF7C0FF05F10D001A
:1014700080B204F1790189B2CDE90010681C83B211
:10148000601C304482B25A213846FFF7AFFF782EF5
:1014900010D105F10D0080B2611C314489B2CDE953
:1014A0000010681C83B2601C304482B25B21384655
:1014B000FFF79CFFBDE8FC812DE9F0470446884614
:1014C00016461F46DDE9089A0025206880F801804D
:1014D00033122168891C2A466D1C8B542168891C93
:1014E0002A466D1C8E543B122168891C2A466D1CAD
:1014F0008B542168891C2A466D1C8F5409E099F889
:1015000000302068801C29466A1CD5B2435409F17A
:1015100001095FEA0A00AAF1010101F0FF0AEED118
:10152000206880F846502046FFF716FFBDE8F08798
:101530002DE9F05F04460F4615461E46DDE90CAB6B
:10154000DDE90A89712021684870206887702912B6
:101550002068C170206805713112206841712068CF
:10156000867108EB0500010A2068C17108EB0500CF
:10157000C1B22068017209EB0600010A20684172BD
:1015800009EB0600C1B2206881724FEA2A21206867
:10159000C172206880F80CA04FEA2B2120684173AB
:1015A000206880F80EB00D20216881F846002046A2
:1015B000FFF7D2FEBDE8F09F2DE9F04704460F4645
:1015C00015461E46DDE9099ADDF82080206847703F
:1015D0002812216888702068C57031122068017156
:1015E000206846714FEA282120688171206880F8C0
:1015F00007804FEA292120680172206880F809904D
:10160000206880F80AA00920216881F84600204659
:10161000FFF7A2FEBDE8F08710B504465F20216801
:1016200048700020216881F846002046FFF794FEAC
:1016300010BD10B504465E20216848700020216866
:1016400081F846002046FFF787FE10BD10B504461E
:10165000002021684870216881F846002046FFF785
:101660007BFE10BD70B504460D461646412021682C
:101670004870206885702068C6700220216881F853
:1016800046002046FFF768FE70BD2DE9F041044694
:101690000F4615461E461FB942202168487002E0D9
:1016A0004320216848702812216888702068C5701E
:1016B000311220680171206846710420216881F888
:1016C00046002046FFF748FEBDE8F08170B50446AD
:1016D0000D465F20216848702068857001202168D0
:1016E00081F846002046FFF737FE70BD10B504466E
:1016F0005220216848700020216881F84600204669
:10170000FFF72AFE10BD2DE9F04704460E461746A6
:101710009846DDF820900025982021684870301206
:10172000216888702068C6703912206801712068AD
:101730004771042507E0281FA649095C2068801C22
:101740004155681CC5B20B2DF5D309E098F800305F
:101750002068801C29466A1CD5B2435408F1010850
:101760005FEA0900A9F1010101F0FF09EED120684B
:1017700080F846502046FFF7EFFDBDE8F0872DE9E1
:10178000F0470446894615461E46DDE9087820687C
:1017900080F801902812216888702068C570311285
:1017A00020680171206846713912206881712068B3
:1017B000C7714FEA282120680172206880F80980EB
:1017C0000820216881F846002046FFF7C5FDBDE8E6
:1017D000F0872DE9F04704460D4616461F46DDE921
:1017E0000898752021684870281221688870206840
:1017F000C5703112206801712068467120688771B8
:10180000002006E019F800302168891C421D8B5425
:10181000401C4045F6DB08F10500216881F84600D0
:101820002046FFF799FDBDE8F0872DE9F047044613
:101830000F4616461D46DDE9088920684770216875
:101840008E7029122068C170206805714FEA282126
:1018500020684171206880F80680206880F8079031
:101860000620216881F846002046FFF775FDBDE897
:10187000F0872DE9F04704460D4616461F46DDE980
:10188000099ADDF8208074202168487028122168A8
:1018900088702068C5703112206801712068467117
:1018A0003912206881712068C7714FEA2A212068A7
:1018B0000172206880F809A04FEA2821206881720F
:1018C000206880F80B804FEA292120680173206886
:1018D00080F80D900C20216881F846002046FFF723
:1018E0003BFDBDE8F0872DE9F05F04460F46154645
:1018F0001E46DDE90CABDDE90A89712021684870DC
:101900002068877029122068C17020680571311223
:1019100020684171206886714FEA28212068C171D2
:10192000206880F808804FEA2921206841722068E9
:1019300080F80A904FEA2A212068C172206880F856
:101940000CA04FEA2B2120684173206880F80EB06C
:101950000D20216881F846002046FFF7FDFCBDE818
:10196000F09F2DE9F0470446894616461F46DDF8EC
:1019700020800025206880F8019033122168891C9E
:101980002A466D1C8B542168891C2A466D1C8E5476
:101990003B122168891C2A466D1C8B542168891CC6
:1019A0002A466D1C8F5409E098F800302068801C8E
:1019B00029466A1CD5B2435408F1010898F8000082
:1019C0000028F1D1206880F846502046FFF7C4FC7B
:1019D000BDE8F087B25000082DE9F04104460D46FD
:1019E000012D04DA002060602046BDE8F08125600A
:1019F0000C2003F0D1FA064600231A46194603F0DC
:101A0000BBFA0646606060684060606880600027DE
:101A100015E00C2003F0C0FA804660680246002101
:101A20004368404603F0A8FA80466068C0F8048026
:101A30006068406861684968496888607F1C681E02
:101A4000B842E6DC2046D0E72DE9F041054668685B
:101A5000446807E0666824B100BF2746384603F0B3
:101A600093FA34466868A042F4D1686820B1686887
:101A700000BF074603F088FA2846BDE8F08101461A
:101A8000486800787047416849684160704741681C
:101A90008968416070470146086870474268117064
:101AA0007047000010B50446A07920B1A1882068D5
:101AB00001F07DFB03E0A188206801F076FB10BDFA
:101AC00010B504462349206888420CD1A08801281B
:101AD00002D0A088022806D1A08810220321236802
:101AE00000F044FE05E0A08810220121236800F0E8
:101AF0003DFE2046FFF7D6FF10BD2DE9F04104461C
:101B00000F4615461E462760A580A6712046FFF7A2
:101B1000D7FF2046BDE8F081704710B50446A07994
:101B200020B1A188206801F040FB03E0A188206873
:101B300001F03DFB10BD70B50446A188206801F09E
:101B400027FBC0F10100C5B2A1882A46206801F038
:101B500030FB70BD0014014010B5044620894822B6
:101B60000221636800F002FE10BD2DE9F041044639
:101B70000F4615461E460020E07267602581A6725A
:101B8000012020702046FFF7E7FF2046BDE8F081E6
:101B900000214160704770B50446A07A48B12189A0
:101BA000606801F0E8FA08B9012000E0002005466D
:101BB00004E02189606801F0DEFA05462078A84239
:101BC00009D0E07A401CE072E07A012805DD25703A
:101BD0000020E07201E00020E07270BD10B5044604
:101BE00094F8480000B910BDB4F85010E06C01F052
:101BF000DCFA00BFF7E72DE9F0410446251D94F813
:101C0000478095F84200404506D12068868926F035
:101C100080062068868110E02046FFF7DFFF94F8F9
:101C2000471005F12000475C2068878095F8430045
:101C3000401C00F01F0085F84300BDE8F081F0B5BE
:101C400001460B1D93F84000401C00F01F0493F860
:101C5000415008688088C6B2AC4201D1002206E03B
:101C6000012291F84470081DC65581F844400AB11C
:101C70000120F0BD0020FCE710B540F22551F748E7
:101C800002F0D4FD38B140F22551F44802F0F8FDDD
:101C9000F348FFF7D4FF40F22771F04802F0C6FD89
:101CA00010B1EF48FFF7A7FF10BD10B540F2255166
:101CB000EC4802F0BBFD38B140F22551E94802F092
:101CC000DFFDE948FFF7BBFF40F22771E54802F06E
:101CD000ADFD10B1E448FFF78EFF10BD10B540F226
:101CE0002551E24802F0A2FD38B140F22551DF480B
:101CF00002F0C6FDDE48FFF7A2FF40F22771DB4885
:101D000002F094FD10B1DA48FFF775FF10BD10B571
:101D100040F22551D74802F089FD38B140F22551F3
:101D2000D44802F0ADFDD448FFF789FF40F2277197
:101D3000D04802F07BFD10B1CF48FFF75CFF10BD2B
:101D400010B540F22551CD4802F070FD38B140F297
:101D50002551CA4802F094FDC948FFF770FF40F2D0
:101D60002771C64802F062FD10B1C548FFF743FF76
:101D700010BD002180F84810C164A0F85010016027
:101D8000002280F8452080F8442080F8472080F821
:101D900046207047014691F84600401C00F01F02A3
:101DA00091F847309A4201D0012070470020FCE7AB
:101DB000014691F8462091F847309A4201D001201F
:101DC00070470020FCE72DE9F04104460F46261D30
:101DD0002046FFF7DFFF8046B8F1000F0FD096F8DE
:101DE000425006F120004755681C00F01F0086F89D
:101DF0004200012240F22771206802F032FC404686
:101E0000BDE8F081014691F8442091F845309A42AE
:101E100001D0012070470020FCE70246111D91F817
:101E20004130C85C91F841305B1C03F01F0381F81E
:101E30004130704710B5044694F8480000B910BD11
:101E4000B4F85010E06C01F0B2F900BFF7E72DE9EB
:101E5000FF4107460C4615461E46684602F0D2FB77
:101E600000950020ADF80400ADF80600ADF80800BC
:101E7000ADF80C00ADF80A606946204602F059FB47
:101E8000BDE8FF8110B504466068006800B910BD68
:101E900061680868002102F0D8FB00BFF7E770B561
:101EA0000446A5682046FFF7EDFF062D6BD2DFE85C
:101EB00005F06A03192E4859012144F2010001F08E
:101EC0007FFB0021042001F094F96E4B04220321D2
:101ED000100200F04BFC6B4B18220321581500F048
:101EE00045FC50E00121684801F077FB0021082003
:101EF00001F07FF9634B04220321082000F036FC37
:101F0000604B18220321042000F030FC3BE001214B
:101F10005E4801F062FB00215D4801F06AF9002192
:101F20005B48203001F065F95A4B0422032150022E
:101F300000F01CFC574B18220321181500F016FC6A
:101F400021E00121544801F048FB544B04220321B5
:101F5000500200F00BFC514B18220321181500F021
:101F600005FC10E001214E4801F037FB4D4B0422E7
:101F70000321104600F0FAFB484B18220321981465
:101F800000F0F4FB00BF00BF70BD10B50446A068B0
:101F900006282CD2DFE800F02B030B131B2330485C
:101FA00060602E48616808602520206020E02E488F
:101FB00060602C48616808602620206018E02C488A
:101FC00060602A48616808602720206010E02A4885
:101FD00060602848616808603420206008E0284874
:101FE00060602648616808603520206000E000BF1E
:101FF00000BF2046FFF753FF20780022114600F073
:10200000A3FBE26860680C2301682046FFF71FFF0E
:1020100061680122086840F2255102F022FB10BDE0
:1020200070B504460E461546A660E5602046FFF7EB
:10203000ACFF204670BD10B504462046FFF722FFD6
:1020400000206060204610BD01468868704710B5CA
:1020500004466068FFF7D6FE10BD0000003801405E
:10206000C40400200044004018050020004800403F
:102070006C050020004C0040C005002000500040CE
:1020800014060020000801400100020001000400C5
:1020900010001400000C0140010008000010014075
:1020A000010010000014014010B504466068FFF7FD
:1020B000B4FE10BD70B504460D4629466068FFF7B2
:1020C00082FE08B1012070BD0020FCE72DE9F0413F
:1020D00007460D461646002407E000BF295D384636
:1020E000FFF7E8FF0028F9D0641CB442F5DBBDE837
:1020F000F08170B505460C4607E000BF2178284600
:10210000FFF7D8FF0028F9D0641C20780028F4D10C
:1021100070BD10B504466068006800B910BD616804
:102120000868012102F091FA00BFF7E770B5044694
:102130000D4616460120616881F848006068C56454
:102140006068A0F850606168B1F850001022CB6C54
:10215000032100F00BFB70BD2DE9F04104460D4654
:1021600016462F46B04620784246394600F0ECFA33
:10217000BDE8F08100B50948FFF7FBFD0848FFF70F
:10218000F8FD0848FFF7F5FD0748FFF7F2FD07489F
:10219000FFF7EFFD0648FFF7ECFD00BDC40400208B
:1021A000180500206C050020C00500201406002042
:1021B0006806002010B504460021606801F098FE12
:1021C00010BD2DE9F04104460D4616462F46B04697
:1021D00020784246394600F0B7FABDE8F0812DE993
:1021E000FE4305460C464FF0000800260027012C50
:1021F00001DABDE8FE83002C03DD052C01DAE027BF
:1022000033E0042C04DD0A2C02DA40F2C1172CE082
:10221000092C04DD322C02DA40F2833725E0312C20
:1022200004DD642C02DA40F207771EE0632C05DD42
:10223000B4F5FA7F02DA40F60F6716E0B4F5FA7FDC
:1022400006DB40F6B830844202DA41F61F470CE064
:1022500040F6B730844206DD41F28830844202DA2B
:1022600043F63F0701E048F69F475D486043791C0D
:1022700090FBF1F0461EB0B2ADF80400ADF800706E
:102280000020ADF80600ADF802008DF80880694620
:10229000686801F0D1FA0121686802F0EFF80122C4
:1022A0001146686801F03FFE00BFA2E770B5044622
:1022B0000E46154666606068B0F1804F06D11C205E
:1022C00020600121084601F088F94AE0454960682C
:1022D000884206D11D2020600121022001F07DF9F5
:1022E0003FE041496068884206D11E2020600121FC
:1022F000042001F072F934E03C496068884206D15C
:10230000322020600121082001F067F929E03849D6
:102310006068884206D1362020600121102001F03B
:102320005CF91EE033496068884206D1372020609E
:102330000121202001F051F913E02F496068884203
:1023400001D1204670BD2D496068884201D12046E8
:10235000F8E72B496068884201D12046F2E7204621
:10236000F0E729462046FFF73AFF002211462046B3
:10237000FFF727FF2046FFF71DFF2046E2E710B5D5
:1023800004462046FFF716FF606802F0FDFD204678
:1023900010BD10B504460121606801F0A9FD10BD13
:1023A00070B5044625460121284601F0A1FD70BD07
:1023B00070B5044625460021284601F099FD70BD00
:1023C00070B5044625460121284602F05AF870BD32
:1023D00070B5044625460121284602F063F870BD19
:1023E000401901000004004000080040000C0040BB
:1023F000001000400014004000180040001C004085
:10240000002000404FF0FF31816070470246906825
:10241000042801D1002070479068401C90609068AB
:1024200011540120F7E702469068401C00D1704724
:102430009068105C08709068401E90600120F6E77C
:1024400001468868401C00D170478A68501E886029
:10245000885CF9E702469068401C00D1704790689C
:10246000105C08700120F9E701468868401C00D123
:1024700070478868085CFBE70146886870474FF042
:10248000FF318160704701468868401C01D10120FE
:1024900070470020FCE701468868042801D101202C
:1024A00070470020FCE7000010B56FF0040000F05A
:1024B00003FA384800683849B0FBF1F03749087032
:1024C0000846007800EB4001C1EBC0104FF6FF71E9
:1024D00001EAC0003249088010BD01462F4A127837
:1024E0004A434FF0E0235A6100229A611A4612696A
:1024F00042F001021A6100BF4FF0E022106910F0B3
:10250000010F02D010F4803FF6D04FF0E0221269A4
:1025100022F001024FF0E0231A6100229A61704715
:1025200001461F4A12884A434FF0E0235A610022B5
:102530009A611A46126942F001021A6100BF4FF017
:10254000E022106910F0010F02D010F4803FF6D0A5
:102550004FF0E022126922F001024FF0E0231A61ED
:1025600000229A61704770B504464FF47A70B4FB4C
:10257000F0F6B4FBF0F100FB114504E04FF47A7083
:10258000FFF7CEFF761E002EF8D115B12846FFF7D3
:10259000C7FF70BD9C04002000127A008004002058
:1025A0008204002000B585B04FF4804000F06FFF3A
:1025B0000121480201F004F80020009001208DF86C
:1025C00004008DF805004FF4602002900020039075
:1025D00001208DF810006946534800F0B2F9002040
:1025E00000F06CFB0523012211464F4800F041FA30
:1025F00001214D4800F0DCF901214B4800F0CDF9F4
:10260000494800F0ECF900BF474800F0EDF9002818
:10261000FAD1454800F0F2F900BF434800F0F3F961
:102620000028FAD10121404800F0F7F905B000BDBB
:1026300000B58DB00121084600F0B5FF3B4800F021
:1026400081FB39484C3002903948039000200490B7
:102650000A200590002006908020079040000890F6
:102660008000099020200A9000020B9000200C901E
:1026700002A92E4800F008FC012202212B4800F09C
:102680003AFC0B208DF8040002208DF805008DF82F
:10269000060001208DF8070001A800F0C2F8012112
:1026A000224800F01CFC0DB000BD10B5214B0022EB
:1026B0000321022000F05AF810BD10B5FFF7F5FF16
:1026C000FFF7B6FFFFF76EFF0121174800F065F92D
:1026D0000121154800F0A1F910BD10B5002200201D
:1026E00014E0002107E0124B03EB410333F81030F4
:1026F0001A444B1CD9B20A29F5DB0A2392FBF3F3E7
:102700000D4C24F810300022431CD8B20128E8DB1D
:1027100010BD10B5022000F01BFC20B1FFF7DDFF5B
:10272000022000F028FC10BD0024014008000240F7
:10273000BC060020000801408404002010B54FF4BE
:10274000A06000F069F810BDF8B506460C461546C5
:102750008DF800608DF801408DF8025001208DF851
:102760000300684600F05DF8F8BD0000F8B50546C6
:102770000E4617461C462148844204D101210420FC
:1027800000F01EFF2EE01E48844204D101210820E3
:1027900000F016FF26E01B48844204D101211020DE
:1027A00000F00EFF1EE01848844204D101212020D1
:1027B00000F006FF16E01548844204D101214020B4
:1027C00000F0FEFE0EE01248844204D10121802078
:1027D00000F0F6FE06E00F48844203D10121801587
:1027E00000F0EEFEADF800508DF803708DF8026039
:1027F0006946204600F02EFCF8BD000000080140AC
:10280000000C01400010014000140140001801407C
:10281000001C01400020014031490143314A116050
:10282000704770B5002100230F22C4780CB32D4CE3
:10283000246804F4E064C4F5E064210AC1F10403EF
:10284000CA40447804FA03F1847814402143090112
:10285000254C0678A155047804F01F050124AC40EE
:1028600005786D114FF0E02606EB8505C5F80041AF
:1028700009E0047804F01F050124AC401B4D0678E4
:10288000761145F8264070BD194A0A400243154B9F
:102890001B1F1A60704739B1124A121D1268024399
:1028A000104B1B1D1A6006E00E4A121D126882436F
:1028B0000C4B1B1D1A607047042808D14FF0E02113
:1028C000096941F004014FF0E022116107E04FF087
:1028D000E021096921F004014FF0E0221161704705
:1028E0000000FA050CED00E000E400E080E100E00B
:1028F00080FFFF1F10B50446FA48844208D1012129
:10290000401500F077FE0021601500F073FE17E01F
:10291000F548844208D10121001500F06BFE00212A
:10292000201500F067FE0BE0F048844208D1012139
:10293000C80300F05FFE00214FF4004000F05AFE93
:1029400010BD30B50246002000235068E84C2040FE
:102950000D790C6844EA0524204350609068E54CEA
:102960002040D1E902542C434D7944EA45042043E8
:102970009060D06A20F470000C7C641EE4B22343A3
:1029800040EA0350D06230BD002101600171417105
:102990008160C16001210174704721B1826842F0F9
:1029A0000102826003E0826822F0010282607047C7
:1029B00021B1826842F48072826003E0826822F46E
:1029C00080728260704710B50023CBB21AB14468A0
:1029D0001C43446002E044689C43446010BD81682D
:1029E00041F0080181607047014600208A6812F0BA
:1029F000080F01D0012000E000207047816841F0FD
:102A0000040181607047014600208A6812F0040FBB
:102A100001D0012000E00020704721B1826842F41B
:102A2000A002826003E0826822F4A0028260704704
:102A3000014600208A6812F4800F01D0012000E0D6
:102A40000020704710B50A4600210023416821F498
:102A50006041531E41EA4331416010BD21B14268DB
:102A600042F40062426003E0426822F40062426085
:102A70007047F0B504460D4600200021092D11DDF8
:102A8000E068A5F10A0606EB4607072606FA07F1F5
:102A90008843A5F10A0606EB460603FA06F1084349
:102AA000E0600CE0206905EB4507072606FA07F110
:102AB000884305EB450603FA06F108432061072A1F
:102AC0000FDA606B561E06EB86071F2606FA07F123
:102AD0008843561E06EB860605FA06F10843606336
:102AE00022E00D2A0FDA206BD61F06EB86071F2681
:102AF00006FA07F18843D61F06EB860605FA06F1AB
:102B00000843206310E0E06AA2F10D0606EB860799
:102B10001F2606FA07F18843A2F10D0606EB86068A
:102B200005FA06F10843E062F0BD21B1826842F483
:102B30008012826003E0826822F480128260704713
:102B40000146C86C80B2704766484C3000687047D8
:102B500021B1426842F48062426003E0426822F49C
:102B600080624260704721B1426842F48052426004
:102B700003E0426822F48052426070470A46002116
:102B8000816821F4E04111438160704721B182687E
:102B900042F40042826003E0826822F400428260D4
:102BA000704721B1826842F40212826003E08268B9
:102BB00022F4021282607047014600208A6812F4F3
:102BC000001F01D0012000E000207047F0B504464E
:102BD0001546002000220026092911DDE068A1F138
:102BE0000A0707EB470C072707FA0CF29043A1F1FD
:102BF0000A0707EB470703FA07F21043E0600CE00F
:102C0000206901EB410C072707FA0CF2904301EB16
:102C1000410703FA07F210432061A06BC0F301568D
:102C2000EF1C06F1010CA7EB0C0707EB870C1F2725
:102C300007FA0CF29043EF1C06F1010CA7EB0C070E
:102C400007EB870701FA07F21043A063F0BD10B548
:102C50000A4600210023816B21F44011531E41EAF2
:102C60000351816310BD08B5002300930090009BC1
:102C70000B440093009B1A6008BD08B50246002073
:102C80000090009201F12800009B184400900098E9
:102C9000006880B208BD0A4600214168164B194001
:102CA0001143416070474162826270470A460021C9
:102CB000416821F01F0111434160704740B109494B
:102CC0000831096841F40001064A0832116007E042
:102CD00004490831096821F40001024A08321160F0
:102CE000704700000024014000280140003C0140E2
:102CF000FFFEF0FFFDF7F1FFFFFD3FFF0246002062
:102D000013680B4201D0012000E000207047CA4345
:102D10000260704770B502460020002300240B12A9
:102D20005568CEB205EA060415681D4202D00CB102
:102D3000012000E0002070BD00220A12D34303608E
:102D40007047000001684FF6FE72114001600021DB
:102D5000016041608160C1608C49884208D18B4923
:102D60000839496841F00F01884A083A51608AE001
:102D700086491431884208D184490839496841F0AC
:102D8000F001824A083A51607DE08049283188424A
:102D900008D17E490839496841F470617B4A083A94
:102DA000516070E079493C31884208D1774908394F
:102DB000496841F47041754A083A516063E07349CB
:102DC0005031884208D171490839496841F470216D
:102DD0006E4A083A516056E06C496431884208D125
:102DE0006A490839496841F47001684A083A5160F3
:102DF00049E066497831884208D164490839496810
:102E000041F07061614A083A51603CE06049884293
:102E100006D1011F096841F00F01021F116032E065
:102E20005B491431884208D15949091F096841F0AA
:102E3000F001574A121F116025E055492831884298
:102E400008D15349091F096841F47061504A121FA3
:102E5000116018E04E493C31884208D14C49091FA5
:102E6000096841F470414A4A121F11600BE0484959
:102E70005031884207D14649091F096841F4702141
:102E8000434A121F1160704710B50022026847F6CE
:102E9000F0739A430C6A8B6823430C6923434C6993
:102EA00023438C692343CC6923434C6A23438C6AB4
:102EB00023431A430260CB6843600B6883604B680E
:102EC000C36010BD0021016041608160C16001618B
:102ED00041618161C161016241628162704721B1DA
:102EE000026842F00102026004E002684FF6FE73DD
:102EF0001A40026070471AB103680B43036002E096
:102F000003688B430360704741607047014648681F
:102F100080B2704701460020002211F0805F03D08C
:102F20001B4B083B1A6802E0184B083B1A680A4220
:102F300001D0012000E00020704710F0805F03D036
:102F40001349091F086002E01049083948607047BA
:102F500001460020002211F0805F03D00C4B083B9B
:102F60001A6802E0094B083B1A680A4201D00120A6
:102F700000E00020704710F0805F03D00449091F73
:102F8000086002E0014908394860704708000240C3
:102F90000804024010B50446CA48844208D1012101
:102FA000042000F027FB0021042000F023FB46E072
:102FB000C548844208D10121082000F01BFB0021F4
:102FC000082000F017FB3AE0C048844208D10121F4
:102FD000102000F00FFB0021102000F00BFB2EE072
:102FE000BB48844208D10121202000F003FB0021CE
:102FF000202000F0FFFA22E0B648844208D10121E7
:10300000402000F0F7FA0021402000F0F3FA16E02B
:10301000B148844208D10121802000F0EBFA002160
:10302000802000F0E7FA0AE0AC48844207D1012191
:10303000801500F0DFFA0021A01500F0DBFA10BDCA
:1030400010B50121084600F0D5FA0021012000F05A
:10305000D1FA10BD2DE9F0410246002500260020DE
:1030600000230024002791F803C00CF00F0591F80D
:1030700003C01CF0100F03D091F802C04CEA050504
:1030800091F800C0BCF1000F31D0146800202BE093
:103090004FF0010C0CFA00F3B1F800C00CEA030683
:1030A0009E4220D183004FF00F0C0CFA03F7BC4373
:1030B00005FA03FC4CEA040491F803C0BCF1280FA4
:1030C00006D14FF0010C0CFA00FCC2F814C00AE063
:1030D00091F803C0BCF1480F05D14FF0010C0CFA78
:1030E00000FCC2F810C0401C0828D1D31460B1F80D
:1030F00000C0BCF1FF0F34DD546800202EE000F169
:10310000080C4FF0010808FA0CF3B1F800C00CEA03
:1031100003069E4221D183004FF00F0C0CFA03F7F7
:10312000BC4305FA03FC4CEA040491F803C0BCF16B
:10313000280F05D100F1080C08FA0CF8C2F8148029
:1031400091F803C0BCF1480F07D100F1080C4FF013
:10315000010808FA0CF8C2F81080401C0828CED3E9
:103160005460BDE8F0814FF6FF710180022181704B
:103170000421C17070470246002093680B4201D0C1
:10318000012000E0002070470146886880B2704747
:1031900002460020D3680B4201D0012000E000204D
:1031A00070470146C86880B270470161704741614D
:1031B00070470AB1016100E041617047C16070472A
:1031C0004FF480320A43826181618261826982693F
:1031D000704702460020424B18684FF68073184033
:1031E00040EA021008433E4B186070473D49C861F1
:1031F0007047F0B50A46002300240021002500F0A6
:103200000046B6F1004F02D1354EF16901E0344E6F
:103210007168C0F3034583B200F44016B6F5401F51
:1032200008D121F070612E4E766826F070662C4F22
:103230007E6012E000F48016B6F5801F06D10326EA
:1032400006FA05F4A14341F0706106E0460D36012F
:1032500003FA06F6B14341F0706122B1460D360122
:1032600003FA06F6314300F00046B6F1004F02D1F2
:103270001B4EF16101E01A4E7160F0BD30B50022C5
:103280008B071C0F0F2303FA04F2154B08338C1025
:1032900053F824309343124C08348D1044F82530F1
:1032A00023468C1053F824308C07240F00FA04F4C2
:1032B00023430B4C08348D1044F8253030BD0A49A7
:1032C0000860704700080140000C014000100140F8
:1032D0000014014000180140001C01400020014082
:1032E0000000014000002042DC002042DD48006870
:1032F00040F00100DB49086008464068DA490840B0
:10330000D849486008460068D8490840D54908604F
:103310000846006820F4802008600846406820F4D1
:10332000FE0048604FF41F0088607047CD4909686F
:1033300021F48031CB4A11601146096821F48021C3
:103340001160B0F5803F03D0B0F5802F0ED106E0BC
:10335000C449096841F48031C24A116007E0C1499B
:10336000096841F4A021BF4A116000E000BF00BF1E
:10337000704710B501460022002300204A11012A9F
:1033800002D1B84C236806E0022A02D1B54C236A68
:1033900001E0B44C636A01F01F02012494401C4216
:1033A00001D0012000E0002010BD38B500200090C1
:1033B0000024002500BF3120FFF7DBFF0546009801
:1033C000401C00900098B0F5A06F01D0002DF2D005
:1033D0003120FFF7CEFF08B1012400E00024204691
:1033E00038BD014600209F4A106820F0F80040EAEE
:1033F000C100106070479E49086070470246002077
:10340000984B586820F47C1042EA01031843954B0E
:103410005860704796490866704701460020914AF7
:10342000506820F003000843506070478D484068A2
:1034300000F00C007047014600208A4A506820F0D6
:10344000F00008435060704701460020854A5068EC
:1034500020F4E06008435060704701460020814A34
:10346000506820F4605040EAC1005060704729B1B4
:103470007C4A527A02437B4B5A7204E0794A527A70
:103480008243784B5A7270477A4908607047014608
:103490000020744A506820F4404008435060704750
:1034A0000021754A11706F4A82F82010012802D05D
:1034B000042808D103E001216F4A117004E00521BE
:1034C0006D4A117000E000BF00BF70476B49086093
:1034D00070476449096A0143624A1162704767494B
:1034E00044390860704730B50021002200240023D1
:1034F0005C4D6D6805F00C0121B1042905D0082947
:1035000023D105E05E4D056022E05D4D05601FE0C2
:10351000544D6D6805F47012524D6D6805F4803499
:10352000022505EB92421CB9564D554305600BE050
:103530004C4D6D6815F4003F03D0524D5543056066
:1035400002E04F4D5543056002E04D4D056000BF60
:1035500000BF444D6D6805F0F00109094A4D6B5CF0
:103560000568DD4045603F4D6D6805F4E061090A7E
:10357000454D6B5C4568DD4085603A4D6D6805F4EE
:103580006051C90A404D6B5C4568DD40C560354DF2
:103590006D6805F44041890B3C4D6B5CC568B5FB1B
:1035A000F3F5056130BD29B12E4A526902432D4B16
:1035B0005A6104E02B4A526982432A4B5A61704790
:1035C00029B1284A92690243264B9A6104E0254AB0
:1035D00092698243234B9A61704729B1214AD2698B
:1035E0000243204BDA6104E01E4AD26982431D4B3C
:1035F000DA61704729B11B4AD2680243194BDA607D
:1036000004E0184AD2688243164BDA60704729B149
:10361000144A12690243134B1A6104E0114A1269F9
:103620008243104B1A617047144940390860704753
:103630000F49C86470470B49C87170470948406A10
:1036400040F0807007494862704701460020054AF3
:1036500092680A4201D0012000E000207047014931
:1036600088727047001002400000FFF8FFFFF6FE6E
:1036700000004242D80042422010024080044242F0
:1036800000127A0000093D00860400209604002004
:1036900010B50446FE48844208D10121C014FFF74A
:1036A000A9FF0021E014FFF7A5FFC4E0B4F1804FAB
:1036B00008D101210846FFF7AAFF00210120FFF7EA
:1036C000A6FFB8E0F348844208D101210220FFF7A9
:1036D0009EFF00210220FFF79AFFACE0EE488442F3
:1036E00008D101210420FFF792FF00210420FFF7F9
:1036F0008EFFA0E0E948844208D101210820FFF7AD
:1037000086FF00210820FFF782FF94E0E44884420E
:1037100008D101211020FFF77AFF00211020FFF7C8
:1037200076FF88E0DF48844208D101212020FFF79E
:103730006EFF00212020FFF76AFF7CE0DA48844218
:1037400008D101214014FFF755FF00216014FFF755
:1037500051FF70E0D548844209D10121C804FFF728
:1037600049FF00214FF40020FFF744FF63E0D048F9
:10377000844209D101210805FFF73CFF00214FF4E5
:103780008010FFF737FF56E0CA48844209D1012173
:103790004805FFF72FFF00214FF40010FFF72AFF25
:1037A00049E0C548844208D101214020FFF72FFF9E
:1037B00000214020FFF72BFF3DE0C048844208D1A4
:1037C00001218020FFF723FF00218020FFF71FFF4A
:1037D00031E0BB48844208D101218015FFF717FF73
:1037E0000021A015FFF713FF25E0B648844209D158
:1037F00001210804FFF7FEFE00214FF48030FFF79F
:10380000F9FE18E0B048844209D101214804FFF7CD
:10381000F1FE00214FF40030FFF7ECFE0BE0AB4867
:10382000844208D101218804FFF7E4FE00214FF40F
:103830008020FFF7DFFE10BD00220288944B9842E3
:103840000ED0994B98420BD0B0F1804F08D0914BDD
:10385000984205D0904B984202D0904B984204D1A8
:103860004FF68F731A404B881A438D4B984207D0FE
:103870008C4B984204D04FF6FF431A40CB881A4332
:1038800002808B8883850B880385814B98420BD0FF
:10389000854B984208D08B4B984205D08A4B984272
:1038A00002D08A4B984201D10B7A0386012383828E
:1038B000704770B5002400220023058C4FF6FE7679
:1038C00035400584028C8388048B4FF68F752C401D
:1038D000B51E2C400D882C43751E2A400D892A43A5
:1038E0004D882A436A4DA8420BD06F4DA84208D09C
:1038F000744DA84205D0744DA84202D0734DA84221
:1039000013D14FF6F7752A404D892A434FF6FB75C0
:103910002A408D882A434FF6FF652B404FF6FF550E
:103920002B408D892B43CD892B4383800483CD8805
:103930008586028470BD70B5002400220023058CAA
:103940004FF6EF7635400584028C8388048B48F669
:10395000FF752C404FF6FF452C400D884FF6FF7643
:1039600006EA05252C434FF6DF752A400D8906EA45
:1039700005152A434D8806EA05152A43444DA842F9
:1039800002D0494DA8421DD14FF67F752A404D897E
:103990004FF6FF7606EA05152A434FF6BF752A4013
:1039A0008D8806EA05152A434FF6FF352B404FF266
:1039B000FF752B408D8906EA85052B43CD8906EAE4
:1039C00085052B4383800483CD880587028470BDE1
:1039D00070B5002400220023058C4FF6FF663540A9
:1039E0000584028C8388848B4FF68F752C404FF6AC
:1039F000FC752C400D882C434FF6FF552A400D894D
:103A00004FF6FF7606EA05252A434D8806EA052586
:103A10002A431F4DA84202D0234DA8421DD14FF288
:103A2000FF752A404D894FF6FF7606EA05252A43A1
:103A30004FF6FF352A408D8806EA05252A434EF6C3
:103A4000FF752B404DF6FF752B408D8906EA051555
:103A50002B43CD8906EA05152B4383808483CD88CB
:103A60008587028470BD70B5002200230024058C78
:103A70004EF6FF7635400584038C8488828B48F6A9
:103A8000FF752A404FF6FF452A400D8820E00000D0
:103A9000002C01400004004000080040000C0040E1
:103AA000001000400014004000340140004C014070
:103AB000005001400054014000180040001C00402C
:103AC0000020004000400140004401400048014007
:103AD0004FF6FF7606EA05252A434DF6FF752B4083
:103AE0000D8906EA05352B434D8806EA05352B433B
:103AF000FA4DA84202D0FA4DA84208D14BF6FF7504
:103B00002C408D894FF6FF7606EA85152C4384807C
:103B10008283CD88A0F84050038470BD828B4FF221
:103B2000FF331A408283828B4FF6FF7303EA01232F
:103B30001A4382837047F0B50C46154600220021D7
:103B40000026078C4EF6FF7C07EA0C070784828B61
:103B5000018C4FF6FF7707EA043640F6FF473A40FC
:103B60004FF6FF7707EA05273A434FF6FF7707EA54
:103B700003373A43D94FB8420ED0D94FB8420BD091
:103B8000B0F1804F08D0D74FB84205D0D64FB842D9
:103B900002D0D64FB84206D14DF6FF77394046F4F1
:103BA0008057394305E047F6FF57394044F48057C2
:103BB000394382830184F0BD828B4FF6F3731A4040
:103BC0008283828B0A4382837047F0B50C46154688
:103BD000002200210026078C4FF6FF6C07EA0C0735
:103BE0000784828B018C4FF6FF7707EA04264FF695
:103BF0000C773A404FF6FF7707EA03172F433A4313
:103C0000B64FB8420ED0B64FB8420BD0B0F1804F8D
:103C100008D0B44FB84205D0B34FB84202D0B34F2A
:103C2000B84206D14FF6FF57394046F48077394302
:103C300005E04FF2FF57394044F4807739438283DF
:103C40000184F0BD028B4FF2FF331A400283028BD6
:103C50004FF6FF7303EA01231A4302837047F0B55E
:103C60000C461546002200210026078C4FF6EF7CFB
:103C700007EA0C070784028B018C4FF6FF7707EAEF
:103C8000041640F6FF473A404FF6FF7707EA03373E
:103C90003A434FF6FF7707EA05273A438F4FB8427A
:103CA0000ED08F4FB8420BD0B0F1804F08D08D4F5F
:103CB000B84205D08C4FB84202D08C4FB84206D1E2
:103CC0004FF6DF77394046F01007394305E04FF6ED
:103CD0005F77394044F01007394302830184F0BD17
:103CE000028B4FF6F3731A400283028B0A4302835E
:103CF0007047F0B50C46154600220021068C4FF6A1
:103D0000FE773E400684028B018C4FF60C763240E3
:103D10007E1C06EA03162E433243704EB0420ED08C
:103D20006F4EB0420BD0B0F1804F08D06D4EB04214
:103D300005D06D4EB04202D06C4EB04206D14FF667
:103D4000FD76314044F00106314305E04FF6F5764B
:103D5000314044F00106314302830184F0BD70B567
:103D600005460C465D4885420ED05D4885420BD025
:103D7000B5F1804F08D05B48854205D05A4885424E
:103D800002D05A48854200D100E000BF208850B9D7
:103D90002389A28861882846FFF7ABFFE18828467F
:103DA000FFF79EFF25E0208804280AD12389A288F6
:103DB00061882846FFF753FFE1882846FFF742FF56
:103DC00017E0208808280AD12389A288618828461C
:103DD000FFF7FBFEE1882846FFF7EEFE09E02389A6
:103DE000A28861882846FFF7A6FEE1882846FFF7EB
:103DF00095FE70BD2DE9F04105460C4600260127D1
:103E0000608808B9022600E00026A088012801D1B8
:103E1000022700E001272088A0B92389A2886188B1
:103E20002846FFF766FFE1882846FFF759FF2389F8
:103E30003A4631462846FFF712FFE1882846FFF749
:103E400001FF13E02389A28861882846FFF707FF56
:103E5000E1882846FFF7F6FE23893A463146284690
:103E6000FFF747FFE1882846FFF73AFFBDE8F081FA
:103E70000A884B881A438B881A43CB881A430B89CC
:103E80001A434B891A438B891A43A0F84420704780
:103E90004FF6FF71818000210180C1804180017255
:103EA00070470021018041808180C1800181418172
:103EB0008181C18170470021018041800121818081
:103EC0000021C180018170470021018041808180F3
:103ED000C18001814181818170470000002C014037
:103EE000003401400004004000080040000C004085
:103EF00021B1028842F00102028004E002884FF6FC
:103F0000FE731A400280704731B1B0F8442042F489
:103F10000042A0F8442005E0B0F84420C2F30E02AD
:103F2000A0F8442070471AB183890B43838102E0D3
:103F300083898B43838170478182704741EA020302
:103F4000A0F8483070471AB183890B43838102E09F
:103F500083898B438381704701894FF6F872114042
:103F6000018170470A46002101894FF68F7319407D
:103F700011430181704730B504460D46294620465D
:103F8000FFF7F0FF208940F00700208130BD2DE9C8
:103F9000F04104460D4616461F46602D06D13B46AD
:103FA000012231462046FFF75AFE05E03B4601223A
:103FB00031462046FFF79DFE29462046FFF7D2FFF7
:103FC000208940F007002081BDE8F08130B50C4623
:103FD00000210189C9B24FF6FF7505EA0325154393
:103FE00025432943018130BD2DE9F04105460E46A8
:103FF00017469846002443463A4631462846FFF77E
:10400000E5FF2C894FF6F870044044F007044FF6A2
:104010008F70044044F070042C81BDE8F081F0B54D
:1040200004460D4616461F463B4632462946204664
:10403000FFF7CCFF208940F480402081F0BD01854E
:10404000828270470A46002101884FF68F7319401B
:10405000114301807047F0B50C4615461E460021FD
:10406000002200230189028B038C4FF6F877394038
:1040700021434FF6FC473A4040F201173A434FF6CE
:10408000DD773B404FF6FF7707EA06172F433B43A8
:10409000018102830384F0BD0A460021018B4FF6A3
:1040A0008F7319401143018370470A460021018B29
:1040B00048F6FF7319404FF6FF7303EA02231943D2
:1040C000018370470A460021818B4FF68F73194098
:1040D0001143818370470A460021818B48F6FF73A4
:1040E00019404FF6FF7303EA022319438183704797
:1040F00021B1028842F08002028004E002884FF67B
:104100007F731A400280704721B1828842F0040216
:10411000828004E082884FF6FB731A4082807047E9
:1041200021B1828842F00802828004E082884FF642
:10413000F7731A408280704721B1828842F00102F1
:10414000828004E082884FF6FE731A4082807047B6
:104150000A460021018B4FF6F77319401143018382
:1041600070470A460021018B4FF2FF7319404FF64A
:10417000FF7303EA02231943018370470A460021B3
:10418000818B4FF6F77319401143818370470A46BC
:104190000021818B4FF2FF7319404FF6FF7303EA42
:1041A00002231943818370470A460021018B4FF691
:1041B000FB7319401143018370470A460021018BAC
:1041C0004FF6FF3319404FF6FF7303EA02231943FA
:1041D000018370470A460021818B4FF6FB7319401B
:1041E0001143818370470A460021818B4FF6FF33CC
:1041F00019404FF6FF7303EA022319438183704786
:104200000A460021018B4FF67F7319401143018349
:1042100070470A460021018BC1F30E014FF6FF7370
:1042200003EA02231943018370470A460021818B68
:104230004FF67F7319401143818370470A4600216E
:10424000818BC1F30E014FF6FF7303EA022319437A
:10425000818370470A460021018C4FF6FD73194097
:104260001143018470470A460021018C4FF6F77311
:1042700019401143018470470A460021018C4FF612
:10428000DF7319404FF6FF7303EA021319430184E9
:1042900070470A460021018C4FF67F7319404FF694
:1042A000FF7303EA02131943018470470A46002191
:1042B000018C4FF6FF5319404FF6FF7303EA0223B8
:1042C0001943018470470A460021018C4FF2FF73A5
:1042D00019404FF6FF7303EA022319430184704724
:1042E0000A460021018C4DF6FF7319404FF6FF730B
:1042F00003EA023319430184704730B500230124D7
:104300008C40A3B2048C9C430484048C02FA01F513
:10431000ADB22C43048430BD30B5002304248C405E
:10432000A3B2048C9C430484048C02FA01F5ADB260
:104330002C43048430BD70B5034600200024184689
:10434000183001258D40ACB21D8CA5431D8409B1E8
:10435000082909D100EB6100056825F070050560AA
:104360000568154305600EE00D1FC5F34E05284492
:10437000056825F4E045056005684FF6FF7606EA16
:1043800002263543056070BD21B1028842F0020269
:10439000028004E002884FF6FD731A4002807047E5
:1043A00021B1028842F00402028004E002884FF644
:1043B000FB731A400280704721B1828842F080026C
:1043C000828004E082884FF67F731A4082807047B3
:1043D00002884FF6F7731A40028002880A4302806F
:1043E000704782884FF68F731A40828082880A4312
:1043F0008280704702894FF6F8731A400281028961
:104400000A430281704702894FF67F731A40028186
:1044100002890A4302817047818470478185704711
:10442000818670470187704781877047A0F84010E8
:10443000704702884FF6FF431A40028002880A4301
:10444000028070470146888E70470146088F70478A
:104450000146888F70470146B1F840007047014619
:10446000888C70470146088D704702460020138AE9
:104470000B4201D0012000E000207047CA430282B5
:10448000704730B50246002000230024158A05EA53
:104490000103958905EA010413B10CB1012000E084
:1044A000002030BDCA4302827047000010B50446A8
:1044B000FB48844209D101218803FFF79BF80021C2
:1044C0004FF48040FFF796F832E0F648844209D175
:1044D00001214804FFF79BF800214FF40030FFF75B
:1044E00096F825E0F048844209D101218804FFF7BD
:1044F0008EF800214FF48020FFF789F818E0EB4890
:10450000844209D10121C804FFF781F800214FF44A
:104510000020FFF77CF80BE0E548844208D1012138
:104520000805FFF774F800214FF48010FFF76FF8CB
:1045300010BD2DE9F04786B005460E460024A24680
:1045400000BFA1460027B08900B100BF2F462C8ACA
:104550004CF6FF700440F08804432C82AC894EF680
:10456000F3100440B088318908437189084304433B
:10457000AC81AC8A4FF6FF400440B0890443AC8262
:1045800001A8FEF7B0FFC648874202D1DDF810A0AF
:1045900001E0DDF80CA0A88910F4004F08D00AEB68
:1045A000CA0000EB0A1031684900B0FBF1F807E0DF
:1045B0000AEBCA0000EB0A1031688900B0FBF1F881
:1045C0006420B8FBF0F004012009642101FB10898C
:1045D000A88910F4004F08D0322000EBC900B0FBCE
:1045E000F1F000F00700044308E0322000EB09106E
:1045F0006421B0FBF1F000F00F0004432C8106B001
:10460000BDE8F0874FF41651016000218180C18020
:1046100001810C21418100218181704710B5024642
:104620000020108A4FF2FF0318400B884C88234368
:104630008C882343CC8823431843108210BD00216B
:10464000018041808180C180704721B1828942F41C
:104650000052828104E082894DF6FF731A40828104
:104660007047F0B503460024002600250020A1F580
:1046700010676A3F00D100BF1846C1F3421401F031
:104680001F06012707FA06F5012C01D10C3004E0C2
:10469000022C01D1103000E014301AB107682F430A
:1046A000076002E00768AF430760F0BD1AB1838A74
:1046B0000B43838202E0838A8B4383827047028AA2
:1046C0004FF6F0731A400282028A0A430282704750
:1046D00082894FF2FF731A40828182890A43828164
:1046E000704721B1828942F00202828104E082890E
:1046F0004FF6FD731A4082817047028A4FF6DF73CE
:104700001A400282028A0A430282704721B1028A59
:1047100042F48042028204E0028A4BF6FF731A40A0
:1047200002827047C1F30802828070470146888880
:10473000C0F308007047818941F001018181704711
:10474000028BD2B20283028B42EA012202837047BB
:10475000028B02F47F420283028B0A43028370477A
:1047600021B1828A42F02002828204E0828A4FF6DE
:10477000DF731A408282704721B1828A42F01002B0
:10478000828204E0828A4FF6EF731A408282704779
:1047900021B1828A42F00802828204E0828A4FF6C6
:1047A000F7731A408282704721B1828942F4004235
:1047B000828103E08289C2F30E028281704721B1B7
:1047C000828A42F40062828204E0828A4FF2FF739E
:1047D0001A4082827047828A4FF6FB731A408282A7
:1047E000828A0A438282704721B1828A42F00202A1
:1047F000828204E0828A4FF6FD731A4082827047FB
:1048000002460020B1F5007F00D100BF13880B42A3
:1048100001D0012000E00020704701F40072B2F5E1
:10482000007F00D100BFCA430280704770B50246C6
:104830000024002300250020A1F510666A3E00D167
:1048400000BFC1F3421501F01F03012606FA03F36E
:10485000012D02D19689334006E0022D02D1168A3D
:10486000334001E0968A33400C12012606FA04F424
:104870001688344013B10CB1012000E0002070BD57
:1048800010B500220023A1F510646A3C00D100BFDE
:104890000A1201249440A3B2DC43048010BD00003E
:1048A000003801400044004000480040004C0040F7
:1048B0000050004010B501210807FEF7A8FE0021B6
:1048C0004FF08050FEF7A3FE10BD294908627047E3
:1048D00027490861704701460020264A106820F0E9
:1048E000E00008431060704723490860704710B526
:1048F000024600201F4B186820F003001043186088
:104900001E4B1B6843F004031C4C2360012901D19A
:1049100030BF00E020BF194B1B6823F00403174C85
:10492000236010BD1348006840F00400114908607E
:104930000846006840F0020008601048006840F037
:1049400004000E49086000BF00BF30BF7047014639
:104950000020084A52680A4201D0012000E00020ED
:1049600070470449096841EA8001024A11607047B2
:1049700000000E4200700040A0000E4210ED00E06A
:10498000002044490860091D0860091D0860091DD0
:10499000086041483F4914310860704700213D4993
:1049A0008279002A3AD00A46126803689A430B4675
:1049B0001A600A1D126803689A430B1D1A60027977
:1049C00011440A6803681A430A60324A08321268BE
:1049D00003689A432F4B08331A601A1D1268036844
:1049E0009A432C4B0C331A604279102A0ED11A1FAD
:1049F000126803681A43274B08331A601A1D12689D
:104A000003681A43234B0C331A600DE021494279A5
:104A100011440A6803681A430A6005E002791144E8
:104A20000A6803689A430A607047002101600171B7
:104A30000C214171002181717047164910310968BC
:104A40000143144A10321160704701460020114A98
:104A5000143212680A4201D0012000E000207047A1
:104A60000C49143108607047014600200022094BB0
:104A70001B6803EA0102074B14331B680B4202D088
:104A80000AB1012000E0002070470249143108609B
:104A90007047000000040140FFFF0F0029B14F4A9A
:104AA000128802434D4B1A8004E04C4A128882431C
:104AB0004A4B1A8070474948001D008840F010009A
:104AC0004649091D088070474448001D00884FF67C
:104AD000EF7108404149091D0880704700213F4897
:104AE0001C300188001F008841EA0040704700B573
:104AF0000246FFF7E0FF100C384918310880091D05
:104B00000A80FFF7E1FF00BD00B50246FFF7D3FFC3
:104B1000C2F30340314908310880091D0A80FFF7BC
:104B2000D3FF00BD00B50246FFF7C5FF100C2B49AF
:104B300020310880091D0A80FFF7C6FF00BD002054
:104B40002649103109880907080B244914310988BE
:104B50000843704700BF2148001D008810F0200F57
:104B6000F9D070471D48001D00884FF6F7710840C6
:104B70001A49091D088000BF1848001D008810F060
:104B8000080FF9D0704701460020144A121D128800
:104B90000A4201D0012000E0002070470F49091DA2
:104BA000098881430D4A121D11807047014600207B
:104BB0000A4A121D12880A40D0B2084A12880A42D4
:104BC00002D008B1012000E0002070470349091D10
:104BD00009888143014A121D118070470028004056
:104BE0000CB50020019000906B48006840F48030C4
:104BF0006949086000BF6848006800F40030009010
:104C00000198401C0190009818B90198B0F5A06F68
:104C1000F1D16148006810F4003F02D001200090FB
:104C200001E0002000900098012842D15B48006814
:104C300040F01000594908600846006820F0030061
:104C400008600846006840F002000860524840686A
:104C5000514948600846406848600846406840F44A
:104C6000806048600846406820F47C104860084630
:104C7000406840F4E81048600846006840F08070E2
:104C8000086000BF4448006810F0007FFAD0424836
:104C9000406820F00300404948600846406840F002
:104CA0000200486000BF3C48406800F00C00082843
:104CB000F9D10CBD10B5FFF793FF10BD10B5364804
:104CC000006840F0010034490860084640683449F3
:104CD00008403149486008460068324908402E497A
:104CE00008600846006820F4802008600846406894
:104CF00020F4FE0048604FF41F008860FFF7DAFFE1
:104D00004FF000602849086010BD10B50021002058
:104D10000022214B5B6803F00C0121B1042906D06D
:104D2000082928D107E0214B214C236027E01F4BA5
:104D30001F4C236023E0184B5B6803F47010164B84
:104D40005B6803F48032022303EB904022B9194BD5
:104D50004343174C23600DE00F4B5B6813F4003F97
:104D600004D0144B4343124C236003E00F4B4343E6
:104D70000F4C236003E00D4B0D4C236000BF00BFC0
:104D8000054B5B68C3F303130B4CE15C084B1B68DA
:104D9000CB40074C236010BD0010024000200240B1
:104DA0000000FFF8FFFFF6FE08ED00E000127A00B9
:104DB0009C04002000093D00A00400200648804714
:104DC00006480047FEE7FEE7FEE7FEE7FEE7FEE7F0
:104DD000FEE7FEE7FEE7FEE7BD4C0008ED00000839
:104DE000D2B201E000F8012B491EFBD2704700222D
:104DF000F6E710B513460A4604461946FFF7F0FFDA
:104E0000204610BD70B5054C054D03E020682044D8
:104E10008047241DAC42F9D170BD0000EC50000861
:104E2000F050000800F014B800487047B0040020AB
:104E30000920704709207047704770470920704764
:104E4000024801464860001D70470000B40400207D
:104E500010B500F020F8016919B1002202618847FD
:104E600001E080688047AFF300800000064C074DEA
:104E700006E0E06840F0010394E80700984710342A
:104E8000AC42F6D3FBF736F9CC500008EC500008E2
:104E900010B5AFF3008070B5FFF7D2FF0468054688
:104EA000A4B9202000F0C4F8040011D00949002062
:104EB0002C60C4E900010849A16020732061606191
:104EC0000649A06109B100F00BF8E061204670BD11
:104ED000AFF3008000000000914E000800000000C9
:104EE00010B5882000F0A4F8002801D0002101703E
:104EF00010BD802902D808B1017809B1002070479F
:104F0000012100F8081B704718B100F10802914216
:104F100001D00020704700210170704770B501EB8F
:104F2000020410F8015B15F0070301D110F8013BF2
:104F30002A1106D110F8012B03E010F8016B01F8DB
:104F4000016B5B1EF9D12B0705D40023521E0FD431
:104F500001F8013BFAE710F8013B02F10202A1EB74
:104F6000030303E013F8015B01F8015B521EF9D55E
:104F7000A142D6D3002070BD0170436082607047AB
:104F800010B500F001F810BD10B500F029F810BD03
:104F900010B500F001F810BD10B5040007D10124D0
:104FA00005E0FFF741FF006800B90448804720464C
:104FB00000F03EF80028F4D010BD0000254E000897
:104FC00002E008C8121F08C1002AFAD170477047D2
:104FD000002001E001C1121F002AFBD17047000030
:104FE00010B5002821D0114B001F0022196803E0E2
:104FF000814203D80A4649680029F9D152B11368A1
:10500000841A9C4204D1006818441060104602E0E3
:10501000506000E0186039B102680B1A934203D166
:105020000B681A4402604968416010BDBC0400204E
:10503000F0B50B30154D20F007010024144A0FE0A5
:1050400003688B420BD38B4205D95E1A431847681D
:10505000C3E9006700E04368136002C004E0021D7A
:1050600010680028ECD12046002802D1286808B139
:105070000020F0BD064A07481060074A121A22F0C5
:105080000702C0E9002401202860D7E7C0040020FF
:10509000BC040020D4060020D0160020C042505E80
:1050A0006C7A8896A4B2DC42505E6C7A8896A4B280
:1050B000DC00208101FFE000000000000000000093
:1050C00000000000B1110008D9110008F0500008DC
:1050D00000000020C40400001C4F00080C5200080F
:1050E000C40400200C180000D04F000889D0FFFF36
:1050F000D116060AFE0AC612E012F062F84EFE7DD4
:10510000BBC7EF01053EC7BB7DFE300D080CFEFEA0
:105110000C082060FEFE60208F7848FE82BABA0339
:1051200009135EAA0101017E6CFEFF0301CBFFFFA4
:105130000F39BBECC0C0C0271918F92701392975F0
:10514000990B6CFFFF0C01491A0C22E1E1E12701E8
:10515000396C0F1F1801FB1F0F0F092E2701361680
:105160008C4222120C26FC020202FC3304FE1620A2
:105170005844FE402A10015912491E4912A92A0119
:1051800023300A24A42E24E4242EA424C00AF84A9E
:105190004C48F8484C4AF82A01013907490D59157D
:1051A000991F9918091412712BC020A1AB20C00AB5
:1051B00011300A120A07027F02070A121E0B0A0A9E
:1051C0000A7F0402560B980A1F2040404050205F7F
:1051D000800A8F7848FE82BABA032AFE111901F9B3
:1051E00011791499114914C911190172FE0214019F
:1051F000C2FF2D0102030404300906070809020456
:0C5200000608ACA24A041E291A01140082
:04000005080000ED02
:00000001FF
